:020000040800F2
:1000000068390020D5000008A9350008253300080C
:1000100000000000000000000000000000000000E0
:10002000000000000000000000000000273C000865
:100030000000000000000000C5390008FD52000863
:10004000E7000008E7000008273A0008E70000087A
:10005000E70000084D0A00085D0A00086D0A000864
:10006000E7000008E7000008E7000008190A000898
:10007000E7000008E7000008E7000008E7000008C4
:10008000E7000008E7000008E700000800000000A3
:10009000E7000008E7000008E7000008E7000008A4
:1000A000E7000008E7000008E7000008E700000894
:1000B000A75B0008E7000008000000003D6F000893
:1000C0000348854600F094FB00480047F17E000895
:1000D000683900200448804704480047FEE7FEE7EF
:1000E000FEE7FEE7FEE7FEE795530008C1000008C3
:1000F00030B50B46014600202022012409E00D46C0
:10010000D5409D4205D31D469540491B2546954047
:1001100040191546521E002DF1DC30BDF0B51FB45C
:100120000646002082B005464024019100901BE065
:10013000019922460F46304600F064FA049A059B66
:10014000801A994110D310461946224600F04AFA07
:10015000361A8F410197224601200021009F00F0AE
:1001600041FA38184D4100902046641E0028DFDC1B
:10017000019B00982946324607B0F0BD03460B4369
:100180009B0703D009E008C9121F08C0042AFAD24D
:1001900003E00B780370401C491C521EF9D27047D3
:1001A000D2B201E00270401C491EFBD2704700220F
:1001B000F6E710B513460A4604461946FFF7F0FF66
:1001C000204610BDF0B507460846584087B0C00F1E
:1001D000049048000E46590040084908BC1A88415E
:1001E00005D2384631461E4617460B460246580091
:1001F000400810434CD0300D039040055900400D8D
:10020000490D0590401A0290402872DA1803012126
:10021000000B09050843019004980092002805D0BE
:100220000199524200208841009201900298402199
:100230000A1A0199009800F0D5F905460C466B465C
:1002400007CB00F0F0F9C0197141039A0E0D00239D
:10025000D71756401A467A40164344D0049A002ACB
:100260002DD0029A012A039A15DC1205C01A914179
:1002700001263605001C7141D20F059ED20700935E
:10028000019202962A46234600F0EDF907B0F0BD30
:1002900038463146FAE71605224A0F46B218C01A08
:1002A000B74101210905001C4F4100187F4111464B
:1002B00018187941E20F10436D19644113E0E20709
:1002C0006D0815436408C2071443039A01261205FA
:1002D000C01A91413605001C7141CE0740083043D9
:1002E0004908C01851412A46234600F0AFF9CDE72E
:1002F000FFE7049801224000C117121A00238B4126
:1003000004983146C417381AA141EEE730B40124ED
:10031000E407634030BC55E730B40124E407614092
:1003200030BC4FE70000E0FFF0B51FB488B00B9978
:100330000998002448400999C00F490049080991CB
:10034000C0070B990090490049080B91099908983A
:10035000A64608431CD00B990A98084318D0099860
:1003600001244000420D4800410D09982405000376
:10037000000B204309900B980003000B20430B90C7
:1003800050181C494018002201901446104605E000
:10039000002001460DB0F0BD032801DA034600E05D
:1003A00003239C46C11A0AAE0AE05F0008ADED5B6C
:1003B0004F00F75B7D430027AA187C41491C5B1E58
:1003C0006145F2DD410004AB5A522104120C0A438C
:1003D000240C401C0828DFDB01980290009970462D
:1003E00001910090059B049A0799069800F03BF94B
:1003F000D0E700000DFCFFFFF0B50C465C4085B077
:10040000E40FE40703944C00002664085900944666
:10041000490802460296224321D062460A431ED072
:100420006200570D4A000E032303550D01240246B6
:100430002C492405781B1B0B360B401823432643FD
:10044000614600901C46501AB44103D30098401CEA
:10045000009002E0921800985B41002803DA002027
:10046000014605B0F0BD002001210905074686467A
:1004700011E064461D46141BB54106D36546521B68
:10048000B341744607430C43A646CD0740084908CC
:10049000284392185B4105460D43EAD110461843A4
:1004A00013D06046194650407140084306D060465C
:1004B000101AB34106D20122002306E000220123D4
:1004C000DB0702E00122D243531000987446010575
:1004D000381C6141029C039D0019694100F0B6F887
:1004E000BFE70000FD03000070B54B005B0803434D
:1004F0000BD04B005C0D002633466542B341D41748
:10050000AD1AA34102DB0020014670BD1205301870
:10051000514170BD0EB5C217C10F5040CA074018F7
:100520000021054B0293019200910A460B4600F010
:100530009AF803B000BD0000330400000EB5054971
:100540000291002100910A460B46019100F08BF8C0
:1005500003B000BD330400004A0009030123090B66
:100560001B051943094B10B5520D9A4201DA0020C0
:1005700010BD064B34339A4203DC9A1A00F042F85D
:1005800010BD03495118884010BD0000FF03000052
:10059000CDFBFFFFC20FD207400040080BD0C10DBA
:1005A0000723DB01C91840020905400A1143C208AC
:1005B00040071143704700200146704710B50029DD
:1005C00004DB0124E40740428C412146002B04DB7C
:1005D0001C460123DB075242A341994200D19042BD
:1005E00010BD000010B5202A04DB0146203A9140DE
:1005F000002010BD914020239C1A0346E34019437C
:10060000904010BD10B5202A04DB0846203AD040A7
:10061000002110BD0B46D340D0402024A21A9140A7
:100620000843194610BD10B5202A06DBCB17084633
:10063000203A1041C1170B4306E00B461341D0404E
:100640002024A21A91400843194610BD10B5002B72
:1006500008DA0024401C614192185B411A4301D121
:100660004008400010BDF0B51FB482B005460C0034
:1006700003D0084606F0DCFC02E006F0D9FC20308E
:100680000246009021462846FFF7ACFF049B059ADE
:1006900004460F4618431143084314D0184610432C
:1006A0001BD0009840210A1A18460599FFF7AAFFA7
:1006B00005460E46009A05990498FFF793FF0843F4
:1006C00005D0012004E02046394607B0F0BD0020E7
:1006D000C11705430E432C43374300990E98630519
:1006E000401A7905E40A00220C43FD0A0A3002D5BB
:1006F00000200146E9E70105101969410C9C0D9D98
:1007000000196941FFF7A2FFDFE70000F8B50546D1
:10071000480040080C46284304D06000184A400DA9
:10072000904201DD2846F8BD15493539884210DC74
:1007300088420BDB290D200308432903014305D020
:10074000E00F1049C00741180020F8BD0020014605
:10075000F8BD161A4020821B28462146FFF742FFAB
:1007600007460091284621463246FFF74BFF3A469E
:10077000009BFFF76BFF3246FFF734FFF8BD000028
:10078000330400000000F03F4A0009030123090B75
:100790001B0519430A4B10B5520D9A4202DA00208C
:1007A000014610BD064B34339A4203DC9A1AFFF718
:1007B00029FF10BD034BD218FFF714FF10BD000036
:1007C000FF030000CDFBFFFF10B5002904DB01246F
:1007D000E40740428C412146002B04DB1C460123E8
:1007E000DB075242A3418B4200D1824210BD000080
:1007F000064C0125064E05E0E36807CC2B430C3C74
:1008000098471034B442F7D3FFF75EFCC88900085C
:10081000E889000870B58C180578401C6B075B0FE1
:1008200001D10378401C2A1106D10278401C03E054
:1008300006780E70401C491C5B1EF9D12B0705D4AD
:100840000023521E0DD40B70491CFAE70378401C9C
:10085000CB1A921C03E01D780D70491C5B1C521EC4
:10086000F9D5A142D8D3002070BD000010B51349BE
:10087000012286B0002802D001280ED106E0CC6A01
:1008800002231C43CC62C96A194005E0CB6A1343BA
:10089000CB62C96AC907C90F05914100084B8000A6
:1008A000595A0091002102910321039105490192B7
:1008B0000858694600F01CFB06B010BD001002404D
:1008C000208900083C00002010B5044A4100515A1C
:1008D000034A8000105800F0CDFB10BD20890008AD
:1008E0003C00002070B50446284886B0C36A012247
:1008F0001343C362C36A13400593436B13434363BB
:1009000000206300224DA200224E00291DD00129A3
:1009100026D1E95A029000911F480190B0586946CB
:1009200000F0E6FAAD1E2A57FF20C021002A19DB8D
:1009300096081A4BB600F61833689207D20E90400C
:10094000834391400B4333601BE0E95A019002203E
:100950000290009103200390B058694600F0C8FA55
:1009600006B070BD13071B0F083B9E080C4BB6006A
:10097000F618F3699207D20E9040834391400B43DF
:10098000F361285700F0BCFBEAE7000000100240CA
:100990001E890008380000200000111000E400E06B
:1009A00000ED00E0002070470020704710B50022E5
:1009B0000449054805F00CFA0449034805F0FEF91E
:1009C000002010BD240A0020A00300203C060020C7
:1009D00010B50146034805F0F1F9024805F0C7F9E2
:1009E000002010BDA00300200A4610B5084909697F
:1009F000FF31FF3102314969002901D0012010BDCA
:100A00000146044805F0E4F9024805F043FA10BD38
:100A100020060020A003002010B507F043FE10BD03
:100A200030B5446C1C252C400125A540046C656044
:100A3000046863608368102B036803D099600068C2
:100A4000C26030BD9A600068C16030BD10B5012041
:100A500000F042FA022000F03FFA10BD10B5042069
:100A600000F03AFA082000F037FA10BD10B5102057
:100A700000F032FA202000F02FFA402000F02CFA8B
:100A8000802000F029FAFF20013000F025FA012033
:100A9000400200F021FA0120800200F01DFA01203E
:100AA000C00200F019FA0120000300F015FA01203D
:100AB000400300F011FA0120800300F00DFA01203C
:100AC000C00300F009FA10BD01A004F09DFDFEE78F
:100AD0004572726F725F48616E646C65720A0D00D8
:100AE00010B5094A0021CB00D458844207D89B187E
:100AF0009B68834203D9C8008018007910BD491C47
:100B0000C9B21529EFD3FEE7F887000870B50400D5
:100B100006D0606D264600254036002802D006E04B
:100B2000012070BDA5653574204600F0D3F8606DD6
:100B3000C00603D421688868400705D5606D102180
:100B4000084360653574EBE7606DFF220132904326
:100B500002221043606588688207920F5B48012A71
:100B600002D10A68D2072BD1032362689B079A42FD
:100B700005D05B429A4202D05B009A4209D10A69D1
:100B8000920092080A6121680A6963681A430A613F
:100B90000CE00A69920092080A6181680F229204AF
:100BA0009143816081686268114381602168CA68ED
:100BB00018239A43CA602168CA68A3681A43CA60A6
:100BC000816801225206914381608168A28E52069B
:100BD0001143816020688168C90004D481680122C2
:100BE0001207114381602068C168394A1140C16011
:100BF0002069E168022825D00020014320462030EA
:100C00000278037B52035B001A431143226B1143AA
:100C1000A26992031143E269D20311432268D368A7
:100C20001943D160616A0A46FF3AC23A05D0A26A06
:100C300011432268D3681943D16042780121012A07
:100C400002D00BE00420D8E70078002823D0606DA4
:100C5000202210436065A06D0843A065E06B012869
:100C600020681FD00169C90703D0016949084900FC
:100C7000016120684169C908C90041612068416972
:100C8000A26B11434161A565606D80088000401C26
:100C90006065002070BD2068C26801231B041A43F0
:100CA000C260DBE70269FF239B009A430261206870
:100CB0000269236CA66C1A43636C33431A430261C6
:100CC000206802690A430261D3E70000002701405F
:100CD0001902FEFF704770B50024014620314A79A1
:100CE000022A03D00421C163012418E002681368BA
:100CF0000E25AB431360026813685B085B0013604A
:100D0000436C1C221340012215469D40036C5D601C
:100D10004A7100220A71816B002900D08847204661
:100D200070BDF0B4016C0D6801680C68466C1C2342
:100D300004221E401746B7402F420ED067070CD53D
:100D40000C68A40602D40C6894430C60416C1940F2
:100D50008A40016C4A60016B1AE00227B7400246E4
:100D60002F402032002F17D0A70715D50C68A406F6
:100D700005D40C680A25AC430C6001215171446C08
:100D800002211C40036CA140596000211171C16A0D
:100D9000002918D0F0BC08470827B7402F4212D0CE
:100DA000240710D50C680E25AC430C60446C01215F
:100DB0001C400B46A340046C6360C1635171002169
:100DC0001171416BE4E7F0BC7047000070B504009E
:100DD0003CD01F48256814212818FFF789F98000A6
:100DE00060641C4820640221204620300246417184
:100DF00029681948E3680140A068666918432369B7
:100E000033431843A3691843E3691843236A18431B
:100E1000084328600121A0688903884210D00D484A
:100E20008030836A656C1C210D400F26AE40B343B1
:100E30008362656C63680D40816AAB400B438362DB
:100E40000020E06301215171107170BD012070BD5F
:100E5000F8FFFDBF000002400F80FFFFF8B5044619
:100E60008C46203001790025012909D00126067120
:100E700041790027012905D0077102252846F8BDD0
:100E80000220F8BD02214171E7632068016849082A
:100E90004900016061462046FFF7C2FD206B002833
:100EA0002068016801D00E2205E004229143016010
:100EB000206801680A2211430160206801683143FB
:100EC0000160DBE701B5009801F0DAFF08BD10B55D
:100ED00001F0FEFE10BD000010B504494A6902424F
:100EE00002D04861FFF7F3FF10BD0000000401408D
:100EF000F8B500230124A7E027469F403A4070D070
:100F00004D68022D01D0122D14D1DD08AD002D1831
:100F100000952D6A5E07AC46F50E0F26AE46AE4034
:100F20006546B543AC460E697546AE4065462E43F0
:100F3000009D2E624D68012D05D0022D03D0112D8C
:100F400001D0122D16D185680326AC465D00AE4651
:100F5000AE406546B543AC46CE687546AE40654684
:100F60002E43866046680D79BE43ED06ED0F9D4029
:100F70003543456006685F000325BD40AE46AE437D
:100F80000D79B446AE07B60FBE4065462E430660E7
:100F9000C6687546AE438D68BD403543C5604D6833
:100FA000ED0050D52B4D6E6B26436E639E082A4D87
:100FB000B6007519AC46AD689E07360F0F27B740CF
:100FC000BD4305273F07B84201D100271AE0234F50
:100FD000B84201D1012715E0214FB84202D10227C2
:100FE00010E030E01F4FB84201D103270AE01E4F46
:100FF000B84201D1042705E01C4FB84201D10527B2
:1010000000E00627B7402F436546AF60184D2E68B5
:101010004F689643FF0300D516432E606E684F68F5
:101020009643BF0300D516436E60AE684F68964383
:10103000FF0200D51643AE60EE684F689643BF02CC
:1010400000D51643EE605B1C0A681546DD4000D0F3
:1010500052E7F8BD001002400000014000040050BB
:1010600000080050000C005000100050001C005000
:101070000004014042694A4042617047002A01D0A1
:1010800081617047816270470148006870470000C5
:101090005000002002480168491C016070470000B0
:1010A0005000002010B508480024016802221143B6
:1010B0000160032000F00AF8002801D0012401E0BB
:1010C00000F006F8204610BD0020024000207047C6
:1010D00010B50948816B02041143816300F010FBD5
:1010E00000F006FB0548016808221143016000F08A
:1010F000F7FA01F041FE10BD00100240002002404E
:10110000002805DBC106C90E01208840014908609E
:101110007047000000E100E010B505F0ADFF10BD24
:101120000168FF30FF30012202304031C266088B77
:1011300010430883088B0222104308830020704765
:1011400010B54D230122DB0001681A5013246401FD
:101150000023001903704031888A10438882888AEE
:10116000022210438882184610BD704710B50C0645
:1011700004D54907090E0818283003E0490108186A
:10118000FF30293099B2002A06D001220273018172
:10119000190C4181002010BD00220273C180F9E7C3
:1011A0004A01121810B5FF30FF300230D26B006FC9
:1011B00005F027F810BD4A01121810B5FF30FF32B4
:1011C000FF3001320230D26B006F05F084F810BDA1
:1011D00070B54B07CD095B0F590109180122002496
:1011E000002D02D028314A7002E0FF3129314C70C5
:1011F0000B7011235B01C5182B7A012B06D02A72C4
:10120000006805F0D9FC2C72002070BD022070BD72
:1012100070B50A074368120F9A4201D9012070BDC8
:101220004B07CD095B0F5901091801220024002D3D
:1012300002D028314A7002E0FF3129314C708C70A5
:101240000B7011235B01C5182B7A012B06D02A7273
:10125000006805F04BFD2C72002070BD022070BDAF
:101260004907090E0818FF300130406C7047F8B587
:101270004F07CD097F0F7901091801260024002DA1
:1012800002D028314E7002E0FF3129314C700F70CE
:101290000A61CB704A78002A00D0CF81022B00D19E
:1012A0000C711122520185182A7A012A06D02E7259
:1012B000006805F059FB20462C72F8BD0220F8BDED
:1012C00070B54D070C466D0F69010918FF312931C2
:1012D0008B614A610022CA614A700D706207006822
:1012E00005F058FD002070BDF8B504464A07406877
:1012F000520F0D46824201D90120F8BDE9090027AD
:101300000120002904D0510109192831487004E056
:1013100069010919FF3129314F7088700A70112253
:101320005201A618327A012A06D03072206805F0E0
:1013300015FD680702D007E00220F8BD232109014E
:101340006118206805F0D0FC37720020F8BD70B538
:101350004D070C466D0F690109180B64CA63002222
:101360004A64012228314A700D706207006805F056
:1013700011FD002070BDF8B50446006805F0E6FDDB
:10138000000402D5204602F0C9F9206805F0DEFD10
:1013900040050DD52068403081880122920291439A
:1013A0008180204600F022F90021204600F050F90B
:1013B000206805F0CBFD400406D5206840308188C8
:1013C0000122920391438180206805F0BFFD8004D3
:1013D00006D52068403081880122520391438180E4
:1013E000206805F0B3FDC10413204001042608273E
:1013F000251800291CDA206840300188B14301809B
:10140000206840300188B94301802878012805D13F
:101410000020287001462046FFF7A7FE204600F076
:10142000F9F82068403081880122120391438180BD
:10143000206805F08BFD000519D520684030018833
:10144000394301802068403081880122D2029143D3
:10145000818020684030018831430180206805F098
:1014600075FDC043C00402D5204600F025F9206870
:1014700005F06CFD00060BD5206840308188802285
:1014800091438180287800281ED0204600F014F96E
:10149000206805F05BFD800509D520684030818813
:1014A0000122520291438180204600F0C9F8206851
:1014B00005F04CFDC00506D5206840308188FF222C
:1014C000013291438180F8BD20684030018831436A
:1014D0000180206840300188394301800120287054
:1014E00020684030808A3C2180080840992189008A
:1014F000085101212046FFF738FEC9E7F0B585B055
:10150000040007D0112040012618707A0025002819
:1015100003D006E0012005B0F0BD3572204600F092
:101520004DF803207072206805F0D4FB00210127DC
:101530000CE0480100190246203257721172C18630
:10154000D5728563C563491CC9B205646068884269
:10155000EFD800220EE0500100190146FF31213181
:101560004D720A72FF300130CD728563C563521C23
:10157000D2B2056460689042EDD821461422103141
:101580006846FEF7FBFD0FCC103C05F095FB0028EC
:1015900002D002207072BDE7242005557772E06901
:1015A000012802D12046FFF7CBFD206A012802D195
:1015B0002046FFF7B5FD0020ADE7000010B500683C
:1015C000084988420DD10848816B0122D205114398
:1015D0008163002211461F20FFF79EFD1F20FFF7A9
:1015E0008FFD10BD005C00400010024070B5044645
:1015F00080680125022801D0FFF766FAFF34FF3426
:1016000002342946206F04F063FF206F04F01BFFB3
:1016100070BD000010B504468069002806D0074858
:10162000016906229143016103F06CFEFF34FF342F
:101630000234206F04F034FF10BD000000ED00E024
:10164000FF3010B5FF300230006F04F030FF10BDE6
:1016500010B5112252018418227A012A09D00122E0
:10166000227224221154006805F0B2FC002020727E
:1016700010BD022010BD10B5272109010A582321F1
:1016800009014118104604F030FF10BD70B5044642
:10169000112040012518287A01280AD0012028723B
:1016A000206805F001FB206805F03EFC0020287250
:1016B00070BD022070BD000010B50446FF30FF3041
:1016C0000230006F04F052FFA069002804D00348E4
:1016D000016906221143016110BD000000ED00E028
:1016E0000248016802151143016070470070004014
:1016F00002480168421511430160704700700040C4
:101700000248016810229143016070470070004058
:10171000F8B5044600785E4D800672D55C4E002711
:10172000403EB06BC00004D4B06BA9050843B06361
:10173000012758480168C90511D401688215114371
:101740000160FFF7A1FC009005E0FFF79DFC009908
:10175000401A642837D84F480068C005F5D532686C
:101760000321090560680A400140914208D08103C5
:10177000890F032904D13168890301D50120F8BDFF
:101780002A69032109040A4022D0084090421FD050
:10179000207880061CD528692A6988430121C9045C
:1017A0000A432A612A698A432A612861C0050FD544
:1017B000FFF76AFC009008E0FFF766FC0099411A09
:1017C0003548814201D90320F8BD28698005F3D549
:1017D00061688803800F032805D1326800058243C1
:1017E00001400A43326028690322616812041140F3
:1017F00008432861002F04D0B06B012109078843FA
:10180000B0632078C00705D0E868A1688008800030
:101810000843E8602078800705D5E8680C218843F4
:10182000E1680843E8602078400706D5E8680321AE
:101830008902884321690843E8602078000706D5BB
:10184000E86803210903884361690843E860208848
:10185000C00506D5E868032109048843A169084347
:10186000E8602078400606D5E868012189068843AB
:10187000216A0843E8602078000606D5E86803215D
:1018800089048843E1690843E8600020F8BD00004E
:10189000401002400070004088130000F8B50E466A
:1018A00005007DD053480068C007C00FB0420AD27F
:1018B0005048016849084900314301600068C00789
:1018C000C00FB04271D128784B4C800705D5E06835
:1018D000F0218843A9680843E0602878C00752D007
:1018E0006868022817D0032818D02168012818D06A
:1018F0008905002959DAE168890889000143E16016
:10190000FFF7C2FB69680746022912D003291CD0E1
:10191000012926D033E021688903EAE7216889019B
:10192000E7E74907E5E7FFF7AFFBC11B3348814213
:1019300023D8E0680007800F0228F4D123E0FFF7E6
:10194000A3FBC11B2D48814217D8E0680007800F18
:101950000328F4D117E0FFF797FBC11B274881420A
:101960000BD8E0680007800F0128F4D10BE0FFF7E7
:101970008BFBC11B2148814201D90320F8BDE068DF
:101980000007800FF3D11B480168C907C90FB14296
:101990000DD901684908490031430160006800E041
:1019A00003E0C007C00FB04201D00120F8BD287885
:1019B000400706D5E068072109028843E968084323
:1019C000E0602878000707D5E0680721C90288434E
:1019D0002969C9000843E06000F036F8E168084A68
:1019E0000906090F515CC840064908600320FFF74B
:1019F0006DFBF8BD0020024000100240881300007B
:101A0000288900084C000020044805490068C9687E
:101A1000044A4905490F515CC84070474C000020FA
:101A20000010024041890008044805490068C9685F
:101A3000044A8904490F515CC84070474C0000209B
:101A4000001002404189000810B5184AD1680C20E6
:101A5000084004280BD0082810D00C2810D050685B
:101A60000004410F0120C003491C884010BD1068CC
:101A7000C00601D50E4810BD0E4810BD0E4810BD61
:101A800088020E4B000F185C0902D368890F491CAD
:101A9000DB0301D5084A05E01268D20601D5044AE5
:101AA00000E0044A5043FEF723FB10BD0010024043
:101AB00000093D000024F40000127A003889000873
:101AC000FEB505007ED0F94CE7680C20E6680740BB
:101AD0000120000406402878C00747D0082F05D011
:101AE0000C2F0AD101200004864206D12068800311
:101AF0003CD568680028E5D038E00120696800041A
:101B0000814203D121680143216011E005230122B4
:101B10001B0492049942216802D111432160F1E72C
:101B2000814321602168014000912068904320603A
:101B3000686800280DD0FFF7A7FA009005E0FFF7CE
:101B4000A3FA0099401A64287ED820688003F6D54D
:101B50000CE0FFF799FA009005E0FFF795FA00997D
:101B6000401A6428F0D820688003F6D428788007CB
:101B70005CD5E868810604D5226820210A432260EA
:101B800088430923042F0DD00C2F01D1002E09D03A
:101B900000283BD02168994301432160FFF774FA84
:101BA000064627E02168490701D500288AD06168E8
:101BB0001F22120291432A691202114361602168B7
:101BC000994300E0C3E101432160FFF73DFFE16875
:101BD00009060A0FB649895CC840B6490860032067
:101BE000FFF774FA002873D120E0FFF74DFA801B4D
:101BF0000228A9D820684007F7D560681F2109028C
:101C0000884329690902084360600FE020684008A2
:101C100040002060FFF738FA064604E0FFF734FA88
:101C2000801B022890D820684007F7D42878C00687
:101C300060D5002F0DD0E86900284AD02068FF2128
:101C400001310843206000E0E8E0FFF71DFA064696
:101C50002CE02068800502D5E8690028A6D06068DD
:101C6000072149038843696A084360606068298CDA
:101C70000002000A090608436060686A410B0120FF
:101C8000C003491C8840E16809060A0F8849895C3D
:101C9000C840884908600320FFF718FA002817D1C8
:101CA00028E0FFF7F1F9801B0228A2D82068800500
:101CB000F7D56068072149038843696A0843606073
:101CC0006068298C0002000A09060843606011E080
:101CD00023E12168FF20013081432160FFF7D4F91F
:101CE000064604E0FFF7D0F9801B02289AD8206846
:101CF0008005F7D42878704E000724D5686900283D
:101D0000306910D0012108433061FFF7BDF9009020
:101D100005E0FFF7B9F90099401A02287ED830692A
:101D20008007F6D50FE0400840003061FFF7ACF9BE
:101D3000009005E0FFF7A8F90099401A02286DD835
:101D400030698007F6D42878400764D500200290D7
:101D5000A06BC00006D4A06B012109070843A06353
:101D60000120029055480168C90511D40168821507
:101D700011430160FFF788F9009005E0FFF784F94F
:101D80000099401A642849D84C480068C005F5D528
:101D9000FF20AA680130824203D1316901433161D9
:101DA00011E001218902002A07D005231B029A4273
:101DB00003D132690A433261EFE73269824332610B
:101DC000306988433061A86800280ED0FFF75CF9BD
:101DD000009006E0FFF758F90099411A384881420F
:101DE0001CD830698005F5D50DE0FFF74DF900905E
:101DF00006E0FFF749F90099411A314881420DD8B0
:101E000030698005F5D40298002804D0A06B012128
:101E100009078843A0632878800600E07CE02ED57F
:101E20002848A9694314002916D0A26801210A4351
:101E3000A260626B0A436263016A19430162FFF7A1
:101E400023F9064604E0FFF71FF9801B022863D838
:101E5000A0688007F7D512E0A16849084900A16091
:101E6000016A99430162FFF70FF9064604E0FFF7A4
:101E70000BF9801B02284FD8A0688007F7D4A86A06
:101E8000002866D00C2F4DD0012636060228206887
:101E900005D0B0432060FFF7F7F805463EE0B043B9
:101EA0002060FFF7F1F8074613E000000010024041
:101EB000288900084C0000204010024000700040BB
:101EC0008813000000000140FFF7DEF8C01B022865
:101ED00022D820688001F7D4296BE86AE2680843B9
:101EE000696BFD231B049A4311430843E06020689B
:101EF00030432060FFF7C8F8054604E0FFF7C4F858
:101F0000401B022808D820688001F7D521E0FFF7A0
:101F1000BBF8401B022801D90320FEBD20688001C8
:101F2000F5D416E00128F8D0E06801210904EA6A36
:101F3000014091420BD10F2189042A6B014091424B
:101F400005D1032189050840696B884201D0012031
:101F5000FEBD0020FEBD30B5014620310A78012AC1
:101F600015D001220A7002234B700468CA236362F1
:101F700004685323636203689C6820252C439C609B
:101F80000068FF2343624A700020087030BD0220C1
:101F900030BD10B503F054FA10BDF8B5054604463F
:101FA0002035287801281DD0012028700220687073
:101FB0002268CA205062226853205062FF200130FC
:101FC0000026FF2781421CD121688A6882438A60EB
:101FD000206881680122120391438160FFF754F861
:101FE000009009E00220F8BDFFF74EF80099411A71
:101FF0007D20C00081421BD82068C068C007F3D094
:1020000020E02068816801225202914381602068AB
:102010008168120191438160FFF736F800900DE06E
:10202000FFF732F80099411A7D20C000814205D99E
:1020300020684762032068702E70F8BD2068C06871
:102040008007EDD520684762012068702E7000205F
:10205000F8BD10B500680B464068C021C943014077
:102060000002000ECC04D870E40E5C708C06A40E46
:102070000904490F9C701970002A0AD101F0A3FCD1
:10208000D870587801F09FFC5870987801F09BFC4C
:102090009870002010BD000030B50B460168896AB9
:1020A0005960016809694904490C9960006804682D
:1020B0000F482146014088024D04800E18706D0EB5
:1020C00049065D70490E99706102490E4024214015
:1020D000D970002A0AD101F076FC1870587801F006
:1020E00072FC5870987801F06EFC9870002030BD3A
:1020F0007F7F7F00F8B5040050D0254620356878F2
:10210000002803D12870204600F052F802206870A1
:102110002168CA204862216853204862204601F0A5
:1021200066FCFF2604270028206802D046626F70F4
:1021300034E081681D4A11408160216888686268C6
:10214000A369104322691A43104388602168E0683C
:102150000861206801692289120411430161206825
:10216000C16880229143C1602068C16C89088900E0
:10217000C164E169606901432068C26C1143C164B4
:102180002068806880060BD4204600F0DFF9002824
:1021900006D0206846626F70002028700120F8BDCC
:1021A00020684662012068700020F8BDBFFF8FFFE5
:1021B00000B597B00420009000200A90FF20013065
:1021C00002906846FFF77CFC002801D0FEF77CFCFB
:1021D00060200E90012000040F90800216900EA83F
:1021E000FFF796FA002801D0FEF76EFC0748016958
:1021F0000122920411430161002211460220FEF7E0
:102200008BFF0220FEF77CFF17B000BD401002409C
:10221000FEB506460446203630780B4601283ED0EF
:102220000120307002207070184620300090206825
:1022300000278068002A34D0400600D4DF70197867
:102240009D7809040D435978DA7809021204114384
:102250000D430099D869097809060D43054358696B
:10226000996905435868084300902168CA2048626C
:10227000216853204862FF205A6A0130802182423F
:1022800045D122689368834393602068C2680A40FE
:10229000FF3A823AC260FEF7F7FE019024E0022086
:1022A000FEBD400600D4DF70187801F094FB0504F1
:1022B000587801F090FB00020543987801F08BFB01
:1022C0000543D878000405430098007801F083FBAB
:1022D00000060543D869C1E7FEF7D6FE0199411A09
:1022E0007D20C00081422AD82068C068C007F3D092
:1022F0002068C56121680098486420688168FF22D1
:1023000001321143816020688168120130E0206849
:10231000826801235B029A4382602068C2680A4097
:102320001D495118C160FEF7AFFE01900EE0FEF7A7
:10233000ABFE0199411A7D20C000814206D9216877
:10234000FF204862032070703770FEBD2068C068AF
:102350008007ECD5206805622168009888642068B1
:102360008168012252021143816020688168120154
:102370001143816009480268012149040A4302604F
:1023800082680A4382602168FF20486201207070E1
:1023900037700020FEBD00007FFDFFFF00040140FC
:1023A000F8B505460446203528780B4601280FD09D
:1023B0000120287002206870002A0BD0D8789E78FF
:1023C000000406435878097800024903084317E0DF
:1023D0000220F8BD5878C10603D5EF2108400A3025
:1023E0005870D87801F0F7FA0604587801F0F3FA3B
:1023F00000020643987801F0EEFA0643187840038D
:1024000006432168CA20486221685320486220465A
:1024100001F0EDFA0027002811D11148064020688C
:1024200046602068C16880229143C160206880684E
:1024300080060CD4204600F089F8002807D02168D7
:10244000FF204862042068702F700120F8BD2168C9
:10245000FF204862012068702F700020F8BD000046
:102460003FFFFF00F8B506460446203630780D469B
:10247000012822D0012030700220707020680027CF
:102480008068002A1BD0400600D4EF702978A87815
:10249000090408436978EA780902120411430843E1
:1024A00000902168CA204862216853204862204673
:1024B00001F09DFA002837D116E00220F8BD400651
:1024C00000D4EF70287801F086FA0304687801F0F0
:1024D00082FA00020343A87801F07DFA0343E8780A
:1024E000000403430093DCE7174900980840216883
:1024F0000860206881680122920491438160296903
:10250000E868084321688A68104388602068C168C9
:1025100080229143C1602068806880060CD42046E8
:1025200000F014F8002807D02168FF20486204203A
:10253000707037700120F8BD2168FF2048620120CB
:10254000707037700020F8BD7F7F7F0070B5044643
:102550000068C168A0229143C160FEF795FD7D2609
:102560000546F60006E0FEF78FFD401BB04201D99C
:10257000032070BD2068C0688006F4D5002070BDBF
:1025800070B5040007D0002625464035A662687C59
:10259000002802D005E0012070BD2E74204600F016
:1025A0002FF802206874206801684022914301607E
:1025B000A168606822690843E168114308436169C2
:1025C00001220843A169520211400843E16908430E
:1025D000216A0843A16A084321680860A0690421B0
:1025E000000C0840616A0843216848602068C1699E
:1025F00092009143C161666501206874002070BD3E
:102600007047FFB5044683B00120019000202646A4
:1026100040360090307C0C9F1D4601280FD00120D1
:102620003074FEF731FD0290707C616801280DD096
:10263000CA1FFD3A08D1A168002905D102E0022095
:1026400007B0F0BD042801D00220C3E004980028A0
:1026500028D00598002825D0002D23D0707C042890
:1026600001D005207074002060650599A163E5879D
:10267000A58704992163E586A586206460642068A7
:102680000168490603D40168402211430160012119
:10269000E068C9028842606848D1002804D0012D52
:1026A00002D03CE0012095E0206B21680088C860E2
:1026B000206B801C2063E08E401EE0862FE02068A7
:1026C0008168890710D5E18E00290DD00199012973
:1026D0000AD1216B0988C160206B801C2063E08EC9
:1026E000401EE0860020019020688168C9070DD057
:1026F000E18F00290AD0C068A16B0880A06B801C04
:10270000A063E08F401EE08701200190FEF7BCFC33
:1027100001460298081AB84201D3781C59D1E08EBC
:102720000028CCD1E08F0028C9D146E0002801D094
:10273000012D3CD1206B216800780873206B401C70
:102740002063E08E401EE08631E0206881688907C2
:1027500010D5E18E00290DD0019901290AD1216BF4
:1027600009780173206B401C2063E08E401EE086D8
:102770000020019020688168C9070DD0E18F0029F1
:102780000AD0C068A16B0870A06B401CA063E08FEA
:10279000401EE08701200190FEF776FC0299401A66
:1027A000B84202D3781C02D013E0002F11D0E08E83
:1027B0000028CAD1E08F0028C7D139462046029AA6
:1027C00001F0CAF9002807D00120009020206065A0
:1027D00009E00320009006E0A068002803D12068EB
:1027E000C1688068019001207074002030740098E6
:1027F00026E7704770470000F8B502680446D069C4
:102800001168936805072D0F5BD0DD07ED0FFF26DC
:1028100021360E402E4367D0C60706D0CE0504D51C
:1028200001261662E26F3243E2678707022204261E
:10283000002F06DADF0704D027683A62E76F3743D4
:10284000E767470706D5DB0704D023681E62E36FFE
:102850001343E367020709D520220A402A4305D023
:10286000236808221A62E36F1343E367E26F002ACA
:102870002FD0800606D5880604D5216E002901D008
:1028800020468847E06F21688968490601D400071F
:1028900024D5204603F01FF820688168490619D521
:1028A0008168402291438160E06E002812D0204967
:1028B0008163E06EFEF70FFA00280AD0E06E816BAC
:1028C00006E0850610D58D060ED5216E1CE020464B
:1028D0008847F8BD2046FFF78DFFF8BD2046FFF77B
:1028E00089FF0020E067F8BDC50208D55B0206D568
:1028F0000120000510622046FFF77BFFF8BD0306AC
:1029000005D50B0603D5616E0029E0D1F8BD400660
:10291000FCD54806FAD51368204640218B43136046
:10292000202161670021616600F054F9F8BD0000C4
:10293000F957000810B5040003D0606F002802D0DA
:1029400007E0012010BD002170200155204600F055
:1029500027F8242060672068016849084900016061
:10296000204602F0D1FF0128ECD0606A002802D096
:10297000204602F0ABFE206841680922D202914352
:102980004160206881682A22914381602068016843
:10299000012211430160204602F0FEFE10BD00003E
:1029A000F8B506462B48C26A01210A43C262C26AD0
:1029B0000A400092C26A0A43C262C26A0A40009296
:1029C000826B4B041A438263026B0A430263006BFF
:1029D0000840009005F09AFE204C1F48206000251A
:1029E0001020E560A0606561A561E561042767606E
:1029F0008020256220612046FEF7E8F9B466A662D1
:102A000015484834A5601438E56081C4E56080202D
:102A10002561A0602020A561606120460838083C3F
:102A2000FEF7D4F9002801D0FEF74EF8F466012233
:102A300000210B20A662FEF76FFB0B20FEF760FB68
:102A4000012200211C20FEF767FB1C20FEF758FB2B
:102A5000F8BD00000010024080000240C8160020AF
:102A6000F8B50446806F20284DD100290BD0002AEC
:102A700009D00123A0681B03984206D120690028D1
:102A800003D1C80701D00120F8BD25466035287C58
:102A9000012838D00120287458206165025300268F
:102AA000E6672220A067E06E002819D01749C162AE
:102AB000E16E17480863E16E16484863E06E1346FE
:102AC0008663676D21683A462431E06EFEF7C6F9E9
:102AD000002805D01020E0672E7420206067D2E720
:102AE0002E7420680168FF220132114301602068C2
:102AF000816801221143816020688168402211436E
:102B000081600020F8BD0220F8BD00005558000883
:102B1000935800080D58000801494968084700000B
:102B2000D801002070470000F8B50446406F202807
:102B300047D100290BD0002A09D00123A0681B032C
:102B4000984206D12069002803D1C80701D001208E
:102B5000F8BD25466035287C012832D00120287434
:102B600020464030E164028242820026E66721204E
:102B70006067A06E002819D01349C162A16E134886
:102B80000863A16E12484863A06E134686632768E7
:102B9000E16C3A462832A06EFEF760F9002805D0B5
:102BA0001020E0672E7420206067D0E72168402065
:102BB00008622E74206881688022114381600020A1
:102BC000F8BD0220F8BD00009D580008CD5800084F
:102BD0000D5800080148006800470000D801002097
:102BE0007047000010B513480178002920D1012258
:102BF00002701248104901600021C163C161D3070E
:102C000081614360426381600723836302610246FE
:102C10002032C16011705170042343618162084801
:102C20001173416B4215114341630448FDF76EFF78
:102C300010BD0000E001002000240140D817002052
:102C400000100240014600200A0A00D00820084A6D
:102C5000114201D004221043064A114201D002223F
:102C60001043054A114201D001210843704700007A
:102C7000F0F00000CCCC0000AAAA000038B50B236D
:102C80001B07C518114B0FD01C152D1B18D02D1B61
:102C900019D0A542DD6A05D108242543DD62DB6A2F
:102CA000234007E08024F8E7DC6A01252C43DC623E
:102CB000DB6A2B40009311601146FEF719F938BD0D
:102CC000DD6A0224E9E7DD6A0424E6E70010024039
:102CD00010B5FFF7B7FF810003484158002901D024
:102CE0000020884710BD0000B015002070B51C46BC
:102CF00015460E460846FFF7A5FF0A49002C0DD0E1
:102D000080000C50304600F00DFC0446002229469D
:102D1000FEF702FA2046FEF7F3F970BD00228000AC
:102D20000A5070BDB015002010B5D2B2FEF7A6F95A
:102D300010BD00000F494B6A0A69D218120EC27109
:102D40004B6A0A69D218120C82710A8A8B8CD218CB
:102D5000120A42710A7C8B8CD21802714A69120ED7
:102D6000C2704A69120C82708A8A120A4270097D06
:102D7000017070474000F81FF0B587B01421684615
:102D8000FDF715FA224CE06A01210843E062E06A8F
:102D900008400590E06A02252843E062E06A284086
:102DA0000590E06A04263043E062E06A3040059016
:102DB000E06A80273843E062E06A6946384005905F
:102DC0000320019000200290124800900520000787
:102DD000FEF78EF81048009069461048FEF788F814
:102DE00069460F48FEF784F869460E48FEF780F8FA
:102DF000E06A40084000E062E06AA843E062E06AFE
:102E0000B043E062E06AB843E06207B0F0BD0000A2
:102E100000100240FF9F0000FFFF00000004005070
:102E200000080050001C005010B5114C60780028BC
:102E30001CD1FFF7D7FE0F480068804700F000FA6A
:102E400000F0AAF802F0D0FB00F084FB0020FDF7B0
:102E50000DFD0120FDF70AFD00210846FDF742FDAA
:102E60000549064802F0D5FA0120607010BD000047
:102E7000E0010020A88800088136000834190020ED
:102E800070B5410EC0017D220023FDF747F90546CC
:102E900000F07AF8044600E000BF00F075F8001B6F
:102EA000A842F9D370BD0000F8B505460C460022D3
:102EB0002348FFF7F1F8234FB86A002286B229466B
:102EC0001F48FFF7C6F8002221461D48FFF7E4F827
:102ED000B86A80B2B042EFD1E8781B4A014650434D
:102EE000C01C8308880729D0184869783D220E46FF
:102EF00051430A463C3A7100891EC840D10F8007F1
:102F00008918800F4910081AC018A978401E08189F
:102F10000F493C2248436178E123514322781B0149
:102F20005A438918A27810180818810D8302606826
:102F3000084C0022201A18185141F8BD0648D4E761
:102F4000F015002000280040B5050000A0AA990057
:102F500080510100FF0300005055440003207047DA
:102F600001480068704700003C16002000B587B09B
:102F7000694605A8FFF798FF0249096807B0401A9B
:102F800000BD00003C16002000B587B0694605A8CA
:102F9000FFF78AFF07B000BD10B5084C2078002865
:102FA0000AD100F04DF8FF2101310548FEF7F5FF89
:102FB00000F076F80120207010BD0000D201002042
:102FC000F015002010B50D4C0021042000F022FA6D
:102FD00001200B494004486121688868C0040BD572
:102FE000C868C00508D5C86880221040FF388238FC
:102FF000C8602046FEF7CDFF10BD0000F015002090
:103000000004014070B50446FFF7B0FF211A0B4DD4
:103010000220285EC01C814201D9002100E001216C
:10302000042000F0F7F900F0CDF9012802D10220C8
:10303000285E241A204600F03FF870BDD20100201F
:1030400010B51449144886B0002412C01F21016035
:10305000846004611149446141600838FFF74AF80F
:103060006946CC750120487588750875002205A948
:103070000948FFF795F900940194049400226946E9
:1030800005480394FFF7EEF90348FEF764FF06B026
:1030900010BD000000280040F0150020FF030000D4
:1030A00010B5044C2046211D1830FFF7FDFE2060AE
:1030B00010BD00003C160020F0B587B00446142275
:1030C0003F4901A8FDF75AF83D485038406E00903E
:1030D00000F07EF83B4802993B4A401AA105890D51
:1030E000081887B2A10A68468078534202E089181E
:1030F000401C80B29942FAD26A461579E122120147
:1031000002E0891A6D1CADB29142FAD26A46547936
:1031100002E0641CA4B23C393C29FAD292795118DD
:103120008EB20121890203E07A1A761C97B2B6B2F8
:103130008F42F9D203E03C3E641CB6B2A4B23C2EEE
:10314000F9D203E03C3C6D1CA4B2ADB23C2CF9D2E8
:1031500003E0183D401CADB280B2182DF9D269468B
:10316000C978890769464A7827D01849491E515CB1
:10317000814202D2FCF7BCFF08461249CA1B104923
:103180002C394A60052252068A618E704C700A46BC
:103190000D70203210706846C079C8700020C86178
:1031A000FF2248610132C8604A620861024608464F
:1031B0002438FFF72DF807B0F0BD04490C31D5E7EE
:1031C00040160020FF03000080AEFEFF4989000882
:1031D00010B5FF2101310748FEF7DFFE0548016801
:1031E000C86880221040FF388238C86002499002C7
:1031F000486110BDF015002000040140810A7D22C5
:103200008005D200800D50435143800A0818704752
:1032100010B5410EC0017D220023FCF77FFF10BDD9
:1032200001B582B00020C0430090012301AA02A989
:103230000248FFF7E6F9684680880EBD5816002060
:1032400010B51C481A4901601C4A1B4B002112682A
:1032500003E05208491C072901D29A42F9D84A07CB
:103260008B07D20FDB0F52011B011A43C90700D095
:1032700008210A43C2610021816001614161FF228E
:10328000C1600532816242600122016252028261A4
:1032900041620B48416B8214114341630548FFF7BB
:1032A0006FF9002801D0FDF70FFC00F00BF810BDFE
:1032B0000030014058160020809698004C000020F5
:1032C0000010024030B585B014216846FCF76FFF4E
:1032D0000220019000240320039002946A460821F2
:1032E00004940F48FFF7CAFC05252D076A464021C4
:1032F0002846FFF7C3FC6A4680212846FFF7BEFC3C
:1033000001200294C40301906A4621462846FFF733
:10331000B5FC012221462846FFF706FD05B030BD69
:103320000004005000BFFDE713B5044601A90120C9
:1033300004F024FD17490A78322A10D2002C0CD050
:1033400000280CD12820604342181079002800D1B1
:10335000147101980078906015E0002801D00120D8
:103360001CBD00221046282343435B189B68002B9A
:103370000ED0401C3228F6DB282050434018027142
:10338000019A127882600878401C087000201CBDE9
:10339000C2B2F1E76C2B002070B500231D460EE091
:1033A000040F0A2C02D25E00303401E05E00373494
:1033B0008C555C00641800015B1C6570DBB29342A5
:1033C000EED370BDEFF3108172B607480268002A91
:1033D00001D0002005E04068002801D0012000E075
:1033E000022081F310887047C401002010B5EFF36C
:1033F000108272B6064B00295C6803D0012903D104
:10340000044300E084435C6082F3108810BD000038
:10341000C401002010B5EFF3108272B6064B0029EC
:103420001C6803D0012903D1044300E084431C60DD
:1034300082F3108810BD0000C40100200A4910B5B5
:103440000848088000200A46887004234032D3715F
:1034500040224A7105490870487088700448FFF797
:1034600069FC10BDA5A500004C19002070280020A3
:10347000E3010020F0B521488BB01F4901602049CD
:103480008160204941602049C1602049204D01618F
:10349000A968884769691F48884700241E48069420
:1034A0000126089005940794082002A9019651C1AD
:1034B000072000906F6A234622460E213046B84707
:1034C00069691648884707940520029008200694E9
:1034D000089409960596039404940094019001239E
:1034E00007222C6A00211846A04704480C491C30CA
:1034F00001F08FFF0BB0F0BD3D3600080C3400200A
:10350000AD35000869360008253600080D3600087C
:10351000A8880008E013F336B80B00002021F63627
:1035200055360008FF220132811A90420CD009DC86
:1035300008280DD008DC012808D0022806D004286D
:1035400002D105E00F2212020720704705207047C4
:103550000620704710B500220F49104802F023FEE4
:10356000002801D0FDF7B0FA0D490C4803F025F80A
:10357000002801D0FDF7A8FA0A49084802F014FC17
:10358000002801D0FDF7A0FA044803F073F80028E2
:1035900001D0FDF799FA10BD64000020A0030020BF
:1035A0008C0100205400002070470000F8B5074649
:1035B0000D481C46406B15460E4680472B4632464A
:1035C00039460A48009404F00DFF094C01460128D1
:1035D00007D0002902D007A003F0D0FC09202070FA
:1035E000F8BD0420FBE70000A88800087028002030
:1035F000EC0100204D657373616765204572726F41
:103600007220436F64652025640D0A0010B50348DD
:10361000406B804702490420087010BDA88800084C
:10362000EC01002010B50348406B8047024903209D
:10363000087010BDA8880008EC01002010B50348F0
:10364000406B804702490820087010BDA888000818
:10365000EC01002010B50348017AC03800F010FAE0
:1036600010BD00000034002010B50348406B8047B7
:1036700002490720087010BDA8880008EC0100204E
:10368000F0B5BFB0EFF3108472B61E480021857804
:103690006E4616E01B4872188378002B10D04378D2
:1036A000C71CDB5D1370427800238718521C4270E0
:1036B000FB708278521E82704278FA2A00D14370E1
:1036C000491CA942E6DB29463046FDF78DF9002862
:1036D00010D0002704E0F15D0A4804F051FE7F1C81
:1036E000AF42F8DB0A21084801F000FF064801F06C
:1036F0000FFF02E0044801F045FF84F310883FB05B
:10370000F0BD0000341800203419002010B5024824
:1037100001F0FEFE10BD0000B0160020FEB504460C
:103720002030019035E18A881607360F24D0B70083
:10373000C15B0291090472D5C15B9C4A1140802291
:103740001143C15370010519FF352935287B002825
:1037500020687DD029788A00825A520479D5502277
:10376000125ACB00924912185918515A8905890DDD
:1037700000916FD02A89C1E0D2062DD401888D4AEC
:1037800011400122D2031143018020685021095ABF
:103790002546283509182878C20085481018085A87
:1037A0008005800D6064E16B0818E063002120460D
:1037B000FDF7F6FC019800790028B3D0A86900282D
:1037C000B0D1019800798021084321684031888177
:1037D000019800210171DCE02546FF35028829357A
:1037E00013051DD5098A0A182878C1007048001DE4
:1037F0000818105A232183059B0DEB610901EA8803
:103800006118206803F0A5FB20680188674A114011
:103810008022114301802046FDF72DFFB9E094E09E
:103820001104D8D50188614A1140802211430180DA
:1038300020685021095A5E4E08182978361DC900A3
:103840008919405A83059B0DEB610CD0EA8802E090
:1038500034E046E056E06969206803F07AFBE969E4
:1038600068694018686100212046FDF7A4FC2068C3
:103870005021095A081829698019002914D03E29B5
:1038800016D24A08C90700D0521C91020180216853
:103890000888494A1040012212035040520050400B
:1038A000464A1043088074E00188454A114001E00F
:1038B000490989020122D2031143E7E75021095A3D
:1038C0000A182978CB003A49091D5918515A890517
:1038D000890D009121D0EA886969009B03F039FBCA
:1038E0001BE05022CB00125A31491218091D5918F9
:1038F000515A8905890D009104D06A896969009B34
:1039000003F027FB287821688200885A294B8033EE
:1039100018402A4B403318438852E9690098081828
:10392000E861696900980A186A61AB69002B03D0E5
:1039300029690098814204D929782046FDF73BFC8B
:1039400003E029782046FDF7BBFC0298000620D54D
:1039500022687001D15B0019164B19400123DB036B
:103960001943D15321685022525A283053180178F4
:103970000F4AC9008918595A8905890DC1614269E0
:103980005218426183690178002B20460AD0FDF766
:10399000DEFC2068014640318A88120400D5C2E668
:1039A0000020FEBDFDF7FCFBF3E700008F0F0000D9
:1039B000020400000F8F00008FBF00008080000015
:1039C000FF830000704701090A2200075143000FDE
:1039D0004018C0B270470022014602E00A39C9B25D
:1039E000521C0A29FAD21007000E0843704770B51E
:1039F00004460068C168490613D40021C943C16068
:103A0000FDF742FB7D260546F60006E0FDF73CFB90
:103A1000401BB04201D9032070BD2068C068400639
:103A2000F4D5002070BD10B5FFF7CCFA10BD000032
:103A300010B507490220087006480178012000F0FF
:103A40000DF80548C16BFF20F530884710BD000018
:103A5000EC010020EB010020A888000849000028A4
:103A600007D0002008180449800008580349496914
:103A700008470120F6E7000064890008A8880008CC
:103A800070B50C4605460B49062008700A480178B7
:103A90000020FFF7E3FF09482146026B28469047C4
:103AA000224629460648FCF769FB0548C0300472E7
:103AB00070BD0000EC010020EB010020A888000888
:103AC0004033002070B5092000F059FD054606205E
:103AD00000F055FD0404072000F051FD00020443EE
:103AE000082000F04CFD0443200A0102184A611A24
:103AF000514380315043090A46180021092001F042
:103B0000CFFB3B2000F03BFD4024204301463B20FF
:103B100001F0C6FB3B2000F032FD8006FAD40D48D0
:103B200000F07CFE3B2000F02AFD204301463B20B4
:103B300001F0B6FB3B2000F022FD8006FAD42946B6
:103B4000092001F0ADFB304600F068FE70BD0000BA
:103B5000093D000000A1BC3338B504464068FF238E
:103B600005332025984204D100920B460022802183
:103B700007E05120005D05280DD100920B46002280
:103B80000121204600F009F8002804D0606D284388
:103B90006065032038BD002038BDF8B51D461746C6
:103BA0000E46044609E0681C07D0FDF76DFA069939
:103BB000401AA8420BD2002D09D0206881683046F7
:103BC00088432ED00020B842EDD10020F8BD2068F7
:103BD0004168E022914341606068C11FFD390CD10A
:103BE0000121A068C903884202D04911884204D14A
:103BF000206801684022914301600120A16A4003CE
:103C0000814207D121680A6882430A6021680A68F4
:103C100002430A60012040346074002020740320B5
:103C2000F8BD0120CFE770470149486070470000A8
:103C300000000020012070470E2801DD8020704721
:103C4000002070470148007970470000F002002012
:103C5000F3B5024600206D498BB0002A0BD0012A33
:103C60007ED10024486C2546072854D0082855D01A
:103C7000092858D155E06548C069FCF75FFC074644
:103C800000910C98FCF75AFC06900E46302000F08C
:103C900076FC4007800F02D000245D4D01E0002437
:103CA0002546272000F06BFC58494007400F098C3F
:103CB000401C4018FCF742FC544A2032099292788A
:103CC000012A21D00022524BFCF77CFA22462B46D7
:103CD000FCF778FA3346069AFCF774FA099A1279D7
:103CE000012A14D000221346FCF76CFA0322FCF7D9
:103CF000FBFB3A46009BFCF77FFB0022454BFCF7A1
:103D000013FB04F023FC7DE000221346DCE70022D5
:103D100001239B07E8E700243F4D04E000243F4DCA
:103D200001E03F4D00248F6C0120B840FCF7F2FB0E
:103D300002460B4620462946FCF75EFB02460B4630
:103D400000203349FCF758FB304E044640360D4600
:103D5000F089FCF7F3FB0022324BFCF733FA00E06A
:103D600052E022462B46FCF7DFFA07910890707B61
:103D7000001DFCF7E3FB05910690307B002800D086
:103D80000220381A8000FCF7D9FB04900C980391AC
:103D9000C000B900401AB17C09014018317C0029EB
:103DA00000D01421401A1C30FCF7C8FB039B049A76
:103DB000FCF722FB03F018FE059B069AFCF7B4FA09
:103DC000002207460E461346FCF7F8FB02D238469F
:103DD000314601E0002001460022134BFCF7F2F9C6
:103DE00022462B46FCF7A0FA079B089AFCF7EAF953
:103DF0000022084BFCF798FA0C4A0D4BFCF7E2F94D
:103E000003F03EFFFCF7A8FB0DB0F0BDF002002070
:103E10000000F03F00408F408084FE4080840E41CF
:103E200080841E4100001140000020402B8716D9DD
:103E3000CEF7EF3F0520704710B503484068406853
:103E40008047801C10BD000000000020F8B51E4D0A
:103E50001E4928601E4801F0DCFA1D481B49183035
:103E600001F0D7FA1A481949303001F0D2FA6868DF
:103E700001680120884700F0D5FBFFF723FE0020F2
:103E800000F046FD68688168284608308847114E72
:103E9000002460002718F05D00F000FDB81981785B
:103EA000407801F0FDF9641CE4B2102CF1D300203D
:103EB00000F0F4FC06490020683908716868406821
:103EC0008047801CF8BD00000000002079440008F5
:103ED00058030020C887000810B586B01421684632
:103EE000FCF765F90D48019002200D4C02906A46DE
:103EF00010212046FEF7C2FE6A4602212046FEF748
:103F0000BDFE6A4601212046FEF7B8FE01216A4641
:103F100049030448FEF7B2FE06B010BD00001110C0
:103F2000000400500008005010B586B01421684607
:103F3000FCF73DF91548FFF777FE15480190022080
:103F400002900320134C03906A4610212046FEF78E
:103F500095FE6A4602212046FEF790FE6A46012140
:103F60002046FEF78BFE01216A4649030A48FEF708
:103F700085FE012001900020029005206A46202144
:103F80000007FEF77BFE06B010BD000020000020F9
:103F900000001110000400500008005070B50E4DD4
:103FA00004460368002210212846FEF79FFE0022E7
:103FB000022128466368FEF799FE00220121284667
:103FC000A368FEF793FE0121002249030348E3683A
:103FD000FEF78CFE70BD0000000400500008005089
:103FE000FFB516480124007981B01D4617460E46DC
:103FF000002802D0002005B0F0BD019800F04EFC72
:10400000304600F00BFC052000F082FC0120FCF79C
:1040100059FF01F0E9F9064606E0019800F0E0FAE0
:10402000B84201DD002404E0304601F0E3F9A84283
:10403000F3D300F045FF2046DDE70000F00200204A
:10404000F8B5002568460570894C2079012809D00B
:10405000022857D12046683001F094FA607901288F
:104060007ED1F7E06079002818D001284AD140219C
:10407000122001F015F9122000F081FA694608704B
:1040800008787B4E8006403600286ADA202112200C
:1040900001F006F9B07D002876D083E0744E20361A
:1040A0003079012835D13F2000F069FA694608705F
:1040B000087880072DD40B213E2001F0F1F8102163
:1040C0003F2001F0EDF83046603001F05BFAB07946
:1040D000002818D00D2000F052FA402101430D2095
:1040E00001F0DEF83046783001F012FA61480068DD
:1040F000002803D00069002800D08047357475740B
:10410000A5876587F8BD5A48983001F03BFA2571BC
:10411000ECE7618F584F00290AD1A08F002807D102
:10412000B078002831D0322000F029FA6087618F02
:10413000A08F091AC9B2C01900F04AFA608FA0878F
:104140004B48803001F01EFAB079002823D00D20B2
:1041500000F015FA402101430D2001F0A1F801E023
:104160007CE029E04248983001F0D2F941480068EB
:104170000028C3D08768002FC0D01222B256618FAA
:1041800000233D48B847B9E70BE0394801213A30F0
:1041900000F01EFACBE736482571983001F0F2F9AD
:1041A000E4E725713248803001F0ECF931480068CD
:1041B0000028A7D0006957E0192000F0E0F940B2CC
:1041C0002B4F801C8010603738701A2000F0D7F910
:1041D00000217956294A00290BDAA368934203D9B2
:1041E000091800119D3802E009180011A4380818B8
:1041F00009E0A168914203D9011108189D3802E035
:1042000001110818A4387084132000F0B8F938712F
:10421000102000F0B4F901460D2001F041F8397981
:10422000154800F0D5F9B07D002800D1257110485F
:10423000803001F0A7F90F4800680028B9D08468E1
:10424000002CB6D000232222FB56B25E39790A48F0
:10425000A047F8BD0821122001F022F80548257179
:1042600000680028F5D000680028F2D08047F8BD2B
:10427000F002002000000020F001002040DD4A1F75
:1042800070B5324C25462179E61F6879F93E203514
:10429000012911D0022925D1002823D1618FA08FB7
:1042A00033460A1AE97FC0188A424ADD01F01FF836
:1042B000A08FE97F401842E0002814D0012811D1D6
:1042C0002248803001F05EF98021122000F0E8FFE2
:1042D000002020711E480068002803D0C068002814
:1042E00000D0804770BD1948983001F04BF9608FBD
:1042F000002809D1A08F002806D1A878002813D063
:10430000322000F03CF96087618FA08FAA7F091AE4
:1043100091420FDB521ED1B2801900F059F9A08FE3
:10432000A97F4018401E0AE0084801213A3000F0F9
:104330004FF9E9E7C9B2801900F04AF904E0A08713
:1043400070BDD1B200F0D3FF608FF8E7F00200201B
:104350000000002070B5294D294C294608462A79CD
:1043600040304979C07C012A04D0022A01D10029B9
:1043700002D170BD002916D00129FAD10128F8D147
:104380000221122000F08CFF20680028F1D0406943
:104390000028EED01C2000F0F2F821688006496960
:1043A000800E884770BD154C012620342674607C31
:1043B0000028F7D12046783001F0E4F86674112027
:1043C00000F0DDF840084042A0741B2000F0D7F850
:1043D00006021C2000F0D3F80643300A0102094A05
:1043E000711A514380315043090A401868630C2008
:1043F00000F0C5F84009207670BD0000F0020020F2
:1044000000000020093D000010B512484079002846
:104410001FD001281DD1122000F0B1F80E4CC007AA
:104420000BD00521122000F03BFF2068002810D09F
:10443000816900290DD001200AE00421122000F03A
:104440002FFF2068002804D08169002901D00020B6
:10445000884710BDF0020020000000200548407988
:10446000002806D103482030017C002901D1012118
:1044700001747047F0020020F8B52E4D287901280C
:104480002BD0022828D100F0CDF8FFF71BFB00202D
:1044900000F03EFA284E002460002718F05D00F07E
:1044A000FDF9B8198178407800F0FAFE641CE4B296
:1044B000102CF1D3002000F0F1F91E484030007FAD
:1044C00000F054FA002028711C480068002803D02E
:1044D0004068002800D08047F8BD6879002816D1D0
:1044E000144E0024203634747474AC876C870B210E
:1044F0003E2000F0D5FE10213F2000F0D1FEB07923
:1045000001280AD030462C71783001F03BF80B4876
:1045100000680028E0D0C068DBE70D2000F02FF82D
:10452000402101430D2000F0BBFE0248983000F00E
:10453000EFFFECE7F0020020C88700080000002031
:1045400070B50025012000F0A9F9FF21112000F02D
:10455000A7FE052000F0DCF900240120FCF7B2FCE6
:104560002C2000F00CF8C007C00FA040641C0543CD
:10457000E4B2202CF1D300F0A3FC284670BD08B5AE
:104580000122694600F003F86846007808BDF8B5D6
:104590000446012715460E46FF0305200022394632
:1045A0000007FEF7C1FB6006400EFEF739FE00244F
:1045B00005E00020FEF734FE3055641CE4B2AC4246
:1045C000F7D30520012239460007FEF7ADFBF8BD01
:1045D0000A4610B501460020FFF7D9FF10BD0000C4
:1045E00010B5002804D0012808D00020C04310BD19
:1045F0001120FFF7C4FF4008404210BD074808499A
:104600008068884204D91B20FFF7B9FF9D3810BD90
:104610001B20FFF7B4FFA43810BD0000F0020020FB
:1046200040DD4A1F30B585B014216846FBF7BFFD59
:104630000120019003200E4D0024039002946A464D
:1046400001212846FEF71AFB002201212846FEF729
:104650006BFB0120FCF736FC6A46012128460194D9
:10466000FEF70CFB0620FCF72DFC05B030BD00006A
:104670000008005073B5394C0646617900200029C6
:1046800002D0012966D128E00020A0876846334D7A
:10469000017961872035A878002809D0322000F000
:1046A000FFFD68460279501E3F2806D8EA770AE0E7
:1046B000012101A800F01BFEF3E73146284803F072
:1046C00077FC2020E877E97F304600F010FEA08FCD
:1046D000E97F4018A087A06A3CE02048BE25403012
:1046E000407D012821D03320FFF749FF2840411C9D
:1046F000332000F0D5FD1D213B2000F0D1FD6846A0
:104700000179164860300171222000F0C9FD0021B6
:104710000E2000F0C5FD00210D2000F0C1FD01209C
:10472000FFF72DFF40070AD00EE03320FFF727FFE9
:1047300028400146332000F0B3FD1921DCE700F0EA
:10474000D9FB0120FCF7BEFB68460179304600F03A
:10475000CEFDA06D00F0E0FB7CBD0000F00200206B
:10476000F001002070B504460920FFF708FF0C4D4A
:10477000032C08D000202870052001220221000708
:10478000FEF7D2FA70BDC109064802D0012202210B
:1047900001E001220421FEF7C7FA0120287070BD54
:1047A000F002002000080050F0B505250027032482
:1047B0002D07194E85B0002826D014216846FBF736
:1047C000F6FC01946A460221284602970394FEF7FC
:1047D00055FA002202212846FEF7A6FA6A4602216F
:1047E0003046FEF74BFA002202213046FEF79CFAD3
:1047F0006A4604213046FEF741FA00220421304681
:10480000FEF792FA05B0F0BD14216846FBF7CFFC25
:1048100001200190D6E700000008005070B5054661
:104820001048114E856031462846FBF761FC04466E
:1048300030466043281A0002711040183146FBF7D9
:1048400057FC210244182002010E062000F028FD2A
:104850002004010E072000F023FDE1B2082000F043
:104860001FFD70BDF0020020093D000070B50D462F
:10487000044600F013F8002C04D0012C0AD129467C
:10488000232005E004488078002803D129463220FF
:1048900000F006FD70BD00001003002010B50446B6
:1048A0000120FFF76CFE0106184801D5012100E048
:1048B00000214171C9B2A14226D04471012C10D00F
:1048C000002000F025F80120FFF759FE4106490EAF
:1048D000012000F0E5FC0021402000F0E1FC302147
:1048E0000FE0002000F014F80120FFF748FE8021BF
:1048F0000143012000F0D4FC0021402000F0D0FC56
:104900000021412000F0CCFC10BD0000F00200208E
:1049100070B5154C050015D0606801680120884706
:1049200060680169002088476068416928468847B7
:104930000120FFF724FEC108C9002943012000F02F
:10494000AFFC70BD0120FFF71AFEC108C9000120AD
:1049500000F0A6FC60680169012088476068016872
:104960000020884770BD00000000002010B50446FC
:104970000120FFF793FF0548002C047701D0342174
:1049800000E01221392000F08BFC10BD3003002024
:1049900070B504460920FFF7F2FD06464D20FFF7EB
:1049A000EEFD05462046FFF747F97106490E08431C
:1049B000C10923D0112C02DD07210D4302E0ED08CF
:1049C000ED002D1DE943490703D0022C0CDA022427
:1049D0000DE0052C01DA052402E0142C00DD14247E
:1049E00001090901641F05E0112C00DD11240109F2
:1049F0000901A41E2007000F014314E0002C08DD6C
:104A00000F2C00DD0F24C009C00120437021084392
:104A100008E00321C9438C4200DA0C46C009C001FA
:104A2000241D2043C1B2092000F03AFC29464D2044
:104A300000F036FC70BD0000F8B506460027764849
:104A400000F0A0FD744C683C6079002802D0012879
:104A500025D125E0704D4020483DAF79FFF78FFD0F
:104A60008107890F40200C3100F01AFC4120FFF72C
:104A700086FD3E2108400146C131412000F010FC76
:104A80003520FFF77CFD8006800EA8771E210D20C3
:104A900000F006FC002028746874A08760877DE021
:104AA0005D4D283D687D012825D03320FFF767FD47
:104AB000BE210840411C332000F0F2FB1D213B20A9
:104AC00000F0EEFB606C09287ED23120FFF757FD25
:104AD0004106490E312000F0E3FB0021302000F0B8
:104AE000DFFB606C030002F0BAFA0910171E252CD8
:104AF000333D3D3D41003320FFF741FD412101435E
:104B0000332000F0CDFB1921D9E748212F2000F0F8
:104B1000C7FB4249A06821E044212F2000F0C0FBE0
:104B20003F49A0681AE044212F2000F0B9FB3D491D
:104B3000A06813E044212F2000F0B2FB3A49A0689E
:104B40000CE044212F2000F0ABFB3849A06805E0C1
:104B500044212F2000F0A4FB3549A0684018FFF73E
:104B60005DFE03E040212F2000F09AFBE87CAF7D42
:104B7000012835D01F21112000F092FB4020FFF7C3
:104B8000FEFC8106890E402000F08AFB00210F20E8
:104B900000F086FB00210D2000F082FBFF21013197
:104BA0002448FBF704FB01202071002E08D01A488E
:104BB0003146183000F09AFC1748183000F0A8FC75
:104BC0006079002816D000E003E0002F1FD00520F8
:104BD0001EE03120FFF7D3FC802101433120C3E7E1
:104BE0001D21112000F05CFB4020FFF7C8FC3321A1
:104BF0000140C8E70520FFF78BFE0748E16A303027
:104C000000F074FC0448303000F082FCF8BD06204F
:104C1000FFF77EFEF8BD000058030020821E000052
:104C2000B4280000043D00005E510000127A00002C
:104C3000C6A20000F0010020FFB587B017460C4661
:104C40000546139EFFF72AFE11999848090A069116
:104C5000002D04D0012D7AD1022C7AD9FEE7C7614C
:104C6000054644611098A8619048203086701499D8
:104C7000C170159901711899417119998171119833
:104C800028843846FBF75AFC07460B4601913A4602
:104C900000208749FBF7B0FB0322FBF725FC0490BB
:104CA00005911298FBF74AFC059B049AFBF73CFB25
:104CB0000022804BFBF738FBFBF74EFCE8623A46DC
:104CC00000207D49019BFBF797FBFBF745FC85B274
:104CD000290A022000F0E4FAE9B2032000F0E0FA29
:104CE0002046FBF7FDFE0146122000F0D9FA10988D
:104CF000FBF7F6FE0146132000F0D2FA25200699B4
:104D000000F0CEFA1198C1B2262000F0C9FA002EA8
:104D100001D0149900E0FF21322000F0C1FA3020C8
:104D2000FFF72DFC6F210840002E01D0002100E08C
:104D300080210843159909010143302000F0B0FAA1
:104D40003120FFF71CFC4021014331209FE0A0E00F
:104D5000FFE75648E41D554D8764446440350A9882
:104D600068731198E8812E74149868741598A87463
:104D70001698E87417982875189868751998A87582
:104D80000C2F01D90C2702E0062F00D20627072C92
:104D900002D0082C02D003E00B2F45D00C2F43D0BB
:104DA000002028731D20FFF7EAFB0A992001490023
:104DB00008433043C1B21D2000F072FA1E20FFF7F5
:104DC000DEFB082108403901084315998900084392
:104DD00012998905890F0843C1B21E2000F060FABC
:104DE0002620FFF7CCFBF7210840297BC9000843A8
:104DF000C1B2262000F054FA1298C1B21F2000F070
:104E00004FFA2020069900F04BFA1198C1B22120E8
:104E100000F046FA002E03D02220149900F040FA48
:104E2000E87C012802D00DE00120BAE74420FFF71A
:104E3000A6FB80210143442000F032FA297D242082
:104E400000F02EFA092C02D00321362010E017487A
:104E50001A498068884205D90221362000F020FADC
:104E6000642104E00221362000F01AFA7F213A2062
:104E700000F016FA062F0ED03120FFF780FBC10894
:104E8000C9003120C91C00F00BFA0A21372000F0BC
:104E900007FA0BB0F0BD3120FFF771FBC108C90064
:104EA0003120491D00F0FCF90C21EFE7F002002051
:104EB0000000F03F00408F4080847E4140DD4A1F6B
:104EC00010B50A4800F05EFB0848183800F05AFB9D
:104ED0000020FFF71DFD0648406801680020884754
:104EE000024900208039087110BD000070030020C5
:104EF0000000002010B5074800F044FB05481838B2
:104F000000F040FB0120FFF703FD0249002080393B
:104F1000087110BD7003002010B50446294800F048
:104F200031FB28482146183800F0E0FA254C803C37
:104F30006079002802D001282CD119E04020FFF729
:104F40001EFB8107890F4020103100F0A9F9412094
:104F5000FFF715FB3E210140412000F0A1F935206B
:104F6000FFF70DFB81061748890E6038817711E045
:104F700014484038C07C012816D0F721112000F0D9
:104F80008FF94020FFF7FBFA8106890E402040315F
:104F900000F086F9022020710A48183800F0B8FAAB
:104FA0000320FFF7B5FC10BDF521112000F078F9C2
:104FB0004020FFF7E4FA3321084001464031402009
:104FC000E6E7000070030020FFB581B01E460C46E6
:104FD0000C9F0A9D0198FFF761FC76484068C16804
:104FE000204688473A0A019973480092002908D060
:104FF000012973D12246044640342270022E57D92B
:10500000FEE7047303994661C56101616A4907843B
:1050100020310D9A8A700E9A0A71119A4A7112996A
:1050200081620398FBF78AFA0022644BFBF7E4F9EC
:10503000FBF792FA84B2210A042000F031F9E1B2C0
:10504000052000F02DF92846FBF778FA0B460246BA
:1050500000205B49FBF7D0F9FBF77EFA84B2210A06
:10506000022000F01DF9E1B2032000F019F925201B
:10507000009900F015F9F9B2262000F011F930205E
:10508000FFF77DFA6F2108400D99002901D000211A
:1050900000E0802108430E9909010143302000F00F
:1050A000FFF83120FFF76BFA40210143312071E016
:1050B000F61D466485640B996173E7810D9921742F
:1050C0000F99E174109A22750E9AA274119A627562
:1050D000129A82650C2D02D90C2503E05CE0062DA6
:1050E00000D20625072E02D0082E02D003E00B2D99
:1050F00006D00C2D04D000202073012902D00DE031
:105100000120F9E74420FFF73AFA802101434420C7
:1051100000F0C6F8217D242000F0C2F81D20FFF722
:105120002EFA0B993001490008430D990843C1B28A
:105130001D2000F0B5F81E20FFF721FA0B210840D2
:10514000290108430E9989000843C1B21E2000F0CE
:10515000A7F82620FFF713FAF7210840217BC900A2
:105160000843C1B2262000F09BF82020009900F0EF
:1051700097F8F9B2212000F093F8062D0ED03120D7
:10518000FFF7FDF9C108C9003120C91C00F088F8FB
:105190000A21372000F084F805B0F0BD3120FFF778
:1051A000EEF9C108C9003120491D00F079F80C2141
:1051B000EFE7000000000020F002002080844E4055
:1051C00080847E4130B50D467D211446C90089B0EA
:1051D0004C43FFF723FB00200790069003900590B7
:1051E000019004904B200521800100230291009042
:1051F00008941A4629461846FFF7E6FE3120FFF7C5
:10520000BEF9BF210140312000F04AF8F0214020D2
:1052100000F046F8A021412000F042F8214607485E
:1052200000F064F90549022068390871034800F06C
:105230006FF90320FFF76CFB09B030BD5803002065
:10524000052310B51B07012805D000222021184690
:10525000FDF76AFD10BD012220211846FDF764FD0F
:105260000520FBF72FFE10BD10B50C4C607900280F
:1052700012D0012810D1FA21112000F011F840209D
:10528000FFF77DF981088900402000F009F803202C
:1052900020710720FFF73CFB10BD0000F00200204A
:1052A00013B5012201A900F001F81CBDF8B50446B0
:1052B000012715460E46FF03052000223946000748
:1052C000FDF732FD204680210843FDF7A9FF0024A9
:1052D00004E0305DFDF7A4FF641CE4B2AC42F8D3F7
:1052E0000520012239460007FDF71EFDF8BD0A46DC
:1052F00010B501460020FFF7D9FF10BD10B5FBF730
:10530000C9FE10BD10B594B014210EA8FAF74FFFD6
:1053100038216846FAF74BFF222000900024012034
:1053200001940690039002200A9080040C900001E2
:1053300010210D9004910B946846FCF7C1FB0028E6
:1053400001D0FBF7C1FB1148816B0204114381635B
:105350000F4801680322D2029143C21489180160E8
:105360004168C943C906FBD50F200E9003200F905A
:1053700010941194012112940EA8FCF78FFA0028C2
:1053800001D0FBF7A1FB14B010BD000000100240DB
:105390000070004010480168821511430160C16827
:1053A0000E4A1140C16001680D4A114001608168D8
:1053B000490849008160016801229204914301601B
:1053C000C168FD2212049143C160002101610549B9
:1053D000C003886070470000001002400C40FF8846
:1053E000F6FFF6FE00ED00E010B5FDF7CDFDFDF790
:1053F00005FF10BD70B5040009D0FDF7C5FD0546D9
:105400002046FDF705FF281AFDF7F8FE70BD0020C5
:1054100070BD00220260426002724272026142610B
:10542000C160704710B5054A1168002901D00023FA
:105430004B724161106000F043F810BDCC010020B8
:1054400070B5FDF78DFD0446FDF72AFE031B1B4CCE
:105450002068002830D00246002507E00E689E42F2
:1054600002D9F61A0E6000E00D60526951690029F8
:10547000F4D1002820D0416921600572C16800295B
:1054800000D1FEE7006988472068002814D0FDF7A6
:105490006DFD014620680268914206D9416921608C
:1054A0000572C1680029EDD1FEE7002804D0417AD9
:1054B000002901D100F004F870BD0000CC010020EB
:1054C00070B50446FDF74AFD054601206072FDF700
:1054D0004DFD21684019884201D8084603E0FDF7D8
:1054E00045FD40192060FDF78DFD70BD70B5054686
:1054F0000846FDF78DFE0446284600F043F8FDF708
:105500002DFD844200D204462C606C6070BD00000A
:10551000F8B50400EFF3108572B62ED0184F0122B3
:105520003868014602E0A04227D040690028FAD13D
:105530006068002620602272667200290CD0FDF798
:1055400015FD21680918216038680268914206D269
:105550002046FFF767FF10E0FDF7A2FDF8E741697D
:10556000002908D022680B689A4201D90846F6E75C
:105570004461616101E04461666185F31088F8BDB2
:10558000CC01002070B5EFF3108572B6154C216880
:105590000A1E24D0002822D0002606720B46814223
:1055A0001BD1487A012804D0586900280BD020600C
:1055B00015E04E725869002803D02060FFF780FF85
:1055C0000DE0FDF705FE266009E0814203D1486940
:1055D0005061002803E00A4649690029F5D185F3A6
:1055E000108870BDCC01002010B5054803F06EF89E
:1055F0000449FF2208460132103802F0DEFA10BDDD
:105600007D560008B01400200FB4F0B5C3B0FF21E0
:1056100049AB013102A8489A01F0F4FC82B2684615
:1056200002800026EFF3108472B602A9114802F03E
:105630003FFA050003D1104F3878012807D084F3D2
:105640001088284643B0F0BC08BC04B018476A462E
:1056500001A9084802F094FA3E7001212020FDF7CC
:10566000D9FE84F3108868460188019803F0A2F8F7
:10567000E7E70000A0140020D00100201CB5EFF3E4
:10568000108472B60F4802F0A0FA0E4802F0C5FA74
:10569000002809D000212020FDF7BCFE0A49012086
:1056A000087084F310881CBD01AA6946054802F001
:1056B00067FA84F3108868468188009803F07AF8C6
:1056C0001CBD0000A0140020D001002010B5818C6A
:1056D000C90707D001684A6801235B049A43836ABB
:1056E0001A434A60818C890707D501684A680123FB
:1056F0001B049A43C36A1A434A60818C490707D541
:1057000001684A6801239B049A43036B1A434A6069
:10571000818C090707D501684A680123DB039A4396
:10572000436B1A434A60818CC90607D502689168A9
:1057300001231B039943836B19439160818C890674
:1057400007D501688A6801235B039A43C36B1A4338
:105750008A60818C490612D503685A6801210905BF
:10576000046C8A4322435A60026C8A4207D1026861
:10577000516803235B059943436C19435160818C45
:10578000090607D501684A680123DB04806C9A4347
:1057900002434A6010BD0000F8B500260446C66703
:1057A000FBF772FC054620680068124F000709D518
:1057B00001212B46002249052046009700F0C2F93E
:1057C00000280DD12068006840070BD501212B4629
:1057D000002289052046009700F0B4F9002801D086
:1057E0000320F8BD20206067A06760342674002085
:1057F000F8BD0000FFFFFF0110B5806A00220146DE
:1058000040314A834A82FCF7F5FF10BD70B5846AC7
:10581000606FA56F2168896800260906002906DAED
:10582000212804D152200653204600F064F8206855
:105830008068400606D5222D04D15A200653204602
:1058400000F049F8E06F10210843E0672046FCF7BC
:10585000D1FF70BD10B501460968806A09688906E4
:1058600014D400225A210A5201680A68FF23013326
:105870009A430A6001688A68520852008A60016887
:105880008A6840239A438A6020218167FDF744F9A2
:1058900010BD10B5806AFDF745F910BD10B5014681
:1058A0000968806A096889060DD4002252210A52CB
:1058B00001688A6880239A438A60006801684022F0
:1058C0001143016010BDFDF785F910BD10B5806A68
:1058D000FDF786F910BD01680A68FF2321339A435A
:1058E0000A6001688A68520852008A602021816734
:1058F00000210166704701680A68C0239A430A6064
:105900002021416770470000F8B504462669A26867
:10591000E76932436669102000253E43236832431D
:105920007B491E687B4F3E4016431E6022685368C9
:1059300003263603B343E668334353602368A26902
:105940008B4201D0266A32439E680B273F02BE433A
:1059500016439E60704E2368704AB3420CD1D268E1
:105960009207920F06D0012A3ED0022A3AD0032A8B
:1059700026D124E0012023E0694EB3420AD1D26847
:105980000C2632402CD0042A2ED0082A2AD00C2AE9
:1059900016D114E0634EB34222D0634EB3421FD0FF
:1059A0008B420DD1D66803229202164018D00122F4
:1059B0009202B61A18D0B61A14D0964200D1082016
:1059C000564A0126403A594FF6038B4236D10028F9
:1059D0000CD002280DD0042812D008281FD11CE0BA
:1059E0000020EDE70220EBE70420E9E7FCF70CF8E4
:1059F00008E01068C00601D5384605E04C4803E0D1
:105A0000FCF722F8002873D06268510051188142D7
:105A100005D81103814202D303E03046F4E70125A3
:105A200066E0010E06025008002330185941FAF7CB
:105A300075FB03210902411A3E4A55E0E169B14272
:105A400032D1030001F00BFB09070A0D06250606FB
:105A5000062B0600E3E7FBF7D7FF1CE0FBF7E4FFAC
:105A600019E010686168C00602D54808324A01E0B2
:105A7000324A48088018FAF73BFB80B20146304AA8
:105A800010399142CBD8511C01400007400F084308
:105A90002CE0FBF7D9FF616840004A08EAE761683B
:105AA000012248081204E5E7030001F0D8FA0907CB
:105AB0000A0D06260606062C0600B0E7FBF7A4FF33
:105AC0001DE0FBF7B1FF1AE010686168C00602D55F
:105AD0004808C01902E016484A081018FAF708FBEF
