:020000040800F2
:10000000583B0020D500000829530008B1430008E0
:1000100000000000000000000000000000000000E0
:10002000000000000000000000000000D75B000896
:100030000000000000000000A55800081D73000823
:10004000E7000008E700000807590008E70000087B
:10005000E70000084510000855100008651000086A
:10006000E7000008E7000008E7000008111000089A
:10007000E7000008E7000008E7000008E7000008C4
:10008000E7000008E7000008E700000800000000A3
:10009000E7000008E7000008E7000008E7000008A4
:1000A000E7000008E7000008E7000008E700000894
:1000B0007F7B0008E700000800000000158F0008A3
:1000C0000348854600F00EFD00480047419E0008A9
:1000D000583B00200448804704480047FEE7FEE7FD
:1000E000FEE7FEE7FEE7FEE7B5730008C100000883
:1000F00030B50B46014600202022012409E00D46C0
:10010000D5409D4205D31D469540491B2546954047
:1001100040191546521E002DF1DC30BD70B500248B
:100120002546002801DA01244042002901DA012590
:100130004942FFF7DDFFAC4200D04042002C00D026
:10014000494270BDF0B51FB40646002082B0054696
:100150004024019100901BE0019922460F46304651
:1001600000F08AFB049A059B801A994110D310462F
:100170001946224600F070FB361A8F41019722463D
:1001800001200021009F00F067FB38184D410090CE
:100190002046641E0028DFDC019B00982946324679
:1001A00007B0F0BD0549064A08685043054A801863
:1001B000086040087047014908607047F402002059
:1001C0006D4EC6413930000003460B439B0703D0F8
:1001D00009E008C9121F08C0042AFAD203E00B780C
:1001E0000370401C491C521EF9D27047D2B201E084
:1001F0000270401C491EFBD270470022F6E710B582
:1002000013460A4604461946FFF7F0FF204610BD84
:10021000F8B502464A40D40F42004B0052085B0832
:100220009A4202D20246084611464A0023D0C30D24
:100230004A00DDB2120EAD1A202D35DA4902012630
:10024000490AF6058A19002C00D0524220214F1B82
:100250001146B9402A411018C20D9A4221D0002CF3
:1002600017D0012D08DCDA05801AD20F8019D207C9
:10027000DBB200F02DFBF8BDDA05801A0123400047
:100280001B06C01880185A428018CA0F1043490034
:1002900007E04908C2071143DA05801A80194008AF
:1002A000801800F00DFBF8BD61000122511A001BFF
:1002B000F7E70122D2075140AAE70122D2075040B6
:1002C000A6E7024670B54A40D30FDB0740002DD0A9
:1002D0004A002AD0010E140E000212020919400A27
:1002E000520A8418E50104465443000A120A2E04F7
:1002F0005043A4194219200CC543AA18120C012519
:10030000AD03521C521912047F39240400D0521C30
:10031000104301D44000491EC2B20C06C009201887
:10032000401C4008802A02D003E0002070BD400835
:100330004000002900DA0020184370BD70B5024665
:100340004A40D50F40004A00ED07400852080028F7
:1003500014D0002A12D0C40DD30D41020120C005D3
:100360005202490A520AE41A091812187D349142BD
:1003700001D3641C00E04900002C01DA002070BDAC
:100380000023914201D3891A034340084900002801
:10039000F7D100290AD0914202D10121C90705E015
:1003A000914201D2012101E00121C943E005C018B9
:1003B000401900F085FA70BDF0B507460846584070
:1003C00087B0C00F049048000E4659004008490805
:1003D000BC1A884105D2384631461E4617460B46A0
:1003E00002465800400810434CD0300D03904005A1
:1003F0005900400D490D0590401A0290402872DACC
:1004000018030121000B090508430190049800928C
:10041000002805D0019952420020884100920190A5
:10042000029840210A1A0199009800F015FA054631
:100430000C466B4607CB00F030FAC0197141039AA5
:100440000E0D0023D71756401A467A40164344D063
:10045000049A002A2DD0029A012A039A15DC12056B
:10046000C01A914101263605001C7141D20F059E2C
:10047000D2070093019202962A46234600F06EFAB4
:1004800007B0F0BD38463146FAE71605224A0F4656
:10049000B218C01AB74101210905001C4F410018CC
:1004A0007F41114618187941E20F10436D196441DC
:1004B00013E0E2076D0815436408C2071443039A6A
:1004C00001261205C01A91413605001C7141CE0764
:1004D000400830434908C01851412A46234600F0DD
:1004E00030FACDE7FFE7049801224000C117121A45
:1004F00000238B4104983146C417381AA141EEE716
:1005000030B40124E407634030BC55E730B4012423
:10051000E407614030BC4FE70000E0FFF0B51FB4D6
:1005200088B00B990998002448400999C00F4900E8
:1005300049080991C0070B990090490049080B919F
:1005400009990898A64608431CD00B990A980843B5
:1005500018D0099801244000420D4800410D099827
:1005600024050003000B204309900B980003000BA7
:1005700020430B9050181C4940180022019014464B
:10058000104605E0002001460DB0F0BD032801DA59
:10059000034600E003239C46C11A0AAE0AE05F004E
:1005A00008ADED5B4F00F75B7D430027AA187C4147
:1005B000491C5B1E6145F2DD410004AB5A52210427
:1005C000120C0A43240C401C0828DFDB019802901F
:1005D0000099704601910090059B049A079906982E
:1005E00000F0BCF9D0E700000DFCFFFFF0B50C46B1
:1005F0005C4085B0E40FE40703944C0000266408D7
:1006000059009446490802460296224321D0624688
:100610000A431ED06200570D4A000E032303550DF6
:10062000012402462C492405781B1B0B360B40186D
:1006300023432643614600901C46501AB44103D31D
:100640000098401C009002E0921800985B4100283E
:1006500003DA0020014605B0F0BD002001210905A4
:100660000746864611E064461D46141BB54106D375
:100670006546521BB341744607430C43A646CD075B
:1006800040084908284392185B4105460D43EAD1CA
:100690001046184313D06046194650407140084335
:1006A00006D06046101AB34106D20122002306E0AC
:1006B00000220123DB0702E00122D24353100098FD
:1006C00074460105381C6141029C039D0019694173
:1006D00000F037F9BFE70000FD03000070B54B00E4
:1006E0005B0803430BD04B005C0D0026334665428C
:1006F000B341D417AD1AA34102DB0020014670BDFF
:1007000012053018514170BDC217C10F504010B5CD
:100710004018CA079623002100F0DAF810BD10B582
:1007200000229623114600F0D3F810BD0EB5C21773
:10073000C10F5040CA0740180021054B0293019297
:1007400000910A460B4600F009F903B000BD000015
:10075000330400000EB505490291002100910A46BC
:100760000B46019100F0FAF803B000BD330400001D
:10077000C20F410040020123400ADB05D207090EE7
:10078000C0187F2901DA00207047962903DC9623E0
:10079000591AC84001E096398840002AF4D04042F6
:1007A0007047410040020122400AD205090E80181C
:1007B0007F2901DA00207047962903DC9622511A1E
:1007C000C840704796398840704700004A000903C6
:1007D0000123090B1B051943094B10B5520D9A4211
:1007E00001DA002010BD064B34339A4203DC9A1A1A
:1007F00000F042F810BD03495118884010BD0000B8
:10080000FF030000CDFBFFFFC20FD20740004008EE
:100810000BD0C10D0723DB01C91840020905400AAE
:100820001143C2084007114370470020014670473A
:1008300010B5002904DB0124E40740428C41214625
:10084000002B04DB1C460123DB075242A3419942E3
:1008500000D1904210BD000010B5202A04DB0146F3
:10086000203A9140002010BD914020239C1A03465D
:10087000E3401943904010BD10B5202A04DB084620
:10088000203AD040002110BD0B46D340D040202458
:10089000A21A91400843194610BD10B5202A06DB64
:1008A000CB170846203A1041C1170B4306E00B4610
:1008B0001341D0402024A21A91400843194610BD8C
:1008C000002904DA401C490001D14008400070476B
:1008D00070B40024050C05D11024000402D10029B5
:1008E00021D01124050E01D100020834050F01D1D9
:1008F0000001241D850F01D18000A41C002801DB0C
:100900004000641C002908D020252E1B0D46F54010
:10091000A14000D001212943084301061B1B000A06
:10092000DB1D02D5002070BC7047DB05181880184D
:100930000029F8DA401C4900F5D170BC400840009D
:10094000704710B5002B08DA0024401C6141921852
:100950005B411A4301D14008400010BDF0B51FB4FF
:1009600082B005460C0003D0084608F05BFB02E0AD
:1009700008F058FB20300246009021462846FFF739
:100980006BFF049B059A04460F4618431143084326
:1009900014D0184610431BD0009840210A1A18465C
:1009A0000599FFF769FF05460E46009A05990498D8
:1009B000FFF752FF084305D0012004E020463946E6
:1009C00007B0F0BD0020C11705430E432C43374349
:1009D00000990E986305401A7905E40A00220C4339
:1009E000FD0A0A3002D500200146E9E70105101989
:1009F00069410C9C0D9D00196941FFF7A2FFDFE7DB
:100A0000F8B50546480040080C46284304D060006D
:100A1000184A400D904201DD2846F8BD1549353988
:100A2000884210DC88420BDB290D20030843290390
:100A3000014305D0E00F1049C00741180020F8BD60
:100A400000200146F8BD161A4020821B2846214688
:100A5000FFF702FF07460091284621463246FFF77E
:100A60000BFF3A46009BFFF76CFF3246FFF7F4FEA0
:100A7000F8BD0000330400000000F03F4A00090305
:100A80000123090B1B0519430A4B10B5520D9A425D
:100A900002DA0020014610BD064B34339A4203DCD3
:100AA0009A1AFFF7E9FE10BD034BD218FFF7D4FEE8
:100AB00010BD0000FF030000CDFBFFFF10B50029B3
:100AC00004DB0124E40740428C412146002B04DB77
:100AD0001C460123DB075242A3418B4200D18242D4
:100AE00010BD0000064C0125064E05E0E36807CC6A
:100AF0002B430C3C98471034B442F7D3FFF7E4FA89
:100B0000CCA50008ECA5000870B58C180578401C31
:100B10006B075B0F01D10378401C2A1106D10278C4
:100B2000401C03E006780E70401C491C5B1EF9D186
:100B30002B0705D40023521E0DD40B70491CFAE775
:100B40000378401CCB1A921C03E01D780D70491CE1
:100B50005B1C521EF9D5A142D8D3002070BD000005
:100B600070B5174C0646E078012820D006F09EFBB1
:100B700001281CD0BC202070BE2060700025A5700C
:100B8000E5702571012060710E4823460E49083337
:100B900023C30E4A011F0A6022C03460E168204668
:100BA0000968002904D08847012807D0002070BDBB
:100BB0001421FFF722FB0120356070BD3068F7E794
:100BC000000500202800002038000020A0000020A0
:100BD00070B5184C0646E078012821D006F066FB77
:100BE00001281DD0BC202070BE2060700025A5709B
:100BF000E5702571012060712046234628300E499A
:100C0000083323C30E490D4A0A6022C03460E168EC
:100C100020460968002904D08847012807D0002011
:100C200070BD1421FFF7E9FA0120356070BD30680E
:100C3000F7E70000140500206C000020A000002051
:100C40003000002010B500280AD0C268002907D063
:100C50009269002A04D09047012800D0002010BDDE
:100C6000012010BD10B5002208460A60FFF778FF8A
:100C7000012800D0002010BD10B5002808D0C168A0
:100C80008968002904D08847012800D0002010BDC1
:100C9000012010BD10B51349012286B0002802D0F2
:100CA00001280ED106E0CC6A02231C43CC62C96A3B
:100CB000194005E0CB6A1343CB62C96AC907C90F63
:100CC00005914100084B8000595A00910021029182
:100CD00003210391054901920858694600F01CFC64
:100CE00006B010BD0010024058A5000838010020D1
:100CF00010B5044A4100515A034A8000105800F0D0
:100D0000D2FC10BD58A500083801002070B51B4C5E
:100D10000646E07D012828D006F0C8FA012824D034
:100D2000B1202075BA2060750120A0750025E575F9
:100D30002576607620463030E06111482062114807
:100D4000606212481049016021462831CD608860F8
:100D5000084614383060C1680968002906D0884701
:100D6000012809D003F0BEFF002070BD1421FFF759
:100D700044FA0120356070BD3068F7E714050020A3
:100D8000A4000020D800002014010020340000201E
:100D900010B5044A4100515A034A8000105800F02F
:100DA0007DFC10BD56A500083401002070B5044636
:100DB000284886B0C36A01221343C362C36A134042
:100DC0000593436B1343436300206300224DA2004D
:100DD000224E00291DD0012926D1E95A0290009106
:100DE0001F480190B058694600F096FBAD1E2A5787
:100DF000FF20C021002A19DB96081A4BB600F6180E
:100E000033689207D20E9040834391400B43336086
:100E10001BE0E95A01900220029000910320039008
:100E2000B058694600F078FB06B070BD13071B0F81
:100E3000083B9E080C4BB600F618F3699207D20ED9
:100E40009040834391400B43F361285700F03CFEF0
:100E5000EAE700000010024056A500083401002017
:100E60000000111000E400E000ED00E010B50028E3
:100E70000AD0C268002907D09269002A04D090479E
:100E8000012800D0002010BD012010BD10B50C4677
:100E90000021216000280AD0012804D02046FFF755
:100EA00097FE012808D12046FFF730FF02E02046D8
:100EB000FFF78EFE012800D0002010BD10B50028DD
:100EC00008D0C1688968002904D08847012800D06B
:100ED000002010BD012010BD10B508490020FFF70B
:100EE000C1FE06490020091DFFF7D0FF034C206812
:100EF000FFF7C2FE6068FFF7E1FF10BDE0020020CF
:100F00007CB5044600200A4D00900190694628688F
:100F1000FFF798FE01A96868FFF7A8FF0098A06096
:100F2000019860600348E060034820617CBD0000D8
:100F3000E00200200D093E00AB03050000207047D1
:100F40000020704710B500220449054806F02CFF28
:100F50000449034806F01EFF002010BDD00B0020FE
:100F60004C050020E807002010B50146034806F0B4
:100F700011FF024806F0E7FE002010BD4C050020DE
:100F80000A4610B508490969FF31FF310231496944
:100F9000002901D0012010BD0146044806F004FFDD
:100FA000024806F063FF10BDCC0700204C0500206E
:100FB00030B587B014216846FFF71FF90320019070
:100FC0000020029003204003104C0090E06A0121B1
:100FD0000843E062E06A0840059005206946000782
:100FE00000F09AFAE06A40084000E062606B012578
:100FF000AD052843606300F06BF900F079F900F06B
:101000006FF9606BA843606307B030BD0010024009
:1010100010B509F08FF910BD30B5446C1C252C407B
:101020000125A540046C6560046863608368102B2B
:10103000036803D099600068C26030BD9A600068A0
:10104000C16030BD10B5012000F05AFA022000F056
:1010500057FA10BD10B5042000F052FA082000F035
:101060004FFA10BD10B5102000F04AFA202000F011
:1010700047FA402000F044FA802000F041FAFF20B7
:10108000013000F03DFA0120400200F039FA012061
:10109000800200F035FA0120C00200F031FA012090
:1010A000000300F02DFA0120400300F029FA01208E
:1010B000800300F025FA0120C00300F021FA10BDE2
:1010C00001A006F0B1FAFEE74572726F725F4861E7
:1010D0006E646C65720A0D0010B5094A0021CB00E0
:1010E000D458844207D89B189B68834203D9C80010
:1010F0008018007910BD491CC9B21529EFD3FEE74D
:1011000030A4000870B5040006D0606D26460025A6
:101110004036002802D006E0012070BDA565357478
:10112000204600F0D3F8606DC00603D421688868BB
:10113000400705D5606D1021084360653574EBE705
:10114000606DFF220132904302221043606588687F
:101150008207920F5B48012A02D10A68D2072BD17D
:10116000032362689B079A4205D05B429A4202D0F1
:101170005B009A4209D10A69920092080A612168CB
:101180000A6963681A430A610CE00A6992009208CE
:101190000A6181680F2292049143816081686268CC
:1011A000114381602168CA6818239A43CA60216884
:1011B000CA68A3681A43CA60816801225206914333
:1011C00081608168A28E5206114381602068816827
:1011D000C90004D48168012212071143816020688C
:1011E000C168394A1140C1602069E168022825D0F0
:1011F00000200143204620300278037B52035B002D
:101200001A431143226B1143A26992031143E2690D
:10121000D20311432268D3681943D160616A0A4638
:10122000FF3AC23A05D0A26A11432268D368194333
:10123000D16042780121012A02D00BE00420D8E7D6
:101240000078002823D0606D202210436065A06DD7
:101250000843A065E06B012820681FD00169C90719
:1012600003D0016949084900016120684169C90842
:10127000C900416120684169A26B11434161A565C4
:10128000606D80088000401C6065002070BD206893
:10129000C26801231B041A43C260DBE70269FF2313
:1012A0009B009A43026120680269236CA66C1A4372
:1012B000636C33431A430261206802690A43026186
:1012C000D3E70000002701401902FEFF704700002D
:1012D0000248416849084900416070470058014090
:1012E0000248416804229143416070470058014020
:1012F0000248416802229143416070470058014012
:1013000070B50024014620314A79022A03D0042115
:10131000C163012418E0026813680E25AB43136013
:10132000026813685B085B001360436C1C22134067
:10133000012215469D40036C5D604A7100220A71CE
:10134000816B002900D08847204670BDF0B4016C45
:101350000D6801680C68466C1C2304221E40174669
:10136000B7402F420ED067070CD50C68A40602D4F4
:101370000C6894430C60416C19408A40016C4A60CF
:10138000016B1AE00227B74002462F402032002F9F
:1013900017D0A70715D50C68A40605D40C680A2534
:1013A000AC430C6001215171446C02211C40036C60
:1013B000A140596000211171C16A002918D0F0BC08
:1013C00008470827B7402F4212D0240710D50C68D1
:1013D0000E25AC430C60446C01211C400B46A3401D
:1013E000046C6360C163517100211171416BE4E7CA
:1013F000F0BC704770B504003CD01F48256814212C
:101400002818FEF775FE800060641C4820640221E5
:10141000204620300246417129681948E36801409E
:10142000A06866691843236933431843A3691843C6
:10143000E3691843236A1843084328600121A06820
:101440008903884210D00D488030836A656C1C2166
:101450000D400F26AE40B3438362656C63680D4058
:10146000816AAB400B4383620020E063012151712C
:10147000107170BD012070BDF8FFFDBF000002407B
:101480000F80FFFFF8B504468C4620300179002517
:10149000012909D00126067141790027012905D0CB
:1014A000077102252846F8BD0220F8BD02214171CE
:1014B000E7632068016849084900016061462046E9
:1014C000FFF7AAFD206B00282068016801D00E22DA
:1014D00005E0042291430160206801680A2211435B
:1014E00001602068016831430160DBE701B50098C5
:1014F00002F00CFD08BD10B502F02EFC10BD00007E
:1015000010B504494A69024202D04861FFF7F3FF6F
:1015100010BD000000040140F8B500230124A7E03D
:1015200027469F403A4070D04D68022D01D0122DC1
:1015300014D1DD08AD002D1800952D6A5E07AC466C
:10154000F50E0F26AE46AE406546B543AC460E6975
:101550007546AE4065462E43009D2E624D68012DB6
:1015600005D0022D03D0112D01D0122D16D1856882
:101570000326AC465D00AE46AE406546B543AC467C
:10158000CE687546AE4065462E43866046680D7946
:10159000BE43ED06ED0F9D403543456006685F0094
:1015A0000325BD40AE46AE430D79B446AE07B60F37
:1015B000BE4065462E430660C6687546AE438D68DC
:1015C000BD403543C5604D68ED0050D52B4D6E6B69
:1015D00026436E639E082A4DB6007519AC46AD6869
:1015E0009E07360F0F27B740BD4305273F07B84278
:1015F00001D100271AE0234FB84201D1012715E09D
:10160000214FB84202D1022710E030E01F4FB8420C
:1016100001D103270AE01E4FB84201D1042705E09B
:101620001C4FB84201D1052700E00627B7402F43E1
:101630006546AF60184D2E684F689643FF0300D58E
:1016400016432E606E684F689643BF0300D516435D
:101650006E60AE684F689643FF0200D51643AE60D9
:10166000EE684F689643BF0200D51643EE605B1CE0
:101670000A681546DD4000D052E7F8BD0010024070
:10168000000001400004005000080050000C005011
:1016900000100050001C0050000401400069084088
:1016A00000D00120704742694A4042617047002AD9
:1016B00001D0816170478162704700000148006875
:1016C000704700004C01002070B5040014D02421A4
:1016D00020464030054641702068016849084900AD
:1016E0000160204600F0B8F900216164697021634F
:1016F000A9702970084670BD012070BD4030407847
:101700007047000070B5040006D025464035687863
:101710000026002802D005E0012070BD2E70204672
:1017200000F09BF92420687020680168490849008E
:1017300001600F21606809068843216808612168FB
:101740008A680120C00382438A60E1680129A16898
:1017500008D021229202114322689160E168022997
:1017600002D005E00143F7E701212268C902516078
:1017700021684A680F4B1A434A602168CA6882434D
:10178000CA60616920690843A169090208432168A8
:10179000C860216AE0690843216808602068016820
:1017A0000122114301606664202068702663AE70D8
:1017B000002070BD00800002FFB50546044640359C
:1017C000687883B0202875D10C98002814D00D9823
:1017D000002811D0287801286CD001202870FFF74C
:1017E0006DFF0746012200901923D103204602F025
:1017F000FFFE002874D103E00120400260646FE026
:10180000222068704020A870002666640C986062F0
:101810000D98608566630E980090019704A90EC923
:10182000204602F071FE002801D02E7058E0618D34
:101830003448FF2905D9FF22228501231B06009089
:1018400006E0618D21850090208D0123C2B25B06E8
:101850002046049902F0B8FE009700220421204699
:101860000E9B02F0C5FE00283AD12068406A616AEA
:101870000870606A401C6062208D401E81B2218524
:10188000608D401E6085608D00281FD000291DD10D
:1018900000970022802120460E9B02F0A9FE00281E
:1018A0001ED1608DFF2806D9FF22228501231B0649
:1018B000009607E024E0608D20850096208D0123AE
:1018C000C2B25B062046049902F07EFE608D0028BD
:1018D000C2D13A4620460E9902F0B1FE002802D04D
:1018E000012007B0F0BD20682021C1612068426856
:1018F000054B1A4042606970AE702E700020F0E710
:101900000220EEE70024008000E800FEFFB5054657
:1019100004464035687883B0202872D10C9800289E
:1019200014D00D98002811D02878012869D0012002
:101930002870FFF7C3FE0746012200901923D10348
:10194000204602F055FE002871D103E0012040023C
:1019500060646CE0212068704020A87000266664F6
:101960000C9860620D98608566630E9800900197F0
:1019700004A90EC9204602F0F7FD002801D02E7000
:1019800055E0608DFF2805D9FF22228501231B0623
:10199000009606E0608D20850096208D0123C2B25E
:1019A0005B062046049902F00FFE3A4620460E9947
:1019B00002F06BFE00283AD1606A216800788862E4
:1019C000606A401C6062608D401E6085208D401EF4
:1019D00080B22085618D00291FD000281DD100977D
:1019E0000022802120460E9B02F002FE00281ED11C
:1019F000608DFF2806D9FF22228501231B06009651
:101A000007E024E0608D20850096208D0123C2B27E
:101A10005B062046049902F0D7FD608D0028C4D1F2
:101A20003A4620460E9902F00AFE002802D0012014
:101A300007B0F0BD20682021C16120684268054BD5
:101A40001A4042606970AE702E700020F0E70220EC
:101A5000EEE7000000E800FE7047704702480168AA
:101A6000491C0160704700004C01002010B5084877
:101A700000240168022211430160032000F00AF8EB
:101A8000002801D0012401E000F006F8204610BD36
:101A9000002002400020704710B50948816B020405
:101AA0001143816300F010FB00F006FB054801685C
:101AB00008221143016000F0F7FA02F0A1F910BD0D
:101AC0000010024000200240002805DBC106C90EBC
:101AD00001208840014908607047000000E100E0F3
:101AE00010B507F0C3FA10BD0168FF30FF300122C6
:101AF00002304031C266088B10430883088B0222F3
:101B0000104308830020704710B54D230122DB00ED
:101B100001681A5013246401002300190370403136
:101B2000888A10438882888A022210438882184655
:101B300010BD704710B50C0604D54907090E0818EA
:101B4000283003E049010818FF30293099B2002AF3
:101B500006D0012202730181190C4181002010BDC1
:101B600000220273C180F9E74A01121810B5FF3054
:101B7000FF300230D26B006F06F02FFB10BD4A0120
:101B8000121810B5FF30FF32FF3001320230D26B35
:101B9000006F06F08CFB10BD70B54B07CD095B0FD5
:101BA0005901091801220024002D02D028314A7061
:101BB00002E0FF3129314C700B7011235B01C51815
:101BC0002B7A012B06D02A72006806F0E1FF2C72F6
:101BD000002070BD022070BD70B50A074368120F67
:101BE0009A4201D9012070BD4B07CD095B0F590105
:101BF000091801220024002D02D028314A7002E089
:101C0000FF3129314C708C700B7011235B01C518AA
:101C10002B7A012B06D02A72006807F053F82C7239
:101C2000002070BD022070BD4907090E0818FF3062
:101C30000130406C7047F8B54F07CD097F0F79012F
:101C4000091801260024002D02D028314E7002E030
:101C5000FF3129314C700F700A61CB704A78002A2D
:101C600000D0CF81022B00D10C71112252018518B6
:101C70002A7A012A06D02E72006806F061FE2046FC
:101C80002C72F8BD0220F8BD70B54D070C466D0FE3
:101C900069010918FF3129318B614A610022CA614B
:101CA0004A700D706207006807F060F8002070BD90
:101CB000F8B504464A074068520F0D46824201D9E2
:101CC0000120F8BDE90900270120002904D05101B5
:101CD00009192831487004E069010919FF312931D7
:101CE0004F7088700A7011225201A618327A012AA8
:101CF00006D03072206807F01DF8680702D007E0B0
:101D00000220F8BD232109016118206806F0D8FFE0
:101D100037720020F8BD70B54D070C466D0F690194
:101D200009180B64CA6300224A64012228314A70F0
:101D30000D706207006807F019F8002070BDF8B553
:101D40000446006807F0EEF8000402D5204603F0D0
:101D500055FC206807F0E6F840050DD520684030B6
:101D600081880122920291438180204600F022F96D
:101D70000021204600F050F9206807F0D3F8400415
:101D800006D52068403081880122920391438180EA
:101D9000206807F0C7F8800406D5206840308188A5
:101DA0000122520391438180206807F0BBF8C104EF
:101DB0001320400104260827251800291CDA206872
:101DC00040300188B1430180206840300188B94328
:101DD00001802878012805D100202870014620467E
:101DE000FFF7A7FE204600F0F9F820684030818810
:101DF0000122120391438180206807F093F80005C7
:101E000019D520684030018839430180206840306E
:101E100081880122D202914381802068403001886C
:101E200031430180206807F07DF8C043C00402D52B
:101E3000204600F025F9206807F074F800060BD55D
:101E40002068403081888022914381802878002852
:101E50001ED0204600F014F9206807F063F88005D2
:101E600009D5206840308188012252029143818047
:101E7000204600F0C9F8206807F054F8C00506D5E0
:101E8000206840308188FF22013291438180F8BD73
:101E9000206840300188314301802068403001884B
:101EA000394301800120287020684030808A3C211D
:101EB0008008084099218900085101212046FFF738
:101EC00038FEC9E7F0B585B0040007D01120400105
:101ED0002618707A0025002803D006E0012005B0FE
:101EE000F0BD3572204600F04DF803207072206876
:101EF00006F0DCFE002101270CE048010019024633
:101F0000203257721172C186D5728563C563491C30
:101F1000C9B2056460688842EFD800220EE0500123
:101F200000190146FF3121314D720A72FF30013034
:101F3000CD728563C563521CD2B20564606890425D
:101F4000EDD82146142210316846FEF73DF90FCC3A
:101F5000103C06F09DFE002802D002207072BDE702
:101F6000242005557772E069012802D12046FFF749
:101F7000CBFD206A012802D12046FFF7B5FD0020E5
:101F8000ADE7000010B50068084988420DD1084847
:101F9000816B0122D20511438163002211461F206B
:101FA000FFF79EFD1F20FFF78FFD10BD005C004076
:101FB0000010024070B5044680680125022801D057
:101FC000FFF77EF8FF34FF3402342946206F06F015
:101FD0006BFA206F06F023FA70BD000010B50446BE
:101FE0008069002806D007480169062291430161F3
:101FF00005F098F9FF34FF340234206F06F03CFA04
:1020000010BD000000ED00E0FF3010B5FF300230E1
:10201000006F06F038FA10BD10B511225201841875
:10202000227A012A09D00122227224221154006846
:1020300006F0B8FF0020207210BD022010BD10B5C0
:10204000272109010A58232109014118104606F0E9
:1020500038FA10BD70B50446112040012518287AC1
:1020600001280AD001202872206806F009FE2068A5
:1020700006F046FF0020287270BD022070BD0000EF
:1020800010B50446FF30FF300230006F06F05AFAF8
:10209000A069002804D003480169062211430161A8
:1020A00010BD000000ED00E0024801680215114378
:1020B00001607047007000400248016842151143FA
:1020C000016070470070004002480168102291438F
:1020D0000160704700700040F8B5044600785E4D1E
:1020E000800672D55C4E0027403EB06BC00004D421
:1020F000B06BA9050843B063012758480168C905BA
:1021000011D40168821511430160FFF7D7FA0090DE
:1021100005E0FFF7D3FA0099401A642837D84F48F2
:102120000068C005F5D532680321090560680A40DA
:102130000140914208D08103890F032904D13168FD
:10214000890301D50120F8BD2A69032109040A4049
:1021500022D0084090421FD0207880061CD52869E4
:102160002A6988430121C9040A432A612A698A43EA
:102170002A612861C0050FD5FFF7A0FA009008E09A
:10218000FFF79CFA0099411A3548814201D9032092
:10219000F8BD28698005F3D561688803800F03289E
:1021A00005D132680005824301400A433260286944
:1021B000032261681204114008432861002F04D0F3
:1021C000B06B012109078843B0632078C00705D0B0
:1021D000E868A168800880000843E86020788007EC
:1021E00005D5E8680C218843E1680843E860207859
:1021F000400706D5E868032189028843216908431E
:10220000E8602078000706D5E868032109038843C1
:1022100061690843E8602088C00506D5E8680321A5
:1022200009048843A1690843E8602078400606D580
:10223000E868012189068843216A0843E86020781C
:10224000000606D5E868032189048843E16908434C
:10225000E8600020F8BD000040100240007000401F
:1022600088130000F8B50E4605007DD0534800687D
:10227000C007C00FB0420AD250480168490849005F
:10228000314301600068C007C00FB04271D12878A7
:102290004B4C800705D5E068F0218843A9680843C6
:1022A000E0602878C00752D06868022817D0032859
:1022B00018D02168012818D08905002959DAE16869
:1022C000890889000143E160FFF7F8F9696807466A
:1022D000022912D003291CD0012926D033E021681D
:1022E0008903EAE721688901E7E74907E5E7FFF79E
:1022F000E5F9C11B3348814223D8E0680007800F0D
:102300000228F4D123E0FFF7D9F9C11B2D488142FF
:1023100017D8E0680007800F0328F4D117E0FFF713
:10232000CDF9C11B274881420BD8E0680007800F18
:102330000128F4D10BE0FFF7C1F9C11B214881420C
:1023400001D90320F8BDE0680007800FF3D11B48D6
:102350000168C907C90FB1420DD901684908490090
:1023600031430160006800E003E0C007C00FB042E5
:1023700001D00120F8BD2878400706D5E068072184
:1023800009028843E9680843E0602878000707D518
:10239000E0680721C90288432969C9000843E06051
:1023A00000F036F8E168084A0906090F515CC84098
:1023B000064908600320FFF76DFBF8BD00200240CE
:1023C000001002408813000060A5000848010020AA
:1023D000044805490068C968044A4905490F515C29
:1023E000C8407047480100200010024079A500084D
:1023F000044805490068C968044A8904490F515CCA
:10240000C8407047480100200010024079A500082C
:1024100010B5184AD1680C20084004280BD00828B1
:1024200010D00C2810D050680004410F0120C003C8
:10243000491C884010BD1068C00601D50E4810BD6B
:102440000E4810BD0E4810BD88020E4B000F185CE0
:102450000902D368890F491CDB0301D5084A05E04E
:102460001268D20601D5044A00E0044A5043FDF741
:102470003FFE10BD0010024000093D000024F400A2
:1024800000127A0070A50008FEB505007ED0F94C58
:10249000E7680C20E6680740012000040640287821
:1024A000C00747D0082F05D00C2F0AD10120000407
:1024B000864206D1206880033CD568680028E5D0B4
:1024C00038E0012069680004814203D1216801439A
:1024D000216011E0052301221B0492049942216826
:1024E00002D111432160F1E781432160216801405D
:1024F0000091206890432060686800280DD0FFF7A5
:10250000DDF8009005E0FFF7D9F80099401A64283B
:102510007ED820688003F6D50CE0FFF7CFF8009056
:1025200005E0FFF7CBF80099401A6428F0D820683E
:102530008003F6D4287880075CD5E868810604D546
:10254000226820210A43226088430923042F0DD0EA
:102550000C2F01D1002E09D000283BD021689943CF
:1025600001432160FFF7AAF8064627E021684907E2
:1025700001D500288AD061681F22120291432A697E
:102580001202114361602168994300E0C3E10143F5
:102590002160FFF73DFFE16809060A0FB649895C33
:1025A000C840B64908600320FFF774FA002873D1C9
:1025B00020E0FFF783F8801B0228A9D82068400795
:1025C000F7D560681F210902884329690902084379
:1025D00060600FE02068400840002060FFF76EF860
:1025E000064604E0FFF76AF8801B022890D82068AE
:1025F0004007F7D42878C00660D5002F0DD0E869D1
:1026000000284AD02068FF2101310843206000E003
:10261000E8E0FFF753F806462CE02068800502D575
:10262000E8690028A6D06068072149038843696AE1
:10263000084360606068298C0002000A09060843AC
:102640006060686A410B0120C003491C8840E16852
:1026500009060A0F8849895CC84088490860032038
:10266000FFF718FA002817D128E0FFF727F8801B9A
:102670000228A2D820688005F7D5606807214903A1
:102680008843696A084360606068298C0002000A18
:1026900009060843606011E023E12168FF20013052
:1026A00081432160FFF70AF8064604E0FFF706F8C9
:1026B000801B02289AD820688005F7D42878704EAD
:1026C000000724D568690028306910D0012108432B
:1026D0003061FEF7F3FF009005E0FEF7EFFF009991
:1026E000401A02287ED830698007F6D50FE04008EE
:1026F00040003061FEF7E2FF009005E0FEF7DEFFEC
:102700000099401A02286DD830698007F6D42878DD
:10271000400764D500200290A06BC00006D4A06BD7
:10272000012109070843A063012002905548016870
:10273000C90511D40168821511430160FEF7BEFF7F
:10274000009005E0FEF7BAFF0099401A642849D8C6
:102750004C480068C005F5D5FF20AA6801308242C8
:1027600003D131690143316111E001218902002A5D
:1027700007D005231B029A4203D132690A43326112
:10278000EFE7326982433261306988433061A8687B
:1027900000280ED0FEF792FF009006E0FEF78EFFB5
:1027A0000099411A384881421CD830698005F5D516
:1027B0000DE0FEF783FF009006E0FEF77FFF009933
:1027C000411A314881420DD830698005F5D402980C
:1027D000002804D0A06B012109078843A063287852
:1027E000800600E07CE02ED52848A9694314002922
:1027F00016D0A26801210A43A260626B0A43626399
:10280000016A19430162FEF759FF064604E0FEF72C
:1028100055FF801B022863D8A0688007F7D512E017
:10282000A16849084900A160016A99430162FEF765
:1028300045FF064604E0FEF741FF801B02284FD803
:10284000A0688007F7D4A86A002866D00C2F4DD066
:10285000012636060228206805D0B0432060FEF726
:102860002DFF05463EE0B0432060FEF727FF0746F8
:1028700013E000000010024060A50008480100209D
:10288000401002400070004088130000000001402A
:10289000FEF714FFC01B022822D820688001F7D45D
:1028A000296BE86AE2680843696BFD231B049A43BD
:1028B00011430843E060206830432060FEF7FEFECD
:1028C000054604E0FEF7FAFE401B022808D82068FF
:1028D0008001F7D521E0FEF7F1FE401B022801D967
:1028E0000320FEBD20688001F5D416E00128F8D051
:1028F000E06801210904EA6A014091420BD10F21ED
:1029000089042A6B0140914205D1032189050840C1
:10291000696B884201D00120FEBD0020FEBD30B5AC
:10292000014620310A78012A15D001220A700223BB
:102930004B700468CA2363620468532363620368AC
:102940009C6820252C439C600068FF2343624A70EA
:102950000020087030BD022030BD10B504F080FDAD
:1029600010BDF8B5054604462035287801281DD04D
:1029700001202870022068702268CA2050622268F4
:1029800053205062FF2001300026FF2781421CD1D6
:1029900021688A6882438A60206881680122120364
:1029A00091438160FEF78AFE009009E00220F8BDA5
:1029B000FEF784FE0099411A7D20C00081421BD899
:1029C0002068C068C007F3D020E020688168012239
:1029D00052029143816020688168120191438160B5
:1029E000FEF76CFE00900DE0FEF768FE0099411ABC
:1029F0007D20C000814205D92068476203206870AD
:102A00002E70F8BD2068C0688007EDD52068476249
:102A1000012068702E700020F8BD10B500680B46CC
:102A20004068C021C94301400002000ECC04D870A8
:102A3000E40E5C708C06A40E0904490F9C7019709A
:102A4000002A0AD102F02FFFD870587802F02BFF2D
:102A50005870987802F027FF9870002010BD000091
:102A600030B50B460168896A5960016809694904F3
:102A7000490C9960006804680F48214601408802AB
:102A80004D04800E18706D0E49065D70490E9970E8
:102A90006102490E40242140D970002A0AD102F077
:102AA00002FF1870587802F0FEFE5870987802F015
:102AB000FAFE9870002030BD7F7F7F00F8B50400DB
:102AC00050D0254620356878002803D1287020464C
:102AD00000F052F8022068702168CA20486221681C
:102AE00053204862204602F0F2FEFF260427002809
:102AF000206802D046626F7034E081681D4A114040
:102B00008160216888686268A369104322691A435A
:102B1000104388602168E0680861206801692289A3
:102B20001204114301612068C16880229143C16091
:102B30002068C16C89088900C164E169606901434A
:102B40002068C26C1143C1642068806880060BD481
:102B5000204600F0DFF9002806D0206846626F703A
:102B6000002028700120F8BD2068466201206870AE
:102B70000020F8BDBFFF8FFF00B597B00420009084
:102B800000200A90FF20013002906846FFF77CFC8D
:102B9000002801D0FEF794FA60200E900120000476
:102BA0000F90800216900EA8FFF796FA002801D029
:102BB000FEF786FA07480169012292041143016178
:102BC000002211460220FEF78BFF0220FEF77CFF59
:102BD00017B000BD40100240FEB506460446203640
:102BE00030780B4601283ED00120307002207070F2
:102BF000184620300090206800278068002A34D0D2
:102C0000400600D4DF7019789D7809040D43597887
:102C1000DA780902120411430D430099D869097842
:102C200009060D43054358699969054358680843E7
:102C300000902168CA204862216853204862FF2022
:102C40005A6A01308021824245D1226893688343C9
:102C500093602068C2680A40FF3A823AC260FEF779
:102C60002DFD019024E00220FEBD400600D4DF705F
:102C7000187802F020FE0504587802F01CFE0002CD
:102C80000543987802F017FE0543D8780004054301
:102C90000098007802F00FFE00060543D869C1E7EE
:102CA000FEF70CFD0199411A7D20C00081422AD80F
:102CB0002068C068C007F3D02068C561216800980B
:102CC000486420688168FF220132114381602068D6
:102CD0008168120130E02068826801235B029A4318
:102CE00082602068C2680A401D495118C160FEF721
:102CF000E5FC01900EE0FEF7E1FC0199411A7D2010
:102D0000C000814206D92168FF204862032070700C
:102D10003770FEBD2068C0688007ECD5206805626A
:102D2000216800988864206881680122520211435A
:102D3000816020688168120111438160094802683E
:102D4000012149040A43026082680A4382602168C3
:102D5000FF2048620120707037700020FEBD000027
:102D60007FFDFFFF00040140F8B50546044620350D
:102D700028780B4601280FD00120287002206870A7
:102D8000002A0BD0D8789E7800040643587809783A
:102D900000024903084317E00220F8BD5878C10635
:102DA00003D5EF2108400A305870D87802F083FD2F
:102DB0000604587802F07FFD00020643987802F07E
:102DC0007AFD06431878400306432168CA2048620A
:102DD000216853204862204602F079FD0027002830
:102DE00011D111480640206846602068C1688022E1
:102DF0009143C1602068806880060CD4204600F0B2
:102E000089F8002807D02168FF20486204206870F4
:102E10002F700120F8BD2168FF20486201206870F2
:102E20002F700020F8BD00003FFFFF00F8B50646F8
:102E30000446203630780D46012822D0012030701B
:102E400002207070206800278068002A1BD040068E
:102E500000D4EF702978A878090408436978EA78E3
:102E6000090212041143084300902168CA204862F5
:102E7000216853204862204602F029FD002837D1FE
:102E800016E00220F8BD400600D4EF70287802F06A
:102E900012FD0304687802F00EFD00020343A878D7
:102EA00002F009FD0343E878000403430093DCE7E4
:102EB000174900980840216808602068816801224D
:102EC0009204914381602969E868084321688A680F
:102ED000104388602068C16880229143C1602068E7
:102EE000806880060CD4204600F014F8002807D033
:102EF0002168FF2048620420707037700120F8BDFF
:102F00002168FF2048620120707037700020F8BDF2
:102F10007F7F7F0070B504460068C168A02291439E
:102F2000C160FEF7CBFB7D260546F60006E0FEF706
:102F3000C5FB401BB04201D9032070BD2068C068AA
:102F40008006F4D5002070BD70B5040007D00026BF
:102F500025464035A662687C002802D005E00120A5
:102F600070BD2E74204600F02FF80220687420688F
:102F70000168402291430160A168606822690843AA
:102F8000E16811430843616901220843A1695202C3
:102F900011400843E1690843216A0843A16A0843D4
:102FA00021680860A0690421000C0840616A084398
:102FB000216848602068C16992009143C1616665DB
:102FC00001206874002070BD7047FFB5044683B0CF
:102FD000012001900020264640360090307C0C9F56
:102FE0001D4601280FD001203074FEF767FB0290C8
:102FF000707C616801280DD0CA1FFD3A08D1A16814
:10300000002905D102E0022007B0F0BD042801D05C
:103010000220C3E00498002828D00598002825D075
:10302000002D23D0707C042801D00520707400206E
:1030300060650599A163E587A58704992163E58605
:10304000A5862064606420680168490603D401688D
:103050004022114301600121E068C9028842606892
:1030600048D1002804D0012D02D03CE0012095E099
:10307000206B21680088C860206B801C2063E08E74
:10308000401EE0862FE020688168890710D5E18E18
:1030900000290DD0019901290AD1216B0988C1604D
:1030A000206B801C2063E08E401EE0860020019093
:1030B00020688168C9070DD0E18F00290AD0C06857
:1030C000A16B0880A06B801CA063E08F401EE0878E
:1030D00001200190FEF7F2FA01460298081AB84260
:1030E00001D3781C59D1E08E0028CCD1E08F002884
:1030F000C9D146E0002801D0012D3CD1206B2168C8
:1031000000780873206B401C2063E08E401EE08630
:1031100031E020688168890710D5E18E00290DD043
:10312000019901290AD1216B09780173206B401C98
:103130002063E08E401EE0860020019020688168B8
:10314000C9070DD0E18F00290AD0C068A16B0870B3
:10315000A06B401CA063E08F401EE087012001901F
:10316000FEF7ACFA0299401AB84202D3781C02D09A
:1031700013E0002F11D0E08E0028CAD1E08F002884
:10318000C7D139462046029A02F0BEFC002807D07B
:10319000012000902020606509E00320009006E0F7
:1031A000A068002803D12068C168806801900120D0
:1031B000707400203074009826E770477047000054
:1031C000F8B502680446D0691168936805072D0FA9
:1031D0005BD0DD07ED0FFF2621360E402E4367D072
:1031E000C60706D0CE0504D501261662E26F32432B
:1031F000E267870702220426002F06DADF0704D0E1
:1032000027683A62E76F3743E767470706D5DB076A
:1032100004D023681E62E36F1343E367020709D5F6
:1032200020220A402A4305D0236808221A62E36F4D
:103230001343E367E26F002A2FD0800606D5880685
:1032400004D5216E002901D020468847E06F21680F
:103250008968490601D4000724D5204604F027FBDD
:1032600020688168490619D58168402291438160B0
:10327000E06E002812D020498163E06EFEF740F82E
:1032800000280AD0E06E816B06E0850610D58D0619
:103290000ED5216E1CE020468847F8BD2046FFF77A
:1032A0008DFFF8BD2046FFF789FF0020E067F8BDDD
:1032B000C50208D55B0206D5012000051062204634
:1032C000FFF77BFFF8BD030605D50B0603D5616E3E
:1032D0000029E0D1F8BD4006FCD54806FAD51368B0
:1032E000204640218B4313602021616700216166E5
:1032F00000F0D8F8F8BD00001978000810B50400F7
:1033000003D0606F002802D007E0012010BD00212B
:1033100070200155204600F027F8242060672068BF
:103320000168490849000160204604F0D9FA0128E3
:10333000ECD0606A002802D0204604F0D7F920685B
:1033400041680922D20291434160206881682A22A3
:103350009143816020680168012211430160204689
:1033600004F02AFA10BD000038B520490546CA6AA3
:1033700001200243CA62CA6A02400092CA6A02433A
:10338000CA62CA6A024000928A6B43041A438A6383
:103390000A6B02430A63086BC007C00F009006F077
:1033A000F7FF144C1248206000211020E160A0605B
:1033B0006161A161E161802021622061042060607F
:1033C0002046FEF717F8AC66012200210B20A5620B
:1033D000FEF786FB0B20FEF777FB012200211C2065
:1033E000FEF77EFB1C20FEF76FFB38BD001002408D
:1033F00080000240BC180020F8B50446406F202829
:1034000047D100290BD0002A09D00123A0681B0353
:10341000984206D12069002803D1C80701D00120B5
:10342000F8BD25466035287C012832D0012028745B
:1034300020464030E164028242820026E667212075
:103440006067A06E002819D01349C162A16E1348AD
:103450000863A16E12484863A06E1346866327680E
:10346000E16C3A462832A06EFEF70CF8002805D031
:103470001020E0672E7420206067D0E7216840208C
:1034800008622E74206881688022114381600020C8
:10349000F8BD0220F8BD000075780008A578000886
:1034A0002D7800080148006800470000D80200207D
:1034B000704738B504466B460122202100F025FAFA
:1034C00000280CD16A4611788020014311706B46A8
:1034D00001222021204600F093FB002800D001208B
:1034E00038BD38B50446002069460870204600F013
:1034F00047F9012805D0694620780978884201D02B
:10350000012038BD002038BD38B504466B46012285
:10351000202100F0FAF900280DD1684600786B46AA
:103520004106490E6846017001222021204600F024
:1035300067FB002800D0012038BD38B514460D4681
:103540006B460122272100F0E0F9002801D001207C
:1035500038BD684600788007C00F2870684600783C
:10356000C007C00F2070002038BD10B50B460122E7
:103570000F2100F0CAF9002800D0012010BD000082
:10358000F3B583B007466B460222302100F0BDF947
:10359000002824D1684600786B4645086846407884
:1035A0000222400802903621384600F0AEF9002889
:1035B00015D168460024045F6B4602223A21384642
:1035C00000F0A3F900280AD168460026865F6B4602
:1035D00002222821384600F098F9002802D0012064
:1035E00005B0F0BD68460027C75F2846FDF78CF898
:1035F0000190301BFDF788F806460298401BFDF746
:1036000083F80546381BFDF77FF82946FCF759FE7D
:103610003146FCF793FE0199FCF7FAFD0A49FCF7E5
:1036200050FE0A49884202DD7D20C00008E0FF21EB
:10363000C905C84201D3002002E0FDF7B2F880B20C
:10364000049908800020CBE70000204100007A4464
:1036500038B50C46694600F01FF801280CD06846C2
:10366000007800280BD0012807D002280AD00328B0
:103670000AD006482060012038BD7F20C0052060A8
:10368000002038BD0248FAE70248F8E7000080BF92
:103690000000E0400000484138B50C466B4601226E
:1036A000202100F032F9002801D0012038BD694600
:1036B00008788007800F08702070002038BD000057
:1036C000F3B585B007466B460222322100F01DF9A2
:1036D00000282BD101AB01223521384600F015F925
:1036E000002823D16A46117912788807800D10438B
:1036F0000C2211406A46527889011143C510C81046
:1037000003906B4604223C21384600F0FEF8002866
:103710000CD1684600240226045F865F6B460222B5
:103720002A21384600F0F1F8002802D0012007B025
:10373000F0BD68460027C75F2846FCF7E5FF02900A
:10374000301BFCF7E1FF06460398401BFCF7DCFF4B
:103750000546381BFCF7D8FF2946FCF7B2FD314679
:10376000FCF7ECFD0299FCF753FD0449FCF7A9FDB9
:10377000FCF7FEFF069908800020D8E700002041F2
:1037800010B5FFF7F2FE012800D0002010BD10B5E3
:10379000FFF7A7FE10BD10B50446806800680068FA
:1037A0004078002804D1204600F056F8012805D0C2
:1037B000A1680020096809680870E07010BD1CB598
:1037C0000C4601AA6946FFF7B8FE012806D06846F4
:1037D0000078002803D0012801D001201CBD2070F2
:1037E00000201CBD38B50D46002469460C80FFF74B
:1037F000C7FE012808D068460088FCF790FF0349FF
:10380000FCF79CFD2860204638BD000000002041E8
:1038100010B5FFF71DFF10BD10B5FFF7B1FF10BDCC
:1038200010B504468068006800684078002804D11C
:10383000204600F051F8012806D0A168012009684F
:1038400009680870E070002010BD10B500F06BF83A
:10385000012800D0002010BD10B5044600790028D2
:1038600010D0A06800680068C078002804D1204605
:1038700000F062F8012805D0A168002009680968F5
:103880008870207110BD10B504460079012806D05B
:10389000A06800680068C078002802D006E0002018
:1038A00010BD204600F04FF80128F9D0A168012092
:1038B0000968096888702071F1E710B500F08CF88C
:1038C00010BD10B500F09CF810BD10B500F0A6F9C1
:1038D000012800D0002010BD10B50446FFF701FEFE
:1038E000012811D02046FFF70FFE01280CD001213E
:1038F000204600F02FF8012806D00021204600F0D5
:103900006BF8012800D0002010BD10B51C46012A1C
:1039100001D9802319431346224603F0CFFC002827
:1039200000D0012010BD10B513460122FFF7EDFFB6
:10393000012800D0002010BD10B5FFF7E5FD0128DB
:1039400000D0002010BD10B5FFF7B3FD012800D056
:10395000002010BD38B50C460546012905D0002CC5
:1039600003D00E490EA000F063F96B46012220211E
:10397000FFF7CBFF00280FD169460978FB200140F3
:10398000A0000843694608706B46012220212846A2
:1039900000F036F9002800D0012038BD6302000095
:1039A0002E2E5C2E2E5C2E2E5C4472697665727310
:1039B0005C4253505C436F6D706F6E656E74735CE8
:1039C0006874733232315C4854533232315F44721E
:1039D000697665722E63000010B50B0005F039FBA7
:1039E0000504060606060D00012100E0032100F093
:1039F0001DF8012800D0002010BD012010BD0000DE
:103A00007F2210B5D205914201DC012105E0064A72
:103A1000914201DC022100E0032100F007F80128B7
:103A200000D0002010BD00000000E04038B50C00C0
:103A3000054609D0012C07D0022C05D0032C03D059
:103A40000D490EA000F0F4F86B4601222021FFF78B
:103A50005CFF00280DD1694608786B46800880001D
:103A60002043087001222021284600F0C9F80028D0
:103A700000D0012038BD0000BA0200002E2E5C2EBE
:103A80002E5C2E2E5C447269766572735C425350D4
:103A90005C436F6D706F6E656E74735C68747332C7
:103AA00032315C4854533232315F44726976657208
:103AB0002E63000010B5FFF714FD10BD10B50446CD
:103AC0008068006800680078002804D1204600F073
:103AD00057F8012805D0A1680020096809684870D6
:103AE000E07010BD1CB50C466A4601A9FFF725FD24
:103AF000012806D068460078002803D0012801D0AC
:103B000001201CBD207000201CBD10B5FFF7A0FDDA
:103B100010BD000038B50D46002469460C80FFF743
:103B2000CFFD012808D06946085FFCF7EDFD034989
:103B3000FCF704FC2860204638BD0000000020414E
:103B400010B5FFF71DFE10BD10B504468068006873
:103B500000680078002804D12046FFF7BDFE012848
:103B600006D0A1680120096809684870E07000204B
:103B700010BD10B5FFF7D7FE012800D0002010BD02
:103B800010B504460079002810D0A06800680068CD
:103B90008078002804D12046FFF7CEFE012805D00A
:103BA000A168002009680968C870207110BD10B5AF
:103BB00004460079012806D0A06800680068807873
:103BC000002802D006E0002010BD2046FFF7BBFE13
:103BD0000128F9D0A168012009680968C87020711E
:103BE000F1E710B5FFF7F8FE10BD10B5FFF708FFBD
:103BF00010BD10B500F012F8012800D0002010BD53
:103C000010B51C46012A01D98023194313462246C8
:103C100003F06CFB002800D0012010BD07B502ABFB
:103C20000122FFF7EDFF012800D000200EBD0000AB
:103C30000A46014601A005F0CFF9FEE757726F6E04
:103C40006720706172616D65746572732076616C56
:103C500075653A2066696C65202573206F6E206C4F
:103C6000696E652025640D0A0000000010B5134838
:103C70000178002920D10122027012481049016008
:103C80000021C163C161D3078161436042638160E8
:103C900007238363026102462032C16011705170B4
:103CA00004234361816208481173416B421511433B
:103CB00041630448FDF726FA10BD0000DC02002035
:103CC0000024014084190020001002400146002019
:103CD0000A0A00D00820084A114201D004221043E9
:103CE000064A114201D002221043054A114201D076
:103CF0000121084370470000F0F00000CCCC000028
:103D0000AAAA000038B50B231B07C518114B0FD00A
:103D10001C152D1B18D02D1B19D0A542DD6A05D10D
:103D200008242543DD62DB6A234007E08024F8E7AE
:103D3000DC6A01252C43DC62DB6A2B4000931160B6
:103D40001146FDF7E9FB38BDDD6A0224E9E7DD6ACB
:103D50000424E6E70010024010B5FFF7B7FF81002A
:103D600003484158002901D00020884710BD0000B9
:103D70005C17002070B51C4615460E460846FFF736
:103D8000A5FF0A49002C0DD080000C50304601F0F0
:103D90006DFA044600222946FDF7A2FE2046FDF7F3
:103DA00093FE70BD002280000A5070BD5C17002099
:103DB00010B5D2B2FDF77BFC10BD00000F494B6A75
:103DC0000A69D218120EC2714B6A0A69D218120C13
:103DD00082710A8A8B8CD218120A42710A7C8B8CEF
:103DE000D21802714A69120EC2704A69120C8270AE
:103DF0008A8A120A4270097D017070474000F81FDC
:103E0000F0B587B014216846FCF7F7F9224CE06A58
:103E100001210843E062E06A08400590E06A02255B
:103E20002843E062E06A28400590E06A04263043B7
:103E3000E062E06A30400590E06A80273843E06243
:103E4000E06A694638400590032001900020029006
:103E50001248009005200007FDF75EFB1048009017
:103E600069461048FDF758FB69460F48FDF754FBBB
:103E700069460E48FDF750FBE06A40084000E062EA
:103E8000E06AA843E062E06AB043E062E06AB843F7
:103E9000E06207B0F0BD000000100240FF9F00008C
:103EA000FFFF00000004005000080050001C0050FC
:103EB00010B5124C607800281ED1FFF7D7FE1048CD
:103EC0000068804700F002FA00F0ACF803F09CFBB9
:103ED00001F0E4F90020FCF7DDFE0120FCF7DAFE3A
:103EE00000210846FCF762FFFCF7F6FF054906488B
:103EF00003F09FFA0120607010BD0000DC0200207A
:103F0000E0A400088D550008481A002070B5410E45
:103F1000C0017D220023FCF715F9054600F07AF870
:103F2000044600E000BF00F075F8001BA842F9D37A
:103F300070BD0000F8B505460C4600222348FEF788
:103F40008FFD234FB86A002286B229461F48FEF72C
:103F500064FD002221461D48FEF782FDB86A80B24A
:103F6000B042EFD1E8781B4A01465043C01C830899
:103F7000880729D0184869783D220E4651430A46E1
:103F80003C3A7100891EC840D10F80078918800F04
:103F90004910081AC018A978401E08180F493C2279
:103FA00048436178E123514322781B015A43891821
:103FB000A27810180818810D83026068084C00224E
:103FC000201A18185141F8BD0648D4E79C17002064
:103FD00000280040B5050000A0AA9900805101000A
:103FE000FF0300005055440003207047014800685B
:103FF00070470000E817002000B587B0694605A8A3
:10400000FFF798FF0249096807B0401A00BD000099
:10401000E817002000B587B0694605A8FFF78AFFBA
:1040200007B000BD10B5084C207800280AD100F078
:104030004DF8FF2101310548FEF793FC00F076F8BA
:104040000120207010BD0000CE0200209C1700202F
:1040500010B50D4C0021042000F0B6FB01200B49E7
:104060004004486121688868C0040BD5C868C00551
:1040700008D5C86880221040FF388238C8602046C2
:10408000FEF76BFC10BD00009C17002000040140EF
:1040900070B50446FFF7B0FF211A0B4D0220285ED1
:1040A000C01C814201D9002100E00121042000F060
:1040B0008BFB00F061FB012802D10220285E241A4C
:1040C000204600F03FF870BDCE02002010B5144924
:1040D000144886B0002412C01F210160846004616E
:1040E0001149446141600838FEF7E8FC6946CC7527
:1040F0000120487588750875002205A90948FEF752
:1041000033FE009401940494002269460548039408
:10411000FEF78CFE0348FEF702FC06B010BD00005F
:10412000002800409C170020FF03000010B5044C3D
:104130002046211D1830FFF7FDFE206010BD000055
:10414000E8170020F0B587B0044614223F4901A8C3
:10415000FCF73AF83D485038406E009000F07EF889
:104160003B4802993B4A401AA105890D081887B2BD
:10417000A10A68468078534202E08918401C80B248
:104180009942FAD26A461579E122120102E0891AAF
:104190006D1CADB29142FAD26A46547902E0641CB9
:1041A000A4B23C393C29FAD2927951188EB201213D
:1041B000890203E07A1A761C97B2B6B28F42F9D21E
:1041C00003E03C3E641CB6B2A4B23C2EF9D203E03C
:1041D0003C3C6D1CA4B2ADB23C2CF9D203E0183DBE
:1041E000401CADB280B2182DF9D26946C978890752
:1041F00069464A7827D01849491E515C814202D24B
:10420000FBF776FF08461249CA1B10492C394A6051
:10421000052252068A618E704C700A460D7020325B
:1042200010706846C079C8700020C861FF224861DC
:104230000132C8604A620861024608462438FEF727
:10424000CBFC07B0F0BD04490C31D5E7EC170020DA
:10425000FF03000080AEFEFF81A5000810B5FF211E
:1042600001310748FEF77DFB05480168C8688022D8
:104270001040FF388238C86002499002486110BD82
:104280009C17002000040140810A7D228005D20095
:10429000800D50435143800A0818704710B5410EF5
:1042A000C0017D220023FBF74DFF10BD01B582B098
:1042B0000020C0430090012301AA02A90248FEF792
:1042C00084FE684680880EBD0418002010B51C4886
:1042D0001A4901601C4A1B4B0021126803E0520876
:1042E000491C072901D29A42F9D84A078B07D20FF5
:1042F000DB0F52011B011A43C90700D008210A43F2
:10430000C2610021816001614161FF22C16005320B
:1043100081624260012201625202826141620B4865
:10432000416B8214114341630548FEF70DFE0028DE
:1043300001D0FCF7C5FE00F00BF810BD00300140C5
:1043400004180020809698004801002000100240C8
:1043500030B585B014216846FBF74FFF022001906D
:1043600000240320039002946A46082104940F4815
:10437000FFF7C8FC05252D076A4640212846FFF7B0
:10438000C1FC6A4680212846FFF7BCFC012002944C
:10439000C40301906A4621462846FFF7B3FC012278
:1043A00021462846FFF704FD05B030BD000400504B
:1043B00000BFFDE710B50348FDF786F900F004F8EB
:1043C00010BD0000B404002010B50E48FDF796F9AA
:1043D00000280DD10B480C49416033218160012137
:1043E000C1600A49016000F013F80648FDF78AF938
:1043F0000448FDF783F9202801D0012010BD0020DA
:1044000010BD0000B40400202E11B1000054004083
:1044100010B5164C86B0E16A02200143E162E16A00
:1044200003900140059103210902002000910290B0
:10443000122104200191049069460D48FDF76CF8A3
:10444000A16B012040050143A163A16A0143A16260
:10445000A16A8143A162002211461720FDF740FBAB
:104460001720FDF731FB06B010BD00000010024020
:104470000004005001688A69D243920701D40022E7
:104480008A6200688169C943C90703D08169012232
:104490001143816170470000F7B5044600680E467D
:1044A0008069C043C0062BD42027254640352068AC
:1044B0008069C043800612D5701CF8D0FDF7FEF865
:1044C0000299401AB04201D8002EF0D1606C3843F6
:1044D00060646F700020A87028700120FEBD216804
:1044E0001020C8612068C7612046FFF7C3FF20681D
:1044F0004168044A11404160606C04210843E7E7C9
:104500000020FEBD00E800FEF8B50446164615483A
:104510001D46DAB20090079F0023204600F054F8B1
:104520003A462046069900F0B0F8002818D12846EF
:10453000F5B2012809D02168300A88623A4620463F
:10454000069900F0A2F800280AD120688562009739
:10455000002240212046069B00F04AF8002800D0A7
:104560000120F8BD00200080F8B504461646154825
:104570001D46DAB2C3020090079F204600F024F8DF
:104580003A462046069900F080F8002818D12846BF
:10459000F5B2012809D02168300A88623A462046DF
:1045A000069900F072F800280AD120688562009709
:1045B000002280212046069B00F01AF8002800D037
:1045C0000120F8BD00200080F0B50668059C7568E4
:1045D000064F600D384385438805800D110408435C
:1045E0001843204305437560F0BD0000FF63FF03DF
:1045F000F8B51D4617460E46044609E0681C07D06C
:10460000FDF75CF80699401AA8420BD8002D09D096
:1046100020688169304688430FD00020B842EDD031
:104620000020F8BD616C202001436164403460705B
:104630000020A07020700120F8BD0120EEE770B5C9
:1046400016460D4604460FE0324629462046FFF73F
:1046500023FF002801D0012070BDFDF72FF8801B3B
:10466000A84208D8002D06D020688069C043800683
:10467000EAD4002070BD616C2020014361644034A5
:1046800060700020A0702070E5E770B516460D46FA
:10469000044611E0324629462046FFF7FDFE002879
:1046A00001D0012070BD681C06D0FDF707F8801B03
:1046B000A84208D8002D06D020688069C043800732
:1046C000E8D4002070BD616C202001436164403457
:1046D00060700020A0702070E3E7000013B504466E
:1046E00001A9012005F04EFB17490A78322A10D2A1
:1046F000002C0CD000280CD12820604342181079DF
:10470000002800D1147101980078906015E000280D
:1047100001D001201CBD00221046282343435B1812
:104720009B68002B0ED0401C3228F6DB282050431B
:1047300040180271019A127882600878401C087053
:1047400000201CBDC2B2F1E7802C002070B5002310
:104750001D460EE0040F0A2C02D25E00303401E048
:104760005E0037348C555C00641800015B1C65707A
:10477000DBB29342EED370BDEFF3108172B60748FF
:104780000268002A01D0002005E04068002801D01E
:10479000012000E0022081F310887047C002002051
:1047A00010B5EFF3108272B6064B00295C6803D097
:1047B000012903D1044300E084435C6082F3108844
:1047C00010BD0000C002002010B5EFF3108272B6D9
:1047D000064B00291C6803D0012903D1044300E0E3
:1047E00084431C6082F3108810BD0000C0020020CA
:1047F00038B50446002069460870204600F016FAD5
:10480000012805D0694620780978884201D0012026
:1048100038BD002038BD70B51446054600F080F95B
:10482000012806D02146284600F0D4F9012800D0FE
:10483000002070BD1CB50C46694600F0F9F801284F
:1048400003D068464078207000201CBD1CB50C4683
:10485000694600F0EDF8012803D068460079207021
:1048600000201CBD1CB50C46694600F0E1F801288B
:1048700003D068468078207000201CBD38B50C46F7
:10488000694600F0C2F8012803D06846007820701D
:10489000002038BD1CB50C46694600F0C9F8012857
:1048A00003D068460078207000201CBD1CB50C4663
:1048B000694600F0BDF8012803D06846C078207032
:1048C00000201CBD10B500F0D6F8012800D0002053
:1048D00010BD10B5002905D0012907D0022909D043
:1048E000012010BD002100F05BFA06E0002100F07D
:1048F00072FA02E0002100F089FA0128F1D00020CC
:1049000010BD10B5002905D0012907D0022909D012
:10491000012010BD012100F043FA06E0012100F062
:104920005AFA02E0012100F071FA0128F1D00020CA
:1049300010BD10B560290DD006DC00290AD0202951
:1049400008D0402904D105E0802903D0E02901D016
:10495000012010BD00F075FA0128FAD0002010BD2A
:1049600010B500F0A3FA012800D0002010BD10B54A
:10497000002903D0012901D0012010BD00F0B0FAB8
:104980000128FAD0002010BD10B5002903D001295C
:1049900001D0012010BD00F06EFA0128FAD00020ED
:1049A00010BD10B5002903D0012901D0012010BD90
:1049B00000F096FA0128FAD0002010BD38B50C4658
:1049C0006B460122272100F06BF9002801D001205D
:1049D00038BD68460078C107C90F617002210840E0
:1049E0002070684600788106C90FC006A170C00F0C
:1049F000E070002038BD10B50B4601220F2100F0F9
:104A00004FF9002800D0012010BD38B50C466B4688
:104A10000122142100F044F9002801D0012038BD02
:104A2000694608784009400108702070002038BDB0
:104A300038B50C466B460122262100F031F90028DA
:104A400001D0012038BD684600780022C1092171DB
:104A50004106C90FE1708006800E012120700028F8
:104A600003D06270202804D000E06170A2700020A2
:104A700038BDA170FBE710B50C460B46012214218E
:104A800000F00EF9002801D0012010BD2078C006EA
:104A9000C00E2070002010BD38B50C46694600F0ED
:104AA0002DF8012812D068460078302816D006DC90
:104AB00000280ED010280AD0202804D10CE040286D
:104AC0000ED050280ED008482060012038BD7F202D
:104AD000C0052060002038BD0448FAE70448F8E724
:104AE0000448F6E70448F4E7000080BF00002041D6
:104AF0000000C841000048420000964238B50C460C
:104B00006B460122102100F0CBF8002801D00120D3
:104B100038BD68460078702108402070002038BDFC
:104B200038B50C4600210091694600F00DF80128C7
:104B300007D00098FBF7E8FD0249FBF7FFFB206078
:104B4000002038BD0000C84238B50C46694600F068
:104B50000EF8002801D0012038BD00986421484398
:104B6000C117090D081800132060002038BD38B5A2
:104B70000D4600246B460322282100F091F80028FE
:104B800001D0012038BD002069460A5CC3009A406C
:104B9000401C1443C0B20328F7D3200202D5FF20E3
:104BA0000006044300202C6038BD38B50C466B4627
:104BB00002222B2100F074F8002801D0012038BD1A
:104BC0006846407801026846007808182080002076
:104BD00038BD000038B50C4600216A461180694690
:104BE00000F010F8012809D069460020085EFBF7A4
:104BF0008BFD0349FBF7A2FB2060002038BD0000BD
:104C00000000204138B50C466946FFF7CEFF00286A
:104C100001D0012038BD69460020085E0A214843C2
:104C20006421FBF77BFA2080002038BD10B5FFF728
:104C3000E2FE012800D0002010BD000070B50C4637
:104C40000546FFF7D5FD012826D0144860600121F4
:104C5000284600F039FA01281ED00021284600F02D
:104C600018FA012818D00021284600F054F901282C
:104C700012D00021284600F069F901280CD0022149
:104C8000284600F070F8012806D00021284600F0E0
:104C90004FF8012800D0002070BD00000000C8417E
:104CA000FFB581B01E4615460F4600240CE03819AA
:104CB000C1B232190123019802F000FB002802D092
:104CC000012005B0F0BD641CAC42F0DB0020F8E729
:104CD00010B513460122FFF7E3FF012800D00020A2
:104CE00010BD000000B50F4887B0C26A02210A4318
:104CF000C262C06A039108400590480200900A48C9
:104D000001900020029069460848FCF705FC00224B
:104D100011460720FCF7E4FE0720FCF7D5FE002033
:104D200007B000BD00100240000011100004005048
:104D300038B50C4605466B4601221121FFF7B0FF3E
:104D400000280ED169460A78EF2002402001104366
:104D500008706B4601221121284600F066FA0028EF
:104D600000D0012038BD38B50C4605466B460122FF
:104D70001021FFF795FF002801D0012038BD6846BB
:104D80000178FD2001402143684601706B460122F5
:104D90001021284600F049FA0028EFD0002038BD45
:104DA00038B50C4605466B4601221221FFF778FF05
:104DB00000280ED169460A78EF20024020011043F6
:104DC00008706B4601221221284600F02EFA0028B6
:104DD00000D0012038BD38B50C4605466B4601228F
:104DE0001221FFF75DFF00280ED169460A78DF2007
:104DF00002406001104308706B46012212212846D0
:104E000000F013FA002800D0012038BD38B50C4658
:104E100005466B4601221221FFF742FF00280ED102
:104E200069460A78F7200240E000104308706B469C
:104E300001221221284600F0F8F9002800D00120B4
:104E400038BD38B50C4605466B4601221421FFF7E4
:104E500027FF00280DD1694608786B46C006C00EB2
:104E60002043087001221421284600F0DEF90028B2
:104E700000D0012038BD38B50C4605466B460122EE
:104E80001121FFF70DFF00280ED169460A78BF20D7
:104E90000240A001104308706B46012211212846F0
:104EA00000F0C3F9002800D0012038BD38B50C4609
:104EB00005466B4601221421FFF7F2FE00280DD1B2
:104EC000694608786B46400940012043087001227A
:104ED0001421284600F0A9F9002800D0012038BD8F
:104EE00038B50C4605466B4601221121FFF7D8FE66
:104EF00000280ED169460A78DF2002406001104385
:104F000008706B4601221121284600F08EF9002816
:104F100000D0012038BD38B50C4605466B4601224D
:104F20001021FFF7BDFE00280ED169460A78F72050
:104F30000240E000104308706B4601221021284611
:104F400000F073F9002800D0012038BD38B50C46B8
:104F500005466B4601221021FFF7A2FE00280ED164
:104F600068460178FB2001402143684601706B468A
:104F700001221021284600F058F9002800D0012015
:104F800038BD00007F20C005814209DD064881420E
:104F900006DD0648814203DD0548814200DD054803
:104FA0005060002070470000000020410000C84110
:104FB000000048420000964270B505467F20C005BB
:104FC0001446814201DC10210FE00E48814201DCD1
:104FD00020210AE00C48814201DC302105E00B4829
:104FE000814201DC402100E05021284600F051F8C8
:104FF000012806D0211D2846FFF74EFD012800D0CC
:10500000002070BD000020410000C841000048425F
:1050100000B50B0004F01DF80504070B0D0F11007F
:105020007F20C00500E006485060002000BD054814
:10503000FAE70548F8E70548F6E7012000BD00005B
:10504000000020410000C841000048420000964294
:1050500070B5144605460B0003F0FBFF0504060877
:105060000A0C1900102106E0202104E0302102E0A2
:10507000402100E0502100F00CF8012806D0211D4D
:105080002846FFF709FD012800D0002070BD01204F
:1050900070BD38B50C4605466B4601221021FFF75E
:1050A000FFFD00280ED1684601788F200140214382
:1050B000684601706B4601221021284600F0B5F8C1
:1050C000002800D0012038BD38B50C4605466B4697
:1050D00001221A21FFF7E4FD00280DD16946087866
:1050E0006B46400840002043087001221A212846E0
:1050F00000F09BF8002800D0012038BD10B5FFF764
:1051000077FB10BD70B5054680680068046820789C
:10511000002804D1284600F038F8012802D00020E9
:105120006070E87070BD38B50C466946FFF746FC04
:10513000012803D0684600782070002038BD10B5E3
:10514000FFF7AAFC10BD10B5FFF744FD10BD10B568
:10515000FFF76CFD10BD70B50546806800680468F7
:105160002078002805D121462846FFF767FD012851
:1051700003D001206070E870002070BD10B5FFF70B
:10518000A7FD012800D0002010BD70B5044680683E
:1051900000680568207900280BD0A878002805D180
:1051A00000212046FFF775FF012802D00020E8709B
:1051B000207170BD70B50546806800680468287964
:1051C000012809D0224628466168FFF7F5FE01282C
:1051D00003D00120E0702871002070BD10B58268F6
:1051E00003791268012B126805D0FFF711FF01281F
:1051F00000D0002010BDFFF72BFFF8E710B5826844
:1052000003791268012B126805D0FFF7BBFE012855
:1052100000D0002010BDFFF7CFFEF8E710B500F07A
:105220001CF8012800D0002010BDFFB581B01E463B
:1052300015460F4600240CE03819C1B2321901237B
:10524000019802F053F8002802D0012005B0F0BD0B
:10525000641CAC42F0DB0020F8E707B502AB01228A
:10526000FFF7E3FF012800D000200EBDFF2201322E
:10527000811A90420CD009DC08280DD008DC0128E6
:1052800008D0022806D0042802D105E00F2212021D
:1052900007207047052070470620704710B5002290
:1052A0000F49104802F06BFF002801D0FBF708FF00
:1052B0000D490C4803F06DF9002801D0FBF700FF01
:1052C0000A49084802F05CFD002801D0FBF7F8FE0F
:1052D000044803F0BBF9002801D0FBF7F1FE10BD34
:1052E000600100204C0500208802002050010020B1
:1052F0000A4910B50848088000200A46887004232F
:105300004032937140220A710549087048708870D4
:105310000448FEF753FD10BDA5A50000601A00204B
:1053200084290020E902002070470000F8B50746F4
:105330000D481C46406B15460E4680472B463246AC
:1053400039460A48009404F0C9FE094C0146012878
:1053500007D0002902D007A002F066F909202070CA
:10536000F8BD0420FBE70000E0A400088429002029
:10537000F20200204D657373616765204572726F9C
:105380007220436F64652025640D0A0010B5034840
:10539000406B804702490420087010BDE0A400085B
:1053A000F202002010B50348406B804702490320F9
:1053B000087010BDE0A40008F202002010B50348F8
:1053C000406B804702490820087010BDE0A4000827
:1053D000F202002030B525488DB00078062843D071
:1053E000022841D000200A900B9002A8FBF788FD0C
:1053F00003980A9004980B90FEF70CFE01461CA03F
:1054000002F012F90498FBF7FFF904460D460398E1
:10541000FBF7FAF902460B4618A00195009402F03A
:1054200003F9FEF7F7FD014611A003F093FD049880
:10543000FBF7EAF904460D460398FBF7E5F9024647
:105440000B460EA00195009403F084FD0AAAC0212A
:10545000002004F047FF1249124802F057F81148A3
:1054600002F066F80DB030BD6421F5E7F2020020CD
:105470002564205B494E464F5D20000054656D70E9
:10548000203A20252E3166202020202048756D6985
:10549000203A20252E31662020200D0A0000000031
:1054A000102700007418002008B51148007806285D
:1054B0001CD002281AD000200090C12069460D4A55
:1054C000087050784870401C5070FAF76BFE6946BF
:1054D00088706A46FF21002004F004FF064907484F
:1054E00002F014F8054802F023F808BD6421F6E73D
:1054F000F2020020D2020020FC0800008C180020DC
:1055000000B5134887B0007806281FD002281DD0A8
:1055100018216846FAF771FEC22069460D4A0870E4
:1055200090784870401C9070FAF73CFE6946C87548
:105530006A46FE21002004F0D5FE0749074801F025
:10554000E5FF064801F0F4FF07B000BD6421F5E770
:10555000F2020020D2020020B80B0000A4180020A4
:1055600010B50348017AC03800F062FA10BD00009F
:105570001435002010B50348406B804702490720CE
:10558000087010BDE0A40008F202002010B50B481E
:1055900001796038FBF7F4FC002809D00748322174
:1055A000083001F0B3FF0548083001F0C1FF10BD1D
:1055B0000248083001F0F6FF10BD0000401A00203C
:1055C00010B50020FBF7E4FB002806D105A002F08F
:1055D0002BF808480178491C0170074801F0A8FF22
:1055E00010BD00004B657920707265737365642E81
:1055F000200D0A00E80200205C180020FEB50446D9
:105600002030019035E18A881607360F24D0B70084
:10561000C15B0291090472D5C15B9C4A1140802292
:105620001143C15370010519FF352935287B002826
:1056300020687DD029788A00825A520479D5502278
:10564000125ACB00924912185918515A8905890DDE
:1056500000916FD02A89C1E0D2062DD401888D4AED
:1056600011400122D2031143018020685021095AC0
:105670002546283509182878C20085481018085A88
:105680008005800D6064E16B0818E063002120460E
:10569000FCF76AFA019800790028B3D0A8690028BD
:1056A000B0D1019800798021084321684031888178
:1056B000019800210171DCE02546FF35028829357B
:1056C00013051DD5098A0A182878C1007048001DE5
:1056D0000818105A232183059B0DEB610901EA8804
:1056E0006118206803F021FC20680188674A114096
:1056F0008022114301802046FCF7A1FCB9E094E030
:105700001104D8D50188614A1140802211430180DB
:1057100020685021095A5E4E08182978361DC900A4
:105720008919405A83059B0DEB610CD0EA8802E091
:1057300034E046E056E06969206803F0F6FBE96969
:1057400068694018686100212046FCF718FA206853
:105750005021095A081829698019002914D03E29B6
:1057600016D24A08C90700D0521C91020180216854
:105770000888494A1040012212035040520050400C
:10578000464A1043088074E00188454A114001E010
:10579000490989020122D2031143E7E75021095A3E
:1057A0000A182978CB003A49091D5918515A890518
:1057B000890D009121D0EA886969009B03F0B5FB4F
:1057C0001BE05022CB00125A31491218091D5918FA
:1057D000515A8905890D009104D06A896969009B35
:1057E00003F0A3FB287821688200885A294B803374
:1057F00018402A4B403318438852E969009808182A
:10580000E861696900980A186A61AB69002B03D0E6
:1058100029690098814204D929782046FCF7AFF91C
:1058200003E029782046FCF72FFA0298000620D5DD
:1058300022687001D15B0019164B19400123DB036C
:105840001943D15321685022525A283053180178F5
:105850000F4AC9008918595A8905890DC1614269E1
:105860005218426183690178002B20460AD0FCF768
:1058700052FA2068014640318A88120400D5C2E6F7
:105880000020FEBDFCF770F9F3E700008F0F000069
:10589000020400000F8F00008FBF00008080000016
:1058A000FF830000704701090A2200075143000FDF
:1058B0004018C0B270470022014602E00A39C9B25E
:1058C000521C0A29FAD21007000E0843704770B51F
:1058D00004460068C168490613D40021C943C16069
:1058E000FBF7ECFE7D260546F60006E0FBF7E6FE3C
:1058F000401BB04201D9032070BD2068C06840063B
:10590000F4D5002070BD10B5FEF7A2FB10BD00005D
:10591000F0B521488BB01F490160204981602049C2
:1059200041602049C1602049204D0161A968884734
:1059300069691F48884700241E480694012608907C
:1059400005940794082002A9019651C107200090F0
:105950006F6A234622460E213046B84769691648C9
:105960008847079405200290082006940894099619
:1059700005960394049400940190012307222C6A55
:1059800000211846A04704480C491C3001F051FD85
:105990000BB0F0BDBD530008203500202D5300088A
:1059A00075550008A55300088D530008E0A40008B1
:1059B000E013F336B80B00002021F63661550008DD
:1059C00010B5FAF7EFFBC821FAF7A8FB03486431DA
:1059D00001F09CFD014801F0ABFD10BD3C350020FD
:1059E00010B507490220087006480178012000F030
:1059F0000DF80548C16B7D20C000884710BD000030
:105A0000F2020020F1020020E0A400084900002872
:105A100007D0002008180449800008580349496944
:105A200008470120F6E700009CA50008E0A4000854
:105A300070B50C4605460B49062008700A480178E7
:105A40000020FFF7E3FF09482146026B28469047F4
:105A5000224629460648FAF7B7FB0548C0300472CB
:105A600070BD0000F2020020F1020020E0A4000856
:105A70005434002070B5092000F059FD0546062079
:105A800000F055FD0404072000F051FD000204431E
:105A9000082000F04CFD0443200A0102184A611A54
:105AA000514380315043090A46180021092001F072
:105AB000CFFB3B2000F03BFD4024204301463B2030
:105AC00001F0C6FB3B2000F032FD8006FAD40D4801
:105AD00000F07CFE3B2000F02AFD204301463B20E5
