:020000040800F2
:1000000018280020D5000008494C0008A13C000831
:1000100000000000000000000000000000000000E0
:100020000000000000000000000000005750000821
:100030000000000000000000E14D00089D6700087E
:10004000E7000008E7000008434E0008E70000084A
:10005000E70000084D0F00085D0F00086D0F000855
:10006000E7000008E7000008E7000008190F000893
:10007000E7000008E7000008E7000008E7000008C4
:10008000E7000008E7000008E700000800000000A3
:10009000E7000008E7000008E7000008E7000008A4
:1000A000E7000008E7000008E7000008E700000894
:1000B000FF6F0008E700000800000000E7000008EC
:1000C0000348854600F018FD00480047417E0008BF
:1000D000182800200448804704480047FEE7FEE750
:1000E000FEE7FEE7FEE7FEE735680008C10000080E
:1000F00030B50B46014600202022012409E00D46C0
:10010000D5409D4205D31D469540491B2546954047
:1001100040191546521E002DF1DC30BD70B500248B
:100120002546002801DA01244042002901DA012590
:100130004942FFF7DDFFAC4200D04042002C00D026
:10014000494270BDF0B51FB40646002082B0054696
:100150004024019100901BE0019922460F46304651
:1001600000F094FB049A059B801A994110D3104625
:100170001946224600F07AFB361A8F410197224633
:1001800001200021009F00F071FB38184D410090C4
:100190002046641E0028DFDC019B00982946324679
:1001A00007B0F0BD0549064A08685043054A801863
:1001B00008604008704701490860704780010020CE
:1001C0006D4EC6413930000003460B439B0703D0F8
:1001D00009E008C9121F08C0042AFAD203E00B780C
:1001E0000370401C491C521EF9D27047D2B201E084
:1001F0000270401C491EFBD270470022F6E710B582
:1002000013460A4604461946FFF7F0FF204610BD84
:1002100003460A780270401C491C002AF9D118468E
:100220007047F8B502464A40D40F42004B005208CE
:100230005B089A4202D20246084611464A0023D081
:10024000C30D4A00DDB2120EAD1A202D35DA490277
:100250000126490AF6058A19002C00D052422021B5
:100260004F1B1146B9402A411018C20D9A4221D0A5
:10027000002C17D0012D08DCDA05801AD20F801966
:10028000D207DBB200F02EFBF8BDDA05801A01239D
:1002900040001B06C01880185A428018CA0F10432D
:1002A000490007E04908C2071143DA05801A80199E
:1002B0004008801800F00EFBF8BD61000122511AC1
:1002C000001BF7E70122D2075140AAE70122D2071B
:1002D0005040A6E7024670B54A40D30FDB07400006
:1002E0002DD04A002AD0010E140E00021202091964
:1002F000400A520A8418E50104465443000A120ACF
:100300002E045043A4194219200CC543AA18120CFC
:100310000125AD03521C521912047F39240400D068
:10032000521C104301D44000491EC2B20C06C00941
:100330002018401C4008802A02D003E0002070BD35
:1003400040084000002900DA0020184370BD70B555
:1003500002464A40D50F40004A00ED0740085208C7
:10036000002814D0002A12D0C40DD30D4102012060
:10037000C0055202490A520AE41A091812187D34BB
:10038000914201D3641C00E04900002C01DA0020F6
:1003900070BD0023914201D3891A034340084900EC
:1003A0000028F7D100290AD0914202D10121C907C2
:1003B00005E0914201D2012101E00121C943E0059C
:1003C000C018401900F086FA70BD0000F0B507466D
:1003D0000846584087B0C00F049048000E465900A8
:1003E00040084908BC1A884105D2384631461E46A5
:1003F00017460B4602465800400810434CD0300DBB
:10040000039040055900400D490D0590401A029097
:10041000402872DA18030121000B090508430190F6
:1004200004980092002805D001995242002088418A
:1004300000920190029840210A1A0199009800F058
:1004400015FA05460C466B4607CB00F030FAC0198A
:100450007141039A0E0D0023D71756401A467A4071
:10046000164344D0049A002A2DD0029A012A039AF6
:1004700015DC1205C01A914101263605001C714198
:10048000D20F059ED2070093019202962A46234678
:1004900000F06EFA07B0F0BD38463146FAE71605AF
:1004A000224A0F46B218C01AB74101210905001CA3
:1004B0004F4100187F41114618187941E20F10434F
:1004C0006D19644113E0E2076D0815436408C20723
:1004D0001443039A01261205C01A91413605001CE7
:1004E0007141CE07400830434908C01851412A469F
:1004F000234600F030FACDE7FFE7049801224000E0
:10050000C117121A00238B4104983146C417381AB8
:10051000A141EEE730B40124E407634030BC55E765
:1005200030B40124E407614030BC4FE70000E0FF35
:10053000F0B51FB488B00B99099800244840099978
:10054000C00F490049080991C0070B990090490064
:1005500049080B9109990898A64608431CD00B99A5
:100560000A98084318D0099801244000420D480019
:10057000410D099824050003000B204309900B98B6
:100580000003000B20430B9050181C494018002218
:1005900001901446104605E0002001460DB0F0BD64
:1005A000032801DA034600E003239C46C11A0AAE81
:1005B0000AE05F0008ADED5B4F00F75B7D4300276D
:1005C000AA187C41491C5B1E6145F2DD410004AB69
:1005D0005A522104120C0A43240C401C0828DFDB69
:1005E000019802900099704601910090059B049A31
:1005F0000799069800F0BCF9D0E700000DFCFFFF5A
:10060000F0B50C465C4085B0E40FE40703944C0061
:10061000002664085900944649080246029622437F
:1006200021D062460A431ED06200570D4A000E03D5
:100630002303550D012402462C492405781B1B0B6E
:10064000360B401823432643614600901C46501A3F
:10065000B44103D30098401C009002E09218009827
:100660005B41002803DA0020014605B0F0BD002000
:10067000012109050746864611E064461D46141B04
:10068000B54106D36546521BB341744607430C433C
:10069000A646CD0740084908284392185B41054605
:1006A0000D43EAD11046184313D060461946504016
:1006B0007140084306D06046101AB34106D20122A9
:1006C000002306E000220123DB0702E00122D243DF
:1006D0005310009874460105381C6141029C039D2B
:1006E0000019694100F037F9BFE70000FD03000081
:1006F00070B54B005B0803430BD04B005C0D00262C
:1007000033466542B341D417AD1AA34102DB002042
:10071000014670BD12053018514170BDC217C10F9E
:10072000504010B54018CA079623002100F0DAF8AF
:1007300010BD10B500229623114600F0D3F810BD6D
:100740000EB5C217C10F5040CA0740180021054B13
:100750000293019200910A460B4600F009F903B09A
:1007600000BD0000330400000EB5054902910021D0
:1007700000910A460B46019100F0FAF803B000BD63
:1007800033040000C20F410040020123400ADB0590
:10079000D207090EC0187F2901DA00207047962978
:1007A00003DC9623591AC84001E096398840002A94
:1007B000F4D040427047410040020122400AD20575
:1007C000090E80187F2901DA00207047962903DC82
:1007D0009622511AC84070479639884070470000E9
:1007E0004A0009030123090B1B051943094B10B5E6
:1007F000520D9A4201DA002010BD064B34339A4262
:1008000003DC9A1A00F042F810BD034951188840E1
:1008100010BD0000FF030000CDFBFFFFC20FD20799
:10082000400040080BD0C10D0723DB01C91840026E
:100830000905400A1143C2084007114370470020D0
:100840000146704710B5002904DB0124E40740424B
:100850008C412146002B04DB1C460123DB0752425E
:10086000A341994200D1904210BD000010B5202A4A
:1008700004DB0146203A9140002010BD9140202326
:100880009C1A0346E3401943904010BD10B5202A3E
:1008900004DB0846203AD040002110BD0B46D3406F
:1008A000D0402024A21A91400843194610BD10B52B
:1008B000202A06DBCB170846203A1041C1170B430C
:1008C00006E00B461341D0402024A21A9140084371
:1008D000194610BD002904DA401C490001D1400826
:1008E0004000704770B40024050C05D110240004AA
:1008F00002D1002921D01124050E01D100020834B3
:10090000050F01D10001241D850F01D18000A41C19
:10091000002801DB4000641C002908D020252E1B84
:100920000D46F540A14000D00121294308430106AE
:100930001B1B000ADB1D02D5002070BC7047DB05C5
:10094000181880180029F8DA401C4900F5D170BC4D
:1009500040084000704710B5002B08DA0024401C06
:10096000614192185B411A4301D14008400010BD1B
:10097000F0B51FB482B005460C0003D0084606F05F
:1009800069FB02E006F066FB20300246009021463B
:100990002846FFF76BFF049B059A04460F46184351
:1009A0001143084314D0184610431BD0009840212F
:1009B0000A1A18460599FFF769FF05460E46009A80
:1009C00005990498FFF752FF084305D0012004E081
:1009D0002046394607B0F0BD0020C11705430E433D
:1009E0002C43374300990E986305401A7905E40AB1
:1009F00000220C43FD0A0A3002D500200146E9E737
:100A00000105101969410C9C0D9D00196941FFF702
:100A1000A2FFDFE7F8B50546480040080C4628432A
:100A200004D06000184A400D904201DD2846F8BD10
:100A300015493539884210DC88420BDB290D20032B
:100A400008432903014305D0E00F1049C0074118AE
:100A50000020F8BD00200146F8BD161A4020821B78
:100A600028462146FFF702FF074600912846214607
:100A70003246FFF70BFF3A46009BFFF76CFF32460A
:100A8000FFF7F4FEF8BD0000330400000000F03F63
:100A90004A0009030123090B1B0519430A4B10B532
:100AA000520D9A4202DA0020014610BD064B343343
:100AB0009A4203DC9A1AFFF7E9FE10BD034BD218E5
:100AC000FFF7D4FE10BD0000FF030000CDFBFFFFC9
:100AD00010B5002904DB0124E40740428C41214683
:100AE000002B04DB1C460123DB075242A3418B424F
:100AF00000D1824210BD0000064C0125064E05E0E3
:100B0000E36807CC2B430C3C98471034B442F7D32E
:100B1000FFF7DAFA508600087086000870B58C1866
:100B20000578401C6B075B0F01D10378401C2A112C
:100B300006D10278401C03E006780E70401C491C68
:100B40005B1EF9D12B0705D40023521E0DD40B7068
:100B5000491CFAE70378401CCB1A921C03E01D786D
:100B60000D70491C5B1C521EF9D5A142D8D3002040
:100B700070BD000070B5174C0646E078012820D003
:100B800005F0D4FD01281CD0BC202070BE20607070
:100B90000025A570E5702571012060710E4823467F
:100BA0000E49083323C30E4A011F0A6022C0346075
:100BB000E16820460968002904D08847012807D049
:100BC000002070BD1421FFF718FB0120356070BDB7
:100BD0003068F7E78C030020280000203800002050
:100BE000A000002070B5184C0646E078012821D0FE
:100BF00005F09CFD01281DD0BC202070BE20607037
:100C00000025A570E57025710120607120462346FE
:100C100028300E49083323C30E490D4A0A6022C00A
:100C20003460E16820460968002904D0884701281B
:100C300007D0002070BD1421FFF7DFFA01203560D6
:100C400070BD3068F7E70000A00300206C000020B2
:100C5000A00000203000002010B500280AD0C26893
:100C6000002907D09269002A04D09047012800D0BB
:100C7000002010BD012010BD10B5002208460A60FA
:100C8000FFF778FF012800D0002010BD10B5002824
:100C900008D0C1688968002904D08847012800D09D
:100CA000002010BD012010BD10B51349012286B0EF
:100CB000002802D001280ED106E0CC6A02231C4392
:100CC000CC62C96A194005E0CB6A1343CB62C96A9A
:100CD000C907C90F05914100084B8000595A00917E
:100CE00000210291032103910549019208586946A8
:100CF00000F07EFB06B010BD00100240EC8500083D
:100D00003801002070B51B4C0646E07D012828D034
:100D100005F00CFD012824D0B1202075BA206075A3
:100D20000120A0750025E5752576607620463030D7
:100D3000E061114820621148606212481049016068
:100D400021462831CD608860084614383060C1687B
:100D50000968002906D08847012809D003F024FC3F
:100D6000002070BD1421FFF748FA0120356070BDE6
:100D70003068F7E7A0030020A4000020D80000207E
:100D8000140100203400002070B50446284886B0C5
:100D9000C36A01221343C362C36A13400593436BC2
:100DA0001343436300206300224DA200224E00291A
:100DB0001DD0012926D1E95A029000911F480190C7
:100DC000B058694600F014FBAD1E2A57FF20C02121
:100DD000002A19DB96081A4BB600F61833689207FA
:100DE000D20E9040834391400B4333601BE0E95A9D
:100DF000019002200290009103200390B0586946B0
:100E000000F0F6FA06B070BD13071B0F083B9E08F2
:100E10000C4BB600F618F3699207D20E904083434C
:100E200091400B43F361285700F0B0FDEAE7000062
:100E300000100240EA850008340100200000111073
:100E400000E400E000ED00E010B500280AD0C26820
:100E5000002907D09269002A04D09047012800D0C9
:100E6000002010BD012010BD10B50C4600212160EE
:100E700000280AD0012804D02046FFF7B3FE01283D
:100E800008D12046FFF73EFF02E02046FFF7AAFE0A
:100E9000012800D0002010BD10B5002808D0C1687E
:100EA0008968002904D08847012800D0002010BD9F
:100EB000012010BD10B508490020FFF7DDFE0649EE
:100EC0000020091DFFF7D0FF034C2068FFF7DEFE6E
:100ED0006068FFF7E1FF10BD6C0100207CB504469F
:100EE00000200A4D0090019069462868FFF7B4FE83
:100EF00001A96868FFF7A8FF0098A06001986060EA
:100F00000348E060034820617CBD00006C010020C4
:100F10000D093E00AB03050010B507F055FA10BDF2
:100F200030B5446C1C252C400125A540046C65603F
:100F3000046863608368102B036803D099600068BD
:100F4000C26030BD9A600068C16030BD10B501203C
:100F500000F042FA022000F03FFA10BD10B5042064
:100F600000F03AFA082000F037FA10BD10B5102052
:100F700000F032FA202000F02FFA402000F02CFA86
:100F8000802000F029FAFF20013000F025FA01202E
:100F9000400200F021FA0120800200F01DFA012039
:100FA000C00200F019FA0120000300F015FA012038
:100FB000400300F011FA0120800300F00DFA012037
:100FC000C00300F009FA10BD01A005F06DFDFEE7B9
:100FD0004572726F725F48616E646C65720A0D00D3
:100FE00010B5094A0021CB00D458844207D89B1879
:100FF0009B68834203D9C8008018007910BD491C42
:10100000C9B21529EFD3FEE7C484000870B5040007
:1010100006D0606D264600254036002802D006E046
:10102000012070BDA5653574204600F0D3F8606DD1
:10103000C00603D421688868400705D5606D10217B
:10104000084360653574EBE7606DFF220132904321
:1010500002221043606588688207920F5B48012A6C
:1010600002D10A68D2072BD1032362689B079A42F8
:1010700005D05B429A4202D05B009A4209D10A69CC
:10108000920092080A6121680A6963681A430A613A
:101090000CE00A69920092080A6181680F229204AA
:1010A0009143816081686268114381602168CA68E8
:1010B00018239A43CA602168CA68A3681A43CA60A1
:1010C000816801225206914381608168A28E520696
:1010D0001143816020688168C90004D481680122BD
:1010E0001207114381602068C168394A1140C1600C
:1010F0002069E168022825D00020014320462030E5
:101100000278037B52035B001A431143226B1143A5
:10111000A26992031143E269D20311432268D368A2
:101120001943D160616A0A46FF3AC23A05D0A26A01
:1011300011432268D3681943D16042780121012A02
:1011400002D00BE00420D8E70078002823D0606D9F
:10115000202210436065A06D0843A065E06B012864
:1011600020681FD00169C90703D0016949084900F7
:10117000016120684169C908C9004161206841696D
:10118000A26B11434161A565606D80088000401C21
:101190006065002070BD2068C26801231B041A43EB
:1011A000C260DBE70269FF239B009A43026120686B
:1011B0000269236CA66C1A43636C33431A430261C1
:1011C000206802690A430261D3E70000002701405A
:1011D0001902FEFF704770B50024014620314A799C
:1011E000022A03D00421C163012418E002681368B5
:1011F0000E25AB431360026813685B085B00136045
:10120000436C1C221340012215469D40036C5D6017
:101210004A7100220A71816B002900D0884720465C
:1012200070BDF0B4016C0D6801680C68466C1C233D
:1012300004221E401746B7402F420ED067070CD538
:101240000C68A40602D40C6894430C60416C1940ED
:101250008A40016C4A60016B1AE00227B7400246DF
:101260002F402032002F17D0A70715D50C68A406F1
:1012700005D40C680A25AC430C6001215171446C03
:1012800002211C40036CA140596000211171C16A08
:10129000002918D0F0BC08470827B7402F4212D0C9
:1012A000240710D50C680E25AC430C60446C01215A
:1012B0001C400B46A340046C6360C1635171002164
:1012C0001171416BE4E7F0BC7047000070B5040099
:1012D0003CD01F48256814212818FEF709FF80001C
:1012E00060641C482064022120462030024641717F
:1012F00029681948E3680140A068666918432369B2
:1013000033431843A3691843E3691843236A184316
:10131000084328600121A0688903884210D00D4845
:101320008030836A656C1C210D400F26AE40B343AC
:101330008362656C63680D40816AAB400B438362D6
:101340000020E06301215171107170BD012070BD5A
:10135000F8FFFDBF000002400F80FFFFF8B5044614
:101360008C46203001790025012909D0012606711B
:1013700041790027012905D0077102252846F8BDCB
:101380000220F8BD02214171E76320680168490825
:101390004900016061462046FFF7C2FD206B00282E
:1013A0002068016801D00E2205E00422914301600B
:1013B000206801680A2211430160206801683143F6
:1013C0000160DBE701B5009802F018FA08BD10B51E
:1013D00002F044F910BD000010B504494A69024208
:1013E00002D04861FFF7F3FF10BD00000004014088
:1013F000F8B500230124A7E027469F403A4070D06B
:101400004D68022D01D0122D14D1DD08AD002D182C
:1014100000952D6A5E07AC46F50E0F26AE46AE402F
:101420006546B543AC460E697546AE4065462E43EB
:10143000009D2E624D68012D05D0022D03D0112D87
:1014400001D0122D16D185680326AC465D00AE464C
:10145000AE406546B543AC46CE687546AE4065467F
:101460002E43866046680D79BE43ED06ED0F9D4024
:101470003543456006685F000325BD40AE46AE4378
:101480000D79B446AE07B60FBE4065462E430660E2
:10149000C6687546AE438D68BD403543C5604D682E
:1014A000ED0050D52B4D6E6B26436E639E082A4D82
:1014B000B6007519AC46AD689E07360F0F27B740CA
:1014C000BD4305273F07B84201D100271AE0234F4B
:1014D000B84201D1012715E0214FB84202D10227BD
:1014E00010E030E01F4FB84201D103270AE01E4F41
:1014F000B84201D1042705E01C4FB84201D10527AD
:1015000000E00627B7402F436546AF60184D2E68B0
:101510004F689643FF0300D516432E606E684F68F0
:101520009643BF0300D516436E60AE684F6896437E
:10153000FF0200D51643AE60EE684F689643BF02C7
:1015400000D51643EE605B1C0A681546DD4000D0EE
:1015500052E7F8BD001002400000014000040050B6
:1015600000080050000C005000100050001C0050FB
:1015700000040140002A01D08161704781627047F8
:1015800001480068704700004C01002070B504005D
:1015900014D024212046403005464170206801685F
:1015A000490849000160204600F0B8F90021616453
:1015B00069702163A9702970084670BD012070BD53
:1015C000403040787047000070B5040006D02546D2
:1015D000403568780026002802D005E0012070BD63
:1015E0002E70204600F09BF9242068702068016866
:1015F0004908490001600F21606809068843216895
:10160000086121688A680120C00382438A60E1681A
:101610000129A16808D02122920211432268916019
:10162000E168022902D005E00143F7E701212268C1
:10163000C902516021684A680F4B1A434A60216809
:10164000CA688243CA60616920690843A1690902C6
:1016500008432168C860216AE0690843216808607E
:1016600020680168012211430160666420206870CF
:101670002663AE70002070BD00800002FFB50546F5
:1016800004464035687883B0202875D10C9800282E
:1016900014D00D98002811D0287801286CD0012092
:1016A0002870FFF76DFF0746012200901923D10330
:1016B000204602F015FC002874D103E0012040020E
:1016C00060646FE0222068704020A8700026666485
:1016D0000C9860620D98608566630E980090019783
:1016E00004A90EC9204602F087FB002801D02E7005
:1016F00058E0618D3448FF2905D9FF222285012356
:101700001B06009006E0618D21850090208D01234D
:10171000C2B25B062046049902F0CEFB009700227D
:10172000042120460E9B02F0DBFB00283AD1206802
:10173000406A616A0870606A401C6062208D401EC9
:1017400081B22185608D401E6085608D00281FD08C
:1017500000291DD100970022802120460E9B02F017
:10176000BFFB00281ED1608DFF2806D9FF222285ED
:1017700001231B06009607E024E0608D208500967B
:10178000208D0123C2B25B062046049902F094FB2F
:10179000608D0028C2D13A4620460E9902F0C7FB60
:1017A000002802D0012007B0F0BD20682021C161CF
:1017B00020684268054B1A4042606970AE702E7016
:1017C0000020F0E70220EEE70024008000E800FEA1
:1017D000FFB5054604464035687883B0202872D1AD
:1017E0000C98002814D00D98002811D028780128D2
:1017F00069D001202870FFF7C3FE07460122009040
:101800001923D103204602F06BFB002871D103E0BD
:101810000120400260646CE0212068704020A870C4
:10182000002666640C9860620D98608566630E9869
:101830000090019704A90EC9204602F00DFB002874
:1018400001D02E7055E0608DFF2805D9FF2222853A
:1018500001231B06009606E0608D20850096208DF2
:101860000123C2B25B062046049902F025FB3A46EA
:1018700020460E9902F081FB00283AD1606A216867
:1018800000788862606A401C6062608D401E6085DE
:10189000208D401E80B22085618D00291FD0002838
:1018A0001DD100970022802120460E9B02F018FBDC
:1018B00000281ED1608DFF2806D9FF222285012332
:1018C0001B06009607E024E0608D20850096208DA1
:1018D0000123C2B25B062046049902F0EDFA608D46
:1018E0000028C4D13A4620460E9902F020FB002879
:1018F00002D0012007B0F0BD20682021C16120681E
:101900004268054B1A4042606970AE702E7000202C
:10191000F0E70220EEE7000000E800FE70477047A5
:1019200002480168491C0160704700004C0100201A
:1019300010B5084800240168022211430160032009
:1019400000F00AF8002801D0012401E000F006F8B8
:10195000204610BD002002400020704710B5094805
:10196000816B02041143816300F030F800F026F827
:101970000548016808221143016000F017F801F0E2
:10198000C1FE10BD0010024000200240002805DB0F
:10199000C106C90E01208840014908607047000057
:1019A00000E100E010B505F079FB10BD02480168C8
:1019B0000215114301607047007000400248016841
:1019C00042151143016070470070004002480168F1
:1019D000102291430160704700700040F8B5044642
:1019E00000785E4D800672D55C4E0027403EB06B9D
:1019F000C00004D4B06BA9050843B0630127584860
:101A00000168C90511D40168821511430160FFF70F
:101A1000B7FD009005E0FFF7B3FD0099401A642878
:101A200037D84F480068C005F5D53268032109054D
:101A300060680A400140914208D08103890F032960
:101A400004D13168890301D50120F8BD2A69032139
:101A500009040A4022D0084090421FD02078800616
:101A60001CD528692A6988430121C9040A432A61CF
:101A70002A698A432A612861C0050FD5FFF780FDD6
:101A8000009008E0FFF77CFD0099411A354881423B
:101A900001D90320F8BD28698005F3D56168880362
:101AA000800F032805D132680005824301400A43B4
:101AB00032602869032261681204114008432861DA
:101AC000002F04D0B06B012109078843B063207850
:101AD000C00705D0E868A168800880000843E86076
:101AE0002078800705D5E8680C218843E168084321
:101AF000E8602078400706D5E8680321890288431A
:101B000021690843E8602078000706D5E8680321CA
:101B10000903884361690843E8602088C00506D549
:101B2000E868032109048843A1690843E860207834
:101B3000400606D5E868012189068843216A0843E2
:101B4000E8602078000606D5E86803218904884308
:101B5000E1690843E8600020F8BD00004010024041
:101B60000070004088130000F8B50E4605007DD0D7
:101B700053480068C007C00FB0420AD250480168FD
:101B800049084900314301600068C007C00FB042F6
:101B900071D128784B4C800705D5E068F021884347
:101BA000A9680843E0602878C00752D06868022816
:101BB00017D0032818D02168012818D089050029DA
:101BC00059DAE168890889000143E160FFF7D8FC30
:101BD00069680746022912D003291CD0012926D0A2
:101BE00033E021688903EAE721688901E7E74907CB
:101BF000E5E7FFF7C5FCC11B3348814223D8E06805
:101C00000007800F0228F4D123E0FFF7B9FCC11BC5
:101C10002D48814217D8E0680007800F0328F4D1CF
:101C200017E0FFF7ADFCC11B274881420BD8E068E5
:101C30000007800F0128F4D10BE0FFF7A1FCC11BC6
:101C40002148814201D90320F8BDE0680007800FD8
:101C5000F3D11B480168C907C90FB1420DD901680A
:101C60004908490031430160006800E003E0C00713
:101C7000C00FB04201D00120F8BD2878400706D53A
:101C8000E068072109028843E9680843E060287892
:101C9000000707D5E0680721C90288432969C90000
:101CA0000843E06000F036F8E168084A0906090FC9
:101CB000515CC840064908600320FFF74DFEF8BD9F
:101CC000002002400010024088130000F485000844
:101CD00048010020044805490068C968044A4905CC
:101CE000490F515CC8407047480100200010024075
:101CF0000D860008044805490068C968044A89043B
:101D0000490F515CC8407047480100200010024054
:101D10000D86000810B5184AD1680C200840042828
:101D20000BD0082810D00C2810D050680004410FA8
:101D30000120C003491C884010BD1068C00601D5B1
:101D40000E4810BD0E4810BD0E4810BD88020E4B47
:101D5000000F185C0902D368890F491CDB0301D509
:101D6000084A05E01268D20601D5044A00E0044A98
:101D70005043FEF7BDF910BD0010024000093D00C0
:101D80000024F40000127A0004860008FEB5050065
:101D90007ED0F94CE7680C20E6680740012000047B
:101DA00006402878C00747D0082F05D00C2F0AD14D
:101DB00001200004864206D1206880033CD5686873
:101DC0000028E5D038E0012069680004814203D191
:101DD00021680143216011E0052301221B049204C4
:101DE0009942216802D111432160F1E781432160CA
:101DF00021680140009120689043206068680028B5
:101E00000DD0FFF7BDFB009005E0FFF7B9FB00998F
:101E1000401A64287ED820688003F6D50CE0FFF7CE
:101E2000AFFB009005E0FFF7ABFB0099401A642878
:101E3000F0D820688003F6D4287880075CD5E8685D
:101E4000810604D5226820210A43226088430923A1
:101E5000042F0DD00C2F01D1002E09D000283BD02B
:101E60002168994301432160FFF78AFB064627E07A
:101E70002168490701D500288AD061681F22120213
:101E800091432A691202114361602168994300E07D
:101E9000C3E101432160FFF73DFFE16809060A0F36
:101EA000B649895CC840B64908600320FFF754FD75
:101EB000002873D120E0FFF763FB801B0228A9D81C
:101EC00020684007F7D560681F2109028843296907
:101ED0000902084360600FE020684008400020606D
:101EE000FFF74EFB064604E0FFF74AFB801B022883
:101EF00090D820684007F7D42878C00660D5002F16
:101F00000DD0E86900284AD02068FF21013108433C
:101F1000206000E0E8E0FFF733FB06462CE0206895
:101F2000800502D5E8690028A6D06068072149032A
:101F30008843696A084360606068298C0002000A6F
:101F4000090608436060686A410B0120C003491C10
:101F50008840E16809060A0F8849895CC8408849B9
:101F600008600320FFF7F8FC002817D128E0FFF7EE
:101F700007FB801B0228A2D820688005F7D560687F
:101F8000072149038843696A084360606068298CB7
:101F90000002000A09060843606011E023E121689D
:101FA000FF20013081432160FFF7EAFA064604E092
:101FB000FFF7E6FA801B02289AD820688005F7D43C
:101FC0002878704E000724D568690028306910D041
:101FD000012108433061FFF7D3FA009005E0FFF7D5
:101FE000CFFA0099401A02287ED830698007F6D5CA
:101FF0000FE0400840003061FFF7C2FA009005E0B2
:10200000FFF7BEFA0099401A02286DD830698007A0
:10201000F6D42878400764D500200290A06BC00059
:1020200006D4A06B012109070843A0630120029098
:1020300055480168C90511D4016882151143016032
:10204000FFF79EFA009005E0FFF79AFA0099401A10
:10205000642849D84C480068C005F5D5FF20AA6817
:102060000130824203D131690143316111E0012124
:102070008902002A07D005231B029A4203D1326944
:102080000A433261EFE73269824332613069884343
:102090003061A86800280ED0FFF772FA009006E0C1
:1020A000FFF76EFA0099411A384881421CD830690E
:1020B0008005F5D50DE0FFF763FA009006E0FFF725
:1020C0005FFA0099411A314881420DD83069800584
:1020D000F5D40298002804D0A06B01210907884399
:1020E000A0632878800600E07CE02ED52848A96906
:1020F0004314002916D0A26801210A43A260626B32
:102100000A436263016A19430162FFF739FA06461E
:1021100004E0FFF735FA801B022863D8A068800727
:10212000F7D512E0A16849084900A160016A994306
:102130000162FFF725FA064604E0FFF721FA801B4B
:1021400002284FD8A0688007F7D4A86A002866D074
:102150000C2F4DD0012636060228206805D0B0434A
:102160002060FFF70DFA05463EE0B0432060FFF720
:1021700007FA074613E0000000100240F48500084B
:102180004801002040100240007000408813000009
:1021900000000140FFF7F4F9C01B022822D8206894
:1021A0008001F7D4296BE86AE2680843696BFD2374
:1021B0001B049A4311430843E060206830432060C9
:1021C000FFF7DEF9054604E0FFF7DAF9401B0228C5
:1021D00008D820688001F7D521E0FFF7D1F9401B2E
:1021E000022801D90320FEBD20688001F5D416E045
:1021F0000128F8D0E06801210904EA6A014091420F
:102200000BD10F2189042A6B0140914205D1032192
:1022100089050840696B884201D00120FEBD00207D
:10222000FEBD30B5014620310A78012A15D00122C1
:102230000A7002234B700468CA2363620468532344
:10224000636203689C6820252C439C600068FF2320
:1022500043624A700020087030BD022030BD10B5C6
:1022600004F03EFB10BDF8B505460446203528783D
:1022700001281DD001202870022068702268CA2021
:102280005062226853205062FF2001300026FF2751
:1022900081421CD121688A6882438A6020688168F3
:1022A0000122120391438160FFF76AF9009009E06F
:1022B0000220F8BDFFF764F90099411A7D20C000A3
:1022C00081421BD82068C068C007F3D020E0206896
:1022D0008168012252029143816020688168120165
:1022E00091438160FFF74CF900900DE0FFF748F94A
:1022F0000099411A7D20C000814205D920684762BB
:10230000032068702E70F8BD2068C0688007EDD586
:1023100020684762012068702E700020F8BD10B55B
:1023200000680B464068C021C94301400002000E0E
:10233000CC04D870E40E5C708C06A40E0904490F1E
:102340009C701970002A0AD102F04BFDD8705878A1
:1023500002F047FD5870987802F043FD9870002015
:1023600010BD000030B50B460168896A59600168EC
:1023700009694904490C9960006804680F482146BE
:10238000014088024D04800E18706D0E49065D7084
:10239000490E99706102490E40242140D970002AEB
:1023A0000AD102F01EFD1870587802F01AFD58701C
:1023B000987802F016FD9870002030BD7F7F7F0076
:1023C000F8B5040050D0254620356878002803D1A0
:1023D0002870204600F052F8022068702168CA2058
:1023E0004862216853204862204602F00EFDFF2615
:1023F00004270028206802D046626F7034E08168AC
:102400001D4A11408160216888686268A369104391
:1024100022691A43104388602168E06808612068D7
:10242000016922891204114301612068C168802278
:102430009143C1602068C16C89088900C164E16969
:10244000606901432068C26C1143C16420688068E0
:1024500080060BD4204600F0DFF9002806D0206863
:1024600046626F70002028700120F8BD2068466227
:10247000012068700020F8BDBFFF8FFF00B597B046
:102480000420009000200A90FF200130029068464E
:10249000FFF77CFC002801D0FEF796FD60200E902F
:1024A000012000040F90800216900EA8FFF796FA04
:1024B000002801D0FEF788FD074801690122920437
:1024C00011430161002211460220FFF76BFA02203E
:1024D000FFF75CFA17B000BD40100240FEB506469B
:1024E0000446203630780B4601283ED0012030705B
:1024F0000220707018462030009020680027806805
:10250000002A34D0400600D4DF7019789D78090481
:102510000D435978DA780902120411430D430099EA
:10252000D869097809060D43054358699969054337
:102530005868084300902168CA20486221685320E7
:102540004862FF205A6A01308021824245D12268C8
:102550009368834393602068C2680A40FF3A823AD6
:10256000C260FFF70DF8019024E00220FEBD400696
:1025700000D4DF70187802F03CFC0504587802F0B3
:1025800038FC00020543987802F033FC0543D87804
:10259000000405430098007802F02BFC0006054378
:1025A000D869C1E7FEF7ECFF0199411A7D20C00010
:1025B00081422AD82068C068C007F3D02068C5616E
:1025C00021680098486420688168FF220132114325
:1025D000816020688168120130E0206882680123F0
:1025E0005B029A4382602068C2680A401D49511804
:1025F000C160FEF7C5FF01900EE0FEF7C1FF019933
:10260000411A7D20C000814206D92168FF2048621E
:10261000032070703770FEBD2068C0688007ECD55D
:10262000206805622168009888642068816801221A
:102630005202114381602068816812011143816058
:1026400009480268012149040A43026082680A437A
:1026500082602168FF20486201207070377000207E
:10266000FEBD00007FFDFFFF00040140F8B50546F8
:102670000446203528780B4601280FD00120287009
:1026800002206870002A0BD0D8789E780004064398
:102690005878097800024903084317E00220F8BD82
:1026A0005878C10603D5EF2108400A305870D87811
:1026B00002F09FFB0604587802F09BFB00020643E1
:1026C000987802F096FB0643187840030643216889
:1026D000CA204862216853204862204602F095FBD8
:1026E0000027002811D11148064020684660206864
:1026F000C16880229143C1602068806880060CD444
:10270000204600F089F8002807D02168FF204862A1
:10271000042068702F700120F8BD2168FF204862F6
:10272000012068702F700020F8BD00003FFFFF00FF
:10273000F8B506460446203630780D46012822D0EA
:102740000120307002207070206800278068002A05
:102750001BD0400600D4EF702978A87809040843FC
:102760006978EA780902120411430843009021684D
:10277000CA204862216853204862204602F045FB87
:10278000002837D116E00220F8BD400600D4EF70D3
:10279000287802F02EFB0304687802F02AFB00027E
:1027A0000343A87802F025FB0343E87800040343C1
:1027B0000093DCE71749009808402168086020680A
:1027C000816801229204914381602969E868084385
:1027D00021688A68104388602068C168802291431C
:1027E000C1602068806880060CD4204600F014F890
:1027F000002807D02168FF204862042070703770DD
:102800000120F8BD2168FF204862012070703770F8
:102810000020F8BD7F7F7F0070B504460068C16866
:10282000A0229143C160FEF7ABFE7D260546F6006F
:1028300006E0FEF7A5FE401BB04201D9032070BDA3
:102840002068C0688006F4D5002070BD70B5040013
:1028500007D0002625464035A662687C002802D0B5
:1028600005E0012070BD2E74204600F02FF80220F4
:10287000687420680168402291430160A168606823
:1028800022690843E1681143084361690122084352
:10289000A169520211400843E1690843216A0843D3
:1028A000A16A084321680860A0690421000C08405F
:1028B000616A0843216848602068C16992009143B9
:1028C000C161666501206874002070BD7047FFB566
:1028D000044683B001200190002026464036009037
:1028E000307C0C9F1D4601280FD001203074FEF76C
:1028F00047FE0290707C616801280DD0CA1FFD3A26
:1029000008D1A168002905D102E0022007B0F0BD7E
:10291000042801D00220C3E00498002828D005989C
:10292000002825D0002D23D0707C042801D005205C
:102930007074002060650599A163E587A5870499F7
:102940002163E586A58620646064206801684906E5
:1029500003D401684022114301600121E068C902EB
:102960008842606848D1002804D0012D02D03CE0A4
:10297000012095E0206B21680088C860206B801CD6
:102980002063E08E401EE0862FE020688168890782
:1029900010D5E18E00290DD0019901290AD1216BB2
:1029A0000988C160206B801C2063E08E401EE08699
:1029B0000020019020688168C9070DD0E18F0029AF
:1029C0000AD0C068A16B0880A06B801CA063E08F58
:1029D000401EE08701200190FEF7D2FD01460298DB
:1029E000081AB84201D3781C59D1E08E0028CCD106
:1029F000E08F0028C9D146E0002801D0012D3CD14C
:102A0000206B216800780873206B401C2063E08EE7
:102A1000401EE08631E020688168890710D5E18E8C
:102A200000290DD0019901290AD1216B0978017380
:102A3000206B401C2063E08E401EE0860020019049
:102A400020688168C9070DD0E18F00290AD0C068CD
:102A5000A16B0870A06B401CA063E08F401EE08754
:102A600001200190FEF78CFD0299401AB84202D372
:102A7000781C02D013E0002F11D0E08E0028CAD1BC
:102A8000E08F0028C7D139462046029A02F07CFA2E
:102A9000002807D0012000902020606509E0032075
:102AA000009006E0A068002803D12068C168806813
:102AB00001900120707400203074009826E7704760
:102AC00070470000F8B502680446D0691168936841
:102AD00005072D0F5BD0DD07ED0FFF2621360E40D9
:102AE0002E4367D0C60706D0CE0504D50126166250
:102AF000E26F3243E267870702220426002F06DADC
:102B0000DF0704D027683A62E76F3743E767470774
:102B100006D5DB0704D023681E62E36F1343E36727
:102B2000020709D520220A402A4305D0236808223B
:102B30001A62E36F1343E367E26F002A2FD0800627
:102B400006D5880604D5216E002901D02046884785
:102B5000E06F21688968490601D4000724D5204622
:102B600004F0E5F820688168490619D5816840229B
:102B700091438160E06E002812D020498163E06EAD
:102B8000FEF729FB00280AD0E06E816B06E085067F
:102B900010D58D060ED5216E1CE020468847F8BD65
:102BA0002046FFF78DFFF8BD2046FFF789FF002084
:102BB000E067F8BDC50208D55B0206D50120000517
:102BC00010622046FFF77BFFF8BD030605D50B0614
:102BD00003D5616E0029E0D1F8BD4006FCD548065A
:102BE000FAD51368204640218B431360202161678A
:102BF0000021616600F0D8F8F8BD0000996C00086B
:102C000010B5040003D0606F002802D007E0012057
:102C100010BD002170200155204600F027F8242027
:102C2000606720680168490849000160204604F097
:102C300097F80128ECD0606A002802D0204603F003
:102C400095FF206841680922D202914341602068C3
:102C500081682A2291438160206801680122114322
:102C60000160204603F0E8FF10BD000038B52049A0
:102C70000546CA6A01200243CA62CA6A024000923B
:102C8000CA6A0243CA62CA6A024000928A6B43045B
:102C90001A438A630A6B02430A63086BC007C00FBA
:102CA000009005F0BFFB144C12482060002110205A
:102CB000E160A0606161A161E16180202162206129
:102CC000042060602046FEF701FBAC660122002173
:102CD0000B20A562FEF766FE0B20FEF757FE0122D1
:102CE00000211C20FEF75EFE1C20FEF74FFE38BDC3
:102CF000001002408000024000060020F8B50446A3
:102D0000406F202847D100290BD0002A09D0012389
:102D1000A0681B03984206D12069002803D1C80788
:102D200001D00120F8BD25466035287C012832D02D
:102D30000120287420464030E1640282428200264D
:102D4000E66721206067A06E002819D01349C16290
:102D5000A16E13480863A16E12484863A06E134623
:102D600086632768E16C3A462832A06EFEF7F6FAD1
:102D7000002805D01020E0672E7420206067D0E77F
:102D80002168402008622E742068816880221143E7
:102D900081600020F8BD0220F8BD0000F56C00083D
:102DA000256D0008AD6C0008014800680047000070
:102DB00064010020704738B504466B46012220218B
:102DC00000F025FA00280CD16A46117880200143D2
:102DD00011706B4601222021204600F093FB002851
:102DE00000D0012038BD38B504460020694608707F
:102DF000204600F047F9012805D069462078097877
:102E0000884201D0012038BD002038BD38B50446C5
:102E10006B460122202100F0FAF900280DD1684606
:102E200000786B464106490E684601700122202158
:102E3000204600F067FB002800D0012038BD38B5DF
:102E400014460D466B460122272100F0E0F90028C8
:102E500001D0012038BD684600788007C00F287077
:102E600068460078C007C00F2070002038BD10B53C
:102E70000B4601220F2100F0CAF9002800D00120E2
:102E800010BD0000F3B583B007466B460222302127
:102E900000F0BDF9002824D1684600786B4645084B
:102EA000684640780222400802903621384600F0F9
:102EB000AEF9002815D168460024045F6B46022253
:102EC0003A21384600F0A3F900280AD168460026C6
:102ED000865F6B4602222821384600F098F90028C8
:102EE00002D0012005B0F0BD68460027C75F284624
:102EF000FDF714FC0190301BFDF710FC064602980C
:102F0000401BFDF70BFC0546381BFDF707FC294667
:102F1000FDF7E0F93146FDF71AFA0199FDF781F95D
:102F20000A49FDF7D7F90A49884202DD7D20C00031
:102F300008E0FF21C905C84201D3002002E0FDF7E7
:102F40003AFC80B2049908800020CBE700002041C1
:102F500000007A4438B50C46694600F01FF8012895
:102F60000CD06846007800280BD0012807D0022832
:102F70000AD003280AD006482060012038BD7F20EF
:102F8000C0052060002038BD0248FAE70248F8E793
:102F9000000080BF0000E0400000484138B50C460A
:102FA0006B460122202100F032F9002801D00120D7
:102FB00038BD694608788007800F087020700020AF
:102FC00038BD0000F3B585B007466B4602223221BA
:102FD00000F01DF900282BD101AB01223521384624
:102FE00000F015F9002823D16A4611791278880774
:102FF000800D10430C2211406A465278890111431A
:10300000C510C81003906B4604223C21384600F0DE
:10301000FEF800280CD1684600240226045F865F73
:103020006B4602222A21384600F0F1F8002802D02F
:10303000012007B0F0BD68460027C75F2846FDF7AE
:103040006DFB0290301BFDF769FB06460398401BA1
:10305000FDF764FB0546381BFDF760FB2946FDF7CD
:1030600039F93146FDF773F90299FDF7DAF80449A9
:10307000FDF730F9FDF786FB069908800020D8E7B8
:103080000000204110B5FFF7F2FE012800D000201B
:1030900010BD10B5FFF7A7FE10BD10B5044680683F
:1030A000006800684078002804D1204600F056F8F7
:1030B000012805D0A1680020096809680870E0703F
:1030C00010BD1CB50C4601AA6946FFF7B8FE0128E1
:1030D00006D068460078002803D0012801D00120DE
:1030E0001CBD207000201CBD38B50D46002469466B
:1030F0000C80FFF7C7FE012808D068460088FDF75E
:1031000018FB0349FDF723F92860204638BD00006D
:103110000000204110B5FFF71DFF10BD10B5FFF7EF
:10312000B1FF10BD10B504468068006800684078A3
:10313000002804D1204600F051F8012806D0A168EB
:103140000120096809680870E070002010BD10B502
:1031500000F06BF8012800D0002010BD10B5044627
:103160000079002810D0A06800680068C0780028A6
:1031700004D1204600F062F8012805D0A1680020A3
:10318000096809688870207110BD10B5044600797F
:10319000012806D0A06800680068C078002802D026
:1031A00006E0002010BD204600F04FF80128F9D0BD
:1031B000A16801200968096888702071F1E710B5DD
:1031C00000F08CF810BD10B500F09CF810BD10B5E3
:1031D00000F0A6F9012800D0002010BD10B504466B
:1031E000FFF701FE012811D02046FFF70FFE01284E
:1031F0000CD00121204600F02FF8012806D0002134
:10320000204600F06BF8012800D0002010BD10B55A
:103210001C46012A01D9802319431346224603F094
:103220008DFA002800D0012010BD10B513460122F0
:10323000FFF7EDFF012800D0002010BD10B5FFF70B
:10324000E5FD012800D0002010BD10B5FFF7B3FD4B
:10325000012800D0002010BD38B50C4605460129D4
:1032600005D0002C03D00E490EA000F063F96B4688
:1032700001222021FFF7CBFF00280FD169460978F2
:10328000FB200140A0000843694608706B460122FC
:103290002021284600F036F9002800D0012038BD52
:1032A000630200002E2E5C2E2E5C2E2E5C44726972
:1032B000766572735C4253505C436F6D706F6E65E0
:1032C0006E74735C6874733232315C4854533232BA
:1032D000315F4472697665722E63000010B50B0091
:1032E00003F0CFFE0504060606060D00012100E0EE
:1032F000032100F01DF8012800D0002010BD01209E
:1033000010BD00007F2210B5D205914201DC0121E1
:1033100005E0064A914201DC022100E0032100F0B1
:1033200007F8012800D0002010BD00000000E04098
:1033300038B50C00054609D0012C07D0022C05D069
:10334000032C03D00D490EA000F0F4F86B460122C7
:103350002021FFF75CFF00280DD1694608786B46F5
:10336000800880002043087001222021284600F0B8
:10337000C9F8002800D0012038BD0000BA020000C2
:103380002E2E5C2E2E5C2E2E5C4472697665727336
:103390005C4253505C436F6D706F6E656E74735C0E
:1033A0006874733232315C4854533232315F447244
:1033B000697665722E63000010B5FFF714FD10BD2D
:1033C00010B504468068006800680078002804D1C1
:1033D000204600F057F8012805D0A16800200968B0
:1033E00009684870E07010BD1CB50C466A4601A91A
:1033F000FFF725FD012806D068460078002803D095
:10340000012801D001201CBD207000201CBD10B57A
:10341000FFF7A0FD10BD000038B50D460024694639
:103420000C80FFF7CFFD012808D06946085FFDF743
:1034300075F90349FCF78BFF2860204638BD000072
:103440000000204110B5FFF71DFE10BD10B5044669
:103450008068006800680078002804D12046FFF7E3
:10346000BDFE012806D0A1680120096809684870DE
:10347000E070002010BD10B5FFF7D7FE012800D086
:10348000002010BD10B504460079002810D0A068B7
:10349000006800688078002804D12046FFF7CEFE3F
:1034A000012805D0A168002009680968C87020714A
:1034B00010BD10B504460079012806D0A068006848
:1034C00000688078002802D006E0002010BD204669
:1034D000FFF7BBFE0128F9D0A1680120096809683F
:1034E000C8702071F1E710B5FFF7F8FE10BD10B5F8
:1034F000FFF708FF10BD10B500F012F8012800D04A
:10350000002010BD10B51C46012A01D980231943A3
:103510001346224603F02AF9002800D0012010BDEE
:1035200007B502AB0122FFF7EDFF012800D0002014
:103530000EBD00000A46014601A003F065FDFEE74E
:1035400057726F6E6720706172616D65746572731A
:103550002076616C75653A2066696C65202573205C
:103560006F6E206C696E652025640D0A00000000F6
:1035700010B513480178002920D1012202701248A9
:10358000104901600021C163C161D30781614360BB
:103590004263816007238363026102462032C16077
:1035A0001170517004234361816208481173416BAB
:1035B0004215114341630448FDF728FD10BD00008A
:1035C0006801002000240140C806002000100240CD
:1035D000014600200A0A00D00820084A114201D002
:1035E00004221043064A114201D002221043054A28
:1035F000114201D00121084370470000F0F00000A3
:10360000CCCC0000AAAA000038B50B231B07C518B4
:10361000114B0FD01C152D1B18D02D1B19D0A542F6
:10362000DD6A05D108242543DD62DB6A234007E01B
:103630008024F8E7DC6A01252C43DC62DB6A2B403E
:10364000009311601146FDF7D3FE38BDDD6A0224F8
:10365000E9E7DD6A0424E6E70010024010B5FFF751
:10366000B7FF810003484158002901D00020884756
:1036700010BD0000E804002070B51C4615460E463B
:103680000846FFF7A5FF0A49002C0DD080000C501A
:10369000304601F0C1FA044600222946FEF782F9BD
:1036A0002046FEF773F970BD002280000A5070BDFD
:1036B000E804002010B5D2B2FDF75CFF10BD000099
:1036C0000F494B6A0A69D218120EC2714B6A0A6915
:1036D000D218120C82710A8A8B8CD218120A42718B
:1036E0000A7C8B8CD21802714A69120EC2704A6928
:1036F000120C82708A8A120A4270097D017070472A
:103700004000F81FF0B587B014216846FCF775FD3E
:10371000224CE06A01210843E062E06A084005901B
:10372000E06A02252843E062E06A28400590E06AEA
:1037300004263043E062E06A30400590E06A80276A
:103740003843E062E06A6946384005900320019002
:10375000002002901248009005200007FDF748FE67
:103760001048009069461048FDF742FE69460F4830
:10377000FDF73EFE69460E48FDF73AFEE06A400856
:103780004000E062E06AA843E062E06AB043E062C1
:10379000E06AB843E06207B0F0BD000000100240EC
:1037A000FF9F0000FFFF00000004005000080050D1
:1037B000001C005010B50F4C6078002818D1FFF79E
:1037C000D7FE0D480068804700F0F8F900F0A2F835
:1037D00003F05AF90020FDF767FA0120FDF764FABB
:1037E00000210846FDF7D0FAFDF764FB0120607068
:1037F00010BD0000680100207485000870B5410EFE
:10380000C0017D220023FCF79DFC054600F07AF8FC
:10381000044600E000BF00F075F8001BA842F9D391
:1038200070BD0000F8B505460C4600222348FEF79F
:1038300099FD234FB86A002286B229461F48FEF739
:103840006EFD002221461D48FEF78CFDB86A80B24D
:10385000B042EFD1E8781B4A01465043C01C8308B0
:10386000880729D0184869783D220E4651430A46F8
:103870003C3A7100891EC840D10F80078918800F1B
:103880004910081AC018A978401E08180F493C2290
:1038900048436178E123514322781B015A43891838
:1038A000A27810180818810D83026068084C002265
:1038B000201A18185141F8BD0648D4E72805002001
:1038C00000280040B5050000A0AA99008051010021
:1038D000FF03000050554400032070470148006872
:1038E000704700007405002000B587B0694605A840
:1038F000FFF798FF0249096807B0401A00BD0000B1
:103900007405002000B587B0694605A8FFF78AFF57
:1039100007B000BD10B5084C207800280AD100F08F
:103920004DF8FF2101310548FEF79DFC00F076F8C7
:103930000120207010BD00005E010020280500203D
:1039400010B50D4C0021042000F0A0FB01200B4914
:103950004004486121688868C0040BD5C868C00568
:1039600008D5C86880221040FF388238C8602046D9
:10397000FEF775FC10BD0000280500200004014082
:1039800070B50446FFF7B0FF211A0B4D0220285EE8
:10399000C01C814201D9002100E00121042000F077
:1039A00075FB00F04BFB012802D10220285E241A8F
:1039B000204600F03FF870BD5E01002010B51449AC
:1039C000144886B0002412C01F2101608460046185
:1039D0001149446141600838FEF7F2FC6946CC7534
:1039E0000120487588750875002205A90948FEF769
:1039F0003DFE009401940494002269460548039416
:103A0000FEF796FE0348FEF70CFC06B010BD000062
:103A10000028004028050020FF03000010B5044CDA
:103A20002046211D1830FFF7FDFE206010BD00006C
:103A300074050020F0B587B0044614223F4901A860
:103A4000FCF7C2FB3D485038406E009000F07EF815
:103A50003B4802993B4A401AA105890D081887B2D4
:103A6000A10A68468078534202E08918401C80B25F
:103A70009942FAD26A461579E122120102E0891AC6
:103A80006D1CADB29142FAD26A46547902E0641CD0
:103A9000A4B23C393C29FAD2927951188EB2012154
:103AA000890203E07A1A761C97B2B6B28F42F9D235
:103AB00003E03C3E641CB6B2A4B23C2EF9D203E053
:103AC0003C3C6D1CA4B2ADB23C2CF9D203E0183DD5
:103AD000401CADB280B2182DF9D26946C978890769
:103AE00069464A7827D01849491E515C814202D262
:103AF000FCF7FEFA08461249CA1B10492C394A60E5
:103B0000052252068A618E704C700A460D70203272
:103B100010706846C079C8700020C861FF224861F3
:103B20000132C8604A620861024608462438FEF73E
:103B3000D5FC07B0F0BD04490C31D5E7780500206D
:103B4000FF03000080AEFEFF1586000810B5FF21C0
:103B500001310748FEF787FB05480168C8688022E5
:103B60001040FF388238C86002499002486110BD99
:103B70002805002000040140810A7D228005D20032
:103B8000800D50435143800A0818704710B5410E0C
:103B9000C0017D220023FCF7D5FA10BD01B582B02B
:103BA0000020C0430090012301AA02A90248FEF7A9
:103BB0008EFE684680880EBD9005002010B51C481A
:103BC0001A4901601C4A1B4B0021126803E052088D
:103BD000491C072901D29A42F9D84A078B07D20F0C
:103BE000DB0F52011B011A43C90700D008210A4309
:103BF000C2610021816001614161FF22C160053223
:103C000081624260012201625202826141620B487C
:103C1000416B8214114341630548FEF717FE0028EB
:103C200001D0FDF7D1F900F00BF810BD00300140D4
:103C30009005002080969800480100200010024066
:103C400030B585B014216846FCF7D7FA0220019000
:103C500000240320039002946A46082104940F482C
:103C6000FFF7D2FC05252D076A4640212846FFF7BD
:103C7000CBFC6A4680212846FFF7C6FC012002944F
:103C8000C40301906A4621462846FFF7BDFC012285
:103C900021462846FFF70EFD05B030BD0004005058
:103CA00000BFFDE710B50348FDF770FC00F004F815
:103CB00010BD00004003002010B50E48FDF780FC49
:103CC00000280DD10B480C4941603321816001214E
:103CD000C1600A49016000F013F80648FDF774FC62
:103CE0000448FDF76DFC202801D0012010BD002004
:103CF00010BD0000400300202E11B1000054004010
:103D000010B5164C86B0E16A02200143E162E16A17
:103D100003900140059103210902002000910290C7
:103D2000122104200191049069460D48FDF760FBC3
:103D3000A16B012040050143A163A16A0143A16277
:103D4000A16A8143A162002211461720FDF72AFED5
:103D50001720FDF71BFE06B010BD0000001002404A
:103D60000004005001688A69D243920701D40022FE
:103D70008A6200688169C943C90703D08169012249
:103D80001143816170470000F7B5044600680E4694
:103D90008069C043C0062BD42027254640352068C3
:103DA0008069C043800612D5701CF8D0FDF7E8FB8F
:103DB0000299401AB04201D8002EF0D1606C38430D
:103DC00060646F700020A87028700120FEBD21681B
:103DD0001020C8612068C7612046FFF7C3FF206834
:103DE0004168044A11404160606C04210843E7E7E0
:103DF0000020FEBD00E800FEF8B504461646154852
:103E00001D46DAB20090079F0023204600F054F8C8
:103E10003A462046069900F0B0F8002818D1284606
:103E2000F5B2012809D02168300A88623A46204656
:103E3000069900F0A2F800280AD120688562009750
:103E4000002240212046069B00F04AF8002800D0BE
:103E50000120F8BD00200080F8B50446164615483C
:103E60001D46DAB2C3020090079F204600F024F8F6
:103E70003A462046069900F080F8002818D12846D6
:103E8000F5B2012809D02168300A88623A462046F6
:103E9000069900F072F800280AD120688562009720
:103EA000002280212046069B00F01AF8002800D04E
:103EB0000120F8BD00200080F0B50668059C7568FB
:103EC000064F600D384385438805800D1104084373
:103ED0001843204305437560F0BD0000FF63FF03F6
:103EE000F8B51D4617460E46044609E0681C07D083
:103EF000FDF746FB0699401AA8420BD8002D09D0C1
:103F000020688169304688430FD00020B842EDD048
:103F10000020F8BD616C2020014361644034607072
:103F20000020A07020700120F8BD0120EEE770B5E0
:103F300016460D4604460FE0324629462046FFF756
:103F400023FF002801D0012070BDFDF719FB801B65
:103F5000A84208D8002D06D020688069C04380069A
:103F6000EAD4002070BD616C2020014361644034BC
:103F700060700020A0702070E5E770B516460D4611
:103F8000044611E0324629462046FFF7FDFE002890
:103F900001D0012070BD681C06D0FDF7F1FA801B2E
:103FA000A84208D8002D06D020688069C043800749
:103FB000E8D4002070BD616C20200143616440346E
:103FC00060700020A0702070E3E7000013B5044685
:103FD00001A9012003F0D4FE17490A78322A10D231
:103FE000002C0CD000280CD12820604342181079F6
:103FF000002800D1147101980078906015E0002825
:1040000001D001201CBD00221046282343435B1829
:104010009B68002B0ED0401C3228F6DB2820504332
:1040200040180271019A127882600878401C08706A
:1040300000201CBDC2B2F1E744190020EFF310814B
:1040400072B607480268002A01D0002005E04068E7
:10405000002801D0012000E0022081F31088704781
:104060005001002010B5EFF3108272B6064B002904
:104070005C6803D0012903D1044300E084435C6001
:1040800082F3108810BD00005001002010B5EFF33E
:10409000108272B6064B00291C6803D0012903D197
:1040A000044300E084431C6082F3108810BD0000CC
:1040B0005001002038B504460020694608702046AB
:1040C00000F016FA012805D0694620780978884260
:1040D00001D0012038BD002038BD70B5144605461A
:1040E00000F080F9012806D02146284600F0D4F9D6
:1040F000012800D0002070BD1CB50C46694600F0B8
:10410000F9F8012803D068464078207000201CBDD3
:104110001CB50C46694600F0EDF8012803D068464E
:104120000079207000201CBD1CB50C46694600F0CB
:10413000E1F8012803D068468078207000201CBD7B
:1041400038B50C46694600F0C2F8012803D068462D
:1041500000782070002038BD1CB50C46694600F080
:10416000C9F8012803D068460078207000201CBDE3
:104170001CB50C46694600F0BDF8012803D068461E
:10418000C078207000201CBD10B500F0D6F80128C2
:1041900000D0002010BD10B5002905D0012907D09E
:1041A000022909D0012010BD002100F05BFA06E0D1
:1041B000002100F072FA02E0002100F089FA0128E3
:1041C000F1D0002010BD10B5002905D0012907D07D
:1041D000022909D0012010BD012100F043FA06E0B8
:1041E000012100F05AFA02E0012100F071FA0128E1
:1041F000F1D0002010BD10B560290DD006DC0029DB
:104200000AD0202908D0402904D105E0802903D014
:10421000E02901D0012010BD00F075FA0128FAD084
:10422000002010BD10B500F0A3FA012800D0002036
:1042300010BD10B5002903D0012901D0012010BD07
:1042400000F0B0FA0128FAD0002010BD10B5002906
:1042500003D0012901D0012010BD00F06EFA012821
:10426000FAD0002010BD10B5002903D0012901D0DB
:10427000012010BD00F096FA0128FAD0002010BDF0
:1042800038B50C466B460122272100F06BF9002857
:1042900001D0012038BD68460078C107C90F6170A0
:1042A000022108402070684600788106C90FC006C8
:1042B000A170C00FE070002038BD10B50B46012280
:1042C0000F2100F04FF9002800D0012010BD38B5B3
:1042D0000C466B460122142100F044F9002801D05D
:1042E000012038BD694608784009400108702070F7
:1042F000002038BD38B50C466B460122262100F05F
:1043000031F9002801D0012038BD6846007800222C
:10431000C10921714106C90FE1708006800E01219B
:104320002070002803D06270202804D000E0617063
:10433000A270002038BDA170FBE710B50C460B46FB
:104340000122142100F00EF9002801D0012010BD37
:104350002078C006C00E2070002010BD38B50C4675
:10436000694600F02DF8012812D068460078302800
:1043700016D006DC00280ED010280AD0202804D140
:104380000CE040280ED050280ED0084820600120B4
:1043900038BD7F20C0052060002038BD0448FAE702
:1043A0000448F8E70448F6E70448F4E7000080BF53
:1043B000000020410000C841000048420000964231
:1043C00038B50C466B460122102100F0CBF80028CE
:1043D00001D0012038BD6846007870210840207067
:1043E000002038BD38B50C4600210091694600F028
:1043F0000DF8012807D00098FCF790F90249FBF767
:10440000A6FF2060002038BD0000C84238B50C4629
:10441000694600F00EF8002801D0012038BD009850
:1044200064214843C117090D0818001320600020BB
:1044300038BD38B50D4600246B460322282100F014
:1044400091F8002801D0012038BD002069460A5C9F
:10445000C3009A40401C1443C0B20328F7D3200283
:1044600002D5FF200006044300202C6038BD38B57B
:104470000C466B4602222B2100F074F8002801D074
:10448000012038BD68464078010268460078081867
:104490002080002038BD000038B50C4600216A4657
:1044A0001180694600F010F8012809D06946002003
:1044B000085EFCF733F90349FBF749FF2060002051
:1044C00038BD00000000204138B50C466946FFF7B2
:1044D000CEFF002801D0012038BD69460020085ECB
:1044E0000A2148436421FBF719FE2080002038BDD3
:1044F00010B5FFF7E2FE012800D0002010BD00003B
:1045000070B50C460546FFF7D5FD012826D01448A6
:1045100060600121284600F039FA01281ED00021F0
:10452000284600F018FA012818D00021284600F08B
:1045300054F9012812D00021284600F069F9012819
:104540000CD00221284600F070F8012806D0002186
:10455000284600F04FF8012800D0002070BD000070
:104560000000C841FFB581B01E4615460F46002425
:104570000CE03819C1B232190123019802F0DEF8BB
:10458000002802D0012005B0F0BD641CAC42F0DB75
:104590000020F8E710B513460122FFF7E3FF0128DA
:1045A00000D0002010BD000000B50F4887B0C26ADF
:1045B00002210A43C262C06A039108400590480282
:1045C00000900A4801900020029069460848FCF7D4
:1045D0000FFF002211460720FDF7E4F90720FDF741
:1045E000D5F9002007B000BD0010024000001110F6
:1045F0000004005038B50C4605466B4601221121D7
:10460000FFF7B0FF00280ED169460A78EF2002407C
:104610002001104308706B4601221121284600F04A
:1046200066FA002800D0012038BD38B50C46054692
:104630006B4601221021FFF795FF002801D00120D1
:1046400038BD68460178FD2001402143684601706D
:104650006B4601221021284600F049FA0028EFD0CD
:10466000002038BD38B50C4605466B4601221221A4
:10467000FFF778FF00280ED169460A78EF20024044
:104680002001104308706B4601221221284600F0D9
:104690002EFA002800D0012038BD38B50C4605465A
:1046A0006B4601221221FFF75DFF00280ED16946FB
:1046B0000A78DF2002406001104308706B46012237
:1046C0001221284600F013FA002800D0012038BD3E
:1046D00038B50C4605466B4601221221FFF742FF12
:1046E00000280ED169460A78F7200240E000104306
:1046F00008706B4601221221284600F0F8F90028C4
:1047000000D0012038BD38B50C4605466B46012265
:104710001421FFF727FF00280DD1694608786B4662
:10472000C006C00E2043087001221421284600F064
:10473000DEF9002800D0012038BD38B50C4605460A
:104740006B4601221121FFF70DFF00280ED16946AB
:104750000A78BF200240A001104308706B46012276
:104760001121284600F0C3F9002800D0012038BDEF
:1047700038B50C4605466B4601221421FFF7F2FEC0
:1047800000280DD1694608786B4640094001204356
:10479000087001221421284600F0A9F9002800D051
:1047A000012038BD38B50C4605466B460122112163
:1047B000FFF7D8FE00280ED169460A78DF200240B4
:1047C0006001104308706B4601221121284600F059
:1047D0008EF9002800D0012038BD38B50C460546BA
:1047E0006B4601221021FFF7BDFE00280ED169465D
:1047F0000A78F7200240E000104308706B4601225F
:104800001021284600F073F9002800D0012038BD9F
:1048100038B50C4605466B4601221021FFF7A2FE73
:1048200000280ED168460178FB20014021436846EC
:1048300001706B4601221021284600F058F900282B
:1048400000D0012038BD00007F20C005814209DD75
:104850000648814206DD0648814203DD0548814263
:1048600000DD054850600020704700000000204136
:104870000000C841000048420000964270B505465D
:104880007F20C0051446814201DC10210FE00E4854
:10489000814201DC20210AE00C48814201DC302108
:1048A00005E00B48814201DC402100E05021284610
:1048B00000F051F8012806D0211D2846FFF74EFDD3
:1048C000012800D0002070BD000020410000C84138
:1048D0000000484200B50B0002F0D3FB0504070BB3
:1048E0000D0F11007F20C00500E006485060002039
:1048F00000BD0548FAE70548F8E70548F6E7012056
:1049000000BD0000000020410000C84100004842F6
:104910000000964270B5144605460B0002F0B1FB4C
:10492000050406080A0C1900102106E0202104E005
:10493000302102E0402100E0502100F00CF8012875
:1049400006D0211D2846FFF709FD012800D00020D0
:1049500070BD012070BD38B50C4605466B4601227E
:104960001021FFF7FFFD00280ED1684601788F2047
:1049700001402143684601706B4601221021284600
:1049800000F0B5F8002800D0012038BD38B50C463D
:1049900005466B4601221A21FFF7E4FD00280DD1E0
:1049A000694608786B4640084000204308700122A1
:1049B0001A21284600F09BF8002800D0012038BDBD
:1049C00010B5FFF777FB10BD70B50546806800682D
:1049D00004682078002804D1284600F038F801281F
:1049E00002D000206070E87070BD38B50C46694692
:1049F000FFF746FC012803D06846007820700020AD
:104A000038BD10B5FFF7AAFC10BD10B5FFF744FD87
:104A100010BD10B5FFF76CFD10BD70B50546806880
:104A2000006804682078002805D121462846FFF751
:104A300067FD012803D001206070E870002070BD80
:104A400010B5FFF7A7FD012800D0002010BD70B5FC
:104A50000446806800680568207900280BD0A87893
:104A6000002805D100212046FFF775FF012802D05C
:104A70000020E870207170BD70B505468068006840
:104A800004682879012809D0224628466168FFF782
:104A9000F5FE012803D00120E0702871002070BDD0
:104AA00010B5826803791268012B126805D0FFF7F0
:104AB00011FF012800D0002010BDFFF72BFFF8E701
:104AC00010B5826803791268012B126805D0FFF7D0
:104AD000BBFE012800D0002010BDFFF7CFFEF8E795
:104AE00010B500F01CF8012800D0002010BDFFB563
:104AF00081B01E4615460F4600240CE03819C1B29D
:104B000032190123019801F031FE002802D0012062
:104B100005B0F0BD641CAC42F0DB0020F8E707B53F
:104B200002AB0122FFF7E3FF012800D000200EBDF9
:104B30000A4910B50848088000200A4688700423F6
:104B40004032D37140224A7105490870487088701C
:104B50000448FEF7B5FD10BDA5A500002407002000
:104B60004816002075010020F0B521488BB01F4980
:104B7000016020498160204941602049C16020498D
:104B8000204D0161A968884769691F48884700244A
:104B90001E4806940126089005940794082002A94F
:104BA000019651C1072000906F6A234622460E21CC
:104BB0003046B8476969164888470794052002902F
:104BC000082006940894099605960394049400948A
:104BD0000190012307222C6A00211846A0470448AF
:104BE0000C491C3001F065FE0BB0F0BDDD4C000837
:104BF000E42100204D4C0008C94D0008C54C0008B8
:104C0000AD4C000874850008E013F336B80B0000C3
:104C10002021F636B54D0008FF220132811A90425C
:104C20000CD009DC08280DD008DC012808D00228A7
:104C300006D0042802D105E00F2212020720704797
:104C4000052070470620704770470000F8B50746FA
:104C50000D481C46406B15460E4680472B46324693
:104C600039460A48009403F067FA094C01460128C6
:104C700007D0002902D007A001F016FF09202070FC
:104C8000F8BD0420FBE700007485000848160020EA
:104C90007E0100204D657373616765204572726FF8
:104CA0007220436F64652025640D0A0010B5034827
:104CB000406B804702490420087010BD74850008CD
:104CC0007E01002010B50348406B80470249032055
:104CD000087010BD748500087E01002010B50348DF
:104CE000406B804702490820087010BD7485000899
:104CF0007E01002030B520488BB00078062839D0DE
:104D0000022837D0002002900390049005A8FCF7F9
:104D1000E5F8C0206946087202AC042206A9601CAE
:104D2000FBF752FA042207A9601DFBF74DFAFEF7C4
:104D3000E9FD014611A001F0B7FE0798FBF76EFDF3
:104D400004460D460698FBF769FD02460B460EA089
:104D50000195009401F0A8FE092202A9002003F0A9
:104D600021FB1249124801F011FE114801F020FE0A
:104D70000BB030BD6421F5E77E0100202564205B87
:104D8000494E464F5D20000054656D70203A202545
:104D90002E3166202020202048756D69203A20257C
:104DA0002E31662020200D0A000000001027000090
:104DB000E805002010B50348017AC03800F078F803
:104DC00010BD0000D821002010B50348406B80477B
:104DD00002490720087010BD748500087E0100207C
:104DE000704701090A2200075143000F4018C0B262
:104DF00070470022014602E00A39C9B2521C0A2952
:104E0000FAD21007000E0843704770B504460068D8
:104E1000C168490613D40021C943C160FCF7B0FB47
:104E20007D260546F60006E0FCF7AAFB401BB042D3
:104E300001D9032070BD2068C0684006F4D5002069
:104E400070BD10B5FEF77CFD10BD000010B5FBF77E
:104E5000A9F96421FBF762F90348643101F096FD7A
:104E6000014801F0A5FD10BD0022002010B5074942
:104E70000220087006480178012000F00DF805486E
:104E8000C16B7D20C000884710BD00007E0100205E
:104E90007D0100207485000849000818024980003F
:104EA0000858024949690847308600087485000897
:104EB00070B50C4605460B49062008700A48017873
:104EC0000020FFF7E9FF09482146026B284690477A
:104ED000224629460648FBF777F90548C030047298
:104EE00070BD00007E0100207D0100207485000857
:104EF0001821002070B5092000F059FD0546062054
:104F000000F055FD0404072000F051FD00020443A9
:104F1000082000F04CFD0443200A0102184A611ADF
:104F2000514380315043090A46180021092001F0FD
:104F3000CFFB3B2000F03BFD4024204301463B20BB
:104F400001F0C6FB3B2000F032FD8006FAD40D488C
:104F500000F07CFE3B2000F02AFD204301463B2070
:104F600001F0B6FB3B2000F022FD8006FAD4294672
:104F7000092001F0ADFB304600F068FE70BD000076
:104F8000093D000000A1BC3338B504464068FF234A
:104F900005332025984204D100920B46002280213F
:104FA00007E05120005D05280DD100920B4600223C
:104FB0000121204600F009F8002804D0606D284344
:104FC0006065032038BD002038BDF8B51D46174682
:104FD0000E46044609E0681C07D0FCF7D1FA069992
:104FE000401AA8420BD2002D09D0206881683046B3
:104FF00088432ED00020B842EDD10020F8BD2068B3
:105000004168E022914341606068C11FFD390CD1C5
:105010000121A068C903884202D04911884204D105
:10502000206801684022914301600120A16A400389
:10503000814207D121680A6882430A6021680A68B0
:1050400002430A6001204034607400202074032071
:10505000F8BD0120CFE77047014948607047000064
:1050600000000020012070470E2801DD80207047DD
:10507000002070470148007970470000900200202E
:10508000F3B5024600206D498BB0002A0BD0012AEF
:105090007ED10024486C2546072854D0082855D0D6
:1050A000092858D155E06548C069FBF75DFB074604
:1050B00000910C98FBF758FB06900E46302000F04C
:1050C00076FC4007800F02D000245D4D01E00024F3
:1050D0002546272000F06BFC58494007400F098CFB
:1050E000401C4018FBF740FB544A2032099292784A
:1050F000012A21D00022524BFBF768F922462B46A9
:10510000FBF764F93346069AFBF760F9099A1279BE
:10511000012A14D000221346FBF758F90322FBF7AB
:10512000E7FA3A46009BFBF76BFA0022454BFBF788
:10513000FFF903F09DF87DE000221346DCE7002232
:1051400001239B07E8E700243F4D04E000243F4D86
:1051500001E03F4D00248F6C0120B840FBF7F0FACE
:1051600002460B4620462946FBF74AFA02460B4602
:1051700000203349FBF744FA304E044640360D46D2
:10518000F089FBF7F1FA0022324BFBF71FF900E040
:1051900052E022462B46FBF7CBF907910890707B33
:1051A000001DFBF7E1FA05910690307B002800D046
:1051B0000220381A8000FBF7D7FA04900C9803916C
:1051C000C000B900401AB17C09014018317C0029A7
:1051D00000D01421401A1C30FBF7C6FA039B049A36
:1051E000FBF70EFA02F012FC059B069AFBF7A0F9FA
:1051F000002207460E461346FBF724FB02D2384630
:10520000314601E0002001460022134BFBF7DEF897
:1052100022462B46FBF78CF9079B089AFBF7D6F83A
:105220000022084BFBF784F90C4A0D4BFBF7CEF834
:1052300002F00EFDFBF7D4FA0DB0F0BD9002002095
:105240000000F03F00408F408084FE4080840E418B
:1052500080841E4100001140000020402B8716D999
:10526000CEF7EF3F0520704710B50348406840680F
:105270008047801C10BD000000000020F8B51E4DC6
:105280001E4928601E4801F014FB1D481B491830B8
:1052900001F00FFB1A481949303001F00AFB686829
:1052A00001680120884700F0D5FBFFF723FE0020AE
:1052B00000F046FD68688168284608308847114E2E
:1052C000002460002718F05D00F000FDB819817817
:1052D000407801F0FDF9641CE4B2102CF1D30020F9
:1052E00000F0F4FC064900206839087168684068DD
:1052F0008047801CF8BD000000000020A95800086D
:10530000F80200209484000810B586B01421684685
:10531000FAF773FF0D48019002200D4C02906A4687
:1053200010212046FEF770F96A4602212046FEF75A
:105330006BF96A4601212046FEF766F901216A46AB
:1053400049030448FEF760F906B010BD00001110D3
:10535000000400500008005010B586B014216846C3
:10536000FAF74BFF1548FFF777FE1548019002202A
:1053700002900320134C03906A4610212046FEF74A
:1053800043F96A4602212046FEF73EF96A460121AA
:105390002046FEF739F901216A4649030A48FEF71B
:1053A00033F9012001900020029005206A46202157
:1053B0000007FEF729F906B010BD00001C0100200F
:1053C00000001110000400500008005070B50E4D90
:1053D00004460368002210212846FEF74DF90022FA
:1053E000022128466368FEF747F90022012128467A
:1053F000A368FEF741F90121002249030348E3684D
:10540000FEF73AF970BD000000040050000800509B
:10541000FFB516480124007981B01D4617460E4697
:10542000002802D0002005B0F0BD019800F04EFC2D
:10543000304600F00BFC052000F082FC0120FBF759
:10544000C1FF01F021FA064606E0019800F0E0FAFB
:10545000B84201DD002404E0304601F01BFAA84206
:10546000F3D300F045FF2046DDE700009002002066
:10547000F8B5002568460570894C2079012809D0C7
:10548000022857D12046683001F0CCFA6079012813
:105490007ED1F7E06079002818D001284AD1402158
:1054A000122001F015F9122000F081FA6946087007
:1054B00008787B4E8006403600286ADA20211220C8
:1054C00001F006F9B07D002876D083E0744E2036D6
:1054D0003079012835D13F2000F069FA694608701B
:1054E000087880072DD40B213E2001F0F1F810211F
:1054F0003F2001F0EDF83046603001F093FAB079CA
:10550000002818D00D2000F052FA402101430D2050
:1055100001F0DEF83046783001F04AFA6148006860
:10552000002803D00069002800D0804735747574C6
:10553000A5876587F8BD5A48983001F073FA257140
:10554000ECE7618F584F00290AD1A08F002807D1BE
:10555000B078002831D0322000F029FA6087618FBE
:10556000A08F091AC9B2C01900F04AFA608FA0874B
:105570004B48803001F056FAB079002823D00D2036
:1055800000F015FA402101430D2001F0A1F801E0DF
:105590007CE029E04248983001F00AFA414800686E
:1055A0000028C3D08768002FC0D01222B256618F66
:1055B00000233D48B847B9E70BE0394801213A30AC
:1055C00000F01EFACBE736482571983001F02AFA30
:1055D000E4E725713248803001F024FA3148006850
:1055E0000028A7D0006957E0192000F0E0F940B288
:1055F0002B4F801C8010603738701A2000F0D7F9CC
:1056000000217956294A00290BDAA368934203D96D
:10561000091800119D3802E009180011A438081873
:1056200009E0A168914203D9011108189D3802E0F0
:1056300001110818A4387084132000F0B8F93871EB
:10564000102000F0B4F901460D2001F041F839793D
:10565000154800F0D5F9B07D002800D1257110481B
:10566000803001F0DFF90F4800680028B9D0846865
:10567000002CB6D000232222FB56B25E39790A48AC
:10568000A047F8BD0821122001F022F80548257135
:1056900000680028F5D000680028F2D08047F8BDE7
:1056A00090020020000000209001002040DD4A1FF1
:1056B00070B5324C25462179E61F6879F93E2035D0
:1056C000012911D0022925D1002823D1618FA08F73
:1056D00033460A1AE97FC0188A424ADD01F01FF8F2
:1056E000A08FE97F401842E0002814D0012811D192
:1056F0002248803001F096F98021122000F0E8FF66
:10570000002020711E480068002803D0C0680028CF
:1057100000D0804770BD1948983001F083F9608F40
:10572000002809D1A08F002806D1A878002813D01E
:10573000322000F03CF96087618FA08FAA7F091AA0
:1057400091420FDB521ED1B2801900F059F9A08F9F
:10575000A97F4018401E0AE0084801213A3000F0B5
:105760004FF9E9E7C9B2801900F04AF904E0A087CF
:1057700070BDD1B200F0D3FF608FF8E79002002037
:105780000000002070B5294D294C294608462A7989
:1057900040304979C07C012A04D0022A01D1002975
:1057A00002D170BD002916D00129FAD10128F8D103
:1057B0000221122000F08CFF20680028F1D04069FF
:1057C0000028EED01C2000F0F2F82168800649691C
:1057D000800E884770BD154C012620342674607CED
:1057E0000028F7D12046783001F01CF966741120AA
:1057F00000F0DDF840084042A0741B2000F0D7F80C
:1058000006021C2000F0D3F80643300A0102094AC0
:10581000711A514380315043090A401868630C20C3
:1058200000F0C5F84009207670BD0000900200200D
:1058300000000020093D000010B512484079002802
:105840001FD001281DD1122000F0B1F80E4CC00766
:105850000BD00521122000F03BFF2068002810D05B
:10586000816900290DD001200AE00421122000F0F6
:105870002FFF2068002804D08169002901D0002072
:10588000884710BD900200200000002005484079A4
:10589000002806D103482030017C002901D10121D4
:1058A0000174704790020020F8B52E4D2879012828
:1058B0002BD0022828D100F0CDF8FFF71BFB0020E9
:1058C00000F03EFA284E002460002718F05D00F03A
:1058D000FDF9B8198178407800F0FAFE641CE4B252
:1058E000102CF1D3002000F0F1F91E484030007F69
:1058F00000F054FA002028711C480068002803D0EA
:105900004068002800D08047F8BD6879002816D18B
:10591000144E0024203634747474AC876C870B21C9
:105920003E2000F0D5FE10213F2000F0D1FEB079DE
:1059300001280AD030462C71783001F073F80B48FA
:1059400000680028E0D0C068DBE70D2000F02FF8E9
:10595000402101430D2000F0BBFE0248983001F0C9
:1059600027F8ECE790020020948400080000002053
:1059700070B50025012000F0A9F9FF21112000F0E9
:10598000A7FE052000F0DCF900240120FBF71AFD3A
:105990002C2000F00CF8C007C00FA040641C054389
:1059A000E4B2202CF1D300F0A3FC284670BD08B56A
:1059B0000122694600F003F86846007808BDF8B592
:1059C0000446012715460E46FF03052000223946EE
:1059D0000007FDF76FFE6006400EFEF7DFF80024BB
:1059E00005E00020FEF7DAF83055641CE4B2AC4262
:1059F000F7D30520012239460007FDF75BFEF8BD0D
:105A00000A4610B501460020FFF7D9FF10BD00007F
:105A100010B5002804D0012808D00020C04310BDD4
:105A20001120FFF7C4FF4008404210BD0748084955
:105A30008068884204D91B20FFF7B9FF9D3810BD4C
:105A40001B20FFF7B4FFA43810BD00009002002017
:105A500040DD4A1F30B585B014216846FAF7CDFB0A
:105A60000120019003200E4D0024039002946A4609
:105A700001212846FDF7C8FD002201212846FDF737
:105A800019FE0120FBF79EFC6A460121284601947D
:105A9000FDF7BAFD0620FBF795FC05B030BD000010
:105AA0000008005073B5394C064661790020002982
:105AB00002D0012966D128E00020A0876846334D36
:105AC000017961872035A878002809D0322000F0BC
:105AD000FFFD68460279501E3F2806D8EA770AE0A3
