:020000040800F2
:1000000088110020D5000008CD2F0008052E00081B
:1000100000000000000000000000000000000000E0
:10002000000000000000000000000000773400081D
:100030000000000000000000113200084D4B0008D5
:10004000E7000008E700000873320008E700000836
:10005000E7000008D50A0008E50A0008F50A0008CC
:10006000E7000008E7000008E7000008A10A000810
:10007000E7000008E7000008E7000008E7000008C4
:10008000E7000008E7000008E700000800000000A3
:10009000E7000008E7000008E7000008E7000008A4
:1000A000E7000008E7000008E7000008E700000894
:1000B000AB530008E700000800000000E70000085C
:1000C0000348854600F0A6FB004800471962000877
:1000D000881100200448804704480047FEE7FEE7F7
:1000E000FEE7FEE7FEE7FEE7E14B0008C10000087F
:1000F00030B50B46014600202022012409E00D46C0
:10010000D5409D4205D31D469540491B2546954047
:1001100040191546521E002DF1DC30BD70B500248B
:100120002546002801DA01244042002901DA012590
:100130004942FFF7DDFFAC4200D04042002C00D026
:10014000494270BDF0B51FB40646002082B0054696
:100150004024019100901BE0019922460F46304651
:1001600000F062FA049A059B801A994110D3104658
:100170001946224600F048FA361A8F410197224666
:1001800001200021009F00F03FFA38184D410090F7
:100190002046641E0028DFDC019B00982946324679
:1001A00007B0F0BD0549064A08685043054A801863
:1001B00008604008704701490860704774000020DB
:1001C0006D4EC6413930000003460B439B0703D0F8
:1001D00009E008C9121F08C0042AFAD203E00B780C
:1001E0000370401C491C521EF9D27047D2B201E084
:1001F0000270401C491EFBD270470022F6E710B582
:1002000013460A4604461946FFF7F0FF204610BD84
:10021000F0B507460846584087B0C00F0490480024
:100220000E46590040084908BC1A884105D2384694
:1002300031461E4617460B460246580040081043FA
:100240004CD0300D039040055900400D490D0590EC
:10025000401A0290402872DA18030121000B0905A8
:100260000843019004980092002805D00199524259
:100270000020884100920190029840210A1A0199B9
:10028000009800F0C1F905460C466B4607CB00F01C
:10029000DCF9C0197141039A0E0D0023D71756409F
:1002A0001A467A40164344D0049A002A2DD0029A66
:1002B000012A039A15DC1205C01A91410126360560
:1002C000001C7141D20F059ED20700930192029645
:1002D0002A46234600F0D9F907B0F0BD384631462A
:1002E000FAE71605224A0F46B218C01AB741012193
:1002F0000905001C4F4100187F411146181879412B
:10030000E20F10436D19644113E0E2076D081543D5
:100310006408C2071443039A01261205C01A9141CA
:100320003605001C7141CE07400830434908C0180B
:1003300051412A46234600F09BF9CDE7FFE7049898
:1003400001224000C117121A00238B410498314644
:10035000C417381AA141EEE730B40124E407634022
:1003600030BC55E730B40124E407614030BC4FE7AE
:100370000000E0FFF0B51FB488B00B990998002485
:1003800048400999C00F490049080991C0070B99D5
:100390000090490049080B9109990898A64608431E
:1003A0001CD00B990A98084318D0099801244000E2
:1003B000420D4800410D099824050003000B20431D
:1003C00009900B980003000B20430B9050181C4918
:1003D0004018002201901446104605E00020014616
:1003E0000DB0F0BD032801DA034600E003239C466C
:1003F000C11A0AAE0AE05F0008ADED5B4F00F75B83
:100400007D430027AA187C41491C5B1E6145F2DD33
:10041000410004AB5A522104120C0A43240C401C24
:100420000828DFDB01980290009970460191009046
:10043000059B049A0799069800F027F9D0E7000079
:100440000DFCFFFFF0B50C465C4085B0E40FE407FF
:1004500003944C000026640859009446490802465B
:100460000296224321D062460A431ED06200570DF5
:100470004A000E032303550D012402462C4924058E
:10048000781B1B0B360B4018234326436146009014
:100490001C46501AB44103D30098401C009002E05F
:1004A000921800985B41002803DA0020014605B04D
:1004B000F0BD0020012109050746864611E064468B
:1004C0001D46141BB54106D36546521BB341744605
:1004D00007430C43A646CD07400849082843921815
:1004E0005B4105460D43EAD11046184313D06046E0
:1004F000194650407140084306D06046101AB34177
:1005000006D20122002306E000220123DB0702E0DD
:100510000122D2435310009874460105381C6141F2
:10052000029C039D0019694100F0A2F8BFE700009A
:10053000FD03000070B54B005B0803430BD04B007C
:100540005C0D002633466542B341D417AD1AA34172
:1005500002DB0020014670BD12053018514170BD0C
:100560000EB5C217C10F5040CA0740180021054BF5
:100570000293019200910A460B4600F086F803B000
:1005800000BD0000330400000EB5054902910021B2
:1005900000910A460B46019100F077F803B000BDC8
:1005A000330400004A0009030123090B1B0519430A
:1005B000094B10B5520D9A4201DA002010BD064BCE
:1005C00034339A4203DC9A1A00F02EF810BD034926
:1005D0005118884010BD0000FF030000CDFBFFFF55
:1005E00010B5002904DB0124E40740428C41214678
:1005F000002B04DB1C460123DB075242A341994236
:1006000000D1904210BD000010B5202A04DB014645
:10061000203A9140002010BD914020239C1A0346AF
:10062000E3401943904010BD10B5202A04DB084672
:10063000203AD040002110BD0B46D340D0402024AA
:10064000A21A91400843194610BD10B5202A06DBB6
:10065000CB170846203A1041C1170B4306E00B4662
:100660001341D0402024A21A91400843194610BDDE
:1006700010B5002B08DA0024401C614192185B4140
:100680001A4301D14008400010BDF0B51FB482B03C
:1006900005460C0003D0084604F0B2FE02E004F068
:1006A000AFFE20300246009021462846FFF7ACFFFF
:1006B000049B059A04460F4618431143084314D07F
:1006C000184610431BD0009840210A1A1846059975
:1006D000FFF7AAFF05460E46009A05990498FFF712
:1006E00093FF084305D0012004E02046394607B0B7
:1006F000F0BD0020C11705430E432C43374300993A
:100700000E986305401A7905E40A00220C43FD0A9D
:100710000A3002D500200146E9E7010510196941B8
:100720000C9C0D9D00196941FFF7A2FFDFE7000057
:10073000F8B50546480040080C46284304D0600040
:10074000184A400D904201DD2846F8BD154935395B
:10075000884210DC88420BDB290D20030843290363
:10076000014305D0E00F1049C00741180020F8BD33
:1007700000200146F8BD161A4020821B284621465B
:10078000FFF742FF07460091284621463246FFF711
:100790004BFF3A46009BFFF76BFF3246FFF734FFF3
:1007A000F8BD0000330400000000F03F4A000903D8
:1007B0000123090B1B0519430A4B10B5520D9A4230
:1007C00002DA0020014610BD064B34339A4203DCA6
:1007D0009A1AFFF729FF10BD034BD218FFF714FF39
:1007E00010BD0000FF030000CDFBFFFF10B5002986
:1007F00004DB0124E40740428C412146002B04DB4A
:100800001C460123DB075242A3418B4200D18242A6
:1008100010BD0000064C0125064E05E0E36807CC3C
:100820002B430C3C98471034B442F7D3FFF74CFCF1
:10083000F8690008186A000870B504460068816805
:10084000490720D5816810264907002905DA816803
:10085000890702D481683143816000F0D1FC0546EC
:100860000DE000F0CDFC401B0A2808D9606D304334
:100870006065A06D01210843A065084670BD206831
:1008800080684007EDD4002070BDF8B504460068CC
:1008900081688907890F012925D10168C90722D0FC
:1008A0008168052211401025012601290FD1816898
:1008B00002221143816021680320086000F0A0FC3F
:1008C00007460CE000F09CFCC01B0A2807D9606DAD
:1008D00028436065A06D3043A0650120F8BD206805
:1008E0008068C007EED10020F8BD000010B51349A4
:1008F000012286B0002802D001280ED106E0CC6A81
:1009000002231C43CC62C96A194005E0CB6A134339
:10091000CB62C96AC907C90F05914100084B800025
:10092000595A009100210291032103910549019236
:100930000858694600F092FB06B010BD0010024056
:10094000A86900083C00002010B5044A4100515A33
:10095000034A8000105800F048FC10BDA869000848
:100960003C00002010B5044A4100515A034A80005F
:10097000105800F035FC10BDA669000838000020B2
:1009800070B50446284886B0C36A01221343C36287
:10099000C36A13400593436B134343630020630012
:1009A000224DA200224E00291DD0012926D1E95A4C
:1009B000029000911F480190B058694600F04EFB2C
:1009C000AD1E2A57FF20C021002A19DB96081A4BBA
:1009D000B600F61833689207D20E904083439140D8
:1009E0000B4333601BE0E95A019002200290009112
:1009F00003200390B058694600F030FB06B070BD8C
:100A000013071B0F083B9E080C4BB600F618F36942
:100A10009207D20E9040834391400B43F3612857D5
:100A200000F02AFCEAE7000000100240A669000876
:100A3000380000200000111000E400E000ED00E0AC
:100A400030B587B014216846FFF7D7FB032001902B
:100A50000020029003204003104C0090E06A012126
:100A60000843E062E06A08400590052069460007F7
:100A700000F0F4FAE06A40084000E062606B012593
:100A8000AD052843606300F0C5F900F0D3F900F02C
:100A9000C9F9606BA843606307B030BD0010024025
:100AA00010B505F04BFE10BD30B5446C1C252C4034
:100AB0000125A540046C6560046863608368102BA1
:100AC000036803D099600068C26030BD9A60006816
:100AD000C16030BD10B5012000F0B4FA022000F072
:100AE000B1FA10BD10B5042000F0ACFA082000F0F7
:100AF000A9FA10BD10B5102000F0A4FA202000F0D3
:100B0000A1FA402000F09EFA802000F09BFAFF201E
:100B1000013000F097FA0120400200F093FA012022
:100B2000800200F08FFA0120C00200F08BFA012051
:100B3000000300F087FA0120400300F083FA01204F
:100B4000800300F07FFA0120C00300F07BFA10BDA3
:100B500001A004F07FF9FEE74572726F725F486191
:100B60006E646C65720A0D0010B5094A0021CB0055
:100B7000D458844207D89B189B68834203D9C80085
:100B80008018007910BD491CC9B21529EFD3FEE7C2
:100B90008068000870B5040043D0606D02210843EE
:100BA00060652046FFF748FE0026054600283AD03B
:100BB000012D32D0206841681F4A114041602168F0
:100BC000D043086020688168012212079143816048
:100BD0002068C168194A1140C16020680169184A3B
:100BE0001140016120684169C908C900416120685C
:100BF000016A144A1140016220688030416BC909C2
:100C0000C901416320688030416BC909C901416352
:100C1000204600F0FDF8A665666540342674284637
:100C200070BD012070BD2046FFF72FFE054601284C
:100C3000F3D001206065BDE760F7FFFF00023E834F
:100C400002FCFF3F00F000F070B5040006D0606DBC
:100C5000264600254036002802D006E0012070BD5F
:100C6000A5653574204600F0D4F8606DC00603D445
:100C700021688868400705D5606D102108436065CC
:100C80003574EBE7606DFF2201329043022210437E
:100C9000606588688207920F5B48012A02D10A6862
:100CA000D2072BD1032362689B079A4205D05B428F
:100CB0009A4202D05B009A4209D10A6992009208D6
:100CC0000A6121680A6963681A430A610CE00A69CB
:100CD000920092080A6181680F2292049143816018
:100CE00081686268114381602168CA6818239A4349
:100CF000CA602168CA68A3681A43CA608168012271
:100D00005206914381608168A28E52061143816030
:100D100020688168C90004D4816801221207114348
:100D200081602068C168394A1140C1602069E1686A
:100D3000022825D000200143204620300278037B82
:100D400052035B001A431143226B1143A2699203C1
:100D50001143E269D20311432268D3681943D16079
:100D6000616A0A46FF3AC23A05D0A26A1143226874
:100D7000D3681943D16042780121012A02D00BE0E7
:100D80000420D8E70078002823D0606D202210438B
:100D90006065A06D0843A065E06B012820681FD046
:100DA0000169C90703D00169490849000161206848
:100DB0004169C908C900416120684169A26B1143BA
:100DC0004161A565606D80088000401C6065002061
:100DD00070BD2068C26801231B041A43C260DBE7B0
:100DE0000269FF239B009A43026120680269236C19
:100DF000A66C1A43636C33431A430261206802698C
:100E00000A430261D3E70000002701401902FEFFF8
:100E1000704770470248416849084900416070477F
:100E200000580140024841680422914341607047E4
:100E300000580140024841680222914341607047D6
:100E40000058014070B50024014620314A79022A39
:100E500003D00421C163012418E0026813680E2541
:100E6000AB431360026813685B085B001360436C5C
:100E70001C221340012215469D40036C5D604A719F
:100E800000220A71816B002900D08847204670BD7E
:100E9000F0B4016C0D6801680C68466C1C230422D8
:100EA0001E401746B7402F420ED067070CD50C687E
:100EB000A40602D40C6894430C60416C19408A402B
:100EC000016C4A60016B1AE00227B74002462F40CE
:100ED0002032002F17D0A70715D50C68A40605D41B
:100EE0000C680A25AC430C6001215171446C02214D
:100EF0001C40036CA140596000211171C16A002996
:100F000018D0F0BC08470827B7402F4212D024075A
:100F100010D50C680E25AC430C60446C01211C40BC
:100F20000B46A340046C6360C163517100211171D1
:100F3000416BE4E7F0BC704770B504003CD01F483B
:100F4000256814212818FFF7D3F8800060641C4836
:100F50002064022120462030024641712968194848
:100F6000E3680140A0686669184323693343184366
:100F7000A3691843E3691843236A184308432860A8
:100F80000121A0688903884210D00D488030836A0F
:100F9000656C1C210D400F26AE40B3438362656C27
:100FA00063680D40816AAB400B4383620020E063BD
:100FB00001215171107170BD012070BDF8FFFDBF9E
:100FC000000002400F80FFFFF8B504468C46203039
:100FD00001790025012909D00126067141790027F0
:100FE000012905D0077102252846F8BD0220F8BD69
:100FF00002214171E76320680168490849000160E6
:1010000061462046FFF750FD206B002820680168EC
:1010100001D00E2205E0042291430160206801689E
:101020000A22114301602068016831430160DBE757
:1010300001B5009801F094FC08BD10B501F0E4FB87
:1010400010BD000010B504494A69024202D048614F
:10105000FFF7F3FF10BD000000040140F8B50023C6
:101060000124A7E027469F403A4070D04D68022DEA
:1010700001D0122D14D1DD08AD002D1800952D6A78
:101080005E07AC46F50E0F26AE46AE406546B5434C
:10109000AC460E697546AE4065462E43009D2E62F5
:1010A0004D68012D05D0022D03D0112D01D0122D38
:1010B00016D185680326AC465D00AE46AE40654657
:1010C000B543AC46CE687546AE4065462E43866055
:1010D00046680D79BE43ED06ED0F9D4035434560F2
:1010E00006685F000325BD40AE46AE430D79B446A9
:1010F000AE07B60FBE4065462E430660C66875460D
:10110000AE438D68BD403543C5604D68ED0050D598
:101110002B4D6E6B26436E639E082A4DB6007519E3
:10112000AC46AD689E07360F0F27B740BD43052775
:101130003F07B84201D100271AE0234FB84201D13E
:10114000012715E0214FB84202D1022710E030E01C
:101150001F4FB84201D103270AE01E4FB84201D108
:10116000042705E01C4FB84201D1052700E00627FF
:10117000B7402F436546AF60184D2E684F689643C1
:10118000FF0300D516432E606E684F689643BF0379
:1011900000D516436E60AE684F689643FF0200D5D7
:1011A0001643AE60EE684F689643BF0200D5164303
:1011B000EE605B1C0A681546DD4000D052E7F8BDC2
:1011C00000100240000001400004005000080050E0
:1011D000000C005000100050001C005000040140A2
:1011E0000069084000D00120704742694A404261CE
:1011F0007047002A01D0816170478162704700000A
:101200000148006870470000500000200248016853
:10121000491C0160704700005000002010B50848CC
:1012200000240168022211430160032000F00AF843
:10123000002801D0012401E000F006F8204610BD8E
:10124000002002400020704710B50948816B02045D
:101250001143816300F030F800F026F8054801687A
:1012600008221143016000F017F801F0FFFA10BDE9
:101270000010024000200240002805DBC106C90E14
:1012800001208840014908607047000000E100E04B
:1012900010B504F0D9F810BD0248016802151143D9
:1012A0000160704700700040024801684215114318
:1012B00001607047007000400248016810229143AD
:1012C0000160704700700040094B1A689208920054
:1012D00002431A600748026904239A430261012904
:1012E00004D040BF20BF20BF00BF704730BFFBE726
:1012F0000070004000ED00E00A4B1A68920892006E
:1013000002431A6008480369042213430361012958
:1013100006D040BF20BF20BF0169914301617047E3
:1013200030BFF9E70070004000ED00E0F8B504467A
:1013300000785E4D800672D55C4E0027403EB06B53
:10134000C00004D4B06BA9050843B0630127584816
:101350000168C90511D40168821511430160FFF7C6
:101360004FFF009005E0FFF74BFF0099401A6428FB
:1013700037D84F480068C005F5D532680321090504
:1013800060680A400140914208D08103890F032917
:1013900004D13168890301D50120F8BD2A690321F0
:1013A00009040A4022D0084090421FD020788006CD
:1013B0001CD528692A6988430121C9040A432A6186
:1013C0002A698A432A612861C0050FD5FFF718FFF3
:1013D000009008E0FFF714FF0099411A3548814258
:1013E00001D90320F8BD28698005F3D56168880319
:1013F000800F032805D132680005824301400A436B
:101400003260286903226168120411400843286190
:10141000002F04D0B06B012109078843B063207806
:10142000C00705D0E868A168800880000843E8602C
:101430002078800705D5E8680C218843E1680843D7
:10144000E8602078400706D5E868032189028843D0
:1014500021690843E8602078000706D5E868032181
:101460000903884361690843E8602088C00506D500
:10147000E868032109048843A1690843E8602078EB
:10148000400606D5E868012189068843216A084399
:10149000E8602078000606D5E868032189048843BF
:1014A000E1690843E8600020F8BD000040100240F8
:1014B0000070004088130000F8B50E4605007DD08E
:1014C00053480068C007C00FB0420AD250480168B4
:1014D00049084900314301600068C007C00FB042AD
:1014E00071D128784B4C800705D5E068F0218843FE
:1014F000A9680843E0602878C00752D068680228CD
:1015000017D0032818D02168012818D08905002990
:1015100059DAE168890889000143E160FFF770FE4C
:1015200069680746022912D003291CD0012926D058
:1015300033E021688903EAE721688901E7E7490781
:10154000E5E7FFF75DFEC11B3348814223D8E06821
:101550000007800F0228F4D123E0FFF751FEC11BE2
:101560002D48814217D8E0680007800F0328F4D186
:1015700017E0FFF745FEC11B274881420BD8E06802
:101580000007800F0128F4D10BE0FFF739FEC11BE3
:101590002148814201D90320F8BDE0680007800F8F
:1015A000F3D11B480168C907C90FB1420DD90168C1
:1015B0004908490031430160006800E003E0C007CA
:1015C000C00FB04201D00120F8BD2878400706D5F1
:1015D000E068072109028843E9680843E060287849
:1015E000000707D5E0680721C90288432969C900B7
:1015F0000843E06000F036F8E168084A0906090F80
:10160000515CC840064908600320FFF71BFEF8BD87
:10161000002002400010024088130000B06900085A
:101620004C000020044805490068C968044A49057F
:10163000490F515CC84070474C0000200010024028
:10164000C9690008044805490068C968044A890452
:10165000490F515CC84070474C0000200010024008
:10166000C969000810B5184AD1680C200840042840
:101670000BD0082810D00C2810D050680004410F5F
:101680000120C003491C884010BD1068C00601D568
:101690000E4810BD0E4810BD0E4810BD88020E4BFE
:1016A000000F185C0902D368890F491CDB0301D5C0
:1016B000084A05E01268D20601D5044A00E0044A4F
:1016C0005043FEF715FD10BD0010024000093D001B
:1016D0000024F40000127A00C0690008FEB505007D
:1016E0007ED0F94CE7680C20E66807400120000432
:1016F00006402878C00747D0082F05D00C2F0AD104
:1017000001200004864206D1206880033CD5686829
:101710000028E5D038E0012069680004814203D147
:1017200021680143216011E0052301221B0492047A
:101730009942216802D111432160F1E78143216080
:10174000216801400091206890432060686800286B
:101750000DD0FFF755FD009005E0FFF751FD009912
:10176000401A64287ED820688003F6D50CE0FFF785
:1017700047FD009005E0FFF743FD0099401A6428FB
:10178000F0D820688003F6D4287880075CD5E86814
:10179000810604D5226820210A4322608843092358
:1017A000042F0DD00C2F01D1002E09D000283BD0E2
:1017B0002168994301432160FFF722FD064627E097
:1017C0002168490701D500288AD061681F221202CA
:1017D00091432A691202114361602168994300E034
:1017E000C3E101432160FFF73DFFE16809060A0FED
:1017F000B649895CC840B64908600320FFF722FD5E
:10180000002873D120E0FFF7FBFC801B0228A9D839
:1018100020684007F7D560681F21090288432969BD
:101820000902084360600FE0206840084000206023
:10183000FFF7E6FC064604E0FFF7E2FC801B022807
:1018400090D820684007F7D42878C00660D5002FCC
:101850000DD0E86900284AD02068FF2101310843F3
:10186000206000E0E8E0FFF7CBFC06462CE02068B3
:10187000800502D5E8690028A6D0606807214903E1
:101880008843696A084360606068298C0002000A26
:10189000090608436060686A410B0120C003491CC7
:1018A0008840E16809060A0F8849895CC840884970
:1018B00008600320FFF7C6FC002817D128E0FFF7D7
:1018C0009FFC801B0228A2D820688005F7D560689D
:1018D000072149038843696A084360606068298C6E
:1018E0000002000A09060843606011E023E1216854
:1018F000FF20013081432160FFF782FC064604E0AF
:10190000FFF77EFC801B02289AD820688005F7D458
:101910002878704E000724D568690028306910D0F7
:10192000012108433061FFF76BFC009005E0FFF7F1
:1019300067FC0099401A02287ED830698007F6D5E6
:101940000FE0400840003061FFF75AFC009005E0CE
:10195000FFF756FC0099401A02286DD830698007BD
:10196000F6D42878400764D500200290A06BC00010
:1019700006D4A06B012109070843A063012002904F
:1019800055480168C90511D40168821511430160E9
:10199000FFF736FC009005E0FFF732FC0099401A93
:1019A000642849D84C480068C005F5D5FF20AA68CE
:1019B0000130824203D131690143316111E00121DB
:1019C0008902002A07D005231B029A4203D13269FB
:1019D0000A433261EFE732698243326130698843FA
:1019E0003061A86800280ED0FFF70AFC009006E0DE
:1019F000FFF706FC0099411A384881421CD830692B
:101A00008005F5D50DE0FFF7FBFB009006E0FFF742
:101A1000F7FB0099411A314881420DD830698005A1
:101A2000F5D40298002804D0A06B0121090788434F
:101A3000A0632878800600E07CE02ED52848A969BC
:101A40004314002916D0A26801210A43A260626BE8
:101A50000A436263016A19430162FFF7D1FB06463C
:101A600004E0FFF7CDFB801B022863D8A068800745
:101A7000F7D512E0A16849084900A160016A9943BD
:101A80000162FFF7BDFB064604E0FFF7B9FB801BD0
:101A900002284FD8A0688007F7D4A86A002866D02B
:101AA0000C2F4DD0012636060228206805D0B04301
:101AB0002060FFF7A5FB05463EE0B0432060FFF73E
:101AC0009FFB074613E0000000100240B0690008C9
:101AD0004C000020401002400070004088130000BD
:101AE00000000140FFF78CFBC01B022822D82068B1
:101AF0008001F7D4296BE86AE2680843696BFD232B
:101B00001B049A4311430843E0602068304320607F
:101B1000FFF776FB054604E0FFF772FB401B022847
:101B200008D820688001F7D521E0FFF769FB401B4A
:101B3000022801D90320FEBD20688001F5D416E0FB
:101B40000128F8D0E06801210904EA6A01409142C5
:101B50000BD10F2189042A6B0140914205D1032149
:101B600089050840696B884201D00120FEBD002034
:101B7000FEBD30B5014620310A78012A15D0012278
:101B80000A7002234B700468CA23636204685323FB
:101B9000636203689C6820252C439C600068FF23D7
:101BA00043624A700020087030BD022030BD10B57D
:101BB00003F06CF810BDF8B50546044620352878CA
:101BC00001281DD001202870022068702268CA20D8
:101BD0005062226853205062FF2001300026FF2708
:101BE00081421CD121688A6882438A6020688168AA
:101BF0000122120391438160FFF702FB009009E08C
:101C00000220F8BDFFF7FCFA0099411A7D20C000C0
:101C100081421BD82068C068C007F3D020E020684C
:101C2000816801225202914381602068816812011B
:101C300091438160FFF7E4FA00900DE0FFF7E0FACE
:101C40000099411A7D20C000814205D92068476271
:101C5000032068702E70F8BD2068C0688007EDD53D
:101C600020684762012068702E700020F8BD10B512
:101C700000680B464068C021C94301400002000EC5
:101C8000CC04D870E40E5C708C06A40E0904490FD5
:101C90009C701970002A0AD101F0BBFAD8705878EC
:101CA00001F0B7FA5870987801F0B3FA98700020F4
:101CB00010BD000030B50B460168896A59600168A3
:101CC00009694904490C9960006804680F48214675
:101CD000014088024D04800E18706D0E49065D703B
:101CE000490E99706102490E40242140D970002AA2
:101CF0000AD101F08EFA1870587801F08AFA5870FB
:101D0000987801F086FA9870002030BD7F7F7F00C0
:101D1000F8B5040050D0254620356878002803D156
:101D20002870204600F052F8022068702168CA200E
:101D30004862216853204862204601F07EFAFF265F
:101D400004270028206802D046626F7034E0816862
:101D50001D4A11408160216888686268A369104348
:101D600022691A43104388602168E068086120688E
:101D7000016922891204114301612068C16880222F
:101D80009143C1602068C16C89088900C164E16920
:101D9000606901432068C26C1143C1642068806897
:101DA00080060BD4204600F0DDF9002806D020681C
:101DB00046626F70002028700120F8BD20684662DE
:101DC000012068700020F8BDBFFF8FFF00B597B0FD
:101DD0000420009000200A90FF2001300290684605
:101DE000FFF77CFC002801D0FEF7B2FE20200E9009
:101DF000C0020F900EA8FFF799FA002801D0FEF755
:101E0000A7FE0848016901229204114301610022E2
:101E100011460220FFF73CFA0220FFF72DFA17B017
:101E200000BD000040100240FEB5064604462036C4
:101E300030780B4601283ED00120307002207070AF
:101E4000184620300090206800278068002A34D08F
:101E5000400600D4DF7019789D7809040D43597845
:101E6000DA780902120411430D430099D869097800
:101E700009060D43054358699969054358680843A5
:101E800000902168CA204862216853204862FF20E0
:101E90005A6A01308021824245D122689368834387
:101EA00093602068C2680A40FF3A823AC260FFF736
:101EB000A7F9019024E00220FEBD400600D4DF70A7
:101EC000187801F0AEF90504587801F0AAF900027B
:101ED0000543987801F0A5F90543D8780004054337
:101EE0000098007801F09DF900060543D869C1E724
:101EF000FFF786F90199411A7D20C00081422AD856
:101F00002068C068C007F3D02068C56121680098C8
:101F1000486420688168FF22013211438160206893
:101F20008168120130E02068826801235B029A43D5
:101F300082602068C2680A401D495118C160FFF7DD
:101F40005FF901900EE0FFF75BF90199411A7D20DE
:101F5000C000814206D92168FF20486203207070CA
:101F60003770FEBD2068C0688007ECD52068056228
:101F70002168009888642068816801225202114318
:101F800081602068816812011143816009480268FC
:101F9000012149040A43026082680A438260216881
:101FA000FF2048620120707037700020FEBD0000E5
:101FB0007FFDFFFF00040140F8B5054604462035CB
:101FC00028780B4601280FD0012028700220687065
:101FD000002A0BD0D8789E780004064358780978F8
:101FE00000024903084317E00220F8BD5878C106F3
:101FF00003D5EF2108400A305870D87801F011F964
:102000000604587801F00DF900020643987801F0B3
:1020100008F906431878400306432168CA2048623D
:10202000216853204862204601F007F90027002864
:1020300011D111480640206846602068C16880229E
:102040009143C1602068806880060CD4204600F06F
:1020500089F8002807D02168FF20486204206870B2
:102060002F700120F8BD2168FF20486201206870B0
:102070002F700020F8BD00003FFFFF00F8B50646B6
:102080000446203630780D46012822D001203070D9
:1020900002207070206800278068002A1BD040064C
:1020A00000D4EF702978A878090408436978EA78A1
:1020B000090212041143084300902168CA204862B3
:1020C000216853204862204601F0B7F8002837D134
:1020D00016E00220F8BD400600D4EF70287801F029
:1020E000A0F80304687801F09CF800020343A87884
:1020F00001F097F80343E878000403430093DCE71A
:10210000174900980840216808602068816801220A
:102110009204914381602969E868084321688A68CC
:10212000104388602068C16880229143C1602068A4
:10213000806880060CD4204600F014F8002807D0F0
:102140002168FF2048620420707037700120F8BDBC
:102150002168FF2048620120707037700020F8BDB0
:102160007F7F7F0070B504460068C168A02291435C
:10217000C160FFF745F87D260546F60006E0FFF74B
:102180003FF8401BB04201D9032070BD2068C068F1
:102190008006F4D5002070BD70B5040007D000267D
:1021A00025464035A662687C002802D005E0012063
:1021B00070BD2E74204600F02FF80220687420684D
:1021C0000168402291430160A16860682269084368
:1021D000E16811430843616901220843A169520281
:1021E00011400843E1690843216A0843A16A084392
:1021F00021680860A0690421000C0840616A084356
:10220000216848602068C16992009143C161666598
:1022100001206874002070BD7047FFB5044683B08C
:10222000012001900020264640360090307C0C9F13
:102230001D4601280FD001203074FEF7E1FF029007
:10224000707C616801280DD0CA1FFD3A08D1A168D1
:10225000002905D102E0022007B0F0BD042801D01A
:102260000220C3E00498002828D00598002825D033
:10227000002D23D0707C042801D00520707400202C
:1022800060650599A163E587A58704992163E586C3
:10229000A5862064606420680168490603D401684B
:1022A0004022114301600121E068C9028842606850
:1022B00048D1002804D0012D02D03CE0012095E057
:1022C000206B21680088C860206B801C2063E08E32
:1022D000401EE0862FE020688168890710D5E18ED6
:1022E00000290DD0019901290AD1216B0988C1600B
:1022F000206B801C2063E08E401EE0860020019051
:1023000020688168C9070DD0E18F00290AD0C06814
:10231000A16B0880A06B801CA063E08F401EE0874B
:1023200001200190FEF76CFF01460298081AB8429E
:1023300001D3781C59D1E08E0028CCD1E08F002841
:10234000C9D146E0002801D0012D3CD1206B216885
:1023500000780873206B401C2063E08E401EE086EE
:1023600031E020688168890710D5E18E00290DD001
:10237000019901290AD1216B09780173206B401C56
:102380002063E08E401EE086002001902068816876
:10239000C9070DD0E18F00290AD0C068A16B087071
:1023A000A06B401CA063E08F401EE08701200190DD
:1023B000FEF726FF0299401AB84202D3781C02D0D9
:1023C00013E0002F11D0E08E0028CAD1E08F002842
:1023D000C7D139462046029A00F0E6FF002807D010
:1023E000012000902020606509E00320009006E0B5
:1023F000A068002803D12068C1688068019001208E
:10240000707400203074009826E770477047000011
:10241000F8B502680446D0691168936805072D0F66
:102420005BD0DD07ED0FFF2621360E402E4367D02F
:10243000C60706D0CE0504D501261662E26F3243E8
:10244000E267870702220426002F06DADF0704D09E
:1024500027683A62E76F3743E767470706D5DB0728
:1024600004D023681E62E36F1343E367020709D5B4
:1024700020220A402A4305D0236808221A62E36F0B
:102480001343E367E26F002A2FD0800606D5880643
:1024900004D5216E002901D020468847E06F2168CD
:1024A0008968490601D4000724D5204602F015FEAC
:1024B00020688168490619D581684022914381606E
:1024C000E06E002812D020498163E06EFEF7BAFC6E
:1024D00000280AD0E06E816B06E0850610D58D06D7
:1024E0000ED5216E1CE020468847F8BD2046FFF738
:1024F0008DFFF8BD2046FFF789FF0020E067F8BD9B
:10250000C50208D55B0206D50120000510622046F1
:10251000FFF77BFFF8BD030605D50B0603D5616EFB
:102520000029E0D1F8BD4006FCD54806FAD513686D
:10253000204640218B4313602021616700216166A2
:1025400000F0D8F8F8BD00004550000810B50400B0
:1025500003D0606F002802D007E0012010BD0021E9
:1025600070200155204600F027F82420606720687D
:102570000168490849000160204602F0C7FD0128B2
:10258000ECD0606A002802D0204602F0C5FC20682A
:1025900041680922D20291434160206881682A2261
:1025A0009143816020680168012211430160204647
:1025B00002F018FD10BD000038B520490546CA6A72
:1025C00001200243CA62CA6A02400092CA6A0243F8
:1025D000CA62CA6A024000928A6B43041A438A6341
:1025E0000A6B02430A63086BC007C00F009004F037
:1025F000F7F8144C1248206000211020E160A06020
:102600006161A161E161802021622061042060603C
:102610002046FEF791FCAC66012200210B20A5624A
:10262000FEF736FE0B20FEF727FE012200211C20BC
:10263000FEF72EFE1C20FEF71FFE38BD00100240E4
:102640008000024090040020F8B50446406F202826
:1026500047D100290BD0002A09D00123A0681B0311
:10266000984206D12069002803D1C80701D0012073
:10267000F8BD25466035287C012832D00120287419
:1026800020464030E164028242820026E667212033
:102690006067A06E002819D01349C162A16E13486B
:1026A0000863A16E12484863A06E134686632768CC
:1026B000E16C3A462832A06EFEF786FC002805D071
:1026C0001020E0672E7420206067D0E7216840204A
:1026D00008622E7420688168802211438160002086
:1026E000F8BD0220F8BD0000A1500008D15000083C
:1026F00059500008014800680047000068000020A9
:102700007047000010B50349002008700248FEF72A
:1027100041FA10BD6C0000205805002010B5134888
:102720000178002920D1012202701248104901606D
:102730000021C163C161D30781614360426381604D
:1027400007238363026102462032C1601170517019
:1027500004234361816208481173416B42151143A0
:1027600041630448FEF770FA10BD00006C000020C1
:1027700000240140580500200010024001460020BE
:102780000A0A00D00820084A114201D0042210434E
:10279000064A114201D002221043054A114201D0DB
:1027A0000121084370470000F0F00000CCCC00008D
:1027B000AAAA000038B50B231B07C518114B0FD070
:1027C0001C152D1B18D02D1B19D0A542DD6A05D173
:1027D00008242543DD62DB6A234007E08024F8E714
:1027E000DC6A01252C43DC62DB6A2B40009311601C
:1027F0001146FEF733FC38BDDD6A0224E9E7DD6AE5
:102800000424E6E70010024010B5FFF7B7FF81008F
:1028100003484158002901D00020884710BD00001E
:102820004403002070B51C4615460E460846FFF7C7
:10283000A5FF0A49002C0DD080000C50304600F056
:10284000ADFB044600222946FEF722FD2046FEF796
:1028500013FD70BD002280000A5070BD44030020AB
:1028600010B5D2B2FEF7C5FC10BD0000F0B587B0C0
:1028700014216846FDF7C1FC224CE06A012108439F
:10288000E062E06A08400590E06A02252843E062C1
:10289000E06A28400590E06A04263043E062E06A7E
:1028A00030400590E06A80273843E062E06A69467C
:1028B00038400590032001900020029012480090BB
:1028C00005200007FEF7CAFB104800906946104833
:1028D000FEF7C4FB69460F48FEF7C0FB69460E4889
:1028E000FEF7BCFBE06A40084000E062E06AA843F3
:1028F000E062E06AB043E062E06AB843E06207B0D9
:10290000F0BD000000100240FF9F0000FFFF00002C
:102910000004005000080050001C005010B50E4C80
:102920006078002816D1FFF7F9FE0C480068804750
:1029300000F0F6F900F0A0F802F07CFA0020FDF7B4
:10294000D5FF0120FDF7D2FF00210846FEF718F859
:102950000120607010BD00006C000020306900088C
:1029600070B5410EC0017D220023FDF7EBFB05464B
:1029700000F07AF8044600E000BF00F075F8001B94
:10298000A842F9D370BD0000F8B505460C460022F8
:102990002348FFF78FF9234FB86A002286B22946F1
:1029A0001F48FFF764F9002221461D48FFF782F90E
:1029B000B86A80B2B042EFD1E8781B4A0146504372
:1029C000C01C8308880729D0184869783D220E4624
:1029D00051430A463C3A7100891EC840D10F800716
:1029E0008918800F4910081AC018A978401E0818C5
:1029F0000F493C2248436178E123514322781B016F
:102A00005A438918A27810180818810D830260684B
:102A1000084C0022201A18185141F8BD0648D4E786
:102A20008403002000280040B5050000A0AA9900FA
:102A300080510100FF0300005055440003207047FF
:102A40000148006870470000D003002000B587B03F
:102A5000694605A8FFF798FF0249096807B0401AC0
:102A600000BD0000D003002000B587B0694605A86E
:102A7000FFF78AFF07B000BD10B5084C207800288A
:102A80000AD100F04DF8FF2101310548FFF793F816
:102A900000F076F80120207010BD000062000020D8
:102AA0008403002010B50D4C0021042000F062FAD0
:102AB00001200B494004486121688868C0040BD597
:102AC000C868C00508D5C86880221040FF38823821
:102AD000C8602046FFF76BF810BD0000840300209B
:102AE0000004014070B50446FFF7B0FF211A0B4DFA
:102AF0000220285EC01C814201D9002100E0012192
:102B0000042000F037FA00F00DFA012802D102206B
:102B1000285E241A204600F03FF870BD62000020B5
:102B200010B51449144886B0002412C01F2101605A
:102B3000846004611149446141600838FFF7E8F896
:102B40006946CC750120487588750875002205A96D
:102B50000948FFF731FA0094019404940022694671
:102B600005480394FFF78AFA0348FFF702F806B016
:102B700010BD00000028004084030020FF03000077
:102B800010B5044C2046211D1830FFF7FDFE2060D3
:102B900010BD0000D0030020F0B587B00446142219
:102BA0003F4901A8FDF710FB3D485038406E0090AA
:102BB00000F07EF83B4802993B4A401AA105890D76
:102BC000081887B2A10A68468078534202E0891843
:102BD000401C80B29942FAD26A461579E12212016C
:102BE00002E0891A6D1CADB29142FAD26A4654795C
:102BF00002E0641CA4B23C393C29FAD29279511803
:102C00008EB20121890203E07A1A761C97B2B6B21D
:102C10008F42F9D203E03C3E641CB6B2A4B23C2E13
:102C2000F9D203E03C3C6D1CA4B2ADB23C2CF9D20D
:102C300003E0183D401CADB280B2182DF9D26946B0
:102C4000C978890769464A7827D01849491E515CD6
:102C5000814202D2FDF74CFA08461249CA1B1049BC
:102C60002C394A60052252068A618E704C700A46E1
:102C70000D70203210706846C079C8700020C8619D
:102C8000FF2248610132C8604A6208610246084674
:102C90002438FFF7C9F807B0F0BD04490C31D5E777
:102CA000D4030020FF03000080AEFEFFD1690008BE
:102CB00010B5FF2101310748FEF77DFF0548016887
:102CC000C86880221040FF388238C86002499002EC
:102CD000486110BD8403002000040140810A7D2268
:102CE0008005D200800D50435143800A0818704778
:102CF00010B5410EC0017D220023FDF723FA10BD5F
:102D000001B582B00020C0430090012301AA02A9AE
:102D10000248FFF782FA684680880EBDEC03002067
:102D200010B51C481A4901601C4A1B4B002112684F
:102D300003E05208491C072901D29A42F9D84A07F0
:102D40008B07D20FDB0F52011B011A43C90700D0BA
:102D500008210A43C2610021816001614161FF22B3
:102D6000C1600532816242600122016252028261C9
:102D700041620B48416B8214114341630548FFF7E0
:102D80000BFA002801D0FDF7E3FE00F00BF810BDB0
:102D900000300140EC030020809698004C00002099
:102DA0000010024030B585B014216846FDF725FAC1
:102DB0000220019000240320039002946A46082117
:102DC00004940F48FFF7F6FC05252D076A464021BD
:102DD0002846FFF7EFFC6A4680212846FFF7EAFC09
:102DE00001200294C40301906A4621462846FFF759
:102DF000E1FC012221462846FFF732FD05B030BD37
:102E00000004005000BFFDE710B50B480168002921
:102E100004D000F014F800F058F810BD4068002805
:102E200004D000F013F800F051F810BD00F006F8DF
:102E300000F04AF810BD000054000020704710B5A3
:102E400001210020FEF740FA10BD000030B585B02A
:102E5000EFF3108472B614216846FDF7CEF9032013
:102E60000190002005252D0702906A468021284602
:102E7000FFF7A0FC6A4640212846FFF79BFC6A4604
:102E800008210E48FFF796FC01216A46C90328462F
:102E9000FFF790FC0A484068804703F07DFCFFF78D
:102EA00031FC0848016804221143016084F3108852
:102EB00001210846FEF720FA05B030BD000400509D
:102EC00030690008007000407047704710B5EFF39C
:102ED000108472B611480168012211430160016833
:102EE0004907FCD5016801221206114301600168FF
:102EF0008901FCD5C16803221143C160C16809077B
:102F0000890F0329FAD1FFF74DFF05480068804774
:102F100003F066FC84F3108810BD0000001002402E
:102F200030690008EFF3108172B607480268002A82
:102F300001D0002005E04068002801D0012000E019
:102F4000022081F3108870475400002010B5EFF381
:102F5000108272B6064B00295C6803D0012903D1A8
:102F6000044300E084435C6082F3108810BD0000DD
:102F70005400002010B5EFF3108272B6064B002902
:102F80001C6803D0012903D1044300E084431C6082
:102F900082F3108810BD000054000020FF2201328F
:102FA000811A90420CD009DC08280DD008DC0128D9
:102FB00008D0022806D0042802D105E00F22120210
:102FC00007207047052070470620704770470000B3
:102FD00010B592B0694610A803F0EEF8154C002821
:102FE00003D168460078A1281DD0FDF7DBF8CF217A
:102FF000FDF794F8303121700F490878401C0870B3
:103000000E49A02003F07AFBFDF7CCF80C49FDF740
:1030100085F80C4809180C4801F08EFE0A4801F0AA
:103020009DFE12B010BD684640782070064801F041
:10303000CFFEF6E76F000020710000205000F81F5F
:103040003075000088130000D008002070B50546D8
:1030500008480C46406B804722462946064803F044
:1030600017FA010002D005A001F0F4FE074907207D
:10307000087070BD30690008FC0500206572726F31
:103080007220636F64652025640D0A0066000020CD
:1030900010B50548406B804704490320087004A020
:1030A00001F0D8FE10BD0000306900086600002065
:1030B0004F6E52784572726F720A0D0010B5054856
:1030C000406B804704490220087004A001F0C2FE52
:1030D00010BD000030690008660000204F6E527875
:1030E00054696D656F75740A0D00000010B50548D0
:1030F000406B804704490620087004A001F0AAFE36
:1031000010BD00003069000866000020202020204B
:1031100020202020202020202020202020202020AF
:10312000202020202020202020202020202020209F
:1031300020202020202020202020204F6E54784462
:103140006F6E650A0D0000007CB51649164C03C968
:103150000191009020786946487014480025417814
:103160004A1C4270962900D14570407869468870A3
:103170000020FDF7F7FB00280BD10D4A2570012038
:1031800010706846457029460AA001F063FE03F0FE
:10319000FDF80321684603F067FA0C4801F0DEFDF4
:1031A0007CBD0000EC6900086F0000206600002074
:1031B000700000206B657920707265737365642EF2
:1031C0002049443A2564200D0A0000005C040020D8
:1031D00010B50548406B804704490520087004A0DD
:1031E00001F038FE10BD00003069000866000020C4
:1031F0004F6E547854696D656F75740A0D00000048
:1032000010B5024801F0AAFD10BD000044040020E2
:10321000704701090A2200075143000F4018C0B24D
:1032200070470022014602E00A39C9B2521C0A293D
:10323000FAD21007000E0843704770B504460068C4
:10324000C168490613D40021C943C160FDF7D8FF06
:103250007D260546F60006E0FDF7D2FF401BB04292
:1032600001D9032070BD2068C0684006F4D5002055
:1032700070BD10B5FFF716FC10BD0000F0B51D487D
:103280008BB01B4901601C4981601C4941601C498D
:10329000C1601C491C4D0161A968884769691B48C8
:1032A000884700241A48069401260890059407943C
:1032B000082002A9019651C1072000906F6A234699
:1032C00022460E213046B847079405200290082078
:1032D000069408940996059603940494009401902A
:1032E000012307222C6A00211846A0470BB0F0BD2D
:1032F000ED300008740400204D300008D131000882
:10330000BD30000891300008306900080016D6363C
:10331000B80B000070B5092000F059FD05460620E5
:1033200000F055FD0404072000F051FD00020443A5
:10333000082000F04CFD0443200A0102184A611ADB
:10334000514380315043090A46180021092001F0F9
:10335000CFFB3B2000F03BFD4024204301463B20B7
:1033600001F0C6FB3B2000F032FD8006FAD40D4888
:1033700000F07CFE3B2000F02AFD204301463B206C
:1033800001F0B6FB3B2000F022FD8006FAD429466E
:10339000092001F0ADFB304600F068FE70BD000072
:1033A000093D000000A1BC3338B504464068FF2346
:1033B00005332025984204D100920B46002280213B
:1033C00007E05120005D05280DD100920B46002238
:1033D0000121204600F009F8002804D0606D284340
:1033E0006065032038BD002038BDF8B51D4617467E
:1033F0000E46044609E0681C07D0FDF701FF069958
:10340000401AA8420BD2002D09D0206881683046AE
:1034100088432ED00020B842EDD10020F8BD2068AE
:103420004168E022914341606068C11FFD390CD1C1
:103430000121A068C903884202D04911884204D101
:10344000206801684022914301600120A16A400385
:10345000814207D121680A6882430A6021680A68AC
:1034600002430A600120403460740020207403206D
:10347000F8BD0120CFE77047014948607047000060
:1034800000000020012070470E2801DD80207047D9
:103490000020704701480079704700008401002037
:1034A000F3B5024600206D498BB0002A0BD0012AEB
:1034B0007ED10024486C2546072854D0082855D0D2
:1034C000092858D155E06548C069FDF75DF8074601
:1034D00000910C98FDF758F806900E46302000F049
:1034E00076FC4007800F02D000245D4D01E00024EF
:1034F0002546272000F06BFC58494007400F098CF7
:10350000401C4018FDF740F8544A20320992927846
:10351000012A21D00022524BFCF77AFE22462B468C
:10352000FCF776FE3346069AFCF772FE099A12798A
:10353000012A14D000221346FCF76AFE0322FCF78E
:10354000F9FF3A46009BFCF77DFF0022454BFCF754
:1035500011FF03F03BF87DE000221346DCE7002278
:1035600001239B07E8E700243F4D04E000243F4D82
:1035700001E03F4D00248F6C0120B840FCF7F0FFC4
:1035800002460B4620462946FCF75CFF02460B46E6
:1035900000203349FCF756FF304E044640360D46B6
:1035A000F089FCF7F1FF0022324BFCF731FE00E01E
:1035B00052E022462B46FCF7DDFE07910890707B17
:1035C000001DFCF7E1FF05910690307B002800D03C
:1035D0000220381A8000FCF7D7FF04900C98039162
:1035E000C000B900401AB17C09014018317C0029A3
:1035F00000D01421401A1C30FCF7C6FF039B049A2C
:10360000FCF720FF02F0D8FB059B069AFCF7B2FE00
:10361000002207460E461346FCF7E2FF02D2384668
:10362000314601E0002001460022134BFCF7F0FD7B
:1036300022462B46FCF79EFE079B089AFCF7E8FD06
:103640000022084BFCF796FE0C4A0D4BFCF7E0FD00
:1036500002F0D4FCFCF7A6FF0DB0F0BD8401002001
:103660000000F03F00408F408084FE4080840E4187
:1036700080841E4100001140000020402B8716D995
:10368000CEF7EF3F0520704710B50348406840680B
:103690008047801C10BD000000000020F8B51E4DC2
:1036A0001E4928601E4801F0DAFA1D481B491830EF
:1036B00001F0D5FA1A481949303001F0D0FA68689B
:1036C00001680120884700F0D5FBFFF723FE0020AA
:1036D00000F046FD68688168284608308847114E2A
:1036E000002460002718F05D00F000FDB819817813
:1036F000407801F0FDF9641CE4B2102CF1D30020F5
:1037000000F0F4FC064900206839087168684068D8
:103710008047801CF8BD000000000020C93C000864
:10372000EC0100205068000810B586B014216846EE
:10373000FCF763FD0D48019002200D4C02906A4693
:1037400010212046FFF736F86A4602212046FFF78F
:1037500031F86A4601212046FFF72CF801216A461C
:1037600049030448FFF726F806B010BD0000111009
:10377000000400500008005010B586B014216846BF
:10378000FCF73BFD1548FFF777FE15480190022036
:1037900002900320134C03906A4610212046FFF745
:1037A00009F86A4602212046FFF704F86A4601211B
:1037B0002046FEF7FFFF01216A4649030A48FEF74B
:1037C000F9FF012001900020029005206A46202187
:1037D0000007FEF7EFFF06B010BD0000200000203C
:1037E00000001110000400500008005070B50E4D8C
:1037F00004460368002210212846FFF713F8002230
:10380000022128466368FFF70DF8002201212846AF
:10381000A368FFF707F80121002249030348E36882
:10382000FFF700F870BD00000004005000080050D1
:10383000FFB516480124007981B01D4617460E4693
:10384000002802D0002005B0F0BD019800F04EFC29
:10385000304600F00BFC052000F082FC0120FDF753
:10386000E7FB01F0E7F9064606E0019800F0E0FA10
:10387000B84201DD002404E0304601F0E1F9A8423D
:10388000F3D300F045FF2046DDE70000840100206F
:10389000F8B5002568460570894C2079012809D0C3
:1038A000022857D12046683001F092FA6079012849
:1038B0007ED1F7E06079002818D001284AD1402154
:1038C000122001F015F9122000F081FA6946087003
:1038D00008787B4E8006403600286ADA20211220C4
:1038E00001F006F9B07D002876D083E0744E2036D2
:1038F0003079012835D13F2000F069FA6946087017
:10390000087880072DD40B213E2001F0F1F810211A
:103910003F2001F0EDF83046603001F059FAB079FF
:10392000002818D00D2000F052FA402101430D204C
:1039300001F0DEF83046783001F010FA6148006896
:10394000002803D00069002800D0804735747574C2
:10395000A5876587F8BD5A48983001F039FA257176
:10396000ECE7618F584F00290AD1A08F002807D1BA
:10397000B078002831D0322000F029FA6087618FBA
:10398000A08F091AC9B2C01900F04AFA608FA08747
:103990004B48803001F01CFAB079002823D00D206C
:1039A00000F015FA402101430D2001F0A1F801E0DB
:1039B0007CE029E04248983001F0D0F941480068A5
:1039C0000028C3D08768002FC0D01222B256618F62
:1039D00000233D48B847B9E70BE0394801213A30A8
:1039E00000F01EFACBE736482571983001F0F0F967
:1039F000E4E725713248803001F0EAF93148006887
:103A00000028A7D0006957E0192000F0E0F940B283
:103A10002B4F801C8010603738701A2000F0D7F9C7
:103A200000217956294A00290BDAA368934203D969
:103A3000091800119D3802E009180011A43808186F
:103A400009E0A168914203D9011108189D3802E0EC
:103A500001110818A4387084132000F0B8F93871E7
:103A6000102000F0B4F901460D2001F041F8397939
:103A7000154800F0D5F9B07D002800D12571104817
:103A8000803001F0A5F90F4800680028B9D084689B
:103A9000002CB6D000232222FB56B25E39790A48A8
:103AA000A047F8BD0821122001F022F80548257131
:103AB00000680028F5D000680028F2D08047F8BDE3
:103AC00084010020000000208400002040DD4A1F07
:103AD00070B5324C25462179E61F6879F93E2035CC
:103AE000012911D0022925D1002823D1618FA08F6F
:103AF00033460A1AE97FC0188A424ADD01F01FF8EE
:103B0000A08FE97F401842E0002814D0012811D18D
:103B10002248803001F05CF98021122000F0E8FF9B
:103B2000002020711E480068002803D0C0680028CB
:103B300000D0804770BD1948983001F049F9608F76
:103B4000002809D1A08F002806D1A878002813D01A
:103B5000322000F03CF96087618FA08FAA7F091A9C
:103B600091420FDB521ED1B2801900F059F9A08F9B
:103B7000A97F4018401E0AE0084801213A3000F0B1
:103B80004FF9E9E7C9B2801900F04AF904E0A087CB
:103B900070BDD1B200F0D3FF608FF8E78401002040
:103BA0000000002070B5294D294C294608462A7985
:103BB00040304979C07C012A04D0022A01D1002971
:103BC00002D170BD002916D00129FAD10128F8D1FF
:103BD0000221122000F08CFF20680028F1D04069FB
:103BE0000028EED01C2000F0F2F821688006496918
:103BF000800E884770BD154C012620342674607CE9
:103C00000028F7D12046783001F0E2F866741120E0
:103C100000F0DDF840084042A0741B2000F0D7F807
:103C200006021C2000F0D3F80643300A0102094ABC
:103C3000711A514380315043090A401868630C20BF
:103C400000F0C5F84009207670BD00008401002016
:103C500000000020093D000010B5124840790028FE
:103C60001FD001281DD1122000F0B1F80E4CC00762
:103C70000BD00521122000F03BFF2068002810D057
:103C8000816900290DD001200AE00421122000F0F2
:103C90002FFF2068002804D08169002901D000206E
:103CA000884710BD840100200000002005484079AD
:103CB000002806D103482030017C002901D10121D0
:103CC0000174704784010020F8B52E4D2879012831
:103CD0002BD0022828D100F0CDF8FFF71BFB0020E5
:103CE00000F03EFA284E002460002718F05D00F036
:103CF000FDF9B8198178407800F0FAFE641CE4B24E
:103D0000102CF1D3002000F0F1F91E484030007F64
:103D100000F054FA002028711C480068002803D0E5
:103D20004068002800D08047F8BD6879002816D187
:103D3000144E0024203634747474AC876C870B21C5
:103D40003E2000F0D5FE10213F2000F0D1FEB079DA
:103D500001280AD030462C71783001F039F80B4830
:103D600000680028E0D0C068DBE70D2000F02FF8E5
:103D7000402101430D2000F0BBFE0248983000F0C6
:103D8000EDFFECE7840100205068000800000020EF
:103D900070B50025012000F0A9F9FF21112000F0E5
:103DA000A7FE052000F0DCF900240120FDF740F912
:103DB0002C2000F00CF8C007C00FA040641C054385
:103DC000E4B2202CF1D300F0A3FC284670BD08B566
:103DD0000122694600F003F86846007808BDF8B58E
:103DE0000446012715460E46FF03052000223946EA
:103DF0000007FEF735FD6006400EFEF781FF002448
:103E000005E00020FEF77CFF3055641CE4B2AC42B4
:103E1000F7D30520012239460007FEF721FDF8BD42
:103E20000A4610B501460020FFF7D9FF10BD00007B
:103E300010B5002804D0012808D00020C04310BDD0
:103E40001120FFF7C4FF4008404210BD0748084951
:103E50008068884204D91B20FFF7B9FF9D3810BD48
:103E60001B20FFF7B4FFA43810BD00008401002020
:103E700040DD4A1F30B585B014216846FCF7BDF916
:103E80000120019003200E4D0024039002946A4605
:103E900001212846FEF78EFC002201212846FEF76C
:103EA000DFFC0120FDF7C4F86A4601212846019491
:103EB000FEF780FC0620FDF7BBF805B030BD000022
:103EC0000008005073B5394C06466179002000297E
:103ED00002D0012966D128E00020A0876846334D32
:103EE000017961872035A878002809D0322000F0B8
:103EF000FFFD68460279501E3F2806D8EA770AE09F
:103F0000012101A800F01BFEF3E73146284802F02A
:103F100031FA2020E877E97F304600F010FEA08FCC
:103F2000E97F4018A087A06A3CE02048BE254030C9
:103F3000407D012821D03320FFF749FF2840411C54
:103F4000332000F0D5FD1D213B2000F0D1FD684657
:103F50000179164860300171222000F0C9FD00216E
:103F60000E2000F0C5FD00210D2000F0C1FD012054
:103F7000FFF72DFF40070AD00EE03320FFF727FFA1
:103F800028400146332000F0B3FD1921DCE700F0A2
:103F9000D9FB0120FDF74CF868460179304600F066
:103FA000CEFDA06D00F0E0FB7CBD00008401002090
:103FB0008400002070B504460920FFF708FF0C4D6F
:103FC000032C08D0002028700520012202210007C0
:103FD000FEF746FC70BDC109064802D0012202214D
:103FE00001E001220421FEF73BFC0120287070BD96
:103FF0008401002000080050F0B5052500270324A7
:104000002D07194E85B0002826D014216846FCF7EC
:10401000F4F801946A460221284602970394FEF7B9
:10402000C9FB002202212846FEF71AFC6A4602213B
:104030003046FEF7BFFB002202213046FEF710FC9F
:104040006A4604213046FEF7B5FB002204213046C3
:10405000FEF706FC05B0F0BD14216846FCF7CDF86C
:1040600001200190D6E700000008005070B5054619
:104070001048114E856031462846FCF739F8044651
:1040800030466043281A0002711040183146FCF790
:104090002FF8210244182002010E062000F028FD0E
:1040A0002004010E072000F023FDE1B2082000F0FB
:1040B0001FFD70BD84010020093D000070B50D4654
:1040C000044600F013F8002C04D0012C0AD1294634
:1040D000232005E004488078002803D129463220B7
:1040E00000F006FD70BD0000A401002010B50446DC
:1040F0000120FFF76CFE0106184801D5012100E000
:1041000000214171C9B2A14226D04471012C10D0C6
:10411000002000F025F80120FFF759FE4106490E66
:10412000012000F0E5FC0021402000F0E1FC3021FE
:104130000FE0002000F014F80120FFF748FE802176
:104140000143012000F0D4FC0021402000F0D0FC0D
:104150000021412000F0CCFC10BD000084010020B3
:1041600070B5154C050015D06068016801208847BE
:10417000606801690020884760684169284688476F
:104180000120FFF724FEC108C9002943012000F0E7
:10419000AFFC70BD0120FFF71AFEC108C900012065
:1041A00000F0A6FC6068016901208847606801682A
:1041B0000020884770BD00000000002010B50446B4
:1041C0000120FFF793FF0548002C047701D034212C
:1041D00000E01221392000F08BFC10BDC40100204A
:1041E00070B504460920FFF7F2FD06464D20FFF7A3
:1041F000EEFD05462046FFF747F97106490E0843D4
:10420000C10923D0112C02DD07210D4302E0ED0886
:10421000ED002D1DE943490703D0022C0CDA0224DE
:104220000DE0052C01DA052402E0142C00DD142435
:1042300001090901641F05E0112C00DD11240109A9
:104240000901A41E2007000F014314E0002C08DD23
:104250000F2C00DD0F24C009C0012043702108434A
:1042600008E00321C9438C4200DA0C46C009C001B2
:10427000241D2043C1B2092000F03AFC29464D20FC
:1042800000F036FC70BD0000F8B506460027764801
:1042900000F09EFD744C683C6079002802D0012833
:1042A00025D125E0704D4020483DAF79FFF78FFDC7
:1042B0008107890F40200C3100F01AFC4120FFF7E4
:1042C00086FD3E2108400146C131412000F010FC2E
:1042D0003520FFF77CFD8006800EA8771E210D207B
:1042E00000F006FC002028746874A08760877DE0D9
:1042F0005D4D283D687D012825D03320FFF767FDFF
:10430000BE210840411C332000F0F2FB1D213B2060
:1043100000F0EEFB606C09287ED23120FFF757FDDC
:104320004106490E312000F0E3FB0021302000F06F
:10433000DFFB606C030001F07AF80910171E252CD2
:10434000333D3D3D41003320FFF741FD4121014315
:10435000332000F0CDFB1921D9E748212F2000F0B0
:10436000C7FB4249A06821E044212F2000F0C0FB98
:104370003F49A0681AE044212F2000F0B9FB3D49D5
:10438000A06813E044212F2000F0B2FB3A49A06856
:104390000CE044212F2000F0ABFB3849A06805E079
:1043A00044212F2000F0A4FB3549A0684018FFF7F6
:1043B0005DFE03E040212F2000F09AFBE87CAF7DFA
:1043C000012835D01F21112000F092FB4020FFF77B
:1043D000FEFC8106890E402000F08AFB00210F20A0
:1043E00000F086FB00210D2000F082FBFF2101314F
:1043F0002448FBF702FF01202071002E08D01A4844
:104400003146183000F098FC1748183000F0A6FC30
:104410006079002816D000E003E0002F1FD00520AF
:104420001EE03120FFF7D3FC802101433120C3E798
:104430001D21112000F05CFB4020FFF7C8FC332158
:104440000140C8E70520FFF78BFE0748E16A3030DE
:1044500000F072FC0448303000F080FCF8BD06200B
:10446000FFF77EFEF8BD0000EC010020821E000078
:10447000B4280000043D00005E510000127A0000E4
:10448000C6A2000084000020FFB587B017460C4686
:104490000546139EFFF72AFE11999848090A0691CE
:1044A000002D04D0012D7AD1022C7AD9FEE7C76104
:1044B000054644611098A861904820308670149990
:1044C000C1701599017118994171199981711198EB
:1044D00028843846FCF758F807460B4601913A46BF
:1044E00000208749FBF7AEFF0322FCF723F8049076
:1044F00005911298FCF748F8059B049AFBF73AFFE0
:104500000022804BFBF736FFFCF74CF8E8623A4696
:1045100000207D49019BFBF795FFFCF743F885B22E
:10452000290A022000F0E4FAE9B2032000F0E0FAE0
:104530002046FCF719FB0146122000F0D9FA10982A
:10454000FCF712FB0146132000F0D2FA2520069951
:1045500000F0CEFA1198C1B2262000F0C9FA002E60
:1045600001D0149900E0FF21322000F0C1FA302080
:10457000FFF72DFC6F210840002E01D0002100E044
:1045800080210843159909010143302000F0B0FA59
:104590003120FFF71CFC4021014331209FE0A0E0C7
:1045A000FFE75648E41D554D8764446440350A983A
:1045B00068731198E8812E74149868741598A8741B
:1045C0001698E87417982875189868751998A8753A
:1045D0000C2F01D90C2702E0062F00D20627072C4A
:1045E00002D0082C02D003E00B2F45D00C2F43D073
:1045F000002028731D20FFF7EAFB0A9920014900DB
:1046000008433043C1B21D2000F072FA1E20FFF7AC
:10461000DEFB082108403901084315998900084349
:1046200012998905890F0843C1B21E2000F060FA73
:104630002620FFF7CCFBF7210840297BC90008435F
:10464000C1B2262000F054FA1298C1B21F2000F027
:104650004FFA2020069900F04BFA1198C1B22120A0
:1046600000F046FA002E03D02220149900F040FA00
:10467000E87C012802D00DE00120BAE74420FFF7D2
:10468000A6FB80210143442000F032FA297D24203A
:1046900000F02EFA092C02D00321362010E0174832
:1046A0001A498068884205D90221362000F020FA94
:1046B000642104E00221362000F01AFA7F213A201A
:1046C00000F016FA062F0ED03120FFF780FBC1084C
:1046D000C9003120C91C00F00BFA0A21372000F074
:1046E00007FA0BB0F0BD3120FFF771FBC108C9001C
:1046F0003120491D00F0FCF90C21EFE78401002076
:104700000000F03F00408F4080847E4140DD4A1F22
:1047100010B50A4800F05CFB0848183800F058FB58
:104720000020FFF71DFD064840680168002088470B
:10473000024900208039087110BD000004020020E9
:104740000000002010B5074800F042FB054818386B
:1047500000F03EFB0120FFF703FD024900208039F5
:10476000087110BD0402002010B50446294800F06D
:104770002FFB28482146183800F0DEFA254C803CF3
:104780006079002802D001282CD119E04020FFF7E1
:104790001EFB8107890F4020103100F0A9F941204C
:1047A000FFF715FB3E210140412000F0A1F9352023
:1047B000FFF70DFB81061748890E6038817711E0FD
:1047C00014484038C07C012816D0F721112000F091
:1047D0008FF94020FFF7FBFA8106890E4020403117
:1047E00000F086F9022020710A48183800F0B6FA65
:1047F0000320FFF7B5FC10BDF521112000F078F97A
:104800004020FFF7E4FA33210840014640314020C0
:10481000E6E7000004020020FFB581B01E460C460A
:104820000C9F0A9D0198FFF761FC76484068C168BB
:10483000204688473A0A019973480092002908D017
:10484000012973D12246044640342270022E57D9E2
:10485000FEE7047303994661C56101616A490784F3
:1048600020310D9A8A700E9A0A71119A4A71129922
:1048700081620398FBF788FE0022644BFBF7E2FDA0
:10488000FBF790FE84B2210A042000F031F9E1B276
:10489000052000F02DF92846FBF776FE0B46024670
:1048A00000205B49FBF7CEFDFBF77CFE84B2210ABA
:1048B000022000F01DF9E1B2032000F019F92520D3
:1048C000009900F015F9F9B2262000F011F9302016
:1048D000FFF77DFA6F2108400D99002901D00021D2
:1048E00000E0802108430E9909010143302000F0C7
:1048F000FFF83120FFF76BFA40210143312071E0CE
:10490000F61D466485640B996173E7810D992174E6
:104910000F99E174109A22750E9AA274119A627519
:10492000129A82650C2D02D90C2503E05CE0062D5D
:1049300000D20625072E02D0082E02D003E00B2D50
:1049400006D00C2D04D000202073012902D00DE0E8
:104950000120F9E74420FFF73AFA8021014344207F
:1049600000F0C6F8217D242000F0C2F81D20FFF7DA
:104970002EFA0B993001490008430D990843C1B242
:104980001D2000F0B5F81E20FFF721FA0B2108408A
:10499000290108430E9989000843C1B21E2000F086
:1049A000A7F82620FFF713FAF7210840217BC9005A
:1049B0000843C1B2262000F09BF82020009900F0A7
:1049C00097F8F9B2212000F093F8062D0ED031208F
:1049D000FFF7FDF9C108C9003120C91C00F088F8B3
:1049E0000A21372000F084F805B0F0BD3120FFF730
:1049F000EEF9C108C9003120491D00F079F80C21F9
:104A0000EFE70000000000208401002080844E4079
:104A100080847E4130B50D467D211446C90089B0A1
:104A20004C43FFF723FB002007900690039005906E
:104A3000019004904B2005218001002302910090F9
:104A400008941A4629461846FFF7E6FE3120FFF77C
:104A5000BEF9BF210140312000F04AF8F02140208A
:104A600000F046F8A021412000F042F82146074816
:104A700000F062F90549022068390871034800F026
:104A80006DF90320FFF76CFB09B030BDEC0100208D
:104A9000052310B51B07012805D000222021184648
:104AA000FDF7DEFE10BD012220211846FDF7D8FEDD
:104AB0000520FCF7BDFA10BD10B50C4C607900283C
:104AC00012D0012810D1FA21112000F011F8402055
:104AD000FFF77DF981088900402000F009F80320E4
:104AE00020710720FFF73CFB10BD0000840100206F
:104AF00013B5012201A900F001F81CBDF8B5044668
:104B0000012715460E46FF030520002239460007FF
:104B1000FDF7A6FE204680210843FEF7F1F80024A9
:104B200004E0305DFEF7ECF8641CE4B2AC42F8D36C
:104B30000520012239460007FDF792FEF8BD0A461E
:104B400010B501460020FFF7D9FF10BD10B5FCF7E6
:104B50005DFB10BD10B594B014210EA8FBF74DFB02
:104B600038216846FBF749FB0220009001210A909A
:104B7000039180040C9000240001019410210D90F9
:104B80000B9404916846FCF7A9FD002801D0FBF7BF
:104B9000DFFF1148816B0204114381630F480168F4
:104BA0000322D2029143C214891801604168C943AB
:104BB000C906FBD50F200E9003200F90109411947E
:104BC000012112940EA8FCF777FC002801D0FBF716
:104BD000BFFF14B010BD0000001002400070004084
:104BE00010480168821511430160C1680E4A1140E6
:104BF000C16001680D4A114001608168490849009F
:104C0000816001680122920491430160C168FD2224
:104C100012049143C160002101610549C00388600D
:104C200070470000001002400C40FF88F6FFF6FEBF
:104C300000ED00E010B5FDF717FFFEF74FF810BDCF
:104C400070B5040009D0FDF70FFF05462046FEF7BA
:104C50004FF8281AFEF742F870BD002070BD002200
:104C6000026042600272427202614261C16070473A
:104C700010B5054A1168002901D000234B7241612B
:104C8000106000F043F810BD5C00002070B5FDF727
:104C9000D7FE0446FDF774FF031B1B4C2068002859
:104CA00030D00246002507E00E689E4202D9F61A6F
:104CB0000E6000E00D60526951690029F4D10028AE
:104CC00020D0416921600572C168002900D1FEE74A
:104CD000006988472068002814D0FDF7B7FE014618
:104CE00020680268914206D9416921600572C16855
:104CF0000029EDD1FEE7002804D0417A002901D136
:104D000000F004F870BD00005C00002070B504469F
:104D1000FDF794FE054601206072FDF797FE2168BD
:104D20004019884201D8084603E0FDF78FFE40197C
:104D30002060FDF7D7FE70BD70B505460846FDF74B
:104D4000D7FF0446284600F043F8FDF777FE84427B
:104D500000D204462C606C6070BD0000F8B5040001
:104D6000EFF3108572B62ED0184F01223868014635
:104D700002E0A04227D040690028FAD160680026EE
:104D800020602272667200290CD0FDF75FFE216858
:104D90000918216038680268914206D22046FFF760
:104DA00067FF10E0FDF7ECFEF8E74169002908D045
:104DB00022680B689A4201D90846F6E744616161AE
:104DC00001E04461666185F31088F8BD5C00002055
:104DD00070B5EFF3108572B6154C21680A1E24D009
:104DE000002822D0002606720B4681421BD1487A49
:104DF000012804D0586900280BD0206015E04E72BD
:104E00005869002803D02060FFF780FF0DE0FDF710
:104E10004FFF266009E0814203D1486950610028B4
:104E200003E00A4649690029F5D185F3108870BD71
:104E30005C00002010B5054801F090FC0449FF22F9
:104E400008460132103801F0A0F810BDC94E000824
:104E5000440200200FB4F0B5C3B0FF2149AB0131CB
:104E600002A8489A00F0B6FA82B26846028000268C
:104E7000EFF3108472B602A9114801F001F80500A1
:104E800003D1104F3878012807D084F310882846C2
:104E900043B0F0BC08BC04B018476A4601A90848F2
:104EA00001F056F83E7001212020FEF763F884F3EC
:104EB000108868460188019801F0C0FCE7E700000F
:104EC00034020020600000201CB5EFF3108472B69D
:104ED0000F4801F062F80E4801F087F8002809D069
:104EE00000212020FEF746F80A490120087084F3CB
:104EF00010881CBD01AA6946054801F029F884F311
:104F0000108868468188009801F098FC1CBD00005C
:104F1000340200206000002010B5818CC90707D042
:104F200001684A6801235B049A43836A1A434A6012
:104F3000818C890707D501684A6801231B049A43BD
:104F4000C36A1A434A60818C490707D501684A68D9
:104F500001239B049A43036B1A434A60818C09071F
:104F600007D501684A680123DB039A43436B1A4360
:104F70004A60818CC90607D50268916801231B032A
:104F80009943836B19439160818C890607D5016829
:104F90008A6801235B039A43C36B1A438A60818C3E
:104FA000490612D503685A6801210905046C8A4331
:104FB00022435A60026C8A4207D102685168032377
:104FC0005B059943436C19435160818C090607D5F1
:104FD00001684A680123DB04806C9A4302434A60FB
:104FE00010BD0000F8B500260446C667FCF708F9B6
:104FF000054620680068124F000709D501212B469D
:10500000002249052046009700F09EF900280DD1A6
:105010002068006840070BD501212B460022890536
:105020002046009700F090F9002801D00320F8BD39
:1050300020206067A067603426740020F8BD00005F
:10504000FFFFFF0110B5806A0022014640314A830C
:105050004A82FDF7DBF910BD70B5846A606FA56FF9
:105060002168896800260906002906DA212804D16A
:1050700052200653204600F040F820688068400621
:1050800006D5222D04D15A200653204600F025F8DB
:10509000E06F10210843E0672046FDF7B7F970BDC7
:1050A00010B501460968806A096889060DD4002296
:1050B00052210A5201688A6880239A438A600068F4
:1050C000016840221143016010BDFDF713FB10BDC4
:1050D00010B5806AFDF714FB10BD01680A68FF2354
:1050E00021339A430A6001688A68520852008A6034
:1050F0002021816700210166704701680A68C0238A
:105100009A430A602021416770470000F8B50446C1
:105110002669A268E76932436669102000253E438C
:10512000236832437B491E687B4F3E4016431E6016
:105130002268536803263603B343E668334353605B
:105140002368A2698B4201D0266A32439E680B27EE
:105150003F02BE4316439E60704E2368704AB342BE
:105160000CD1D2689207920F06D0012A3ED0022AB3
:105170003AD0032A26D124E0012023E0694EB3422D
:105180000AD1D2680C2632402CD0042A2ED0082A0C
:105190002AD00C2A16D114E0634EB34222D0634EBB
:1051A000B3421FD08B420DD1D66803229202164023
:1051B00018D001229202B61A18D0B61A14D096420C
:1051C00000D10820564A0126403A594FF6038B4237
:1051D00036D100280CD002280DD0042812D008287F
:1051E0001FD11CE00020EDE70220EBE70420E9E7F7
:1051F000FCF718FA08E01068C00601D5384605E04B
:105200004C4803E0FCF72EFA002873D06268510086
:105210005118814205D81103814202D303E0304680
:10522000F4E7012566E0010E06025008002330185D
:105230005941FAF787FF03210902411A3E4A55E016
:10524000E169B14232D1030000F0F1F809070A0D1B
:1052500006250606062B0600E3E7FCF7E3F91CE04B
:10526000FCF7F0F919E010686168C00602D548083B
:10527000324A01E0324A48088018FAF739FF80B212
:105280000146304A10399142CBD8511C01400007E9
:10529000400F08432CE0FCF7E5F9616840004A083C
:1052A000EAE76168012248081204E5E7030000F01C
:1052B000BEF809070A0D06260606062C0600B0E70A
:1052C000FCF7B0F91DE0FCF7BDF91AE01068616861
:1052D000C00602D54808C01902E016484A0810184E
:1052E000FAF706FF80B20146164A1039914298D863
:1052F0002168C8600020206660662846F8BDFCF77B
:10530000B1F961684A088018EAE7616848088019BD
:10531000E6E7000000480040F369FFEF0038014075
:105320004010024000440040004C0040005000404B
:1053300000093D000024F400FFFC0F0000127A0079
:105340000048E801EFFF0000FFB581B017460E46A8
:1053500004460A9D09E0681C07D0FBF751FF049939
:10536000401AA8420CD8002D0AD02068C1693046E6
:10537000884318D00020B842EDD0002005B0F0BD21
:1053800020680168FF22A132914301602068816892
:1053900049084900816020206067A06700206034D0
:1053A00020740320EAE70120E5E710B501F0CEF90B
:1053B00010BD00000FB410B503A9044B044A0298B5
:1053C00000F02EF910BC08BC04B01847C5600008F6
:1053D000780000207CB51546024600201C460029B6
:1053E0000BD0491E00920191044B6A462146284683
:1053F00000F016F9009A002111707CBD595D00087B
:105400002021020C01D010211046020A01D01046C2
:105410000839020901D01046091F820801D0104640
:10542000891E420801D0881E7047081A704730B4A0
:105430007446641E2578641CAB4200D21D46635D31
:105440005B00E31830BC18478307FF22DB0E9A404D
:105450008907090E9940002808DB830809489B004A
:105460001B18186890430843186070470007000F26
:105470000838830804489B001B18D86990430843E8
:10548000D861704700E400E000ED00E002E008C8E9
:10549000121F08C1002AFAD170477047002001E0AE
:1054A00001C1121F002AFBD170470000F0B51FB4E4
:1054B00086B00998089A030D0021024314D0514880
:1054C000514A1818504305141198012810981AD001
:1054D000281A401C00264D4F4D490096019104901A
:1054E000002812DA444211E01198012449A301284E
:1054F00001D11098C1430698119A84600360C2607C
:1055000041600BB0F0BD4042E4E7044621050020B5
:105510003F4A001C51410391029012E0E00707D07E
:1055200032463B4601990098FAF724FF019100901A
:1055300032463B4610461946FAF71CFF06460F4610
:105540006410002CEAD10498039B0028029A099960
:10555000089806DAFAF70EFF019B009AFAF70AFF9D
:1055600005E0FAF76FFF019B009AFAF76BFF04461C
:105570000E460022284BFBF733F803D80020C04327
:10558000014607E00022254B20463146FAF740FE4F
:10559000FBF70CF9102409E0002C0ADB0A22002397
:1055A000FAF7D0FD079B30321A55641E02460A43B3
:1055B000F2D11122641C079B121B1C19119B012B99
:1055C00003D0012308430ED10AE0084304D0112080
:1055D00010900020119077E71098151A6D1E0BE0BF
:1055E0001098824202DD00236D1C03E0824201DA42
:1055F00000236D1E002BEED0069811998260C160C9
:1056000030C07EE701FCFFFF104D00000000144099
:105610000000F03F300000000000F0430000E03FD9
:10562000FFB597B00646002518E2252877D100245B
:105630002746FD49049400E00443761C327801209B
:10564000203A90400842F7D130782A280ED0022222
:10565000307801463039092916D804990A2359436C
:10566000303940181443761C0490F1E7189802C8AA
:1056700004911890002904DA0120400304434842B1
:10568000049002200443761C30782E2814D1042084
:1056900004437078761C2A2809D11898761C80C893
:1056A000189009E00A214F43303FC719761C307823
:1056B000014630390929F5D930786C2810D006DC3C
:1056C0004C281AD068280ED06A2817D104E0742814
:1056D00013D07A2812D110E00120400504430CE0D9
:1056E0000121090501E0032109050C43717881427C
:1056F00003D1012000052418761C761C3078119007
:1057000066280BD013DC58287DD009DC00287BD01C
:105710004528F6D04628F4D047281AD1A5E118E04C
:10572000632835D0642870D0652812D19DE1702897
:105730006CD008DC6728F1D069287BD06E280DD0AA
:105740006F2806D1BAE073282ED0752871D078283A
:1057500059D01A9A199990476D1C7EE16002400F4A
:10576000022809D003280DD00428189801680DD00C
:105770000D60001D189070E11898EA1701680D601F
:105780004A60F6E7189801680D80F2E70D70F0E7BF
:1057900018986A4601781172001D18900020507206
:1057A00002A80090012005E0189802C81890002077
:1057B0000091C04361070DD5002101E00199491C0A
:1057C0000191B94212DA8142F8DB009A515C00295A
:1057D000F4D10BE0002101E00199491C01918142C3
:1057E000FADB019A0099895C0029F5D101990498A6
:1057F0001A9B471A21463846199A00F097FA0199E0
:10580000401945180BE04FE02CE113E04EE0009802
:1058100000990078491C00911A9A199990470198AB
:10582000401E0190401CF2D1214638461A9B199A1D
:1058300010E137E00A200021009001916002410F41
:10584000022907D0189A01CA1892C2179446032950
:1058500008D00AE01898C01DC108C90005C91891F0
:10586000944607E000B2C2179446042902D140B220
:10587000C1178C4600226146944506DA0A4600218B
:10588000404291418C462D2102E0210504D52B2177
:105890006A461173012103E0E10701D02021F7E7F7
:1058A000029155E00A200AE0102008E01020009044
:1058B0000021042004430191082703E0082000216F
:1058C000019100906002410F022907D0189A01CA85
:1058D000189200229446032908D008E01898C01DA9
:1058E000C108C90005C91891944603E080B2042993
:1058F00000D1C0B200210291210729D51199702948
:1059000006D0009A1021019B4A401A4305D00EE0B0
:1059100040216A461173012108E06146014306D027
:1059200030216A4611731199517302210291009A34
:105930000821019B4A401A430AD16146014301D123
:10594000610705D530216A46117301217F1E02913E
:105950001199582904D035A10E910DA90D910DE092
:1059600037A1F9E76146019B009AFAF7EBFB0E9B22
:105970008C469B5C0D9A521E0D921370614601433A
:10598000F0D10D9805A9081A20300190600703D5C1
:1059900001200004844300E001270198874201DDD3
:1059A000381A00E000200199009041180298091867
:1059B0000498401A0490E00306D421461A9B199AD1
:1059C000049800F0B3F94519002706E003A81A9AD5
:1059D000C05D199990476D1C7F1C02988742F5DBCA
:1059E000E0030CD521461A9B199A049800F09EF901
:1059F000451904E01A9A3020199990476D1C0099B6
:105A0000481E00900029F5DC08E00D980D990078FB
:105A1000491C0D911A9A199990476D1C0199481EBD
:105A200001900029F1DC63E10928010030313233B3
:105A300034353637383961626364656600000000CA
:105A400030313233343536373839414243444546B4
:105A50000000000000F05AF94519761C3078002843
:105A600000D0E2E528461BB0F0BD600700D4062751
:105A70001898C01DC108C90048680A680831C30FDA
:105A8000DB071891190001D09CA108E0210501D580
:105A90009BA104E0E10701D09AA100E09AA1430094
:105AA00011985B08109165280CD006DC452809D0B8
:105AB00046281DD0472841D141E0662818D06728E4
:105AC0003CD13CE00021112F01DB112000E0781CCB
:105AD0000191009008A911A8FFF7E8FC139905911E
