:020000040800F2
:10000000E8210020D5000008BD4E0008013F00088F
:1000100000000000000000000000000000000000E0
:10002000000000000000000000000000B7530008BE
:10003000000000000000000051510008FD6A0008A7
:10004000E7000008E7000008B3510008E7000008D7
:10005000E70000088110000891100008A1100008B6
:10006000E7000008E7000008E70000084D1000085E
:10007000E7000008E7000008E7000008E7000008C4
:10008000E7000008E7000008E700000800000000A3
:10009000E7000008E7000008E7000008E7000008A4
:1000A000E7000008E7000008E7000008E700000894
:1000B0005B730008E700000800000000E70000088C
:1000C0000348854600F00EFD0048004711820008F5
:1000D000E82100200448804704480047FEE7FEE787
:1000E000FEE7FEE7FEE7FEE7916B0008C1000008AF
:1000F00030B50B46014600202022012409E00D46C0
:10010000D5409D4205D31D469540491B2546954047
:1001100040191546521E002DF1DC30BD70B500248B
:100120002546002801DA01244042002901DA012590
:100130004942FFF7DDFFAC4200D04042002C00D026
:10014000494270BDF0B51FB40646002082B0054696
:100150004024019100901BE0019922460F46304651
:1001600000F08AFB049A059B801A994110D310462F
:100170001946224600F070FB361A8F41019722463D
:1001800001200021009F00F067FB38184D410090CE
:100190002046641E0028DFDC019B00982946324679
:1001A00007B0F0BD0549064A08685043054A801863
:1001B0000860400870470149086070477C010020D2
:1001C0006D4EC6413930000003460B439B0703D0F8
:1001D00009E008C9121F08C0042AFAD203E00B780C
:1001E0000370401C491C521EF9D27047D2B201E084
:1001F0000270401C491EFBD270470022F6E710B582
:1002000013460A4604461946FFF7F0FF204610BD84
:10021000F8B502464A40D40F42004B0052085B0832
:100220009A4202D20246084611464A0023D0C30D24
:100230004A00DDB2120EAD1A202D35DA4902012630
:10024000490AF6058A19002C00D0524220214F1B82
:100250001146B9402A411018C20D9A4221D0002CF3
:1002600017D0012D08DCDA05801AD20F8019D207C9
:10027000DBB200F02DFBF8BDDA05801A0123400047
:100280001B06C01880185A428018CA0F1043490034
:1002900007E04908C2071143DA05801A80194008AF
:1002A000801800F00DFBF8BD61000122511A001BFF
:1002B000F7E70122D2075140AAE70122D2075040B6
:1002C000A6E7024670B54A40D30FDB0740002DD0A9
:1002D0004A002AD0010E140E000212020919400A27
:1002E000520A8418E50104465443000A120A2E04F7
:1002F0005043A4194219200CC543AA18120C012519
:10030000AD03521C521912047F39240400D0521C30
:10031000104301D44000491EC2B20C06C009201887
:10032000401C4008802A02D003E0002070BD400835
:100330004000002900DA0020184370BD70B5024665
:100340004A40D50F40004A00ED07400852080028F7
:1003500014D0002A12D0C40DD30D41020120C005D3
:100360005202490A520AE41A091812187D349142BD
:1003700001D3641C00E04900002C01DA002070BDAC
:100380000023914201D3891A034340084900002801
:10039000F7D100290AD0914202D10121C90705E015
:1003A000914201D2012101E00121C943E005C018B9
:1003B000401900F085FA70BDF0B507460846584070
:1003C00087B0C00F049048000E4659004008490805
:1003D000BC1A884105D2384631461E4617460B46A0
:1003E00002465800400810434CD0300D03904005A1
:1003F0005900400D490D0590401A0290402872DACC
:1004000018030121000B090508430190049800928C
:10041000002805D0019952420020884100920190A5
:10042000029840210A1A0199009800F015FA054631
:100430000C466B4607CB00F030FAC0197141039AA5
:100440000E0D0023D71756401A467A40164344D063
:10045000049A002A2DD0029A012A039A15DC12056B
:10046000C01A914101263605001C7141D20F059E2C
:10047000D2070093019202962A46234600F06EFAB4
:1004800007B0F0BD38463146FAE71605224A0F4656
:10049000B218C01AB74101210905001C4F410018CC
:1004A0007F41114618187941E20F10436D196441DC
:1004B00013E0E2076D0815436408C2071443039A6A
:1004C00001261205C01A91413605001C7141CE0764
:1004D000400830434908C01851412A46234600F0DD
:1004E00030FACDE7FFE7049801224000C117121A45
:1004F00000238B4104983146C417381AA141EEE716
:1005000030B40124E407634030BC55E730B4012423
:10051000E407614030BC4FE70000E0FFF0B51FB4D6
:1005200088B00B990998002448400999C00F4900E8
:1005300049080991C0070B990090490049080B919F
:1005400009990898A64608431CD00B990A980843B5
:1005500018D0099801244000420D4800410D099827
:1005600024050003000B204309900B980003000BA7
:1005700020430B9050181C4940180022019014464B
:10058000104605E0002001460DB0F0BD032801DA59
:10059000034600E003239C46C11A0AAE0AE05F004E
:1005A00008ADED5B4F00F75B7D430027AA187C4147
:1005B000491C5B1E6145F2DD410004AB5A52210427
:1005C000120C0A43240C401C0828DFDB019802901F
:1005D0000099704601910090059B049A079906982E
:1005E00000F0BCF9D0E700000DFCFFFFF0B50C46B1
:1005F0005C4085B0E40FE40703944C0000266408D7
:1006000059009446490802460296224321D0624688
:100610000A431ED06200570D4A000E032303550DF6
:10062000012402462C492405781B1B0B360B40186D
:1006300023432643614600901C46501AB44103D31D
:100640000098401C009002E0921800985B4100283E
:1006500003DA0020014605B0F0BD002001210905A4
:100660000746864611E064461D46141BB54106D375
:100670006546521BB341744607430C43A646CD075B
:1006800040084908284392185B4105460D43EAD1CA
:100690001046184313D06046194650407140084335
:1006A00006D06046101AB34106D20122002306E0AC
:1006B00000220123DB0702E00122D24353100098FD
:1006C00074460105381C6141029C039D0019694173
:1006D00000F037F9BFE70000FD03000070B54B00E4
:1006E0005B0803430BD04B005C0D0026334665428C
:1006F000B341D417AD1AA34102DB0020014670BDFF
:1007000012053018514170BDC217C10F504010B5CD
:100710004018CA079623002100F0DAF810BD10B582
:1007200000229623114600F0D3F810BD0EB5C21773
:10073000C10F5040CA0740180021054B0293019297
:1007400000910A460B4600F009F903B000BD000015
:10075000330400000EB505490291002100910A46BC
:100760000B46019100F0FAF803B000BD330400001D
:10077000C20F410040020123400ADB05D207090EE7
:10078000C0187F2901DA00207047962903DC9623E0
:10079000591AC84001E096398840002AF4D04042F6
:1007A0007047410040020122400AD205090E80181C
:1007B0007F2901DA00207047962903DC9622511A1E
:1007C000C840704796398840704700004A000903C6
:1007D0000123090B1B051943094B10B5520D9A4211
:1007E00001DA002010BD064B34339A4203DC9A1A1A
:1007F00000F042F810BD03495118884010BD0000B8
:10080000FF030000CDFBFFFFC20FD20740004008EE
:100810000BD0C10D0723DB01C91840020905400AAE
:100820001143C2084007114370470020014670473A
:1008300010B5002904DB0124E40740428C41214625
:10084000002B04DB1C460123DB075242A3419942E3
:1008500000D1904210BD000010B5202A04DB0146F3
:10086000203A9140002010BD914020239C1A03465D
:10087000E3401943904010BD10B5202A04DB084620
:10088000203AD040002110BD0B46D340D040202458
:10089000A21A91400843194610BD10B5202A06DB64
:1008A000CB170846203A1041C1170B4306E00B4610
:1008B0001341D0402024A21A91400843194610BD8C
:1008C000002904DA401C490001D14008400070476B
:1008D00070B40024050C05D11024000402D10029B5
:1008E00021D01124050E01D100020834050F01D1D9
:1008F0000001241D850F01D18000A41C002801DB0C
:100900004000641C002908D020252E1B0D46F54010
:10091000A14000D001212943084301061B1B000A06
:10092000DB1D02D5002070BC7047DB05181880184D
:100930000029F8DA401C4900F5D170BC400840009D
:10094000704710B5002B08DA0024401C6141921852
:100950005B411A4301D14008400010BDF0B51FB4FF
:1009600082B005460C0003D0084606F021FD02E0E7
:1009700006F01EFD20300246009021462846FFF773
:100980006BFF049B059A04460F4618431143084326
:1009900014D0184610431BD0009840210A1A18465C
:1009A0000599FFF769FF05460E46009A05990498D8
:1009B000FFF752FF084305D0012004E020463946E6
:1009C00007B0F0BD0020C11705430E432C43374349
:1009D00000990E986305401A7905E40A00220C4339
:1009E000FD0A0A3002D500200146E9E70105101989
:1009F00069410C9C0D9D00196941FFF7A2FFDFE7DB
:100A0000F8B50546480040080C46284304D060006D
:100A1000184A400D904201DD2846F8BD1549353988
:100A2000884210DC88420BDB290D20030843290390
:100A3000014305D0E00F1049C00741180020F8BD60
:100A400000200146F8BD161A4020821B2846214688
:100A5000FFF702FF07460091284621463246FFF77E
:100A60000BFF3A46009BFFF76CFF3246FFF7F4FEA0
:100A7000F8BD0000330400000000F03F4A00090305
:100A80000123090B1B0519430A4B10B5520D9A425D
:100A900002DA0020014610BD064B34339A4203DCD3
:100AA0009A1AFFF7E9FE10BD034BD218FFF7D4FEE8
:100AB00010BD0000FF030000CDFBFFFF10B50029B3
:100AC00004DB0124E40740428C412146002B04DB77
:100AD0001C460123DB075242A3418B4200D18242D4
:100AE00010BD0000064C0125064E05E0E36807CC6A
:100AF0002B430C3C98471034B442F7D3FFF7E4FA89
:100B0000448B0008648B000870B58C180578401C75
:100B10006B075B0F01D10378401C2A1106D10278C4
:100B2000401C03E006780E70401C491C5B1EF9D186
:100B30002B0705D40023521E0DD40B70491CFAE775
:100B40000378401CCB1A921C03E01D780D70491CE1
:100B50005B1C521EF9D5A142D8D3002070BD70B5E0
:100B6000044600688168490720D581681026490736
:100B7000002905DA8168890702D4816831438160E0
:100B800000F014FE05460DE000F010FE401B0A28A0
:100B900008D9606D30436065A06D01210843A065F0
:100BA000084670BD206880684007EDD4002070BD05
:100BB000F8B50446006881688907890F012925D1A5
:100BC0000168C90722D0816805221140102501263D
:100BD00001290FD18168022211438160216803201D
:100BE000086000F0E3FD07460CE000F0DFFDC01BED
:100BF0000A2807D9606D28436065A06D3043A06561
:100C00000120F8BD20688068C007EED10020F8BD43
:100C100070B5174C0646E078012820D005F036FF65
:100C200001281CD0BC202070BE2060700025A5705B
:100C3000E5702571012060710E4823460E49083386
:100C400023C30E4A011F0A6022C03460E1682046B7
:100C50000968002904D08847012807D0002070BD0A
:100C60001421FFF7CAFA0120356070BD3068F7E73C
:100C7000880300202800002038000020A000002069
:100C800070B5184C0646E078012821D005F0FEFE2C
:100C900001281DD0BC202070BE2060700025A570EA
:100CA000E5702571012060712046234628300E49E9
:100CB000083323C30E490D4A0A6022C03460E1683C
:100CC00020460968002904D08847012807D0002061
:100CD00070BD1421FFF791FA0120356070BD3068B6
:100CE000F7E700009C0300206C000020A00000201B
:100CF0003000002010B500280AD0C268002907D0B3
:100D00009269002A04D09047012800D0002010BD2D
:100D1000012010BD10B5002208460A60FFF778FFD9
:100D2000012800D0002010BD10B5002808D0C168EF
:100D30008968002904D08847012800D0002010BD10
:100D4000012010BD10B51349012286B0002802D041
:100D500001280ED106E0CC6A02231C43CC62C96A8A
:100D6000194005E0CB6A1343CB62C96AC907C90FB2
:100D700005914100084B8000595A009100210291D1
:100D800003210391054901920858694600F03CFC93
:100D900006B010BD00100240F88A0008380100209B
:100DA00010B5044A4100515A034A8000105800F01F
:100DB000F2FC10BDF88A00083801002070B51B4C09
:100DC0000646E07D012828D005F060FE012824D0E9
:100DD000B1202075BA2060750120A0750025E57549
:100DE0002576607620463030E06111482062114857
:100DF000606212481049016021462831CD60886048
:100E0000084614383060C1680968002906D0884750
:100E1000012809D003F076FD002070BD1421FFF7F2
:100E2000ECF90120356070BD3068F7E79C030020C5
:100E3000A4000020D800002014010020340000206D
:100E400010B5044A4100515A034A8000105800F07E
:100E50009DFC10BDF68A00083401002070B50446E0
:100E6000284886B0C36A01221343C362C36A134091
:100E70000593436B1343436300206300224DA2009C
:100E8000224E00291DD0012926D1E95A0290009155
:100E90001F480190B058694600F0B6FBAD1E2A57B6
:100EA000FF20C021002A19DB96081A4BB600F6185D
:100EB00033689207D20E9040834391400B433360D6
:100EC0001BE0E95A01900220029000910320039058
:100ED000B058694600F098FB06B070BD13071B0FB1
:100EE000083B9E080C4BB600F618F3699207D20E29
:100EF0009040834391400B43F361285700F05CFE20
:100F0000EAE7000000100240F68A000834010020E1
:100F10000000111000E400E000ED00E010B5002832
:100F20000AD0C268002907D09269002A04D09047ED
:100F3000012800D0002010BD012010BD10B50C46C6
:100F40000021216000280AD0012804D02046FFF7A4
:100F500097FE012808D12046FFF730FF02E0204627
:100F6000FFF78EFE012800D0002010BD10B500282C
:100F700008D0C1688968002904D08847012800D0BA
:100F8000002010BD012010BD10B508490020FFF75A
:100F9000C1FE06490020091DFFF7D0FF034C206861
:100FA000FFF7C2FE6068FFF7E1FF10BD6C01002093
:100FB0007CB5044600200A4D0090019069462868DF
:100FC000FFF798FE01A96868FFF7A8FF0098A060E6
:100FD000019860600348E060034820617CBD000028
:100FE0006C0100200D093E00AB03050030B587B051
:100FF00014216846FFF701F90320019000200290B8
:1010000003204003104C0090E06A01210843E06295
:10101000E06A0840059005206946000700F0F4FAF0
:10102000E06A40084000E062606B0125AD0528439E
:10103000606300F0C5F900F0D3F900F0C9F9606B06
:10104000A843606307B030BD0010024010B507F040
:101050001DFC10BD30B5446C1C252C400125A5405D
:10106000046C6560046863608368102B036803D0B8
:1010700099600068C26030BD9A600068C16030BD90
:1010800010B5012000F0B4FA022000F0B1FA10BD52
:1010900010B5042000F0ACFA082000F0A9FA10BD49
:1010A00010B5102000F0A4FA202000F0A1FA402092
:1010B00000F09EFA802000F09BFAFF20013000F043
:1010C00097FA0120400200F093FA0120800200F01C
:1010D0008FFA0120C00200F08BFA0120000300F01B
:1010E00087FA0120400300F083FA0120800300F01A
:1010F0007FFA0120C00300F07BFA10BD01A005F0CB
:1011000081FEFEE74572726F725F48616E646C65C6
:10111000720A0D0010B5094A0021CB00D458844250
:1011200007D89B189B68834203D9C80080180079B0
:1011300010BD491CC9B21529EFD3FEE7D0890008BC
:1011400070B5040043D0606D0221084360652046FD
:10115000FFF705FD0026054600283AD0012D32D0C4
:10116000206841681F4A114041602168D0430860EF
:101170002068816801221207914381602068C1685C
:10118000194A1140C16020680169184A1140016183
:1011900020684169C908C90041612068016A144A90
:1011A0001140016220688030416BC909C901416367
:1011B00020688030416BC909C9014163204600F0B5
:1011C000FDF8A665666540342674284670BD01208A
:1011D00070BD2046FFF7ECFC05460128F3D0012046
:1011E0006065BDE760F7FFFF00023E8302FCFF3F42
:1011F00000F000F070B5040006D0606D26460025B2
:101200004036002802D006E0012070BDA565357487
:10121000204600F0D4F8606DC00603D421688868C9
:10122000400705D5606D1021084360653574EBE714
:10123000606DFF220132904302221043606588688E
:101240008207920F5B48012A02D10A68D2072BD18C
:10125000032362689B079A4205D05B429A4202D000
:101260005B009A4209D10A69920092080A612168DA
:101270000A6963681A430A610CE00A6992009208DD
:101280000A6181680F2292049143816081686268DB
:10129000114381602168CA6818239A43CA60216893
:1012A000CA68A3681A43CA60816801225206914342
:1012B00081608168A28E5206114381602068816836
:1012C000C90004D48168012212071143816020689B
:1012D000C168394A1140C1602069E168022825D0FF
:1012E00000200143204620300278037B52035B003C
:1012F0001A431143226B1143A26992031143E2691D
:10130000D20311432268D3681943D160616A0A4647
:10131000FF3AC23A05D0A26A11432268D368194342
:10132000D16042780121012A02D00BE00420D8E7E5
:101330000078002823D0606D202210436065A06DE6
:101340000843A065E06B012820681FD00169C90728
:1013500003D0016949084900016120684169C90851
:10136000C900416120684169A26B11434161A565D3
:10137000606D80088000401C6065002070BD2068A2
:10138000C26801231B041A43C260DBE70269FF2322
:101390009B009A43026120680269236CA66C1A4381
:1013A000636C33431A430261206802690A43026195
:1013B000D3E70000002701401902FEFF7047704785
:1013C000024841684908490041607047005801409F
:1013D000024841680422914341607047005801402F
:1013E0000248416802229143416070470058014021
:1013F00070B50024014620314A79022A03D0042125
:10140000C163012418E0026813680E25AB43136022
:10141000026813685B085B001360436C1C22134076
:10142000012215469D40036C5D604A7100220A71DD
:10143000816B002900D08847204670BDF0B4016C54
:101440000D6801680C68466C1C2304221E40174678
:10145000B7402F420ED067070CD50C68A40602D403
:101460000C6894430C60416C19408A40016C4A60DE
:10147000016B1AE00227B74002462F402032002FAE
:1014800017D0A70715D50C68A40605D40C680A2543
:10149000AC430C6001215171446C02211C40036C6F
:1014A000A140596000211171C16A002918D0F0BC17
:1014B00008470827B7402F4212D0240710D50C68E0
:1014C0000E25AC430C60446C01211C400B46A3402C
:1014D000046C6360C163517100211171416BE4E7D9
:1014E000F0BC704770B504003CD01F48256814213B
:1014F0002818FEF7FDFD800060641C48206402216E
:10150000204620300246417129681948E3680140AD
:10151000A06866691843236933431843A3691843D5
:10152000E3691843236A1843084328600121A0682F
:101530008903884210D00D488030836A656C1C2175
:101540000D400F26AE40B3438362656C63680D4067
:10155000816AAB400B4383620020E063012151713B
:10156000107170BD012070BDF8FFFDBF000002408A
:101570000F80FFFFF8B504468C4620300179002526
:10158000012909D00126067141790027012905D0DA
:10159000077102252846F8BD0220F8BD02214171DD
:1015A000E7632068016849084900016061462046F8
:1015B000FFF750FD206B00282068016801D00E2243
:1015C00005E0042291430160206801680A2211436A
:1015D00001602068016831430160DBE701B50098D4
:1015E00002F03CFA08BD10B502F08AF910BD000007
:1015F00010B504494A69024202D04861FFF7F3FF7F
:1016000010BD000000040140F8B500230124A7E04C
:1016100027469F403A4070D04D68022D01D0122DD0
:1016200014D1DD08AD002D1800952D6A5E07AC467B
:10163000F50E0F26AE46AE406546B543AC460E6984
:101640007546AE4065462E43009D2E624D68012DC5
:1016500005D0022D03D0112D01D0122D16D1856891
:101660000326AC465D00AE46AE406546B543AC468B
:10167000CE687546AE4065462E43866046680D7955
:10168000BE43ED06ED0F9D403543456006685F00A3
:101690000325BD40AE46AE430D79B446AE07B60F46
:1016A000BE4065462E430660C6687546AE438D68EB
:1016B000BD403543C5604D68ED0050D52B4D6E6B78
:1016C00026436E639E082A4DB6007519AC46AD6878
:1016D0009E07360F0F27B740BD4305273F07B84287
:1016E00001D100271AE0234FB84201D1012715E0AC
:1016F000214FB84202D1022710E030E01F4FB8421C
:1017000001D103270AE01E4FB84201D1042705E0AA
:101710001C4FB84201D1052700E00627B7402F43F0
:101720006546AF60184D2E684F689643FF0300D59D
:1017300016432E606E684F689643BF0300D516436C
:101740006E60AE684F689643FF0200D51643AE60E8
:10175000EE684F689643BF0200D51643EE605B1CEF
:101760000A681546DD4000D052E7F8BD001002407F
:10177000000001400004005000080050000C005020
:1017800000100050001C0050000401400069084097
:1017900000D00120704742694A4042617047002AE8
:1017A00001D0816170478162704700000148006884
:1017B000704700004C01002070B5040014D02421B3
:1017C00020464030054641702068016849084900BC
:1017D0000160204600F0B8F900216164697021635E
:1017E000A9702970084670BD012070BD4030407856
:1017F0007047000070B5040006D025464035687873
:101800000026002802D005E0012070BD2E70204681
:1018100000F09BF92420687020680168490849009D
:1018200001600F216068090688432168086121680A
:101830008A680120C00382438A60E1680129A168A7
:1018400008D021229202114322689160E1680229A6
:1018500002D005E00143F7E701212268C902516087
:1018600021684A680F4B1A434A602168CA6882435C
:10187000CA60616920690843A169090208432168B7
:10188000C860216AE069084321680860206801682F
:101890000122114301606664202068702663AE70E7
:1018A000002070BD00800002FFB5054604464035AB
:1018B000687883B0202875D10C98002814D00D9832
:1018C000002811D0287801286CD001202870FFF75B
:1018D0006DFF0746012200901923D103204602F034
:1018E0002FFC002874D103E00120400260646FE007
:1018F000222068704020A870002666640C98606200
:101900000D98608566630E980090019704A90EC932
:10191000204602F0A1FB002801D02E7058E0618D16
:101920003448FF2905D9FF22228501231B06009098
:1019300006E0618D21850090208D0123C2B25B06F7
:101940002046049902F0E8FB00970022042120467B
:101950000E9B02F0F5FB00283AD12068406A616ACC
:101960000870606A401C6062208D401E81B2218533
:10197000608D401E6085608D00281FD000291DD11C
:1019800000970022802120460E9B02F0D9FB002800
:101990001ED1608DFF2806D9FF22228501231B0658
:1019A000009607E024E0608D20850096208D0123BD
:1019B000C2B25B062046049902F0AEFB608D00289F
:1019C000C2D13A4620460E9902F0E1FB002802D02F
:1019D000012007B0F0BD20682021C1612068426865
:1019E000054B1A4042606970AE702E700020F0E71F
:1019F0000220EEE70024008000E800FEFFB5054667
:101A000004464035687883B0202872D10C980028AD
:101A100014D00D98002811D02878012869D0012011
:101A20002870FFF7C3FE0746012200901923D10357
:101A3000204602F085FB002871D103E0012040021E
:101A400060646CE0212068704020A8700026666405
:101A50000C9860620D98608566630E9800900197FF
:101A600004A90EC9204602F027FB002801D02E70E1
:101A700055E0608DFF2805D9FF22228501231B0632
:101A8000009606E0608D20850096208D0123C2B26D
:101A90005B062046049902F03FFB3A4620460E9929
:101AA00002F09BFB00283AD1606A216800788862C6
:101AB000606A401C6062608D401E6085208D401E03
:101AC00080B22085618D00291FD000281DD100978C
:101AD0000022802120460E9B02F032FB00281ED1FE
:101AE000608DFF2806D9FF22228501231B06009660
:101AF00007E024E0608D20850096208D0123C2B28E
:101B00005B062046049902F007FB608D0028C4D1D3
:101B10003A4620460E9902F03AFB002802D00120F6
:101B200007B0F0BD20682021C16120684268054BE4
:101B30001A4042606970AE702E700020F0E70220FB
:101B4000EEE7000000E800FE7047704702480168B9
:101B5000491C0160704700004C01002010B5084886
:101B600000240168022211430160032000F00AF8FA
:101B7000002801D0012401E000F006F8204610BD45
:101B8000002002400020704710B50948816B020414
:101B90001143816300F030F800F026F80548016831
:101BA00008221143016000F017F801F0DBFE10BDC0
:101BB0000010024000200240002805DBC106C90ECB
:101BC00001208840014908607047000000E100E002
:101BD00010B505F011FC10BD024801680215114353
:101BE00001607047007000400248016842151143CF
:101BF0000160704700700040024801681022914364
:101C00000160704700700040094B1A68920892000A
:101C100002431A600748026904239A4302610129BA
:101C200004D040BF20BF20BF00BF704730BFFBE7DC
:101C30000070004000ED00E00A4B1A689208920024
:101C400002431A600848036904221343036101290F
:101C500006D040BF20BF20BF01699143016170479A
:101C600030BFF9E70070004000ED00E0F8B5044631
:101C700000785E4D800672D55C4E0027403EB06B0A
:101C8000C00004D4B06BA9050843B06301275848CD
:101C90000168C90511D40168821511430160FFF77D
:101CA00085FD009005E0FFF781FD0099401A64284A
:101CB00037D84F480068C005F5D5326803210905BB
:101CC00060680A400140914208D08103890F0329CE
:101CD00004D13168890301D50120F8BD2A690321A7
:101CE00009040A4022D0084090421FD02078800684
:101CF0001CD528692A6988430121C9040A432A613D
:101D00002A698A432A612861C0050FD5FFF74EFD75
:101D1000009008E0FFF74AFD0099411A35488142DA
:101D200001D90320F8BD28698005F3D561688803CF
:101D3000800F032805D132680005824301400A4321
:101D40003260286903226168120411400843286147
:101D5000002F04D0B06B012109078843B0632078BD
:101D6000C00705D0E868A168800880000843E860E3
:101D70002078800705D5E8680C218843E16808438E
:101D8000E8602078400706D5E86803218902884387
:101D900021690843E8602078000706D5E868032138
:101DA0000903884361690843E8602088C00506D5B7
:101DB000E868032109048843A1690843E8602078A2
:101DC000400606D5E868012189068843216A084350
:101DD000E8602078000606D5E86803218904884376
:101DE000E1690843E8600020F8BD000040100240AF
:101DF0000070004088130000F8B50E4605007DD045
:101E000053480068C007C00FB0420AD2504801686A
:101E100049084900314301600068C007C00FB04263
:101E200071D128784B4C800705D5E068F0218843B4
:101E3000A9680843E0602878C00752D06868022883
:101E400017D0032818D02168012818D08905002947
:101E500059DAE168890889000143E160FFF7A6FCCF
:101E600069680746022912D003291CD0012926D00F
:101E700033E021688903EAE721688901E7E7490738
:101E8000E5E7FFF793FCC11B3348814223D8E068A4
:101E90000007800F0228F4D123E0FFF787FCC11B65
:101EA0002D48814217D8E0680007800F0328F4D13D
:101EB00017E0FFF77BFCC11B274881420BD8E06885
:101EC0000007800F0128F4D10BE0FFF76FFCC11B66
:101ED0002148814201D90320F8BDE0680007800F46
:101EE000F3D11B480168C907C90FB1420DD9016878
:101EF0004908490031430160006800E003E0C00781
:101F0000C00FB04201D00120F8BD2878400706D5A7
:101F1000E068072109028843E9680843E0602878FF
:101F2000000707D5E0680721C90288432969C9006D
:101F30000843E06000F036F8E168084A0906090F36
:101F4000515CC840064908600320FFF71BFEF8BD3E
:101F5000002002400010024088130000008B00089F
:101F600048010020044805490068C968044A490539
:101F7000490F515CC84070474801002000100240E2
:101F8000198B0008044805490068C968044A890497
:101F9000490F515CC84070474801002000100240C2
:101FA000198B000810B5184AD1680C200840042885
:101FB0000BD0082810D00C2810D050680004410F16
:101FC0000120C003491C884010BD1068C00601D51F
:101FD0000E4810BD0E4810BD0E4810BD88020E4BB5
:101FE000000F185C0902D368890F491CDB0301D577
:101FF000084A05E01268D20601D5044A00E0044A06
:102000005043FEF775F810BD0010024000093D0076
:102010000024F40000127A00108B0008FEB50500C1
:102020007ED0F94CE7680C20E668074001200004E8
:1020300006402878C00747D0082F05D00C2F0AD1BA
:1020400001200004864206D1206880033CD56868E0
:102050000028E5D038E0012069680004814203D1FE
:1020600021680143216011E0052301221B04920431
:102070009942216802D111432160F1E78143216037
:102080002168014000912068904320606868002822
:102090000DD0FFF78BFB009005E0FFF787FB009961
:1020A000401A64287ED820688003F6D50CE0FFF73C
:1020B0007DFB009005E0FFF779FB0099401A64284A
:1020C000F0D820688003F6D4287880075CD5E868CB
:1020D000810604D5226820210A432260884309230F
:1020E000042F0DD00C2F01D1002E09D000283BD099
:1020F0002168994301432160FFF758FB064627E01A
:102100002168490701D500288AD061681F22120280
:1021100091432A691202114361602168994300E0EA
:10212000C3E101432160FFF73DFFE16809060A0FA3
:10213000B649895CC840B64908600320FFF722FD14
:10214000002873D120E0FFF731FB801B0228A9D8BB
:1021500020684007F7D560681F2109028843296974
:102160000902084360600FE02068400840002060DA
:10217000FFF71CFB064604E0FFF718FB801B022854
:1021800090D820684007F7D42878C00660D5002F83
:102190000DD0E86900284AD02068FF2101310843AA
:1021A000206000E0E8E0FFF701FB06462CE0206835
:1021B000800502D5E8690028A6D060680721490398
:1021C0008843696A084360606068298C0002000ADD
:1021D000090608436060686A410B0120C003491C7E
:1021E0008840E16809060A0F8849895CC840884927
:1021F00008600320FFF7C6FC002817D128E0FFF78E
:10220000D5FA801B0228A2D820688005F7D560681F
:10221000072149038843696A084360606068298C24
:102220000002000A09060843606011E023E121680A
:10223000FF20013081432160FFF7B8FA064604E031
:10224000FFF7B4FA801B02289AD820688005F7D4DB
:102250002878704E000724D568690028306910D0AE
:10226000012108433061FFF7A1FA009005E0FFF774
:102270009DFA0099401A02287ED830698007F6D569
:102280000FE0400840003061FFF790FA009005E051
:10229000FFF78CFA0099401A02286DD83069800740
:1022A000F6D42878400764D500200290A06BC000C7
:1022B00006D4A06B012109070843A0630120029006
:1022C00055480168C90511D40168821511430160A0
:1022D000FFF76CFA009005E0FFF768FA0099401AE2
:1022E000642849D84C480068C005F5D5FF20AA6885
:1022F0000130824203D131690143316111E0012192
:102300008902002A07D005231B029A4203D13269B1
:102310000A433261EFE732698243326130698843B0
:102320003061A86800280ED0FFF740FA009006E060
:10233000FFF73CFA0099411A384881421CD83069AD
:102340008005F5D50DE0FFF731FA009006E0FFF7C4
:102350002DFA0099411A314881420DD83069800523
:10236000F5D40298002804D0A06B01210907884306
:10237000A0632878800600E07CE02ED52848A96973
:102380004314002916D0A26801210A43A260626B9F
:102390000A436263016A19430162FFF707FA0646BE
:1023A00004E0FFF703FA801B022863D8A0688007C7
:1023B000F7D512E0A16849084900A160016A994374
:1023C0000162FFF7F3F9064604E0FFF7EFF9801B1F
:1023D00002284FD8A0688007F7D4A86A002866D0E2
:1023E0000C2F4DD0012636060228206805D0B043B8
:1023F0002060FFF7DBF905463EE0B0432060FFF7C1
:10240000D5F9074613E0000000100240008B0008D9
:102410004801002040100240007000408813000076
:1024200000000140FFF7C2F9C01B022822D8206833
:102430008001F7D4296BE86AE2680843696BFD23E1
:102440001B049A4311430843E06020683043206036
:10245000FFF7ACF9054604E0FFF7A8F9401B022896
:1024600008D820688001F7D521E0FFF79FF9401BCD
:10247000022801D90320FEBD20688001F5D416E0B2
:102480000128F8D0E06801210904EA6A014091427C
:102490000BD10F2189042A6B0140914205D1032100
:1024A00089050840696B884201D00120FEBD0020EB
:1024B000FEBD30B5014620310A78012A15D001222F
:1024C0000A7002234B700468CA23636204685323B2
:1024D000636203689C6820252C439C600068FF238E
:1024E00043624A700020087030BD022030BD10B534
:1024F00004F0A4FB10BDF8B5054604462035287845
:1025000001281DD001202870022068702268CA208E
:102510005062226853205062FF2001300026FF27BE
:1025200081421CD121688A6882438A602068816860
:102530000122120391438160FFF738F9009009E00E
:102540000220F8BDFFF732F90099411A7D20C00042
:1025500081421BD82068C068C007F3D020E0206803
:1025600081680122520291438160206881681201D2
:1025700091438160FFF71AF900900DE0FFF716F91B
:102580000099411A7D20C000814205D92068476228
:10259000032068702E70F8BD2068C0688007EDD5F4
:1025A00020684762012068702E700020F8BD10B5C9
:1025B00000680B464068C021C94301400002000E7C
:1025C000CC04D870E40E5C708C06A40E0904490F8C
:1025D0009C701970002A0AD102F0BBFDD87058789F
:1025E00002F0B7FD5870987802F0B3FD98700020A3
:1025F00010BD000030B50B460168896A596001685A
:1026000009694904490C9960006804680F4821462B
:10261000014088024D04800E18706D0E49065D70F1
:10262000490E99706102490E40242140D970002A58
:102630000AD102F08EFD1870587802F08AFD5870A9
:10264000987802F086FD9870002030BD7F7F7F0073
:10265000F8B5040050D0254620356878002803D10D
:102660002870204600F052F8022068702168CA20C5
:102670004862216853204862204602F07EFDFF2612
:1026800004270028206802D046626F7034E0816819
:102690001D4A11408160216888686268A3691043FF
:1026A00022691A43104388602168E0680861206845
:1026B000016922891204114301612068C1688022E6
:1026C0009143C1602068C16C89088900C164E169D7
:1026D000606901432068C26C1143C164206880684E
:1026E00080060BD4204600F0DDF9002806D02068D3
:1026F00046626F70002028700120F8BD2068466295
:10270000012068700020F8BDBFFF8FFF00B597B0B3
:102710000420009000200A90FF20013002906846BB
:10272000FFF77CFC002801D0FEF7E8FC20200E908B
:10273000C0020F900EA8FFF799FA002801D0FEF70B
:10274000DDFC084801690122920411430161002265
:1027500011460220FFF73CFA0220FFF72DFA17B0CE
:1027600000BD000040100240FEB50646044620367B
:1027700030780B4601283ED0012030700220707066
:10278000184620300090206800278068002A34D046
:10279000400600D4DF7019789D7809040D435978FC
:1027A000DA780902120411430D430099D8690978B7
:1027B00009060D430543586999690543586808435C
:1027C00000902168CA204862216853204862FF2097
:1027D0005A6A01308021824245D12268936883433E
:1027E00093602068C2680A40FF3A823AC260FEF7EE
:1027F000DDFF019024E00220FEBD400600D4DF7022
:10280000187802F0AEFC0504587802F0AAFC000229
:102810000543987802F0A5FC0543D87800040543E9
:102820000098007802F09DFC00060543D869C1E7D6
:10283000FEF7BCFF0199411A7D20C00081422AD8D1
:102840002068C068C007F3D02068C561216800987F
:10285000486420688168FF2201321143816020684A
:102860008168120130E02068826801235B029A438C
:1028700082602068C2680A401D495118C160FEF795
:1028800095FF01900EE0FEF791FF0199411A7D201E
:10289000C000814206D92168FF2048620320707081
:1028A0003770FEBD2068C0688007ECD520680562DF
:1028B00021680098886420688168012252021143CF
:1028C00081602068816812011143816009480268B3
:1028D000012149040A43026082680A438260216838
:1028E000FF2048620120707037700020FEBD00009C
:1028F0007FFDFFFF00040140F8B505460446203582
:1029000028780B4601280FD001202870022068701B
:10291000002A0BD0D8789E780004064358780978AE
:1029200000024903084317E00220F8BD5878C106A9
:1029300003D5EF2108400A305870D87802F011FC16
:102940000604587802F00DFC00020643987802F065
:1029500008FC06431878400306432168CA204862F1
:10296000216853204862204602F007FC0027002817
:1029700011D111480640206846602068C168802255
:102980009143C1602068806880060CD4204600F026
:1029900089F8002807D02168FF2048620420687069
:1029A0002F700120F8BD2168FF2048620120687067
:1029B0002F700020F8BD00003FFFFF00F8B506466D
:1029C0000446203630780D46012822D00120307090
:1029D00002207070206800278068002A1BD0400603
:1029E00000D4EF702978A878090408436978EA7858
:1029F000090212041143084300902168CA2048626A
:102A0000216853204862204602F0B7FB002837D1E6
:102A100016E00220F8BD400600D4EF70287802F0DE
:102A2000A0FB0304687802F09CFB00020343A87833
:102A300002F097FB0343E878000403430093DCE7CC
:102A400017490098084021680860206881680122C1
:102A50009204914381602969E868084321688A6883
:102A6000104388602068C16880229143C16020685B
:102A7000806880060CD4204600F014F8002807D0A7
:102A80002168FF2048620420707037700120F8BD73
:102A90002168FF2048620120707037700020F8BD67
:102AA0007F7F7F0070B504460068C168A022914313
:102AB000C160FEF77BFE7D260546F60006E0FEF7C8
:102AC00075FE401BB04201D9032070BD2068C0686C
:102AD0008006F4D5002070BD70B5040007D0002634
:102AE00025464035A662687C002802D005E001201A
:102AF00070BD2E74204600F02FF802206874206804
:102B00000168402291430160A1686068226908431E
:102B1000E16811430843616901220843A169520237
:102B200011400843E1690843216A0843A16A084348
:102B300021680860A0690421000C0840616A08430C
:102B4000216848602068C16992009143C16166654F
:102B500001206874002070BD7047FFB5044683B043
:102B6000012001900020264640360090307C0C9FCA
:102B70001D4601280FD001203074FEF717FE029089
:102B8000707C616801280DD0CA1FFD3A08D1A16888
:102B9000002905D102E0022007B0F0BD042801D0D1
:102BA0000220C3E00498002828D00598002825D0EA
:102BB000002D23D0707C042801D0052070740020E3
:102BC00060650599A163E587A58704992163E5867A
:102BD000A5862064606420680168490603D4016802
:102BE0004022114301600121E068C9028842606807
:102BF00048D1002804D0012D02D03CE0012095E00E
:102C0000206B21680088C860206B801C2063E08EE8
:102C1000401EE0862FE020688168890710D5E18E8C
:102C200000290DD0019901290AD1216B0988C160C1
:102C3000206B801C2063E08E401EE0860020019007
:102C400020688168C9070DD0E18F00290AD0C068CB
:102C5000A16B0880A06B801CA063E08F401EE08702
:102C600001200190FEF7A2FD01460298081AB84221
:102C700001D3781C59D1E08E0028CCD1E08F0028F8
:102C8000C9D146E0002801D0012D3CD1206B21683C
:102C900000780873206B401C2063E08E401EE086A5
:102CA00031E020688168890710D5E18E00290DD0B8
:102CB000019901290AD1216B09780173206B401C0D
:102CC0002063E08E401EE08600200190206881682D
:102CD000C9070DD0E18F00290AD0C068A16B087028
:102CE000A06B401CA063E08F401EE0870120019094
:102CF000FEF75CFD0299401AB84202D3781C02D05C
:102D000013E0002F11D0E08E0028CAD1E08F0028F8
:102D1000C7D139462046029A02F0E6FA002807D0C9
:102D2000012000902020606509E00320009006E06B
:102D3000A068002803D12068C16880680190012044
:102D4000707400203074009826E7704770470000C8
:102D5000F8B502680446D0691168936805072D0F1D
:102D60005BD0DD07ED0FFF2621360E402E4367D0E6
:102D7000C60706D0CE0504D501261662E26F32439F
:102D8000E267870702220426002F06DADF0704D055
:102D900027683A62E76F3743E767470706D5DB07DF
:102DA00004D023681E62E36F1343E367020709D56B
:102DB00020220A402A4305D0236808221A62E36FC2
:102DC0001343E367E26F002A2FD0800606D58806FA
:102DD00004D5216E002901D020468847E06F216884
:102DE0008968490601D4000724D5204604F04DF92E
:102DF00020688168490619D5816840229143816025
:102E0000E06E002812D020498163E06EFEF7F0FAF0
:102E100000280AD0E06E816B06E0850610D58D068D
:102E20000ED5216E1CE020468847F8BD2046FFF7EE
:102E30008DFFF8BD2046FFF789FF0020E067F8BD51
:102E4000C50208D55B0206D50120000510622046A8
:102E5000FFF77BFFF8BD030605D50B0603D5616EB2
:102E60000029E0D1F8BD4006FCD54806FAD5136824
:102E7000204640218B431360202161670021616659
:102E800000F0D8F8F8BD0000F56F000810B5040098
:102E900003D0606F002802D007E0012010BD0021A0
:102EA00070200155204600F027F824206067206834
:102EB0000168490849000160204604F0FFF8012834
:102EC000ECD0606A002802D0204603F0FDFF2068A5
:102ED00041680922D20291434160206881682A2218
:102EE00091438160206801680122114301602046FE
:102EF00004F050F810BD000038B520490546CA6AF4
:102F000001200243CA62CA6A02400092CA6A0243AE
:102F1000CA62CA6A024000928A6B43041A438A63F7
:102F20000A6B02430A63086BC007C00F009005F0EC
:102F3000FFFC144C1248206000211020E160A060CA
:102F40006161A161E16180202162206104206060F3
:102F50002046FEF7C7FAAC66012200210B20A562CD
:102F6000FEF736FE0B20FEF727FE012200211C2073
:102F7000FEF72EFE1C20FEF71FFE38BD001002409B
:102F80008000024030060020F8B50446406F20283B
:102F900047D100290BD0002A09D00123A0681B03C8
:102FA000984206D12069002803D1C80701D001202A
:102FB000F8BD25466035287C012832D001202874D0
:102FC00020464030E164028242820026E6672120EA
:102FD0006067A06E002819D01349C162A16E134822
:102FE0000863A16E12484863A06E13468663276883
:102FF000E16C3A462832A06EFEF7BCFA002805D0F4
:103000001020E0672E7420206067D0E72168402000
:1030100008622E742068816880221143816000203C
:10302000F8BD0220F8BD0000517000088170000852
:103030000970000801480068004700006401002092
:10304000704738B504466B460122202100F025FA6E
:1030500000280CD16A4611788020014311706B461C
:1030600001222021204600F093FB002800D00120FF
:1030700038BD38B50446002069460870204600F087
:1030800047F9012805D0694620780978884201D09F
:10309000012038BD002038BD38B504466B460122FA
:1030A000202100F0FAF900280DD1684600786B461F
:1030B0004106490E6846017001222021204600F099
:1030C00067FB002800D0012038BD38B514460D46F6
:1030D0006B460122272100F0E0F9002801D00120F1
:1030E00038BD684600788007C00F287068460078B1
:1030F000C007C00F2070002038BD10B50B4601225C
:103100000F2100F0CAF9002800D0012010BD0000F6
:10311000F3B583B007466B460222302100F0BDF9BB
:10312000002824D1684600786B46450868464078F8
:103130000222400802903621384600F0AEF90028FD
:1031400015D168460024045F6B4602223A213846B6
:1031500000F0A3F900280AD168460026865F6B4676
:1031600002222821384600F098F9002802D00120D8
:1031700005B0F0BD68460027C75F2846FDF7C4FAD2
:103180000190301BFDF7C0FA06460298401BFDF780
:10319000BBFA0546381BFDF7B7FA2946FDF791F84B
:1031A0003146FDF7CBF80199FDF732F80A49FDF7F2
:1031B00088F80A49884202DD7D20C00008E0FF212E
:1031C000C905C84201D3002002E0FDF7EAFA80B247
:1031D000049908800020CBE70000204100007A44D9
:1031E00038B50C46694600F01FF801280CD0684637
:1031F000007800280BD0012807D002280AD0032825
:103200000AD006482060012038BD7F20C00520601C
:10321000002038BD0248FAE70248F8E7000080BF06
:103220000000E0400000484138B50C466B460122E2
:10323000202100F032F9002801D0012038BD694674
:1032400008788007800F08702070002038BD0000CB
:10325000F3B585B007466B460222322100F01DF916
:1032600000282BD101AB01223521384600F015F999
:10327000002823D16A46117912788807800D1043FF
:103280000C2211406A46527889011143C510C810BA
:1032900003906B4604223C21384600F0FEF80028DB
:1032A0000CD1684600240226045F865F6B4602222A
:1032B0002A21384600F0F1F8002802D0012007B09A
:1032C000F0BD68460027C75F2846FDF71DFA02904B
:1032D000301BFDF719FA06460398401BFDF714FA58
:1032E0000546381BFDF710FA2946FCF7EAFF314680
:1032F000FDF724F80299FCF78BFF0449FCF7E1FF86
:10330000FDF736FA069908800020D8E70000204132
:1033100010B5FFF7F2FE012800D0002010BD10B557
:10332000FFF7A7FE10BD10B504468068006800686E
:103330004078002804D1204600F056F8012805D036
:10334000A1680020096809680870E07010BD1CB50C
:103350000C4601AA6946FFF7B8FE012806D0684668
:103360000078002803D0012801D001201CBD207066
:1033700000201CBD38B50D46002469460C80FFF7BF
:10338000C7FE012808D068460088FDF7C8F9034940
:10339000FCF7D4FF2860204638BD00000000204123
:1033A00010B5FFF71DFF10BD10B5FFF7B1FF10BD41
:1033B00010B504468068006800684078002804D191
:1033C000204600F051F8012806D0A16801200968C4
:1033D00009680870E070002010BD10B500F06BF8AF
:1033E000012800D0002010BD10B504460079002847
:1033F00010D0A06800680068C078002804D120467A
:1034000000F062F8012805D0A16800200968096869
:103410008870207110BD10B504460079012806D0CF
:10342000A06800680068C078002802D006E000208C
:1034300010BD204600F04FF80128F9D0A168012006
:103440000968096888702071F1E710B500F08CF800
:1034500010BD10B500F09CF810BD10B500F0A6F935
:10346000012800D0002010BD10B50446FFF701FE72
:10347000012811D02046FFF70FFE01280CD00121B2
:10348000204600F02FF8012806D00021204600F049
:103490006BF8012800D0002010BD10B51C46012A91
:1034A00001D9802319431346224603F0F7FA002876
:1034B00000D0012010BD10B513460122FFF7EDFF2B
:1034C000012800D0002010BD10B5FFF7E5FD012850
:1034D00000D0002010BD10B5FFF7B3FD012800D0CB
:1034E000002010BD38B50C460546012905D0002C3A
:1034F00003D00E490EA000F063F96B460122202193
:10350000FFF7CBFF00280FD169460978FB20014067
:10351000A0000843694608706B4601222021284616
:1035200000F036F9002800D0012038BD6302000009
:103530002E2E5C2E2E5C2E2E5C4472697665727384
:103540005C4253505C436F6D706F6E656E74735C5C
:103550006874733232315C4854533232315F447292
:10356000697665722E63000010B50B0003F037FF1B
:103570000504060606060D00012100E0032100F007
:103580001DF8012800D0002010BD012010BD000052
:103590007F2210B5D205914201DC012105E0064AE7
:1035A000914201DC022100E0032100F007F801282C
:1035B00000D0002010BD00000000E04038B50C0035
:1035C000054609D0012C07D0022C05D0032C03D0CE
:1035D0000D490EA000F0F4F86B4601222021FFF700
:1035E0005CFF00280DD1694608786B468008800092
:1035F0002043087001222021284600F0C9F8002845
:1036000000D0012038BD0000BA0200002E2E5C2E32
:103610002E5C2E2E5C447269766572735C42535048
:103620005C436F6D706F6E656E74735C687473323B
:1036300032315C4854533232315F4472697665727C
:103640002E63000010B5FFF714FD10BD10B5044641
:103650008068006800680078002804D1204600F0E7
:1036600057F8012805D0A16800200968096848704A
:10367000E07010BD1CB50C466A4601A9FFF725FD98
:10368000012806D068460078002803D0012801D020
:1036900001201CBD207000201CBD10B5FFF7A0FD4F
:1036A00010BD000038B50D46002469460C80FFF7B8
:1036B000CFFD012808D06946085FFDF725F80349CA
:1036C000FCF73CFE2860204638BD00000000204189
:1036D00010B5FFF71DFE10BD10B5044680680068E8
:1036E00000680078002804D12046FFF7BDFE0128BD
:1036F00006D0A1680120096809684870E0700020C0
:1037000010BD10B5FFF7D7FE012800D0002010BD76
:1037100010B504460079002810D0A0680068006841
:103720008078002804D12046FFF7CEFE012805D07E
:10373000A168002009680968C870207110BD10B523
:1037400004460079012806D0A068006800688078E7
:10375000002802D006E0002010BD2046FFF7BBFE87
:103760000128F9D0A168012009680968C870207192
:10377000F1E710B5FFF7F8FE10BD10B5FFF708FF31
:1037800010BD10B500F012F8012800D0002010BDC7
:1037900010B51C46012A01D980231943134622463D
:1037A00003F094F9002800D0012010BD07B502AB4A
:1037B0000122FFF7EDFF012800D000200EBD000020
:1037C0000A46014601A003F0CDFDFEE757726F6E79
:1037D0006720706172616D65746572732076616CCB
:1037E00075653A2066696C65202573206F6E206CC4
:1037F000696E652025640D0A0000000010B50349BC
:10380000002008700248FDF79BFC10BD68010020F5
:10381000F806002010B513480178002920D10122B4
:1038200002701248104901600021C163C161D307D1
:1038300081614360426381600723836302610246C2
:103840002032C160117051700423436181620848C5
:103850001173416B4215114341630448FDF7CAFCE3
:1038600010BD00006801002000240140F80600207F
:1038700000100240014600200A0A00D00820084A31
:10388000114201D004221043064A114201D0022203
:103890001043054A114201D001210843704700003E
:1038A000F0F00000CCCC0000AAAA000038B50B2331
:1038B0001B07C518114B0FD01C152D1B18D02D1B25
:1038C00019D0A542DD6A05D108242543DD62DB6AF3
:1038D000234007E08024F8E7DC6A01252C43DC6202
:1038E000DB6A2B40009311601146FDF78DFE38BD59
:1038F000DD6A0224E9E7DD6A0424E6E700100240FD
:1039000010B5FFF7B7FF810003484158002901D0E7
:103910000020884710BD0000E404002070B51C465C
:1039200015460E460846FFF7A5FF0A49002C0DD0A4
:1039300080000C50304601F0A9FA044600222946C6
:10394000FEF746F92046FEF737F970BD00228000E9
:103950000A5070BDE404002010B5D2B2FDF71FFF7D
:1039600010BD0000F0B587B014216846FCF745FC97
:10397000224CE06A01210843E062E06A08400590B9
:10398000E06A02252843E062E06A28400590E06A88
:1039900004263043E062E06A30400590E06A802708
:1039A0003843E062E06A69463840059003200190A0
:1039B000002002901248009005200007FDF724FE29
:1039C0001048009069461048FDF71EFE69460F48F2
:1039D000FDF71AFE69460E48FDF716FEE06A40083C
:1039E0004000E062E06AA843E062E06AB043E0625F
:1039F000E06AB843E06207B0F0BD0000001002408A
:103A0000FF9F0000FFFF000000040050000800506E
:103A1000001C005010B50F4C6078002818D1FFF73B
:103A2000F9FE0D480068804700F0F8F900F0A2F8B0
:103A300003F0D8F90020FDF785F90120FDF782F9A0
:103A400000210846FDF70AFAFDF79EFA0120607092
:103A500010BD000068010020808A000870B5410E8A
:103A6000C0017D220023FCF76DFB054600F07AF8CB
:103A7000044600E000BF00F075F8001BA842F9D32F
:103A800070BD0000F8B505460C4600222348FEF73D
:103A9000B1FD234FB86A002286B229461F48FEF7BF
:103AA00086FD002221461D48FEF7A4FDB86A80B2BB
:103AB000B042EFD1E8781B4A01465043C01C83084E
:103AC000880729D0184869783D220E4651430A4696
:103AD0003C3A7100891EC840D10F80078918800FB9
:103AE0004910081AC018A978401E08180F493C222E
:103AF00048436178E123514322781B015A438918D6
:103B0000A27810180818810D83026068084C002202
:103B1000201A18185141F8BD0648D4E724050020A2
:103B200000280040B5050000A0AA990080510100BE
:103B3000FF0300005055440003207047014800680F
:103B4000704700007005002000B587B0694605A8E1
:103B5000FFF798FF0249096807B0401A00BD00004E
:103B60007005002000B587B0694605A8FFF78AFFF9
:103B700007B000BD10B5084C207800280AD100F02D
:103B80004DF8FF2101310548FEF7B5FC00F076F84D
:103B90000120207010BD00005E01002024050020DF
:103BA00010B50D4C0021042000F01EFC01200B4933
:103BB0004004486121688868C0040BD5C868C00506
:103BC00008D5C86880221040FF388238C860204677
:103BD000FEF78DFC10BD000024050020000401400C
:103BE00070B50446FFF7B0FF211A0B4D0220285E86
:103BF000C01C814201D9002100E00121042000F015
:103C0000F3FB00F0C9FB012802D10220285E241A30
:103C1000204600F03FF870BD5E01002010B5144949
:103C2000144886B0002412C01F2101608460046122
:103C30001149446141600838FEF70AFD6946CC75B8
:103C40000120487588750875002205A90948FEF706
:103C500053FE00940194049400226946054803949D
:103C6000FEF7ACFE0348FEF724FC06B010BD0000D2
:103C70000028004024050020FF03000010B5044C7C
:103C80002046211D1830FFF7FDFE206010BD00000A
:103C900070050020F0B587B0044614223F4901A802
:103CA000FCF792FA3D485038406E009000F07EF8E4
:103CB0003B4802993B4A401AA105890D081887B272
:103CC000A10A68468078534202E08918401C80B2FD
:103CD0009942FAD26A461579E122120102E0891A64
:103CE0006D1CADB29142FAD26A46547902E0641C6E
:103CF000A4B23C393C29FAD2927951188EB20121F2
:103D0000890203E07A1A761C97B2B6B28F42F9D2D2
:103D100003E03C3E641CB6B2A4B23C2EF9D203E0F0
:103D20003C3C6D1CA4B2ADB23C2CF9D203E0183D72
:103D3000401CADB280B2182DF9D26946C978890706
:103D400069464A7827D01849491E515C814202D2FF
:103D5000FCF7CEF908461249CA1B10492C394A60B3
:103D6000052252068A618E704C700A460D70203210
:103D700010706846C079C8700020C861FF22486191
:103D80000132C8604A620861024608462438FEF7DC
:103D9000EBFC07B0F0BD04490C31D5E774050020F9
:103DA000FF03000080AEFEFF218B000810B5FF214D
:103DB00001310748FEF79FFB05480168C86880226B
:103DC0001040FF388238C86002499002486110BD37
:103DD0002405002000040140810A7D228005D200D4
:103DE000800D50435143800A0818704710B5410EAA
:103DF000C0017D220023FCF7A5F910BD01B582B0FA
:103E00000020C0430090012301AA02A90248FEF746
:103E1000A4FE684680880EBD8C05002010B51C48A5
:103E20001A4901601C4A1B4B0021126803E052082A
:103E3000491C072901D29A42F9D84A078B07D20FA9
:103E4000DB0F52011B011A43C90700D008210A43A6
:103E5000C2610021816001614161FF22C1600532C0
:103E600081624260012201625202826141620B481A
:103E7000416B8214114341630548FEF72DFE002873
:103E800001D0FDF73BF900F00BF810BD0030014008
:103E90008C05002080969800480100200010024008
:103EA00030B585B014216846FCF7A7F902200190CF
:103EB00000240320039002946A46082104940F48CA
:103EC000FFF7F4FC05252D076A4640212846FFF739
:103ED000EDFC6A4680212846FFF7E8FC01200294A9
:103EE000C40301906A4621462846FFF7DFFC012201
:103EF00021462846FFF730FD05B030BD00040050D4
:103F000000BFFDE710B50348FDF756FC00F004F8CC
:103F100010BD00003C03002010B50E48FDF766FC04
:103F200000280DD10B480C494160332181600121EB
:103F3000C1600A49016000F013F80648FDF75AFC19
:103F40000448FDF753FC202801D0012010BD0020BB
:103F500010BD00003C0300202E11B10000540040B1
:103F600010B5164C86B0E16A02200143E162E16AB5
:103F70000390014005910321090200200091029065
:103F8000122104200191049069460D48FDF73CFB85
:103F9000A16B012040050143A163A16A0143A16215
:103FA000A16A8143A162002211461720FDF710FE8D
:103FB0001720FDF701FE06B010BD00000010024002
:103FC0000004005001688A69D243920701D400229C
:103FD0008A6200688169C943C90703D081690122E7
:103FE0001143816170470000F7B5044600680E4632
:103FF0008069C043C0062BD4202725464035206861
:104000008069C043800612D5701CF8D0FDF7CEFB46
:104010000299401AB04201D8002EF0D1606C3843AA
:1040200060646F700020A87028700120FEBD2168B8
:104030001020C8612068C7612046FFF7C3FF2068D1
:104040004168044A11404160606C04210843E7E77D
:104050000020FEBD00E800FEF8B5044616461548EF
:104060001D46DAB20090079F0023204600F054F866
:104070003A462046069900F0B0F8002818D12846A4
:10408000F5B2012809D02168300A88623A462046F4
:10409000069900F0A2F800280AD1206885620097EE
:1040A000002240212046069B00F04AF8002800D05C
:1040B0000120F8BD00200080F8B5044616461548DA
:1040C0001D46DAB2C3020090079F204600F024F894
:1040D0003A462046069900F080F8002818D1284674
:1040E000F5B2012809D02168300A88623A46204694
:1040F000069900F072F800280AD1206885620097BE
:10410000002280212046069B00F01AF8002800D0EB
:104110000120F8BD00200080F0B50668059C756898
:10412000064F600D384385438805800D1104084310
:104130001843204305437560F0BD0000FF63FF0393
:10414000F8B51D4617460E46044609E0681C07D020
:10415000FDF72CFB0699401AA8420BD8002D09D078
:1041600020688169304688430FD00020B842EDD0E6
:104170000020F8BD616C2020014361644034607010
:104180000020A07020700120F8BD0120EEE770B57E
:1041900016460D4604460FE0324629462046FFF7F4
:1041A00023FF002801D0012070BDFDF7FFFA801B1E
:1041B000A84208D8002D06D020688069C043800638
:1041C000EAD4002070BD616C20200143616440345A
:1041D00060700020A0702070E5E770B516460D46AF
:1041E000044611E0324629462046FFF7FDFE00282E
:1041F00001D0012070BD681C06D0FDF7D7FA801BE6
:10420000A84208D8002D06D020688069C0438007E6
:10421000E8D4002070BD616C20200143616440340B
:1042200060700020A0702070E3E7000031B5124CF0
:104230002078322805D26946012003F04FFF00287C
:1042400001D0012038BD002101200C224243121967
:104250001279002A0DD0401C3228F6DB0C2048438E
:1042600000190171009981602078401C20700020A5
:1042700038BDC1B2F2E700008C19002010B50B4820
:104280000168002904D000F014F800F058F810BDBF
:104290004068002804D000F013F800F051F810BD79
:1042A00000F006F800F04AF810BD000050010020B0
:1042B000704710B501210020FDF7A6FC10BD0000DD
:1042C00030B585B0EFF3108472B614216846FBF761
:1042D00094FF03200190002005252D0702906A46D7
:1042E00080212846FFF7E2FA6A4640212846FFF778
:1042F000DDFA6A4608210E48FFF7D8FA01216A461E
:10430000C9032846FFF7D2FA0A484068804704F0FC
:10431000EBFAFFF773FA08480168042211430160C1
:1043200084F3108801210846FDF786FC05B030BDF6
:1043300000040050808A00080070004070477047F9
:1043400010B5EFF3108472B61148016801221143D1
:10435000016001684907FCD501680122120611437A
:10436000016001688901FCD5C16803221143C16065
:10437000C1680907890F0329FAD1FFF791FD0548A4
:104380000068804704F0D4FA84F3108810BD000060
:1043900000100240808A0008EFF3108172B60748CF
:1043A0000268002A01D0002005E04068002801D002
:1043B000012000E0022081F31088704750010020A6
:1043C00010B5EFF3108272B6064B00295C6803D07B
:1043D000012903D1044300E084435C6082F3108828
:1043E00010BD00005001002010B5EFF3108272B62E
:1043F000064B00291C6803D0012903D1044300E0C7
:1044000084431C6082F3108810BD0000500100201E
:1044100038B50446002069460870204600F016FAB8
:10442000012805D0694620780978884201D001200A
:1044300038BD002038BD70B51446054600F080F93F
:10444000012806D02146284600F0D4F9012800D0E2
:10445000002070BD1CB50C46694600F0F9F8012833
:1044600003D068464078207000201CBD1CB50C4667
:10447000694600F0EDF8012803D068460079207005
:1044800000201CBD1CB50C46694600F0E1F801286F
:1044900003D068468078207000201CBD38B50C46DB
:1044A000694600F0C2F8012803D068460078207001
:1044B000002038BD1CB50C46694600F0C9F801283B
:1044C00003D068460078207000201CBD1CB50C4647
:1044D000694600F0BDF8012803D06846C078207016
:1044E00000201CBD10B500F0D6F8012800D0002037
:1044F00010BD10B5002905D0012907D0022909D027
:10450000012010BD002100F05BFA06E0002100F060
:1045100072FA02E0002100F089FA0128F1D00020AF
:1045200010BD10B5002905D0012907D0022909D0F6
:10453000012010BD012100F043FA06E0012100F046
:104540005AFA02E0012100F071FA0128F1D00020AE
:1045500010BD10B560290DD006DC00290AD0202935
:1045600008D0402904D105E0802903D0E02901D0FA
:10457000012010BD00F075FA0128FAD0002010BD0E
:1045800010B500F0A3FA012800D0002010BD10B52E
:10459000002903D0012901D0012010BD00F0B0FA9C
:1045A0000128FAD0002010BD10B5002903D0012940
:1045B00001D0012010BD00F06EFA0128FAD00020D1
:1045C00010BD10B5002903D0012901D0012010BD74
:1045D00000F096FA0128FAD0002010BD38B50C463C
:1045E0006B460122272100F06BF9002801D0012041
:1045F00038BD68460078C107C90F617002210840C4
:104600002070684600788106C90FC006A170C00FEF
:10461000E070002038BD10B50B4601220F2100F0DC
:104620004FF9002800D0012010BD38B50C466B466C
:104630000122142100F044F9002801D0012038BDE6
:10464000694608784009400108702070002038BD94
:1046500038B50C466B460122262100F031F90028BE
:1046600001D0012038BD684600780022C1092171BF
:104670004106C90FE1708006800E012120700028DC
:1046800003D06270202804D000E06170A270002086
:1046900038BDA170FBE710B50C460B460122142172
:1046A00000F00EF9002801D0012010BD2078C006CE
:1046B000C00E2070002010BD38B50C46694600F0D1
:1046C0002DF8012812D068460078302816D006DC74
:1046D00000280ED010280AD0202804D10CE0402851
:1046E0000ED050280ED008482060012038BD7F2011
:1046F000C0052060002038BD0448FAE70448F8E708
:104700000448F6E70448F4E7000080BF00002041B9
:104710000000C841000048420000964238B50C46EF
:104720006B460122102100F0CBF8002801D00120B7
:1047300038BD68460078702108402070002038BDE0
:1047400038B50C4600210091694600F00DF80128AB
:1047500007D00098FBF7D8FF0249FBF7EFFD206078
:10476000002038BD0000C84238B50C46694600F04C
:104770000EF8002801D0012038BD0098642148437C
:10478000C117090D081800132060002038BD38B586
:104790000D4600246B460322282100F091F80028E2
:1047A00001D0012038BD002069460A5CC3009A4050
:1047B000401C1443C0B20328F7D3200202D5FF20C7
:1047C0000006044300202C6038BD38B50C466B460B
:1047D00002222B2100F074F8002801D0012038BDFE
:1047E000684640780102684600780818208000205A
:1047F00038BD000038B50C4600216A461180694674
:1048000000F010F8012809D069460020085EFBF787
:104810007BFF0349FBF792FD2060002038BD0000BC
:104820000000204138B50C466946FFF7CEFF00284E
:1048300001D0012038BD69460020085E0A214843A6
:104840006421FBF76BFC2080002038BD10B5FFF71A
:10485000E2FE012800D0002010BD000070B50C461B
:104860000546FFF7D5FD012826D0144860600121D8
:10487000284600F039FA01281ED00021284600F011
:1048800018FA012818D00021284600F054F9012810
:1048900012D00021284600F069F901280CD002212D
:1048A000284600F070F8012806D00021284600F0C4
:1048B0004FF8012800D0002070BD00000000C84162
:1048C000FFB581B01E4615460F4600240CE038198E
:1048D000C1B232190123019802F0E0F8002802D099
:1048E000012005B0F0BD641CAC42F0DB0020F8E70D
:1048F00010B513460122FFF7E3FF012800D0002086
:1049000010BD000000B50F4887B0C26A02210A43FB
:10491000C262C06A039108400590480200900A48AC
:1049200001900020029069460848FCF76DFE0022C5
:1049300011460720FDF74CF90720FDF73DF900204F
:1049400007B000BD0010024000001110000400502C
:1049500038B50C4605466B4601221121FFF7B0FF22
:1049600000280ED169460A78EF200240200110434A
:1049700008706B4601221121284600F066FA0028D3
:1049800000D0012038BD38B50C4605466B460122E3
:104990001021FFF795FF002801D0012038BD68469F
:1049A0000178FD2001402143684601706B460122D9
:1049B0001021284600F049FA0028EFD0002038BD29
:1049C00038B50C4605466B4601221221FFF778FFE9
:1049D00000280ED169460A78EF20024020011043DA
:1049E00008706B4601221221284600F02EFA00289A
:1049F00000D0012038BD38B50C4605466B46012273
:104A00001221FFF75DFF00280ED169460A78DF20EA
:104A100002406001104308706B46012212212846B3
:104A200000F013FA002800D0012038BD38B50C463C
:104A300005466B4601221221FFF742FF00280ED1E6
:104A400069460A78F7200240E000104308706B4680
:104A500001221221284600F0F8F9002800D0012098
:104A600038BD38B50C4605466B4601221421FFF7C8
:104A700027FF00280DD1694608786B46C006C00E96
:104A80002043087001221421284600F0DEF9002896
:104A900000D0012038BD38B50C4605466B460122D2
:104AA0001121FFF70DFF00280ED169460A78BF20BB
:104AB0000240A001104308706B46012211212846D4
:104AC00000F0C3F9002800D0012038BD38B50C46ED
:104AD00005466B4601221421FFF7F2FE00280DD196
:104AE000694608786B46400940012043087001225E
:104AF0001421284600F0A9F9002800D0012038BD73
:104B000038B50C4605466B4601221121FFF7D8FE49
:104B100000280ED169460A78DF2002406001104368
:104B200008706B4601221121284600F08EF90028FA
:104B300000D0012038BD38B50C4605466B46012231
:104B40001021FFF7BDFE00280ED169460A78F72034
:104B50000240E000104308706B46012210212846F5
:104B600000F073F9002800D0012038BD38B50C469C
:104B700005466B4601221021FFF7A2FE00280ED148
:104B800068460178FB2001402143684601706B466E
:104B900001221021284600F058F9002800D00120F9
:104BA00038BD00007F20C005814209DD06488142F2
:104BB00006DD0648814203DD0548814200DD0548E7
:104BC0005060002070470000000020410000C841F4
:104BD000000048420000964270B505467F20C0059F
:104BE0001446814201DC10210FE00E48814201DCB5
:104BF00020210AE00C48814201DC302105E00B480D
:104C0000814201DC402100E05021284600F051F8AB
:104C1000012806D0211D2846FFF74EFD012800D0AF
:104C2000002070BD000020410000C8410000484243
:104C300000B50B0002F0D3FB0504070B0D0F1100AC
:104C40007F20C00500E006485060002000BD0548F8
:104C5000FAE70548F8E70548F6E7012000BD00003F
:104C6000000020410000C841000048420000964278
:104C700070B5144605460B0002F0B1FB05040608AA
:104C80000A0C1900102106E0202104E0302102E086
:104C9000402100E0502100F00CF8012806D0211D31
:104CA0002846FFF709FD012800D0002070BD012033
:104CB00070BD38B50C4605466B4601221021FFF742
:104CC000FFFD00280ED1684601788F200140214366
:104CD000684601706B4601221021284600F0B5F8A5
:104CE000002800D0012038BD38B50C4605466B467B
:104CF00001221A21FFF7E4FD00280DD1694608784A
:104D00006B46400840002043087001221A212846C3
:104D100000F09BF8002800D0012038BD10B5FFF747
:104D200077FB10BD70B50546806800680468207880
:104D3000002804D1284600F038F8012802D00020CD
:104D40006070E87070BD38B50C466946FFF746FCE8
:104D5000012803D0684600782070002038BD10B5C7
:104D6000FFF7AAFC10BD10B5FFF744FD10BD10B54C
:104D7000FFF76CFD10BD70B50546806800680468DB
:104D80002078002805D121462846FFF767FD012835
:104D900003D001206070E870002070BD10B5FFF7EF
:104DA000A7FD012800D0002010BD70B50446806822
:104DB00000680568207900280BD0A878002805D164
:104DC00000212046FFF775FF012802D00020E8707F
:104DD000207170BD70B50546806800680468287948
:104DE000012809D0224628466168FFF7F5FE012810
:104DF00003D00120E0702871002070BD10B58268DA
:104E000003791268012B126805D0FFF711FF012802
:104E100000D0002010BDFFF72BFFF8E710B5826827
:104E200003791268012B126805D0FFF7BBFE012839
:104E300000D0002010BDFFF7CFFEF8E710B500F05E
:104E40001CF8012800D0002010BDFFB581B01E461F
:104E500015460F4600240CE03819C1B2321901235F
:104E6000019801F033FE002802D0012005B0F0BD0A
:104E7000641CAC42F0DB0020F8E707B502AB01226E
:104E8000FFF7E3FF012800D000200EBDFF22013212
:104E9000811A90420CD009DC08280DD008DC0128CA
:104EA00008D0022806D0042802D105E00F22120201
:104EB00007207047052070470620704770470000A4
:104EC00010B592B0694610A803F070F9184C00288C
:104ED0000AD1684683784278017816A001F092FFE3
:104EE00068460078A12819D0FBF75CF9CF21FBF7C1
:104EF00015F9303121701849A02003F0A5FCFBF70B
:104F000051F91649FBF70AF915480918154801F037
:104F1000EBFE144801F0FAFE12B010BD684680782E
:104F20002070104801F02CFF0F4901200870F3E7B2
:104F3000750100206D736720747970653A202558DB
:104F40002C206C656E6774683A2025782C204944C3
:104F50003A202578200D0A007801002030750000E5
:104F6000881300007419002077010020F8B504466A
:104F70000C481D46406B16460F4680470A4920796B
:104F8000087033463A4621460848009503F0DCFA9B
:104F9000010002D006A001F035FF09490720087082
:104FA000F8BD0000808A00087401002078160020F7
:104FB0004572726F7220636F64652025640D0A006C
:104FC0006201002010B50548406B8047044903206A
:104FD000087004A001F016FF10BD0000808A0008D0
:104FE000620100204F6E52784572726F720A0D0096
:104FF00010B50548406B804704490220087004A0A2
:1050000001F000FF10BD0000808A0008620100204E
:105010004F6E527854696D656F75740A0D0000000B
:1050200010B50548406B804704490620087004A06D
:1050300001F0E8FE10BD0000808A00086201002037
:1050400020202020202020204F6E5478446F6E6551
:105050000A0D000030B58BB00020FBF7F1FE0025F3
:10506000194C002809D119482946057001202070E3
:1050700017A001F0C7FE03F0A3F9207800281A4812
:1050800002D001F07DFE01E001F040FE029504A88F
:105090000395FBF78DFF0598029006980390FBF7A8
:1050A000B3FB04460D460598FBF7AEFB02460B46E4
:1050B0000EA00195009401F0A5FE02A9C02003F006
:1050C000C3FB0BB030BD000076010020750100204D
:1050D0006B657920707265737365642E2049443A5C
:1050E0002564200D0A000000FC05002054656D7049
:1050F000203A20252E3166202020202048756D6919
:10510000203A20252E31662020200D0A0D0A0000AD
:1051100010B50548406B804704490520087004A07D
:1051200001F070FE10BD0000808A000862010020BE
:105130004F6E547854696D656F75740A0D000000E8
:1051400010B5024801F0E2FD10BD0000E4050020AA
:10515000704701090A2200075143000F4018C0B2EE
:1051600070470022014602E00A39C9B2521C0A29DE
:10517000FAD21007000E0843704770B50446006865
:10518000C168490613D40021C943C160FCF70EFB76
:105190007D260546F60006E0FCF708FB401BB04202
:1051A00001D9032070BD2068C0684006F4D50020F6
:1051B00070BD10B5FEF7F4FC10BD0000F0B51D4841
:1051C0008BB01B4901601C4981601C4941601C492E
:1051D000C1601C491C4D0161A968884769691B4869
:1051E000884700241A4806940126089005940794DD
:1051F000082002A9019651C1072000906F6A23463A
:1052000022460E213046B847079405200290082018
:1052100006940894099605960394049400940190CA
:10522000012307222C6A00211846A0470BB0F0BDCD
:1052300021500008140600206D4F0008115100088D
:10524000F14F0008C54F0008808A00080016D636C6
:10525000B80B000070B5092000F059FD0546062086
:1052600000F055FD0404072000F051FD0002044346
:10527000082000F04CFD0443200A0102184A611A7C
:10528000514380315043090A46180021092001F09A
:10529000CFFB3B2000F03BFD4024204301463B2058
:1052A00001F0C6FB3B2000F032FD8006FAD40D4829
:1052B00000F07CFE3B2000F02AFD204301463B200D
:1052C00001F0B6FB3B2000F022FD8006FAD429460F
:1052D000092001F0ADFB304600F068FE70BD000013
:1052E000093D000000A1BC3338B504464068FF23E7
:1052F00005332025984204D100920B4600228021DC
:1053000007E05120005D05280DD100920B460022D8
:105310000121204600F009F8002804D0606D2843E0
:105320006065032038BD002038BDF8B51D4617461E
:105330000E46044609E0681C07D0FCF737FA0699C8
:10534000401AA8420BD2002D09D02068816830464F
:1053500088432ED00020B842EDD10020F8BD20684F
:105360004168E022914341606068C11FFD390CD162
:105370000121A068C903884202D04911884204D1A2
:10538000206801684022914301600120A16A400326
:10539000814207D121680A6882430A6021680A684D
:1053A00002430A600120403460740020207403200E
:1053B000F8BD0120CFE77047014948607047000001
:1053C00000000020012070470E2801DD802070477A
:1053D0000020704701480079704700008C020020CF
:1053E000F3B5024600206D498BB0002A0BD0012A8C
:1053F0007ED10024486C2546072854D0082855D073
:10540000092858D155E06548C069FBF7A3F907465C
:1054100000910C98FBF79EF906900E46302000F0A4
:1054200076FC4007800F02D000245D4D01E000248F
:105430002546272000F06BFC58494007400F098C97
:10544000401C4018FBF786F9544A203209929278A2
:10545000012A21D00022524BFAF7AEFF22462B46FA
:10546000FAF7AAFF3346069AFAF7A6FF099A1279C5
:10547000012A14D000221346FAF79EFF0322FBF7FD
:105480002DF93A46009BFBF7B1F80022454BFBF79C
:1054900045F803F047F97DE000221346DCE70022DF
:1054A00001239B07E8E700243F4D04E000243F4D23
:1054B00001E03F4D00248F6C0120B840FBF736F926
:1054C00002460B4620462946FBF790F802460B465B
:1054D00000203349FBF78AF8304E044640360D462B
:1054E000F089FBF737F90022324BFAF765FF00E04D
:1054F00052E022462B46FBF711F807910890707B8B
:10550000001DFBF727F905910690307B002800D09D
:105510000220381A8000FBF71DF904900C980391C3
:10552000C000B900401AB17C09014018317C002943
:1055300000D01421401A1C30FBF70CF9039B049A8D
:10554000FBF754F802F010FC059B069AFAF7E6FF09
:10555000002207460E461346FBF76AF902D2384688
:10556000314601E0002001460022134BFAF724FFE8
:1055700022462B46FAF7D2FF079B089AFAF71CFF40
:105580000022084BFAF7CAFF0C4A0D4BFAF714FF3A
:1055900002F00CFDFBF71AF90DB0F0BD8C020020F3
:1055A0000000F03F00408F408084FE4080840E4128
:1055B00080841E4100001140000020402B8716D936
:1055C000CEF7EF3F0520704710B5034840684068AC
:1055D0008047801C10BD000000000020F8B51E4D63
:1055E0001E4928601E4801F012FB1D481B49183057
:1055F00001F00DFB1A481949303001F008FB6868CA
:1056000001680120884700F0D5FBFFF723FE00204A
:1056100000F046FD68688168284608308847114ECA
:10562000002460002718F05D00F000FDB8198178B3
:10563000407801F0FDF9641CE4B2102CF1D3002095
:1056400000F0F4FC06490020683908716868406879
:105650008047801CF8BD000000000020095C0008A5
:10566000F4020020A089000810B586B01421684615
:10567000FAF7C3FD0D48019002200D4C02906A46D6
:1056800010212046FEF712F96A4602212046FEF755
:105690000DF96A4601212046FEF708F901216A4604
:1056A00049030448FEF702F906B010BD00001110CE
:1056B000000400500008005010B586B01421684660
:1056C000FAF79BFD1548FFF777FE15480190022079
:1056D00002900320134C03906A4610212046FEF7E7
:1056E000E5F86A4602212046FEF7E0F86A46012105
:1056F0002046FEF7DBF801216A4649030A48FEF717
:10570000D5F8012001900020029005206A46202152
:105710000007FEF7CBF806B010BD00001C0100200A
:1057200000001110000400500008005070B50E4D2C
:1057300004460368002210212846FEF7EFF80022F5
:10574000022128466368FEF7E9F800220121284675
:10575000A368FEF7E3F80121002249030348E36848
:10576000FEF7DCF870BD0000000400500008005097
:10577000FFB516480124007981B01D4617460E4634
:10578000002802D0002005B0F0BD019800F04EFCCA
:10579000304600F00BFC052000F082FC0120FBF7F6
:1057A0001DFF01F01FFA064606E0019800F0E0FA3E
:1057B000B84201DD002404E0304601F019FAA842A5
:1057C000F3D300F045FF2046DDE700008C02002007
:1057D000F8B5002568460570894C2079012809D064
:1057E000022857D12046683001F0CAFA60790128B2
:1057F0007ED1F7E06079002818D001284AD14021F5
:10580000122001F015F9122000F081FA69460870A3
:1058100008787B4E8006403600286ADA2021122064
:1058200001F006F9B07D002876D083E0744E203672
:105830003079012835D13F2000F069FA69460870B7
:10584000087880072DD40B213E2001F0F1F81021BB
:105850003F2001F0EDF83046603001F091FAB07968
:10586000002818D00D2000F052FA402101430D20ED
:1058700001F0DEF83046783001F048FA61480068FF
:10588000002803D00069002800D080473574757463
:10589000A5876587F8BD5A48983001F071FA2571DF
:1058A000ECE7618F584F00290AD1A08F002807D15B
:1058B000B078002831D0322000F029FA6087618F5B
:1058C000A08F091AC9B2C01900F04AFA608FA087E8
:1058D0004B48803001F054FAB079002823D00D20D5
:1058E00000F015FA402101430D2001F0A1F801E07C
:1058F0007CE029E04248983001F008FA414800680D
:105900000028C3D08768002FC0D01222B256618F02
:1059100000233D48B847B9E70BE0394801213A3048
:1059200000F01EFACBE736482571983001F028FACE
:10593000E4E725713248803001F022FA31480068EE
:105940000028A7D0006957E0192000F0E0F940B224
:105950002B4F801C8010603738701A2000F0D7F968
:1059600000217956294A00290BDAA368934203D90A
:10597000091800119D3802E009180011A438081810
:1059800009E0A168914203D9011108189D3802E08D
:1059900001110818A4387084132000F0B8F9387188
:1059A000102000F0B4F901460D2001F041F83979DA
:1059B000154800F0D5F9B07D002800D125711048B8
:1059C000803001F0DDF90F4800680028B9D0846804
:1059D000002CB6D000232222FB56B25E39790A4849
:1059E000A047F8BD0821122001F022F805482571D2
:1059F00000680028F5D000680028F2D08047F8BD84
:105A00008C020020000000208C01002040DD4A1F95
:105A100070B5324C25462179E61F6879F93E20356C
:105A2000012911D0022925D1002823D1618FA08F0F
:105A300033460A1AE97FC0188A424ADD01F01FF88E
:105A4000A08FE97F401842E0002814D0012811D12E
:105A50002248803001F094F98021122000F0E8FF04
:105A6000002020711E480068002803D0C06800286C
:105A700000D0804770BD1948983001F081F9608FDF
:105A8000002809D1A08F002806D1A878002813D0BB
:105A9000322000F03CF96087618FA08FAA7F091A3D
:105AA00091420FDB521ED1B2801900F059F9A08F3C
:105AB000A97F4018401E0AE0084801213A3000F052
:105AC0004FF9E9E7C9B2801900F04AF904E0A0876C
:105AD00070BDD1B200F0D3FF608FF8E78C020020D8
